{
  "contractName": "EsusuAdapterWithdrawalDelegate",
  "abi": [
    {
      "inputs": [
        {
          "internalType": "address payable",
          "name": "serviceContract",
          "type": "address"
        },
        {
          "internalType": "address",
          "name": "esusuStorageContract",
          "type": "address"
        },
        {
          "internalType": "address",
          "name": "esusuAdapterContract",
          "type": "address"
        },
        {
          "internalType": "string",
          "name": "feeRuleKey",
          "type": "string"
        },
        {
          "internalType": "address",
          "name": "treasuryContract",
          "type": "address"
        },
        {
          "internalType": "address",
          "name": "rewardConfigContract",
          "type": "address"
        },
        {
          "internalType": "address",
          "name": "xendTokenContract",
          "type": "address"
        },
        {
          "internalType": "address",
          "name": "savingsConfigContract",
          "type": "address"
        }
      ],
      "stateMutability": "nonpayable",
      "type": "constructor"
    },
    {
      "anonymous": false,
      "inputs": [
        {
          "indexed": false,
          "internalType": "uint256",
          "name": "date",
          "type": "uint256"
        },
        {
          "indexed": true,
          "internalType": "address",
          "name": "member",
          "type": "address"
        },
        {
          "indexed": false,
          "internalType": "uint256",
          "name": "cycleId",
          "type": "uint256"
        },
        {
          "indexed": false,
          "internalType": "uint256",
          "name": "amount",
          "type": "uint256"
        }
      ],
      "name": "CapitalWithdrawalEvent",
      "type": "event"
    },
    {
      "anonymous": false,
      "inputs": [
        {
          "indexed": false,
          "internalType": "uint256",
          "name": "date",
          "type": "uint256"
        },
        {
          "indexed": false,
          "internalType": "address",
          "name": "owner",
          "type": "address"
        },
        {
          "indexed": false,
          "internalType": "string",
          "name": "reason",
          "type": "string"
        }
      ],
      "name": "DepricateContractEvent",
      "type": "event"
    },
    {
      "anonymous": false,
      "inputs": [
        {
          "indexed": false,
          "internalType": "uint256",
          "name": "date",
          "type": "uint256"
        },
        {
          "indexed": true,
          "internalType": "address",
          "name": "member",
          "type": "address"
        },
        {
          "indexed": false,
          "internalType": "uint256",
          "name": "cycleId",
          "type": "uint256"
        },
        {
          "indexed": false,
          "internalType": "uint256",
          "name": "amount",
          "type": "uint256"
        }
      ],
      "name": "ROIWithdrawalEvent",
      "type": "event"
    },
    {
      "anonymous": false,
      "inputs": [
        {
          "indexed": false,
          "internalType": "uint256",
          "name": "date",
          "type": "uint256"
        },
        {
          "indexed": true,
          "internalType": "address",
          "name": "member",
          "type": "address"
        },
        {
          "indexed": false,
          "internalType": "uint256",
          "name": "cycleId",
          "type": "uint256"
        },
        {
          "indexed": false,
          "internalType": "uint256",
          "name": "amount",
          "type": "uint256"
        }
      ],
      "name": "XendTokenReward",
      "type": "event"
    },
    {
      "inputs": [],
      "name": "owner",
      "outputs": [
        {
          "internalType": "address payable",
          "name": "",
          "type": "address"
        }
      ],
      "stateMutability": "view",
      "type": "function"
    },
    {
      "inputs": [],
      "name": "serviceContract",
      "outputs": [
        {
          "internalType": "address payable",
          "name": "",
          "type": "address"
        }
      ],
      "stateMutability": "view",
      "type": "function"
    },
    {
      "inputs": [
        {
          "internalType": "address payable",
          "name": "newServiceContract",
          "type": "address"
        }
      ],
      "name": "transferContractOwnership",
      "outputs": [],
      "stateMutability": "nonpayable",
      "type": "function"
    },
    {
      "inputs": [
        {
          "internalType": "address payable",
          "name": "newOwner",
          "type": "address"
        }
      ],
      "name": "transferOwnership",
      "outputs": [],
      "stateMutability": "nonpayable",
      "type": "function"
    },
    {
      "inputs": [
        {
          "internalType": "address",
          "name": "daiLendingServiceContractAddress",
          "type": "address"
        }
      ],
      "name": "UpdateDaiLendingService",
      "outputs": [],
      "stateMutability": "nonpayable",
      "type": "function"
    },
    {
      "inputs": [
        {
          "internalType": "uint256",
          "name": "esusuCycleId",
          "type": "uint256"
        },
        {
          "internalType": "address",
          "name": "member",
          "type": "address"
        }
      ],
      "name": "WithdrawCapitalFromEsusuCycle",
      "outputs": [],
      "stateMutability": "nonpayable",
      "type": "function"
    },
    {
      "inputs": [
        {
          "internalType": "uint256",
          "name": "esusuCycleId",
          "type": "uint256"
        },
        {
          "internalType": "address",
          "name": "member",
          "type": "address"
        }
      ],
      "name": "WithdrawROIFromEsusuCycle",
      "outputs": [],
      "stateMutability": "nonpayable",
      "type": "function"
    },
    {
      "inputs": [
        {
          "internalType": "uint256",
          "name": "esusuCycleId",
          "type": "uint256"
        },
        {
          "internalType": "address",
          "name": "member",
          "type": "address"
        }
      ],
      "name": "IsMemberEligibleToWithdrawROI",
      "outputs": [
        {
          "internalType": "bool",
          "name": "",
          "type": "bool"
        }
      ],
      "stateMutability": "view",
      "type": "function"
    },
    {
      "inputs": [
        {
          "internalType": "uint256",
          "name": "esusuCycleId",
          "type": "uint256"
        },
        {
          "internalType": "address",
          "name": "member",
          "type": "address"
        }
      ],
      "name": "IsMemberEligibleToWithdrawCapital",
      "outputs": [
        {
          "internalType": "bool",
          "name": "",
          "type": "bool"
        }
      ],
      "stateMutability": "view",
      "type": "function"
    },
    {
      "inputs": [
        {
          "internalType": "string",
          "name": "reason",
          "type": "string"
        }
      ],
      "name": "DepricateContract",
      "outputs": [],
      "stateMutability": "nonpayable",
      "type": "function"
    }
  ],
  "bytecode": "0x608060405260098054600160a060020a03199081167395b58a6bff3d14b7db2f5cb5f0ad413dc294065817909155600a8054909116735592ec0cfb4dbc12d3ab100b257153436a1f0fea179055600b805460a060020a60ff021916740100000000000000000000000000000000000000001790553480156200008057600080fd5b5060405162003460380380620034608339818101604052610100811015620000a757600080fd5b815160208301516040808501516060860180519251949693959194939182019284640100000000821115620000db57600080fd5b908301906020820185811115620000f157600080fd5b82516401000000008111828201881017156200010c57600080fd5b82525081516020918201929091019080838360005b838110156200013b57818101518382015260200162000121565b50505050905090810190601f168015620001695780820380516001836020036101000a031916815260200191505b5060409081526020828101519183015160608401516080909401516000805433600160a060020a031991821617909155600180548216600160a060020a038e8116919091179091556007805483168d831617905560088054909216908b16179055875193965090945091620001e591600691908801906200023f565b5060028054600160a060020a03958616600160a060020a031991821617909155600480549486169482169490941790935560058054928516928416929092179091556003805491909316911617905550620002e492505050565b828054600181600116156101000203166002900490600052602060002090601f016020900481019282601f106200028257805160ff1916838001178555620002b2565b82800160010185558215620002b2579182015b82811115620002b257825182559160200191906001019062000295565b50620002c0929150620002c4565b5090565b620002e191905b80821115620002c05760008155600101620002cb565b90565b61316c80620002f46000396000f3fe608060405234801561001057600080fd5b50600436106100a25760003560e060020a90048063958efd1d1161006a578063958efd1d14610167578063a843c51f14610193578063b524e5e5146101b9578063cea07b1314610229578063f2fde38b14610255576100a2565b8063011966f9146100a75780631b2b00cb146100e7578063364dab101461010f57806353a86be5146101335780638da5cb5b1461015f575b600080fd5b6100d3600480360360408110156100bd57600080fd5b5080359060200135600160a060020a031661027b565b604080519115158252519081900360200190f35b61010d600480360360208110156100fd57600080fd5b5035600160a060020a03166102e1565b005b6101176103b0565b60408051600160a060020a039092168252519081900360200190f35b61010d6004803603604081101561014957600080fd5b5080359060200135600160a060020a03166103bf565b610117610f86565b61010d6004803603604081101561017d57600080fd5b5080359060200135600160a060020a0316610f95565b61010d600480360360208110156101a957600080fd5b5035600160a060020a0316611d4b565b61010d600480360360208110156101cf57600080fd5b8101906020810181356401000000008111156101ea57600080fd5b8201836020820111156101fc57600080fd5b8035906020019184600183028401116401000000008311171561021e57600080fd5b509092509050611deb565b6100d36004803603604081101561023f57600080fd5b5080359060200135600160a060020a0316611edf565b61010d6004803603602081101561026b57600080fd5b5035600160a060020a0316611f3c565b600b5460009060a060020a900460ff1615156001146102ce5760405160e560020a62461bcd0281526004018080602001828103825260388152602001806130a26038913960400191505060405180910390fd5b6102d88383611fc8565b90505b92915050565b600b5460a060020a900460ff1615156001146103315760405160e560020a62461bcd0281526004018080602001828103825260388152602001806130a26038913960400191505060405180910390fd5b600054600160a060020a03163314610381576040805160e560020a62461bcd02815260206004820152601f6024820152600080516020613030833981519152604482015290519081900360640190fd5b600b805473ffffffffffffffffffffffffffffffffffffffff1916600160a060020a0392909216919091179055565b600154600160a060020a031681565b600b5460a060020a900460ff16151560011461040f5760405160e560020a62461bcd0281526004018080602001828103825260388152602001806130a26038913960400191505060405180910390fd5b600054600160a060020a03163314806104325750600154600160a060020a031633145b610474576040805160e560020a62461bcd02815260206004820152601f6024820152600080516020613030833981519152604482015290519081900360640190fd5b6000610480838361226b565b9050806104c15760405160e560020a62461bcd0281526004018080602001828103825260238152602001806131146023913960400191505060405180910390fd5b600754604080517f82da9fdf000000000000000000000000000000000000000000000000000000008152600481018690529051600092600160a060020a0316916382da9fdf916024808301926020929190829003018186803b15801561052657600080fd5b505afa15801561053a573d6000803e3d6000fd5b505050506040513d602081101561055057600080fd5b5051600b54604080517f77c7b8fc0000000000000000000000000000000000000000000000000000000081529051929350600092600160a060020a03909216916377c7b8fc91600480820192602092909190829003018186803b1580156105b657600080fd5b505afa1580156105ca573d6000803e3d6000fd5b505050506040513d60208110156105e057600080fd5b50519050600061060e670de0b6b3a7640000610602858563ffffffff61250516565b9063ffffffff61256116565b600754604080517fd17e1b02000000000000000000000000000000000000000000000000000000008152600481018a90529051929350889260009261074892600160a060020a039091169163d17e1b0291602480820192602092909190829003018186803b15801561067f57600080fd5b505afa158015610693573d6000803e3d6000fd5b505050506040513d60208110156106a957600080fd5b5051600754604080517fb4392797000000000000000000000000000000000000000000000000000000008152600481018d90529051600160a060020a039092169163b439279791602480820192602092909190829003018186803b15801561071057600080fd5b505afa158015610724573d6000803e3d6000fd5b505050506040513d602081101561073a57600080fd5b50519063ffffffff61250516565b9050600061075c428363ffffffff6125a316565b9050600061089e610891600760009054906101000a9004600160a060020a0316600160a060020a031663b02d1ddb8d6040518263ffffffff1660e060020a0281526004018082815260200191505060206040518083038186803b1580156107c257600080fd5b505afa1580156107d6573d6000803e3d6000fd5b505050506040513d60208110156107ec57600080fd5b8101908080519060200190929190505050600760009054906101000a9004600160a060020a0316600160a060020a031663f06c8bbd8e6040518263ffffffff1660e060020a0281526004018082815260200191505060206040518083038186803b15801561085957600080fd5b505afa15801561086d573d6000803e3d6000fd5b505050506040513d602081101561088357600080fd5b50519063ffffffff6125a316565b869063ffffffff6125a316565b905060006108b2828463ffffffff61256116565b600854604080517f89826132000000000000000000000000000000000000000000000000000000008152600481018c90529051929350600160a060020a039091169163898261329160248082019260009290919082900301818387803b15801561091b57600080fd5b505af115801561092f573d6000803e3d6000fd5b5050600a546040805160e060020a6370a08231028152306004820152905160009450600160a060020a0390921692506370a08231916024808301926020929190829003018186803b15801561098357600080fd5b505afa158015610997573d6000803e3d6000fd5b505050506040513d60208110156109ad57600080fd5b5051600b54604080517f593669aa0000000000000000000000000000000000000000000000000000000081529051929350600092600160a060020a039092169163593669aa91600480820192602092909190829003018186803b158015610a1357600080fd5b505afa158015610a27573d6000803e3d6000fd5b505050506040513d6020811015610a3d57600080fd5b5051600a546040805160e060020a63095ea7b3028152600160a060020a038085166004830152602482018f9052915193945091169163095ea7b3916044808201926020929091908290030181600087803b158015610a9a57600080fd5b505af1158015610aae573d6000803e3d6000fd5b505050506040513d6020811015610ac457600080fd5b5050600b54604080517f7057f92900000000000000000000000000000000000000000000000000000000815260048101869052602481018d90529051600160a060020a0390921691637057f9299160448082019260009290919082900301818387803b158015610b3357600080fd5b505af1158015610b47573d6000803e3d6000fd5b50505050610b56838d896125e5565b600a546040805160e060020a6370a082310281523060048201529051600092600160a060020a0316916370a08231916024808301926020929190829003018186803b158015610ba457600080fd5b505afa158015610bb8573d6000803e3d6000fd5b505050506040513d6020811015610bce57600080fd5b50519050808311610c135760405160e560020a62461bcd0281526004018080602001828103825260318152602001806130716031913960400191505060405180910390fd5b6000610c35610c28858463ffffffff6125a316565b8d9063ffffffff6125a316565b90506000610cd26001600760009054906101000a9004600160a060020a0316600160a060020a031663d17e1b028d6040518263ffffffff1660e060020a0281526004018082815260200191505060206040518083038186803b158015610c9a57600080fd5b505afa158015610cae573d6000803e3d6000fd5b505050506040513d6020811015610cc457600080fd5b50519063ffffffff61298316565b600754604080517f11cbe90d000000000000000000000000000000000000000000000000000000008152600481018e90529051929350600160a060020a03909116916311cbe90d91602480820192602092909190829003018186803b158015610d3a57600080fd5b505afa158015610d4e573d6000803e3d6000fd5b505050506040513d6020811015610d6457600080fd5b5051421115610dda57600754600160a060020a031663bce7c9528b60026040518363ffffffff1660e060020a0281526004018083815260200182815260200192505050600060405180830381600087803b158015610dc157600080fd5b505af1158015610dd5573d6000803e3d6000fd5b505050505b600754604080517f5c0615a8000000000000000000000000000000000000000000000000000000008152600481018d905260248101859052604481018490529051600160a060020a0390921691635c0615a89160648082019260009290919082900301818387803b158015610e4e57600080fd5b505af1158015610e62573d6000803e3d6000fd5b5050600a546008546040805160e060020a6370a082310281523060048201529051600160a060020a03938416955063a9059cbb9450929091169184916370a08231916024808301926020929190829003018186803b158015610ec357600080fd5b505afa158015610ed7573d6000803e3d6000fd5b505050506040513d6020811015610eed57600080fd5b50516040805160e060020a63ffffffff8616028152600160a060020a03909316600484015260248301919091525160448083019260209291908290030181600087803b158015610f3c57600080fd5b505af1158015610f50573d6000803e3d6000fd5b505050506040513d6020811015610f6657600080fd5b50610f7490508f878c6129e0565b50505050505050505050505050505050565b600054600160a060020a031681565b600b5460a060020a900460ff161515600114610fe55760405160e560020a62461bcd0281526004018080602001828103825260388152602001806130a26038913960400191505060405180910390fd5b600054600160a060020a03163314806110085750600154600160a060020a031633145b61104a576040805160e560020a62461bcd02815260206004820152601f6024820152600080516020613030833981519152604482015290519081900360640190fd5b6000806000806000600760009054906101000a9004600160a060020a0316600160a060020a031663299c8817886040518263ffffffff1660e060020a0281526004018082815260200191505060a06040518083038186803b1580156110ae57600080fd5b505afa1580156110c2573d6000803e3d6000fd5b505050506040513d60a08110156110d857600080fd5b508051602082015160408301516060840151608090940151929850909650945090925090506111078787611fc8565b61111057600080fd5b600754604080517f82da9fdf000000000000000000000000000000000000000000000000000000008152600481018a90529051600092600160a060020a0316916382da9fdf916024808301926020929190829003018186803b15801561117557600080fd5b505afa158015611189573d6000803e3d6000fd5b505050506040513d602081101561119f57600080fd5b5051600854604080517f89826132000000000000000000000000000000000000000000000000000000008152600481018490529051929350600160a060020a039091169163898261329160248082019260009290919082900301818387803b15801561120a57600080fd5b505af115801561121e573d6000803e3d6000fd5b5050600a546040805160e060020a6370a08231028152306004820152905160009450600160a060020a0390921692506370a08231916024808301926020929190829003018186803b15801561127257600080fd5b505afa158015611286573d6000803e3d6000fd5b505050506040513d602081101561129c57600080fd5b5051600b54604080517f593669aa0000000000000000000000000000000000000000000000000000000081529051929350600092600160a060020a039092169163593669aa91600480820192602092909190829003018186803b15801561130257600080fd5b505afa158015611316573d6000803e3d6000fd5b505050506040513d602081101561132c57600080fd5b5051600a546040805160e060020a63095ea7b3028152600160a060020a03808516600483015260248201889052915193945091169163095ea7b3916044808201926020929091908290030181600087803b15801561138957600080fd5b505af115801561139d573d6000803e3d6000fd5b505050506040513d60208110156113b357600080fd5b5050600b54604080517f7057f929000000000000000000000000000000000000000000000000000000008152600481018a9052602481018690529051600160a060020a0390921691637057f9299160448082019260009290919082900301818387803b15801561142257600080fd5b505af1158015611436573d6000803e3d6000fd5b5050600954604080517fa9059cbb000000000000000000000000000000000000000000000000000000008152600160a060020a038e81166004830152602482018d9052915191909216935063a9059cbb925060448083019260209291908290030181600087803b1580156114a957600080fd5b505af11580156114bd573d6000803e3d6000fd5b505050506040513d60208110156114d357600080fd5b5050600754604080517f11cbe90d000000000000000000000000000000000000000000000000000000008152600481018d9052905161156f92600160a060020a0316916311cbe90d916024808301926020929190829003018186803b15801561153b57600080fd5b505afa15801561154f573d6000803e3d6000fd5b505050506040513d602081101561156557600080fd5b50518a898d612a31565b600a546040805160e060020a6370a082310281523060048201529051600092600160a060020a0316916370a08231916024808301926020929190829003018186803b1580156115bd57600080fd5b505afa1580156115d1573d6000803e3d6000fd5b505050506040513d60208110156115e757600080fd5b5051905080831161162c5760405160e560020a62461bcd0281526004018080602001828103825260318152602001806130716031913960400191505060405180910390fd5b6000611641610891858463ffffffff6125a316565b9050600760009054906101000a9004600160a060020a0316600160a060020a03166337ddff4b8d8d6040518363ffffffff1660e060020a0281526004018083815260200182600160a060020a0316600160a060020a0316815260200192505050600060405180830381600087803b1580156116bb57600080fd5b505af11580156116cf573d6000803e3d6000fd5b5050600754604080517fb02d1ddb000000000000000000000000000000000000000000000000000000008152600481018f905290516000945061173e93508d92600160a060020a03169163b02d1ddb916024808301926020929190829003018186803b158015610c9a57600080fd5b9050600760009054906101000a9004600160a060020a0316600160a060020a031663f06c8bbd8e6040518263ffffffff1660e060020a0281526004018082815260200191505060206040518083038186803b15801561179c57600080fd5b505afa1580156117b0573d6000803e3d6000fd5b505050506040513d60208110156117c657600080fd5b50518114801561185c5750600760009054906101000a9004600160a060020a0316600160a060020a031663d17e1b028e6040518263ffffffff1660e060020a0281526004018082815260200191505060206040518083038186803b15801561182d57600080fd5b505afa158015611841573d6000803e3d6000fd5b505050506040513d602081101561185757600080fd5b505188145b15611b5e57600754600160a060020a031663bce7c9528e60036040518363ffffffff1660e060020a0281526004018083815260200182815260200192505050600060405180830381600087803b1580156118b557600080fd5b505af11580156118c9573d6000803e3d6000fd5b5050600a546040805160e060020a63095ea7b3028152600160a060020a03898116600483015260248201889052915191909216935063095ea7b3925060448083019260209291908290030181600087803b15801561192657600080fd5b505af115801561193a573d6000803e3d6000fd5b505050506040513d602081101561195057600080fd5b5050600b54604080517f6583d12a000000000000000000000000000000000000000000000000000000008152600481018590529051600160a060020a0390921691636583d12a9160248082019260009290919082900301818387803b1580156119b857600080fd5b505af11580156119cc573d6000803e3d6000fd5b50506009546040805160e060020a6370a08231028152306004820152905160009450600160a060020a0390921692506370a08231916024808301926020929190829003018186803b158015611a2057600080fd5b505afa158015611a34573d6000803e3d6000fd5b505050506040513d6020811015611a4a57600080fd5b50516009546002546040805160e060020a63095ea7b3028152600160a060020a03928316600482015260248101859052905193945091169163095ea7b3916044808201926020929091908290030181600087803b158015611aaa57600080fd5b505af1158015611abe573d6000803e3d6000fd5b505050506040513d6020811015611ad457600080fd5b5050600254600954604080517f2fd55265000000000000000000000000000000000000000000000000000000008152600160a060020a03928316600482015290519190921691632fd5526591602480830192600092919082900301818387803b158015611b4057600080fd5b505af1158015611b54573d6000803e3d6000fd5b5050505050611c5f565b600a546008546040805160e060020a6370a082310281523060048201529051600160a060020a039384169363a9059cbb93169184916370a0823191602480820192602092909190829003018186803b158015611bb957600080fd5b505afa158015611bcd573d6000803e3d6000fd5b505050506040513d6020811015611be357600080fd5b50516040805160e060020a63ffffffff8616028152600160a060020a03909316600484015260248301919091525160448083019260209291908290030181600087803b158015611c3257600080fd5b505af1158015611c46573d6000803e3d6000fd5b505050506040513d6020811015611c5c57600080fd5b50505b600754604080517f3409b07e000000000000000000000000000000000000000000000000000000008152600481018e905260248101859052604481018490529051600160a060020a0390921691633409b07e9160648082019260009290919082900301818387803b158015611cd357600080fd5b505af1158015611ce7573d6000803e3d6000fd5b505050508b600160a060020a03167f952e4fb28355c133b029ac8c46a341c9e98d0627a8d5d1457f9b8c1dbf48b2ce428f8d60405180848152602001838152602001828152602001935050505060405180910390a250505050505050505050505050565b600054600160a060020a0316331480611d6e5750600154600160a060020a031633145b611db0576040805160e560020a62461bcd02815260206004820152601f6024820152600080516020613030833981519152604482015290519081900360640190fd5b600160a060020a03811615611de8576001805473ffffffffffffffffffffffffffffffffffffffff1916600160a060020a0383161790555b50565b600054600160a060020a03163314611e3b576040805160e560020a62461bcd02815260206004820152601f6024820152600080516020613030833981519152604482015290519081900360640190fd5b600b805474ff0000000000000000000000000000000000000000191690556000546040805142808252600160a060020a039093166020820181905260609282018381529282018590527f34f6afb880dfb6ca5debd2eae39ee5152e674d7f241d42a25525dc0824d5892193929091869186919060808201848480828437600083820152604051601f909101601f191690920182900397509095505050505050a15050565b600b5460009060a060020a900460ff161515600114611f325760405160e560020a62461bcd0281526004018080602001828103825260388152602001806130a26038913960400191505060405180910390fd5b6102d8838361226b565b600054600160a060020a03163314611f8c576040805160e560020a62461bcd02815260206004820152601f6024820152600080516020613030833981519152604482015290519081900360640190fd5b600160a060020a03811615611de85760008054600160a060020a03831673ffffffffffffffffffffffffffffffffffffffff1990911617905550565b600080600760009054906101000a9004600160a060020a0316600160a060020a031663ab30d5396040518163ffffffff1660e060020a02815260040160206040518083038186803b15801561201c57600080fd5b505afa158015612030573d6000803e3d6000fd5b505050506040513d602081101561204657600080fd5b5051905083158015906120595750808411155b6120975760405160e560020a62461bcd0281526004018080602001828103825260308152602001806130006030913960400191505060405180910390fd5b600754604080517f1942d571000000000000000000000000000000000000000000000000000000008152600481018790529051600092600160a060020a031691631942d571916024808301926020929190829003018186803b1580156120fc57600080fd5b505afa158015612110573d6000803e3d6000fd5b505050506040513d602081101561212657600080fd5b505190506002811461216c5760405160e560020a62461bcd02815260040180806020018281038252603a8152602001806130da603a913960400191505060405180910390fd5b6121768486612bea565b6121ca576040805160e560020a62461bcd02815260206004820152601b60248201527f4d656d626572206973206e6f7420696e2074686973206379636c650000000000604482015290519081900360640190fd5b6121d48486612c8e565b15156001146122175760405160e560020a62461bcd02815260040180806020018281038252603c815260200180612f79603c913960400191505060405180910390fd5b6122218486612d45565b156122605760405160e560020a62461bcd028152600401808060200182810382526023815260200180612fb56023913960400191505060405180910390fd5b506001949350505050565b600080600760009054906101000a9004600160a060020a0316600160a060020a031663ab30d5396040518163ffffffff1660e060020a02815260040160206040518083038186803b1580156122bf57600080fd5b505afa1580156122d3573d6000803e3d6000fd5b505050506040513d60208110156122e957600080fd5b5051905083158015906122fc5750808411155b61233a5760405160e560020a62461bcd0281526004018080602001828103825260308152602001806130006030913960400191505060405180910390fd5b600754604080517f1942d571000000000000000000000000000000000000000000000000000000008152600481018790529051600092600160a060020a031691631942d571916024808301926020929190829003018186803b15801561239f57600080fd5b505afa1580156123b3573d6000803e3d6000fd5b505050506040513d60208110156123c957600080fd5b5051905060018114806123dc5750600281145b61241a5760405160e560020a62461bcd028152600401808060200182810382526028815260200180612fd86028913960400191505060405180910390fd5b6124248486612bea565b612478576040805160e560020a62461bcd02815260206004820152601b60248201527f4d656d626572206973206e6f7420696e2074686973206379636c650000000000604482015290519081900360640190fd5b6124828486612c8e565b156124d7576040805160e560020a62461bcd02815260206004820152601f60248201527f4d656d62657220697320616c726561647920612062656e656669636961727900604482015290519081900360640190fd5b60006124e38686612db4565b9050804211156124f957600193505050506102db565b600093505050506102db565b600082612514575060006102db565b8282028284828161252157fe5b04146102d85760405160e560020a62461bcd0281526004018080602001828103825260218152602001806130506021913960400191505060405180910390fd5b60006102d883836040518060400160405280601a81526020017f536166654d6174683a206469766973696f6e206279207a65726f000000000000815250612e25565b60006102d883836040518060400160405280601e81526020017f536166654d6174683a207375627472616374696f6e206f766572666c6f770000815250612eca565b6003546040517f37f2a0240000000000000000000000000000000000000000000000000000000081526020600482019081526006805460026000196001831615610100020190911604602484018190526000948594859485948594600160a060020a03909416936337f2a024939192918291604490910190849080156126ac5780601f10612681576101008083540402835291602001916126ac565b820191906000526020600020905b81548152906001019060200180831161268f57829003601f168201915b50509250505060a060405180830381600087803b1580156126cc57600080fd5b505af11580156126e0573d6000803e3d6000fd5b505050506040513d60a08110156126f657600080fd5b5080516020820151604083015160608401516080909401519298509096509450909250905082600061272e8a8363ffffffff61256116565b905060006127428b8363ffffffff6125a316565b600754604080517fd5a532d5000000000000000000000000000000000000000000000000000000008152600481018d9052600160a060020a038e8116602483015260448201859052915193945091169163d5a532d59160648082019260009290919082900301818387803b1580156127b957600080fd5b505af11580156127cd573d6000803e3d6000fd5b5050600954604080517fa9059cbb000000000000000000000000000000000000000000000000000000008152600160a060020a038f8116600483015260248201879052915191909216935063a9059cbb925060448083019260209291908290030181600087803b15801561284057600080fd5b505af1158015612854573d6000803e3d6000fd5b505050506040513d602081101561286a57600080fd5b50506009546002546040805160e060020a63095ea7b3028152600160a060020a039283166004820152602481018690529051919092169163095ea7b39160448083019260209291908290030181600087803b1580156128c857600080fd5b505af11580156128dc573d6000803e3d6000fd5b505050506040513d60208110156128f257600080fd5b5050600254600954604080517f2fd55265000000000000000000000000000000000000000000000000000000008152600160a060020a03928316600482015290519190921691632fd5526591602480830192600092919082900301818387803b15801561295e57600080fd5b505af1158015612972573d6000803e3d6000fd5b505050505050505050505050505050565b6000828201838110156102d8576040805160e560020a62461bcd02815260206004820152601b60248201527f536166654d6174683a206164646974696f6e206f766572666c6f770000000000604482015290519081900360640190fd5b60408051428152602081018390528082018490529051600160a060020a038516917f66160dcf237407b8a107d6c0dc29d0fa5d8a70919bb8c4223dd8455f61ec4ec1919081900360600190a2505050565b60048054604080517fec50b2ff0000000000000000000000000000000000000000000000000000000081529283018790526024830185905251600092600160a060020a039092169163ec50b2ff916044808301926020929190829003018186803b158015612a9e57600080fd5b505afa158015612ab2573d6000803e3d6000fd5b505050506040513d6020811015612ac857600080fd5b5051600554604080517f40c10f19000000000000000000000000000000000000000000000000000000008152600160a060020a0388811660048301526024820185905291519394509116916340c10f199160448082019260009290919082900301818387803b158015612b3a57600080fd5b505af1158015612b4e573d6000803e3d6000fd5b5050600754604080517f8ea3cf24000000000000000000000000000000000000000000000000000000008152600160a060020a038981166004830152602482018790529151919092169350638ea3cf249250604480830192600092919082900301818387803b158015612bc057600080fd5b505af1158015612bd4573d6000803e3d6000fd5b50505050612be3848284612f27565b5050505050565b600754604080517f5e4f0ca9000000000000000000000000000000000000000000000000000000008152600160a060020a0385811660048301526024820185905291516000939290921691635e4f0ca991604480820192602092909190829003018186803b158015612c5b57600080fd5b505afa158015612c6f573d6000803e3d6000fd5b505050506040513d6020811015612c8557600080fd5b50519392505050565b600754604080517fca533a3a00000000000000000000000000000000000000000000000000000000815260048101849052600160a060020a03858116602483015291516000938493169163ca533a3a916044808301926020929190829003018186803b158015612cfd57600080fd5b505afa158015612d11573d6000803e3d6000fd5b505050506040513d6020811015612d2757600080fd5b505190508015612d3b5760019150506102db565b60009150506102db565b600754604080517f1a9db7a800000000000000000000000000000000000000000000000000000000815260048101849052600160a060020a038581166024830152915160009384931691631a9db7a8916044808301926020929190829003018186803b158015612cfd57600080fd5b600754604080517f879ddf2600000000000000000000000000000000000000000000000000000000815260048101859052600160a060020a0384811660248301529151600093929092169163879ddf2691604480820192602092909190829003018186803b158015612c5b57600080fd5b60008183612eb45760405160e560020a62461bcd0281526004018080602001828103825283818151815260200191508051906020019080838360005b83811015612e79578181015183820152602001612e61565b50505050905090810190601f168015612ea65780820380516001836020036101000a031916815260200191505b509250505060405180910390fd5b506000838581612ec057fe5b0495945050505050565b60008184841115612f1f5760405160e560020a62461bcd028152602060048201818152835160248401528351909283926044909101919085019080838360008315612e79578181015183820152602001612e61565b505050900390565b60408051428152602081018390528082018490529051600160a060020a038516917f192a7cc4e5e8c504fa8677e013107001b12a31c69d13f38d745ab8346fa11519919081900360600190a250505056fe4d656d626572206d75737420626520612062656e6566696369617279206265666f726520796f752063616e207769746864726177206361706974616c4d656d6265722063616e2774207769746864726177206361706974616c2074776963654379636c65206d75737420626520696e20616374697665206f7220657870697265642073746174654379636c65204944206d7573742062652077697468696e2076616c69642045737573754379636c6549642072616e6765556e617574686f72697a65642061636365737320746f20636f6e747261637400536166654d6174683a206d756c7469706c69636174696f6e206f766572666c6f777944616920736861726573206265666f7265207769746864726177616c206d7573742062652067726561746572202121215468697320636f6e747261637420697320646570726963617465642c20757365206e65772076657273696f6e206f6620636f6e74726163744379636c65206d75737420626520696e204578706972656420737461746520666f7220796f7520746f207769746864726177206361706974616c4d656d6265722063616e6e6f7420776974686472617720617420746869732074696d65a2646970667358221220a39046da935166db18152faccae7acd7cfbc21a82c61f20d2d98d8333b3478ac64736f6c63430006060033",
  "immutableReferences": {},
  "source": "pragma solidity >=0.6.6;\n\nimport \"../interfaces/IDaiToken.sol\";\nimport \"../interfaces/IYDaiToken.sol\";\nimport \"../interfaces/IDaiLendingService.sol\";\nimport \"./OwnableService.sol\";\nimport \"../interfaces/ITreasury.sol\";\nimport \"../interfaces/ISavingsConfig.sol\";\nimport \"../interfaces/ISavingsConfigSchema.sol\";\nimport \"../interfaces/IRewardConfig.sol\";\nimport \"../interfaces/IXendToken.sol\";\nimport \"./SafeMath.sol\";\nimport \"../interfaces/IEsusuStorage.sol\";\nimport \"../interfaces/IEsusuAdapter.sol\";\n\n\ncontract EsusuAdapterWithdrawalDelegate is OwnableService, ISavingsConfigSchema {\n\n        using SafeMath for uint256;\n\n        event ROIWithdrawalEvent\n        (\n            uint date,\n            address indexed member,\n            uint cycleId,\n            uint amount\n\n        );\n\n        event CapitalWithdrawalEvent\n        (\n            uint date,\n            address indexed member,\n            uint cycleId,\n            uint amount\n\n        );\n\n        event XendTokenReward (\n          uint date,\n          address indexed member,\n          uint cycleId,\n          uint amount\n          );\n\n        enum CycleStateEnum{\n            Idle,               // Cycle has just been created and members can join in this state\n            Active,             // Cycle has started and members can take their ROI\n            Expired,            // Cycle Duration has elapsed and members can withdraw their capital as well as ROI\n            Inactive            // Total beneficiaries is equal to Total members, so all members have withdrawn their Capital and ROI\n        }\n\n        event DepricateContractEvent(\n\n        uint date,\n        address owner,\n        string reason\n        );\n\n        ITreasury _treasuryContract;\n        ISavingsConfig _savingsConfigContract;\n        IRewardConfig _rewardConfigContract;\n        IXendToken  _xendTokenContract;\n        string _feeRuleKey;\n\n        IEsusuStorage _esusuStorage;\n        IEsusuAdapter _esusuAdapterContract;\n        IDaiToken _dai = IDaiToken(0x95b58a6Bff3D14B7DB2f5cb5F0Ad413DC2940658);\n        IYDaiToken _yDai = IYDaiToken(0x5592EC0cfb4dbc12D3aB100b257153436a1f0FEa);\n        IDaiLendingService _iDaiLendingService;\n        bool _isActive = true;\n\n\n        constructor(address payable serviceContract, address esusuStorageContract, address esusuAdapterContract,\n                    string memory feeRuleKey, address treasuryContract, address rewardConfigContract, address xendTokenContract, address savingsConfigContract)public OwnableService(serviceContract){\n\n            _esusuStorage = IEsusuStorage(esusuStorageContract);\n            _esusuAdapterContract = IEsusuAdapter(esusuAdapterContract);\n            _feeRuleKey = feeRuleKey;\n            _treasuryContract = ITreasury(treasuryContract);\n            _rewardConfigContract = IRewardConfig(rewardConfigContract);\n            _xendTokenContract = IXendToken(xendTokenContract);\n            _savingsConfigContract = ISavingsConfig(savingsConfigContract);\n\n        }\n\n        function UpdateDaiLendingService(address daiLendingServiceContractAddress) active onlyOwner external {\n            _iDaiLendingService = IDaiLendingService(daiLendingServiceContractAddress);\n        }\n\n        /*\n            This function allows members to withdraw their capital from the esusu cycle\n\n            - Check if member can withdraw capital\n            - Withdraw capital and increase TotalCapitalWithdrawn\n                - Get the total balanceShares from the calling contract\n                - Withdraw all the money from dai lending service\n                - Send the member's deposited amount to his/her address\n                - re-invest the remaining dai until all members have taken their capital, then we set the cycle inactive\n            - Reward member with Xend Tokens\n            - Add this member to the EsusuCycleCapitalMapping\n            - Check if TotalCapitalWithdrawn == TotalAmountDeposited && if TotalMembers == TotalBeneficiaries, if yes, set the Cycle to Inactive\n\n        */\n\n        function WithdrawCapitalFromEsusuCycle(uint esusuCycleId, address member) public active onlyOwnerAndServiceContract {\n\n        //  Get Esusu Cycle Basic information\n        (uint CycleId, uint DepositAmount, uint CycleState,uint TotalMembers,uint MaxMembers) = _esusuStorage.GetEsusuCycleBasicInformation(esusuCycleId);\n\n        require(_isMemberEligibleToWithdrawCapital(esusuCycleId,member));\n\n        //  Add member to capital withdrawn mapping\n\n        //  Get the current yDaiSharesPerCycle and call the WithdrawByShares function on the daiLending Service\n        uint yDaiSharesPerCycle = _esusuStorage.GetEsusuCycleTotalShares(esusuCycleId);\n\n\n        //  transfer yDaiShares from the adapter contract to here\n        _esusuAdapterContract.TransferYDaiSharesToWithdrawalDelegate(yDaiSharesPerCycle);\n\n        //  Get the yDaiSharesForContractBeforeWithdrawal\n        uint yDaiSharesForContractBeforeWithdrawal = _yDai.balanceOf(address(this));\n\n        //  Withdraw the Dai. At this point, we have withdrawn  Dai Capital deposited by this member for this cycle and we will now transfer the dai capital to the member\n        address daiLendingAdapterContractAddress = _iDaiLendingService.GetDaiLendingAdapterAddress();\n\n        _yDai.approve(daiLendingAdapterContractAddress,yDaiSharesPerCycle);\n\n        _iDaiLendingService.WithdrawByShares(DepositAmount,yDaiSharesPerCycle);\n\n        //  Now the Dai is in this contract, transfer it to the member\n        _dai.transfer(member, DepositAmount);\n\n        //  Reward member with Xend Tokens\n        _rewardMember(_esusuStorage.GetEsusuCycleDuration(esusuCycleId),member,DepositAmount, esusuCycleId);\n\n        //  Get the yDaiSharesForContractAfterWithdrawal\n        uint yDaiSharesForContractAfterWithdrawal = _yDai.balanceOf(address(this));\n\n        require(yDaiSharesForContractBeforeWithdrawal > yDaiSharesForContractAfterWithdrawal, \"yDai shares before withdrawal must be greater !!!\");\n\n        //  Update the total balanceShares for this cycle\n        uint cycleTotalShares = yDaiSharesPerCycle.sub(yDaiSharesForContractBeforeWithdrawal.sub(yDaiSharesForContractAfterWithdrawal));\n\n        //  Add this member to the CycleToMemberWithdrawnCapitalMapping\n\n        //  Create Member Capital Mapping\n        _esusuStorage.CreateMemberCapitalMapping(esusuCycleId,member);\n\n        //  Increase total capital withdrawn\n        uint TotalCapitalWithdrawnInCycle = _esusuStorage.GetEsusuCycleTotalCapitalWithdrawn(CycleId).add(DepositAmount);\n\n        //   Check if TotalCapitalWithdrawn == TotalAmountDeposited && if TotalMembers == TotalBeneficiaries, if yes, set the Cycle to Inactive\n\n        if(TotalCapitalWithdrawnInCycle == _esusuStorage.GetEsusuCycleTotalAmountDeposited(esusuCycleId) && TotalMembers == _esusuStorage.GetEsusuCycleTotalBeneficiaries(esusuCycleId)){\n\n            _esusuStorage.UpdateEsusuCycleState(esusuCycleId, uint(CycleStateEnum.Inactive));\n\n            //  Since this cycle is inactive, send whatever Total shares Dai equivalent that is left to our treasury contract\n\n            //  Withdraw DAI equivalent fof TotalShares\n\n            _yDai.approve(daiLendingAdapterContractAddress,cycleTotalShares);\n            _iDaiLendingService.WithdrawBySharesOnly(cycleTotalShares);\n\n\n            //  Now the Dai is in this contract, transfer it to the treasury contract\n            uint balance = _dai.balanceOf(address(this));\n            _dai.approve(address(_treasuryContract),balance);\n            _treasuryContract.depositToken(address(_dai));\n\n        }else{\n\n            //  Since we have not withdrawn all the capital, then Send the yDai shares back to the adapter contract,\n            //  this contract should not hold any coins\n            _yDai.transfer(address(_esusuAdapterContract),_yDai.balanceOf(address(this)));\n\n        }\n\n        //  Update Esusu Cycle Information For Capital Withdrawal\n        _esusuStorage.UpdateEsusuCycleDuringCapitalWithdrawal(CycleId, cycleTotalShares,TotalCapitalWithdrawnInCycle);\n\n        //  emit event\n        emit CapitalWithdrawalEvent(now, member, esusuCycleId,DepositAmount);\n\n    }\n\n      /*\n        Assumption:\n        - We assume even distribution of Overall accumulated ROI among members of the group when a member places a withdrawal request at a time inverval\n          greater than members in the previous position who have not placed a withdrawal request.\n\n        This function sends all ROI generated within an Esusu Cycle Payout Interval to a particular member\n\n        - Check if member is eligible to withdraw\n        - Get the price per full share from Dai Lending Service\\\n        - Get overall DAI => yDai balanceShares * pricePerFullShare (NOTE: value is in 1e36)\n        - Get ROI => overall Dai - Total Deposited Dai in this esusu cycle\n        - Implement our derived equation to determine what ROI will be allocated to this member who is withdrawing\n        - Deduct fees from Member's ROI\n        - Equation Parameters\n            - Ta => Total available time in seconds\n            - Bt => Total Time Interval for beneficiaries in this cycle in seconds\n            - Tnow => Current Time in seconds\n            - T => Cycle PayoutIntervalSeconds\n            - Troi => Total accumulated ROI\n            - Mroi => Member ROI\n\n            Equations\n            - Bt = T * number of beneficiaries\n            - Ta = Tnow - Bt\n            - Troi = ((balanceShares * pricePerFullShare ) - TotalDeposited - TotalCapitalWithdrawn)\n            - Mroi = (Total accumulated ROI at Tnow) / (Ta)\n\n        NOTE: As members withdraw their funds, the yDai balanceShares will change and we will be updating the TotalShares with this new value\n        at all times till TotalShares becomes approximately zero when all amounts have been withdrawn including capital invested\n\n        - Track the yDai shares that belong to this cycle using the derived equation below for withdraw operation\n            - yDaiSharesPerCycle = Current yDai Shares in the cycle - Change in yDaiSharesForContract\n            - Change in yDaiSharesForContract = yDai.balanceOf(address(this)) before withdraw operation - yDai.balanceOf(address(this)) after withdraw operation\n\n    */\n\n    function WithdrawROIFromEsusuCycle(uint esusuCycleId, address member)  public active onlyOwnerAndServiceContract {\n\n        bool isMemberEligibleToWithdraw = _isMemberEligibleToWithdrawROI(esusuCycleId,member);\n\n        require(isMemberEligibleToWithdraw, \"Member cannot withdraw at this time\");\n\n        uint currentBalanceShares = _esusuStorage.GetEsusuCycleTotalShares(esusuCycleId);\n\n        uint pricePerFullShare = _iDaiLendingService.getPricePerFullShare();\n\n        uint overallGrossDaiBalance = currentBalanceShares.mul(pricePerFullShare).div(1e18);\n\n        uint CycleId = esusuCycleId;\n        // address memberAddress = member;\n\n        //  Implement our derived equation to get the amount of Dai to transfer to the member as ROI\n        uint Bt = _esusuStorage.GetEsusuCyclePayoutInterval(esusuCycleId).mul(_esusuStorage.GetEsusuCycleTotalBeneficiaries(esusuCycleId));\n\n        uint Ta = now.sub(Bt);\n        uint Troi = overallGrossDaiBalance.sub(_esusuStorage.GetEsusuCycleTotalAmountDeposited(esusuCycleId).sub(_esusuStorage.GetEsusuCycleTotalCapitalWithdrawn(esusuCycleId)));\n\n        uint Mroi = Troi.div(Ta);\n\n        //  Get the current yDaiSharesPerCycle and call the WithdrawByShares function on the daiLending Service\n        // uint yDaiSharesPerCycle = currentBalanceShares;\n\n        //  transfer yDaiShares from the adapter contract to here\n        _esusuAdapterContract.TransferYDaiSharesToWithdrawalDelegate(currentBalanceShares);\n\n        //  Get the yDaiSharesForContractBeforeWithdrawal\n        uint yDaiSharesForContractBeforeWithdrawal = _yDai.balanceOf(address(this));\n\n        //  Withdraw the Dai. At this point, we have withdrawn the Dai ROI for this member and the dai ROI is in this contract, we will now transfer it to the member\n        address daiLendingAdapterContractAddress = _iDaiLendingService.GetDaiLendingAdapterAddress();\n\n        //  Before this function is called, we will have triggered a transfer of yDaiShares from the adapter to this withdrawal contract\n        _yDai.approve(daiLendingAdapterContractAddress,currentBalanceShares);\n        _iDaiLendingService.WithdrawByShares(Mroi,currentBalanceShares);\n\n\n        //  Now the Dai is in this contract, transfer the net ROI to the member and fee to treasury contract\n        sendROI(Mroi,member,CycleId);\n\n\n\n        //  Get the yDaiSharesForContractAfterWithdrawal\n        uint yDaiSharesForContractAfterWithdrawal = _yDai.balanceOf(address(this));\n\n        require(yDaiSharesForContractBeforeWithdrawal > yDaiSharesForContractAfterWithdrawal, \"yDai shares before withdrawal must be greater !!!\");\n\n        //  Update the total balanceShares for this cycle\n        uint totalShares = currentBalanceShares.sub(yDaiSharesForContractBeforeWithdrawal.sub(yDaiSharesForContractAfterWithdrawal));\n\n        //  Increase total number of beneficiaries by 1\n        uint totalBeneficiaries = _esusuStorage.GetEsusuCycleTotalBeneficiaries(CycleId).add(1);\n\n        /*\n\n            - Check whether the TotalCycleDuration has elapsed, if that is the case then this cycle has expired\n            - If cycle has expired then we move the left over yDai to treasury\n        */\n\n        if(now > _esusuStorage.GetEsusuCycleDuration(CycleId)){\n\n            _esusuStorage.UpdateEsusuCycleState(CycleId, uint(CycleStateEnum.Expired));\n        }\n\n        //  Update Esusu Cycle During ROI withdrawal\n        _esusuStorage.UpdateEsusuCycleDuringROIWithdrawal(CycleId, totalShares,totalBeneficiaries);\n\n        //  Send the yDai shares back to the adapter contract, this contract should not hold any coins\n        _yDai.transfer(address(_esusuAdapterContract),_yDai.balanceOf(address(this)));\n\n        //  emit event\n        _emitROIWithdrawalEvent(member,Mroi,CycleId);\n    }\n\n    /*\n        This gets the fee percentage from the fee contract, deducts the fee and sends to treasury contract\n\n        For now let us assume fee percentage is 0.1%\n        - Get the fee\n        - Send the net ROI in dai to member\n        - Send the fee to the treasury\n        - Add member to beneficiary mapping\n    */\n    function sendROI(uint Mroi, address memberAddress, uint esusuCycleId) internal{\n        //  get feeRate from fee contract\n\n        (uint minimum, uint maximum, uint exact, bool applies, RuleDefinition e)  = _savingsConfigContract.getRuleSet(_feeRuleKey);\n\n        uint feeRate = exact;\n        uint fee = Mroi.div(feeRate);\n\n        //  Deduct the fee\n        uint memberROINet = Mroi.sub(fee);\n\n         //  Add member to beneficiary mapping\n\n        _esusuStorage.CreateEsusuCycleToBeneficiaryMapping(esusuCycleId,memberAddress,memberROINet);\n\n        //  Send ROI to member\n        _dai.transfer(memberAddress, memberROINet);\n\n        //  Send deducted fee to treasury\n        //  Approve the treasury contract\n        _dai.approve(address(_treasuryContract),fee);\n        _treasuryContract.depositToken(address(_dai));\n\n    }\n\n        /*\n        This function checks whether the user can withdraw at the time at which the user is making this call\n\n        - Check if cycle is valid\n        - Check if cycle is in active state\n        - Check if member is in cycle\n        - Check if member is a beneficiary\n        - Calculate member withdrawal time\n        - Check if member can withdraw at this time\n    */\n    function IsMemberEligibleToWithdrawROI(uint esusuCycleId, address member) active public view returns(bool){\n\n        return _isMemberEligibleToWithdrawROI(esusuCycleId,member);\n\n    }\n\n    /*\n        This function checks whether the user can withdraw capital after the Esusu Cycle is complete.\n\n        The cycle must be in an inactive state before capital can be withdrawn\n    */\n    function IsMemberEligibleToWithdrawCapital(uint esusuCycleId, address member) active public view returns(bool){\n\n        return _isMemberEligibleToWithdrawCapital(esusuCycleId,member);\n\n    }\n\n    function _isMemberEligibleToWithdrawROI(uint esusuCycleId, address member) internal view returns(bool){\n\n        //  Get Current EsusuCycleId\n        uint currentEsusuCycleId = _esusuStorage.GetEsusuCycleId();\n\n        require(esusuCycleId > 0 && esusuCycleId <= currentEsusuCycleId, \"Cycle ID must be within valid EsusuCycleId range\");\n\n        uint cycleState = _esusuStorage.GetEsusuCycleState(esusuCycleId);\n\n\n        require(cycleState == uint(CycleStateEnum.Active) || cycleState == uint(CycleStateEnum.Expired), \"Cycle must be in active or expired state\");\n\n        require(_isMemberInCycle(member,esusuCycleId), \"Member is not in this cycle\");\n\n        require(_isMemberABeneficiaryInCycle(member,esusuCycleId) == false, \"Member is already a beneficiary\");\n\n        uint memberWithdrawalTime = _calculateMemberWithdrawalTime(esusuCycleId,member);\n\n        if(now > memberWithdrawalTime){\n            return true;\n\n        }else{\n            return false;\n        }\n\n    }\n\n    function _isMemberEligibleToWithdrawCapital(uint esusuCycleId, address member) internal view returns(bool){\n\n        //  Get Current EsusuCycleId\n        uint currentEsusuCycleId = _esusuStorage.GetEsusuCycleId();\n\n        require(esusuCycleId > 0 && esusuCycleId <= currentEsusuCycleId, \"Cycle ID must be within valid EsusuCycleId range\");\n\n        uint cycleState = _esusuStorage.GetEsusuCycleState(esusuCycleId);\n\n        require(cycleState == uint(CycleStateEnum.Expired), \"Cycle must be in Expired state for you to withdraw capital\");\n\n        require(_isMemberInCycle(member,esusuCycleId), \"Member is not in this cycle\");\n\n        require(_isMemberABeneficiaryInCycle(member,esusuCycleId) == true, \"Member must be a beneficiary before you can withdraw capital\");\n\n        require(_isMemberInWithdrawnCapitalMapping(member,esusuCycleId) == false, \"Member can't withdraw capital twice\");\n\n        return true;\n\n    }\n\n        function _isMemberInCycle(address memberAddress,uint esusuCycleId ) internal view returns(bool){\n\n        return _esusuStorage.IsMemberInCycle(memberAddress,esusuCycleId);\n    }\n\n    function _isMemberABeneficiaryInCycle(address memberAddress,uint esusuCycleId ) internal view returns(bool){\n\n        uint amount = _esusuStorage.GetMemberCycleToBeneficiaryMapping(esusuCycleId, memberAddress);\n\n        //  If member has received money from this cycle, the amount recieved should be greater than 0\n\n        if(amount > 0){\n\n            return true;\n        }else{\n            return false;\n        }\n    }\n\n    function _isMemberInWithdrawnCapitalMapping(address memberAddress,uint esusuCycleId ) internal view returns(bool){\n\n        uint amount = _esusuStorage.GetMemberWithdrawnCapitalInEsusuCycle(esusuCycleId, memberAddress);\n        //  If member has withdrawn capital from this cycle, the amount recieved should be greater than 0\n\n        if(amount > 0){\n\n            return true;\n        }else{\n            return false;\n        }\n    }\n\n    function _calculateMemberWithdrawalTime(uint cycleId, address member) internal view returns(uint){\n\n        return _esusuStorage.CalculateMemberWithdrawalTime(cycleId,member);\n    }\n\n        function _emitROIWithdrawalEvent(address member,uint Mroi, uint esusuCycleId) internal{\n\n        emit ROIWithdrawalEvent(now, member,esusuCycleId,Mroi);\n    }\n    function _emitXendTokenReward(address member, uint amount, uint esusuCycleId) internal {\n      emit XendTokenReward(now, member, esusuCycleId, amount);\n    }\n\n    function _rewardMember(uint totalCycleTime, address member, uint amount, uint esusuCycleId) internal {\n\n        uint reward = _rewardConfigContract.CalculateEsusuReward(totalCycleTime, amount);\n\n        // get Xend Token contract and mint token for member\n        _xendTokenContract.mint(payable(member), reward);\n\n        //  update the xend token reward for the member\n        _esusuStorage.UpdateMemberToXendTokeRewardMapping(member,reward);\n\n        _emitXendTokenReward(member, reward, esusuCycleId);\n    }\n\n    function DepricateContract(string calldata reason) external onlyOwner{\n        //  set _isActive to false\n        _isActive = false;\n\n        DepricateContractEvent(now, owner, reason);\n\n    }\n\n    modifier active(){\n        require(_isActive == true, \"This contract is depricated, use new version of contract\");\n        _;\n    }\n}\n",
  "sourcePath": "/Users/mac/Desktop/BinaryHiils/esusu/test/contracts/EsusuAdapterWithdrawalDelegate.sol",
  "compiler": {
    "name": "solc",
    "version": "0.6.6+commit.6c089d02.Emscripten.clang"
  },
  "schemaVersion": "3.3.2",
  "updatedAt": "2021-02-03T16:37:21.383Z",
  "devdoc": {
    "methods": {}
  },
  "userdoc": {
    "methods": {}
  }
}