{
  "contractName": "Groups",
  "abi": [
    {
      "inputs": [
        {
          "internalType": "address",
          "name": "oracle",
          "type": "address"
        }
      ],
      "name": "activateStorageOracle",
      "outputs": [],
      "stateMutability": "nonpayable",
      "type": "function"
    },
    {
      "inputs": [
        {
          "internalType": "address",
          "name": "oracle",
          "type": "address"
        }
      ],
      "name": "deactivateStorageOracle",
      "outputs": [],
      "stateMutability": "nonpayable",
      "type": "function"
    },
    {
      "inputs": [
        {
          "internalType": "address",
          "name": "newOracle",
          "type": "address"
        }
      ],
      "name": "reAssignStorageOracle",
      "outputs": [],
      "stateMutability": "nonpayable",
      "type": "function"
    },
    {
      "inputs": [
        {
          "internalType": "address payable",
          "name": "newOwner",
          "type": "address"
        }
      ],
      "name": "transferOwnership",
      "outputs": [],
      "stateMutability": "nonpayable",
      "type": "function"
    },
    {
      "inputs": [],
      "name": "getLengthOfTokenAddressesUsedInDeposit",
      "outputs": [
        {
          "internalType": "uint256",
          "name": "",
          "type": "uint256"
        }
      ],
      "stateMutability": "view",
      "type": "function"
    },
    {
      "inputs": [
        {
          "internalType": "address",
          "name": "tokenAddress",
          "type": "address"
        },
        {
          "internalType": "uint256",
          "name": "amount",
          "type": "uint256"
        }
      ],
      "name": "incrementTokenDeposit",
      "outputs": [
        {
          "internalType": "uint256",
          "name": "",
          "type": "uint256"
        }
      ],
      "stateMutability": "nonpayable",
      "type": "function"
    },
    {
      "inputs": [
        {
          "internalType": "address",
          "name": "tokenAddress",
          "type": "address"
        },
        {
          "internalType": "uint256",
          "name": "amount",
          "type": "uint256"
        }
      ],
      "name": "decrementTokenDeposit",
      "outputs": [
        {
          "internalType": "uint256",
          "name": "",
          "type": "uint256"
        }
      ],
      "stateMutability": "nonpayable",
      "type": "function"
    },
    {
      "inputs": [
        {
          "internalType": "address",
          "name": "tokenAddress",
          "type": "address"
        }
      ],
      "name": "getTokenDeposit",
      "outputs": [
        {
          "internalType": "uint256",
          "name": "",
          "type": "uint256"
        }
      ],
      "stateMutability": "view",
      "type": "function"
    },
    {
      "inputs": [
        {
          "internalType": "uint256",
          "name": "amount",
          "type": "uint256"
        }
      ],
      "name": "incrementEtherDeposit",
      "outputs": [
        {
          "internalType": "uint256",
          "name": "",
          "type": "uint256"
        }
      ],
      "stateMutability": "nonpayable",
      "type": "function"
    },
    {
      "inputs": [
        {
          "internalType": "uint256",
          "name": "amount",
          "type": "uint256"
        }
      ],
      "name": "decrementEtherDeposit",
      "outputs": [
        {
          "internalType": "uint256",
          "name": "",
          "type": "uint256"
        }
      ],
      "stateMutability": "nonpayable",
      "type": "function"
    },
    {
      "inputs": [],
      "name": "getEtherDeposit",
      "outputs": [
        {
          "internalType": "uint256",
          "name": "",
          "type": "uint256"
        }
      ],
      "stateMutability": "view",
      "type": "function"
    },
    {
      "inputs": [
        {
          "internalType": "address payable",
          "name": "depositor",
          "type": "address"
        }
      ],
      "name": "createMember",
      "outputs": [],
      "stateMutability": "nonpayable",
      "type": "function"
    },
    {
      "inputs": [
        {
          "internalType": "address",
          "name": "_address",
          "type": "address"
        }
      ],
      "name": "getMember",
      "outputs": [
        {
          "internalType": "address",
          "name": "",
          "type": "address"
        }
      ],
      "stateMutability": "view",
      "type": "function"
    },
    {
      "inputs": [
        {
          "internalType": "string",
          "name": "name",
          "type": "string"
        },
        {
          "internalType": "string",
          "name": "symbol",
          "type": "string"
        },
        {
          "internalType": "address",
          "name": "groupCreator",
          "type": "address"
        }
      ],
      "name": "createGroup",
      "outputs": [
        {
          "internalType": "uint256",
          "name": "",
          "type": "uint256"
        }
      ],
      "stateMutability": "nonpayable",
      "type": "function"
    },
    {
      "inputs": [
        {
          "internalType": "uint256",
          "name": "id",
          "type": "uint256"
        },
        {
          "internalType": "string",
          "name": "name",
          "type": "string"
        },
        {
          "internalType": "string",
          "name": "symbol",
          "type": "string"
        },
        {
          "internalType": "address payable",
          "name": "creatorAddress",
          "type": "address"
        }
      ],
      "name": "updateGroup",
      "outputs": [],
      "stateMutability": "nonpayable",
      "type": "function"
    },
    {
      "inputs": [
        {
          "internalType": "string",
          "name": "groupName",
          "type": "string"
        }
      ],
      "name": "doesGroupExist",
      "outputs": [
        {
          "internalType": "bool",
          "name": "",
          "type": "bool"
        }
      ],
      "stateMutability": "view",
      "type": "function"
    },
    {
      "inputs": [
        {
          "internalType": "uint256",
          "name": "groupId",
          "type": "uint256"
        }
      ],
      "name": "doesGroupExist",
      "outputs": [
        {
          "internalType": "bool",
          "name": "",
          "type": "bool"
        }
      ],
      "stateMutability": "view",
      "type": "function"
    },
    {
      "inputs": [
        {
          "internalType": "address",
          "name": "depositor",
          "type": "address"
        }
      ],
      "name": "doesMemberExist",
      "outputs": [
        {
          "internalType": "bool",
          "name": "",
          "type": "bool"
        }
      ],
      "stateMutability": "view",
      "type": "function"
    },
    {
      "inputs": [
        {
          "internalType": "uint256",
          "name": "groupId",
          "type": "uint256"
        },
        {
          "internalType": "address payable",
          "name": "depositor",
          "type": "address"
        }
      ],
      "name": "createGroupMember",
      "outputs": [],
      "stateMutability": "nonpayable",
      "type": "function"
    },
    {
      "inputs": [
        {
          "internalType": "uint256",
          "name": "index",
          "type": "uint256"
        }
      ],
      "name": "getGroupMember",
      "outputs": [
        {
          "internalType": "address payable",
          "name": "_address",
          "type": "address"
        },
        {
          "internalType": "uint256",
          "name": "groupId",
          "type": "uint256"
        }
      ],
      "stateMutability": "view",
      "type": "function"
    },
    {
      "inputs": [
        {
          "internalType": "uint256",
          "name": "groupId",
          "type": "uint256"
        },
        {
          "internalType": "address",
          "name": "depositor",
          "type": "address"
        }
      ],
      "name": "getGroupMembersDeepIndexer",
      "outputs": [
        {
          "internalType": "bool",
          "name": "exists",
          "type": "bool"
        },
        {
          "internalType": "uint256",
          "name": "index",
          "type": "uint256"
        }
      ],
      "stateMutability": "view",
      "type": "function"
    },
    {
      "inputs": [
        {
          "internalType": "uint256",
          "name": "groupId",
          "type": "uint256"
        }
      ],
      "name": "getRecordIndexLengthForGroupMembersIndexer",
      "outputs": [
        {
          "internalType": "uint256",
          "name": "",
          "type": "uint256"
        }
      ],
      "stateMutability": "view",
      "type": "function"
    },
    {
      "inputs": [
        {
          "internalType": "address",
          "name": "depositor",
          "type": "address"
        }
      ],
      "name": "getRecordIndexLengthForGroupMembersIndexerByDepositor",
      "outputs": [
        {
          "internalType": "uint256",
          "name": "",
          "type": "uint256"
        }
      ],
      "stateMutability": "view",
      "type": "function"
    },
    {
      "inputs": [
        {
          "internalType": "uint256",
          "name": "groupId",
          "type": "uint256"
        },
        {
          "internalType": "uint256",
          "name": "indexerLocation",
          "type": "uint256"
        }
      ],
      "name": "getGroupMembersIndexer",
      "outputs": [
        {
          "internalType": "bool",
          "name": "exist",
          "type": "bool"
        },
        {
          "internalType": "uint256",
          "name": "index",
          "type": "uint256"
        }
      ],
      "stateMutability": "view",
      "type": "function"
    },
    {
      "inputs": [
        {
          "internalType": "address",
          "name": "depositor",
          "type": "address"
        },
        {
          "internalType": "uint256",
          "name": "indexerLocation",
          "type": "uint256"
        }
      ],
      "name": "getGroupMembersIndexerByDepositor",
      "outputs": [
        {
          "internalType": "bool",
          "name": "exist",
          "type": "bool"
        },
        {
          "internalType": "uint256",
          "name": "index",
          "type": "uint256"
        }
      ],
      "stateMutability": "view",
      "type": "function"
    },
    {
      "inputs": [
        {
          "internalType": "uint256",
          "name": "groupId",
          "type": "uint256"
        },
        {
          "internalType": "address",
          "name": "depositor",
          "type": "address"
        }
      ],
      "name": "doesGroupMemberExist",
      "outputs": [
        {
          "internalType": "bool",
          "name": "",
          "type": "bool"
        }
      ],
      "stateMutability": "view",
      "type": "function"
    },
    {
      "inputs": [
        {
          "internalType": "uint256",
          "name": "groupId",
          "type": "uint256"
        }
      ],
      "name": "getGroupIndexer",
      "outputs": [
        {
          "internalType": "bool",
          "name": "exist",
          "type": "bool"
        },
        {
          "internalType": "uint256",
          "name": "index",
          "type": "uint256"
        }
      ],
      "stateMutability": "view",
      "type": "function"
    },
    {
      "inputs": [
        {
          "internalType": "address",
          "name": "groupCreator",
          "type": "address"
        }
      ],
      "name": "getRecordIndexLengthForCreator",
      "outputs": [
        {
          "internalType": "uint256",
          "name": "",
          "type": "uint256"
        }
      ],
      "stateMutability": "view",
      "type": "function"
    },
    {
      "inputs": [
        {
          "internalType": "address",
          "name": "groupCreator",
          "type": "address"
        },
        {
          "internalType": "uint256",
          "name": "indexerLocation",
          "type": "uint256"
        }
      ],
      "name": "getGroupForCreatorIndexer",
      "outputs": [
        {
          "internalType": "bool",
          "name": "exist",
          "type": "bool"
        },
        {
          "internalType": "uint256",
          "name": "index",
          "type": "uint256"
        }
      ],
      "stateMutability": "view",
      "type": "function"
    },
    {
      "inputs": [
        {
          "internalType": "string",
          "name": "groupName",
          "type": "string"
        }
      ],
      "name": "getGroupIndexerByName",
      "outputs": [
        {
          "internalType": "bool",
          "name": "exist",
          "type": "bool"
        },
        {
          "internalType": "uint256",
          "name": "index",
          "type": "uint256"
        }
      ],
      "stateMutability": "view",
      "type": "function"
    },
    {
      "inputs": [
        {
          "internalType": "uint256",
          "name": "groupId",
          "type": "uint256"
        }
      ],
      "name": "getGroupById",
      "outputs": [
        {
          "internalType": "uint256",
          "name": "",
          "type": "uint256"
        },
        {
          "internalType": "string",
          "name": "",
          "type": "string"
        },
        {
          "internalType": "string",
          "name": "",
          "type": "string"
        },
        {
          "internalType": "address payable",
          "name": "",
          "type": "address"
        }
      ],
      "stateMutability": "view",
      "type": "function"
    },
    {
      "inputs": [
        {
          "internalType": "uint256",
          "name": "index",
          "type": "uint256"
        }
      ],
      "name": "getGroupByIndex",
      "outputs": [
        {
          "internalType": "uint256",
          "name": "",
          "type": "uint256"
        },
        {
          "internalType": "string",
          "name": "",
          "type": "string"
        },
        {
          "internalType": "string",
          "name": "",
          "type": "string"
        },
        {
          "internalType": "address payable",
          "name": "",
          "type": "address"
        }
      ],
      "stateMutability": "view",
      "type": "function"
    },
    {
      "inputs": [],
      "name": "getGroupsLength",
      "outputs": [
        {
          "internalType": "uint256",
          "name": "length",
          "type": "uint256"
        }
      ],
      "stateMutability": "view",
      "type": "function"
    },
    {
      "inputs": [
        {
          "internalType": "uint256",
          "name": "groupId",
          "type": "uint256"
        }
      ],
      "name": "getGroupIndex",
      "outputs": [
        {
          "internalType": "uint256",
          "name": "",
          "type": "uint256"
        }
      ],
      "stateMutability": "view",
      "type": "function"
    }
  ],
  "bytecode": "0x608060405260008054600160a060020a031916331790556120e0806100256000396000f3fe608060405234801561001057600080fd5b5060043610610223576000357c01000000000000000000000000000000000000000000000000000000009004806352bc00c41161013757806381ea68fe116100ca578063d1f4427811610099578063d1f4427814610958578063d73c9de414610960578063daf0cf43146109a0578063e824f2b5146109c3578063f2fde38b146109ef57610223565b806381ea68fe146108155780638c2248261461083b5780638edb1a06146108675780639a2597981461088d57610223565b80636cc29ea0116101065780636cc29ea0146107c25780636d3524f5146107df5780636f583ba6146107e757806380abc21a1461080d57610223565b806352bc00c4146106905780635e82c389146106ad5780636041fc881461077f5780636b2c46d5146107a557610223565b80632bd10bbc116101ba5780633ac179f8116101895780633ac179f81461059d5780634448d5e1146105ba578063458a8c07146105e657806348c889231461065657806348cf9e5c1461067357610223565b80632bd10bbc146104015780632e367f9f146104305780633037faf11461045c5780633525e9c41461057757610223565b80630fdf80ed116101f65780630fdf80ed1461034d578063165301a5146103735780632124d529146103995780632ada2596146103bf57610223565b806308099b5d1461022857806309080945146102b35780630c202741146102df5780630d15c07d1461030d575b600080fd5b6102986004803603602081101561023e57600080fd5b81019060208101813564010000000081111561025957600080fd5b82018360208201111561026b57600080fd5b8035906020019184600183028401116401000000008311171561028d57600080fd5b509092509050610a15565b60408051921515835260208301919091528051918290030190f35b610298600480360360408110156102c957600080fd5b5080359060200135600160a060020a0316610a6e565b61030b600480360360408110156102f557600080fd5b5080359060200135600160a060020a0316610ac5565b005b6103396004803603604081101561032357600080fd5b5080359060200135600160a060020a0316610cfa565b604080519115158252519081900360200190f35b61030b6004803603602081101561036357600080fd5b5035600160a060020a0316610d0d565b6103396004803603602081101561038957600080fd5b5035600160a060020a0316610d9c565b61030b600480360360208110156103af57600080fd5b5035600160a060020a0316610daf565b6103e5600480360360208110156103d557600080fd5b5035600160a060020a0316610f48565b60408051600160a060020a039092168252519081900360200190f35b61041e6004803603602081101561041757600080fd5b5035610fa6565b60408051918252519081900360200190f35b61041e6004803603604081101561044657600080fd5b50600160a060020a038135169060200135611051565b6104796004803603602081101561047257600080fd5b503561112c565b60405180858152602001806020018060200184600160a060020a0316600160a060020a03168152602001838103835286818151815260200191508051906020019080838360005b838110156104d85781810151838201526020016104c0565b50505050905090810190601f1680156105055780820380516001836020036101000a031916815260200191505b50838103825285518152855160209182019187019080838360005b83811015610538578181015183820152602001610520565b50505050905090810190601f1680156105655780820380516001836020036101000a031916815260200191505b50965050505050505060405180910390f35b61041e6004803603602081101561058d57600080fd5b5035600160a060020a031661114b565b61041e600480360360208110156105b357600080fd5b5035611166565b610298600480360360408110156105d057600080fd5b50600160a060020a038135169060200135611178565b610339600480360360208110156105fc57600080fd5b81019060208101813564010000000081111561061757600080fd5b82018360208201111561062957600080fd5b8035906020019184600183028401116401000000008311171561064b57600080fd5b5090925090506111e6565b6102986004803603602081101561066c57600080fd5b5035611227565b61041e6004803603602081101561068957600080fd5b5035611269565b61041e600480360360208110156106a657600080fd5b5035611274565b61030b600480360360808110156106c357600080fd5b813591908101906040810160208201356401000000008111156106e557600080fd5b8201836020820111156106f757600080fd5b8035906020019184600183028401116401000000008311171561071957600080fd5b91939092909160208101903564010000000081111561073757600080fd5b82018360208201111561074957600080fd5b8035906020019184600183028401116401000000008311171561076b57600080fd5b919350915035600160a060020a03166112db565b61030b6004803603602081101561079557600080fd5b5035600160a060020a03166113e7565b610339600480360360208110156107bb57600080fd5b5035611458565b610479600480360360208110156107d857600080fd5b5035611463565b61041e6115f5565b61030b600480360360208110156107fd57600080fd5b5035600160a060020a03166115fc565b61041e611673565b61041e6004803603602081101561082b57600080fd5b5035600160a060020a0316611679565b61041e6004803603604081101561085157600080fd5b50600160a060020a038135169060200135611694565b61041e6004803603602081101561087d57600080fd5b5035600160a060020a0316611789565b61041e600480360360608110156108a357600080fd5b8101906020810181356401000000008111156108be57600080fd5b8201836020820111156108d057600080fd5b803590602001918460018302840111640100000000831117156108f257600080fd5b91939092909160208101903564010000000081111561091057600080fd5b82018360208201111561092257600080fd5b8035906020019184600183028401116401000000008311171561094457600080fd5b919350915035600160a060020a03166117a4565b61041e611b2f565b61097d6004803603602081101561097657600080fd5b5035611b35565b60408051600160a060020a03909316835260208301919091528051918290030190f35b610298600480360360408110156109b657600080fd5b5080359060200135611b9d565b610298600480360360408110156109d957600080fd5b50600160a060020a038135169060200135611bc2565b61030b60048036036020811015610a0557600080fd5b5035600160a060020a0316611bf1565b600080610a20611eeb565b60058585604051808383808284379190910194855250506040805160209481900385018120818301909252815460ff1615158082526001909201549401849052989297509195505050505050565b600080610a79611eeb565b5050506000918252600960209081526040808420600160a060020a03939093168452918152918190208151808301909252805460ff161515808352600190910154919092018190529091565b3360009081526001602052604090205460ff1680610b1b576040805160e560020a62461bcd02815260206004820152601f6024820152600080516020612063833981519152604482015290519081900360640190fd5b6000610b278484611c7c565b90508015610b7f576040805160e560020a62461bcd02815260206004820152601360248201527f47726f7570206d656d6265722065786973747300000000000000000000000000604482015290519081900360640190fd5b610b87611eeb565b5060408051808201909152600181526006546020820152610ba6611f02565b50604080516060810182526001808252600160a060020a0396871660208084018281528486018b815260008c815260078452878120805480880182559082528482208a516002928302909101805491151560ff199283161781558b87018051918a0191909155878452600887528a84208054808b0182559085528785208d519185020180549115159184169190911781558151908a01559e83526009865289832096835295909452968720975188549015159085161788559a5196840196909655600680549384018155909452915192027ff652222313e28459528d920b65115c16c04f3efc82aaedc97be59f3f377c0d3f8101805494519097166101000274ffffffffffffffffffffffffffffffffffffffff001993151594909216939093179190911617909355505090517ff652222313e28459528d920b65115c16c04f3efc82aaedc97be59f3f377c0d4090910155565b6000610d068383611c7c565b9392505050565b3360009081526001602052604090205460ff1680610d63576040805160e560020a62461bcd02815260206004820152601f6024820152600080516020612063833981519152604482015290519081900360640190fd5b50336000908152600160208190526040808320805460ff19908116909155600160a060020a039490941683529091208054909216179055565b6000610da782611ca7565b90505b919050565b3360009081526001602052604090205460ff1680610e05576040805160e560020a62461bcd02815260206004820152601f6024820152600080516020612063833981519152604482015290519081900360640190fd5b610e0d611eeb565b506040805180820190915260018152600160a060020a03831660208201526000610e3684611ca7565b90508015610e8e576040805160e560020a62461bcd02815260206004820152601560248201527f4d656d62657220616c7265616479206578697374730000000000000000000000604482015290519081900360640190fd5b610e96611eeb565b50506040805180820182526001808252600a805460208085018281528285018455600093845287517fc65a7bb8d6351c1cf70c95a316cc6a92839c986682d98bc35f958f4883f9d2a890930180549883015160ff19998a169415159490941774ffffffffffffffffffffffffffffffffffffffff001916610100600160a060020a0395861602179055989091168252600b90529290922090518154909316921515929092178255925192019190915550565b600080610f5483611cdd565b9050610f5e611eeb565b600a8281548110610f6b57fe5b60009182526020918290206040805180820190915291015460ff8116151582526101009004600160a060020a03169101819052949350505050565b3360009081526001602052604081205460ff1680610ffc576040805160e560020a62461bcd02815260206004820152601f6024820152600080516020612063833981519152604482015290519081900360640190fd5b82600e5410156110405760405160e560020a62461bcd0281526004018080602001828103825260288152602001806120836028913960400191505060405180910390fd5b5050600e8054919091039081905590565b3360009081526001602052604081205460ff16806110a7576040805160e560020a62461bcd02815260206004820152601f6024820152600080516020612063833981519152604482015290519081900360640190fd5b600160a060020a0384166000908152600f6020526040902054838110156111025760405160e560020a62461bcd0281526004018080602001828103825260288152602001806120836028913960400191505060405180910390fd5b505050600160a060020a03919091166000908152600f602052604090208054919091039081905590565b6000606080600061113c85611d73565b93509350935093509193509193565b600160a060020a031660009081526004602052604090205490565b60009081526007602052604090205490565b600080611183611eeb565b600160a060020a03851660009081526004602052604090208054859081106111a757fe5b600091825260209182902060408051808201909152600290920201805460ff161515808352600190910154919092018190529093509150509250929050565b6000610d0683838080601f016020809104026020016040519081016040528093929190818152602001838380828437600092019190915250611de692505050565b600080611232611eeb565b5050506000908152600360209081526040918290208251808401909352805460ff1615158084526001909101549290910182905291565b6000610da782611e53565b3360009081526001602052604081205460ff16806112ca576040805160e560020a62461bcd02815260206004820152601f6024820152600080516020612063833981519152604482015290519081900360640190fd5b5050600e8054919091019081905590565b3360009081526001602052604090205460ff1680611331576040805160e560020a62461bcd02815260206004820152601f6024820152600080516020612063833981519152604482015290519081900360640190fd5b600061133c88611e53565b905086866002838154811061134d57fe5b9060005260206000209060050201600201919061136b929190611f22565b5084846002838154811061137b57fe5b90600052602060002090600502016003019190611399929190611f22565b5082600282815481106113a857fe5b906000526020600020906005020160040160006101000a815481600160a060020a030219169083600160a060020a031602179055505050505050505050565b600054600160a060020a03163314611437576040805160e560020a62461bcd02815260206004820152601f6024820152600080516020612063833981519152604482015290519081900360640190fd5b600160a060020a03166000908152600160205260409020805460ff19169055565b6000610da782611ed6565b600060608060008061147486611e53565b905060006002828154811061148557fe5b90600052602060002090600502019050806001015481600201826003018360040160009054906101000a9004600160a060020a0316828054600181600116156101000203166002900480601f01602080910402602001604051908101604052809291908181526020018280546001816001161561010002031660029004801561154f5780601f106115245761010080835404028352916020019161154f565b820191906000526020600020905b81548152906001019060200180831161153257829003601f168201915b5050855460408051602060026001851615610100026000190190941693909304601f8101849004840282018401909252818152959850879450925084019050828280156115dd5780601f106115b2576101008083540402835291602001916115dd565b820191906000526020600020905b8154815290600101906020018083116115c057829003601f168201915b50505050509150955095509550955050509193509193565b6002545b90565b600054600160a060020a0316331461164c576040805160e560020a62461bcd02815260206004820152601f6024820152600080516020612063833981519152604482015290519081900360640190fd5b600160a060020a03166000908152600160208190526040909120805460ff19169091179055565b600d5490565b600160a060020a031660009081526008602052604090205490565b3360009081526001602052604081205460ff16806116ea576040805160e560020a62461bcd02815260206004820152601f6024820152600080516020612063833981519152604482015290519081900360640190fd5b600160a060020a0384166000908152600f602052604090205461176057600d80546001810182556000919091527fd7b6990105719101dabeb77144f2a3385c8033acd3af97e9423a695e81ad1eb501805473ffffffffffffffffffffffffffffffffffffffff1916600160a060020a0386161790555b600160a060020a0384166000908152600f60205260409020805484019081905591505092915050565b600160a060020a03166000908152600f602052604090205490565b3360009081526001602052604081205460ff16806117fa576040805160e560020a62461bcd02815260206004820152601f6024820152600080516020612063833981519152604482015290519081900360640190fd5b600061183b88888080601f016020809104026020016040519081016040528093929190818152602001838380828437600092019190915250611de692505050565b90508015611893576040805160e560020a62461bcd02815260206004820181905260248201527f47726f7570206e616d652068617320616c7265616479206265656e2075736564604482015290519081900360640190fd5b600c805460010190556118a4611fa0565b6040518060a00160405280600115158152602001600c5481526020018a8a8080601f016020809104026020016040519081016040528093929190818152602001838380828437600092019190915250505090825250604080516020601f8b0181900481028201810190925289815291810191908a908a9081908401838280828437600092019190915250505090825250600160a060020a038716602090910152600254909150611952611eeb565b506040805180820182526001808252602080830185905260028054928301815560005285517f405787fa12a823e0f2b7631cc41b3ba8828b3321ca811111fa75cd3aa3bb5ace6005909302928301805460ff1916911515919091178155868201517f405787fa12a823e0f2b7631cc41b3ba8828b3321ca811111fa75cd3aa3bb5acf840155938601518051939487949093611a13937f405787fa12a823e0f2b7631cc41b3ba8828b3321ca811111fa75cd3aa3bb5ad0909101920190611fda565b5060608201518051611a2f916003840191602090910190611fda565b50608091909101516004909101805473ffffffffffffffffffffffffffffffffffffffff1916600160a060020a03909216919091179055600c546000908152600360209081526040918290208351815460ff191690151517815590830151600191909101555181906005908d908d908083838082843791909101948552505060408051602094819003850190208551815460ff1990811691151591909117825595850151600191820155600160a060020a039c909c166000908152600485529081208054808e0182559082529084902086516002909202018054909516901515178455505091909101519601959095555050600c54979650505050505050565b600e5490565b600080611b40611f02565b60068481548110611b4d57fe5b6000918252602091829020604080516060810182526002909302909101805460ff811615158452600160a060020a0361010090910416938301849052600101549101819052909350915050915091565b600080611ba8611eeb565b60008581526007602052604090208054859081106111a757fe5b600080611bcd611eeb565b600160a060020a03851660009081526008602052604090208054859081106111a757fe5b600054600160a060020a03163314611c41576040805160e560020a62461bcd02815260206004820152601f6024820152600080516020612063833981519152604482015290519081900360640190fd5b600160a060020a03811615611c79576000805473ffffffffffffffffffffffffffffffffffffffff1916600160a060020a0383161790555b50565b6000918252600960209081526040808420600160a060020a0393909316845291905290205460ff1690565b600160a060020a0381166000908152600b602052604081205460ff168015611cd3576001915050610daa565b6000915050610daa565b600160a060020a0381166000908152600b602052604081205460ff16801515600114611d53576040805160e560020a62461bcd02815260206004820152601060248201527f4d656d626572206e6f7420666f756e6400000000000000000000000000000000604482015290519081900360640190fd5b5050600160a060020a03166000908152600b602052604090206001015490565b60025460009060609081908390858111611dd7576040805160e560020a62461bcd02815260206004820152600c60248201527f4f7574206f662072616e67650000000000000000000000000000000000000000604482015290519081900360640190fd5b60006002878154811061148557fe5b6000806005836040518082805190602001908083835b60208310611e1b5780518252601f199092019160209182019101611dfc565b51815160209384036101000a600019018019909216911617905292019485525060405193849003019092205460ff1695945050505050565b60008181526003602052604081205460ff16801515600114611ebf576040805160e560020a62461bcd02815260206004820152600f60248201527f47726f7570206e6f7420666f756e640000000000000000000000000000000000604482015290519081900360640190fd5b505060009081526003602052604090206001015490565b60009081526003602052604090205460ff1690565b604080518082019091526000808252602082015290565b604080516060810182526000808252602082018190529181019190915290565b828054600181600116156101000203166002900490600052602060002090601f016020900481019282601f10611f635782800160ff19823516178555611f90565b82800160010185558215611f90579182015b82811115611f90578235825591602001919060010190611f75565b50611f9c929150612048565b5090565b6040518060a001604052806000151581526020016000815260200160608152602001606081526020016000600160a060020a031681525090565b828054600181600116156101000203166002900490600052602060002090601f016020900481019282601f1061201b57805160ff1916838001178555611f90565b82800160010185558215611f90579182015b82811115611f9057825182559160200191906001019061202d565b6115f991905b80821115611f9c576000815560010161204e56fe756e617574686f72697a65642061636365737320746f20636f6e7472616374006465706f7369742062616c616e6365206f7665726472616674206973206e6f7420616c6c6f776564a264697066735822122018b92ee564df719376035b9f089ee1fe9be8ff83d70cff193b0cefb9ec9848f464736f6c63430006060033",
  "immutableReferences": {},
  "source": "pragma solidity ^0.6.0;\n\nimport \"../interfaces/IGroupSchema.sol\";\nimport \"./StorageOwners.sol\";\n\ncontract Groups is IGroupSchema, StorageOwners {\n    // list of group records\n    Group[] private Groups;\n    //Mapping that enables ease of traversal of the group records\n    mapping(uint256 => RecordIndex) private GroupIndexer;\n\n    // Mapping that enables ease of traversal of groups created by an addressor\n    mapping(address => RecordIndex[]) private GroupForCreatorIndexer;\n\n    // indexes a group location using the group name\n    mapping(string => RecordIndex) private GroupIndexerByName;\n\n    GroupMember[] GroupMembers;\n\n    //Mapping of a groups members. Key is the group id,\n    mapping(uint256 => RecordIndex[]) private GroupMembersIndexer;\n\n    mapping(address => RecordIndex[]) private GroupMembersIndexerByDepositor;\n    mapping(uint256 => mapping(address => RecordIndex))\n        private GroupMembersDeepIndexer;\n\n    // list of group records\n    Member[] private Members;\n\n    //Mapping that enables ease of traversal of the member records. key is the member address\n    mapping(address => RecordIndex) private MemberIndexer;\n\n    uint256 lastGroupId;\n\n    address[] tokenAddresses;\n    uint256 totalEthersDeposited;\n    mapping(address => uint256) totalTokensDeposited;\n\n    function getLengthOfTokenAddressesUsedInDeposit()\n        external\n        view\n        returns (uint256)\n    {\n        return tokenAddresses.length;\n    }\n\n    function incrementTokenDeposit(address tokenAddress, uint256 amount)\n        external\n        onlyStorageOracle\n        returns (uint256)\n    {\n        if (totalTokensDeposited[tokenAddress] == 0) {\n            tokenAddresses.push(tokenAddress);\n        }\n        totalTokensDeposited[tokenAddress] += amount;\n        return totalTokensDeposited[tokenAddress];\n    }\n\n    function decrementTokenDeposit(address tokenAddress, uint256 amount)\n        external\n        onlyStorageOracle\n        returns (uint256)\n    {\n        uint256 currentAmount = totalTokensDeposited[tokenAddress];\n        require(\n            currentAmount >= amount,\n            \"deposit balance overdraft is not allowed\"\n        );\n        totalTokensDeposited[tokenAddress] -= amount;\n        return totalTokensDeposited[tokenAddress];\n    }\n\n    function getTokenDeposit(address tokenAddress)\n        external\n        view\n        returns (uint256)\n    {\n        return totalTokensDeposited[tokenAddress];\n    }\n\n    function incrementEtherDeposit(uint256 amount)\n        external\n        onlyStorageOracle\n        returns (uint256)\n    {\n        totalEthersDeposited += amount;\n        return totalEthersDeposited;\n    }\n\n    function decrementEtherDeposit(uint256 amount)\n        external\n        onlyStorageOracle\n        returns (uint256)\n    {\n        require(\n            totalEthersDeposited >= amount,\n            \"deposit balance overdraft is not allowed\"\n        );\n        totalEthersDeposited -= amount;\n        return totalEthersDeposited;\n    }\n\n    function getEtherDeposit() external view returns (uint256) {\n        return totalEthersDeposited;\n    }\n\n    function createMember(address payable depositor)\n        external\n        onlyStorageOracle\n    {\n        Member memory member = Member(true, depositor);\n\n        bool exist = _doesMemberExist(depositor);\n\n        require(exist == false, \"Member already exists\");\n\n        RecordIndex memory recordIndex = RecordIndex(true, Members.length);\n\n        Members.push(member);\n        MemberIndexer[depositor] = recordIndex;\n    }\n\n    function getMember(address _address) external view returns (address) {\n        uint256 index = _getMemberIndex(_address);\n        Member memory member = Members[index];\n\n        return (member._address);\n    }\n\n    function _getMemberIndex(address _address) internal view returns (uint256) {\n        bool doesMemberExist = MemberIndexer[_address].exists;\n        require(doesMemberExist == true, \"Member not found\");\n\n        uint256 index = MemberIndexer[_address].index;\n        return index;\n    }\n\n    function createGroup(\n        string calldata name,\n        string calldata symbol,\n        address groupCreator\n    ) external onlyStorageOracle returns (uint256) {\n        bool exist = _doesGroupExist(name);\n        require(exist == false, \"Group name has already been used\");\n\n        lastGroupId += 1;\n        Group memory group = Group(\n            true,\n            lastGroupId,\n            name,\n            symbol,\n            payable(groupCreator)\n        );\n        uint256 index = Groups.length;\n        RecordIndex memory recordIndex = RecordIndex(true, index);\n        Groups.push(group);\n        GroupIndexer[lastGroupId] = recordIndex;\n        GroupIndexerByName[name] = recordIndex;\n        GroupForCreatorIndexer[groupCreator].push(recordIndex);\n\n        return lastGroupId;\n    }\n\n    function updateGroup(\n        uint256 id,\n        string calldata name,\n        string calldata symbol,\n        address payable creatorAddress\n    ) external onlyStorageOracle {\n        uint256 index = _getGroupIndex(id);\n        Groups[index].name = name;\n        Groups[index].symbol = symbol;\n        Groups[index].creatorAddress = creatorAddress;\n    }\n\n    function doesGroupExist(uint256 groupId) external view returns (bool) {\n        return _doesGroupExist(groupId);\n    }\n\n    function _doesGroupExist(uint256 groupId) internal view returns (bool) {\n        bool groupExist = GroupIndexer[groupId].exists;\n        return groupExist;\n    }\n\n    function doesGroupExist(string calldata groupName)\n        external\n        view\n        returns (bool)\n    {\n        return _doesGroupExist(groupName);\n    }\n\n    function _doesGroupExist(string memory groupName)\n        internal\n        view\n        returns (bool)\n    {\n        bool groupExist = GroupIndexerByName[groupName].exists;\n\n        return groupExist;\n    }\n\n    function doesMemberExist(address depositor) external view returns (bool) {\n        return _doesMemberExist(depositor);\n    }\n\n    function _doesMemberExist(address depositor) internal view returns (bool) {\n        bool exist = MemberIndexer[depositor].exists;\n\n        if (exist) return true;\n        else return false;\n    }\n\n    function createGroupMember(uint256 groupId, address payable depositor)\n        external\n        onlyStorageOracle\n    {\n        bool exist = _doesGroupMemberExist(groupId, depositor);\n        require(exist == false, \"Group member exists\");\n\n        RecordIndex memory recordIndex = RecordIndex(true, GroupMembers.length);\n\n        GroupMember memory groupMember = GroupMember(true, depositor, groupId);\n\n        GroupMembersIndexer[groupId].push(recordIndex);\n        GroupMembersIndexerByDepositor[depositor].push(recordIndex);\n        GroupMembersDeepIndexer[groupId][depositor] = recordIndex;\n        GroupMembers.push(groupMember);\n    }\n\n    function getGroupMember(uint256 index)\n        external\n        view\n        returns (address payable _address, uint256 groupId)\n    {\n        GroupMember memory groupMember = GroupMembers[index];\n        return (groupMember._address, groupMember.groupId);\n    }\n\n    function getGroupMembersDeepIndexer(uint256 groupId, address depositor)\n        external\n        view\n        returns (bool exists, uint256 index)\n    {\n\n            RecordIndex memory recordIndex\n         = GroupMembersDeepIndexer[groupId][depositor];\n        return (recordIndex.exists, recordIndex.index);\n    }\n\n    function getRecordIndexLengthForGroupMembersIndexer(uint256 groupId)\n        external\n        view\n        returns (uint256)\n    {\n        return GroupMembersIndexer[groupId].length;\n    }\n\n    function getRecordIndexLengthForGroupMembersIndexerByDepositor(\n        address depositor\n    ) external view returns (uint256) {\n        return GroupMembersIndexerByDepositor[depositor].length;\n    }\n\n    function getGroupMembersIndexer(uint256 groupId, uint256 indexerLocation)\n        external\n        view\n        returns (bool exist, uint256 index)\n    {\n\n            RecordIndex memory recordIndex\n         = GroupMembersIndexer[groupId][indexerLocation];\n        return (recordIndex.exists, recordIndex.index);\n    }\n\n    function getGroupMembersIndexerByDepositor(\n        address depositor,\n        uint256 indexerLocation\n    ) external view returns (bool exist, uint256 index) {\n\n            RecordIndex memory recordIndex\n         = GroupMembersIndexerByDepositor[depositor][indexerLocation];\n        return (recordIndex.exists, recordIndex.index);\n    }\n\n    function doesGroupMemberExist(uint256 groupId, address depositor)\n        external\n        view\n        returns (bool)\n    {\n        return _doesGroupMemberExist(groupId, depositor);\n    }\n\n    function _doesGroupMemberExist(uint256 groupId, address depositor)\n        internal\n        view\n        returns (bool)\n    {\n        bool exist = GroupMembersDeepIndexer[groupId][depositor].exists;\n        return exist;\n    }\n\n    function getGroupIndexer(uint256 groupId)\n        external\n        view\n        returns (bool exist, uint256 index)\n    {\n        RecordIndex memory recordIndex = GroupIndexer[groupId];\n        return (recordIndex.exists, recordIndex.index);\n    }\n\n    function getRecordIndexLengthForCreator(address groupCreator)\n        external\n        view\n        returns (uint256)\n    {\n        return GroupForCreatorIndexer[groupCreator].length;\n    }\n\n    function getGroupForCreatorIndexer(\n        address groupCreator,\n        uint256 indexerLocation\n    ) external view returns (bool exist, uint256 index) {\n\n            RecordIndex memory recordIndex\n         = GroupForCreatorIndexer[groupCreator][indexerLocation];\n        return (recordIndex.exists, recordIndex.index);\n    }\n\n    function getGroupIndexerByName(string calldata groupName)\n        external\n        view\n        returns (bool exist, uint256 index)\n    {\n        RecordIndex memory recordIndex = GroupIndexerByName[groupName];\n        return (recordIndex.exists, recordIndex.index);\n    }\n\n    function getGroupById(uint256 groupId)\n        external\n        view\n        returns (\n            uint256,\n            string memory,\n            string memory,\n            address payable\n        )\n    {\n        uint256 index = _getGroupIndex(groupId);\n\n        Group storage group = Groups[index];\n        return (group.id, group.name, group.symbol, group.creatorAddress);\n    }\n\n    function getGroupByIndex(uint256 index)\n        external\n        view\n        returns (\n            uint256,\n            string memory,\n            string memory,\n            address payable\n        )\n    {\n        return _getGroupByIndex(index);\n    }\n\n    function getGroupsLength() external view returns (uint256 length) {\n        length = Groups.length;\n        return length;\n    }\n\n    function _getGroupByIndex(uint256 index)\n        internal\n        view\n        returns (\n            uint256,\n            string memory,\n            string memory,\n            address payable\n        )\n    {\n        uint256 length = Groups.length;\n        require(length > index, \"Out of range\");\n        Group storage group = Groups[index];\n        return (group.id, group.name, group.symbol, group.creatorAddress);\n    }\n\n    function getGroupIndex(uint256 groupId) external view returns (uint256) {\n        return _getGroupIndex(groupId);\n    }\n\n    function _getGroupIndex(uint256 groupId) internal view returns (uint256) {\n        bool doesGroupExist = GroupIndexer[groupId].exists;\n        require(doesGroupExist == true, \"Group not found\");\n        uint256 index = GroupIndexer[groupId].index;\n        return index;\n    }\n}\n",
  "sourcePath": "/Users/mac/Desktop/BinaryHiils/esusu/test/contracts/Groups.sol",
  "compiler": {
    "name": "solc",
    "version": "0.6.6+commit.6c089d02.Emscripten.clang"
  },
  "schemaVersion": "3.3.2",
  "updatedAt": "2021-02-03T16:37:21.430Z",
  "devdoc": {
    "methods": {}
  },
  "userdoc": {
    "methods": {}
  }
}