{
  "contractName": "RewardConfig",
  "abi": [
    {
      "inputs": [
        {
          "internalType": "address",
          "name": "esusuServiceContract",
          "type": "address"
        },
        {
          "internalType": "address",
          "name": "groupServiceContract",
          "type": "address"
        }
      ],
      "stateMutability": "nonpayable",
      "type": "constructor"
    },
    {
      "inputs": [],
      "name": "owner",
      "outputs": [
        {
          "internalType": "address payable",
          "name": "",
          "type": "address"
        }
      ],
      "stateMutability": "view",
      "type": "function"
    },
    {
      "inputs": [
        {
          "internalType": "address payable",
          "name": "newOwner",
          "type": "address"
        }
      ],
      "name": "transferOwnership",
      "outputs": [],
      "stateMutability": "nonpayable",
      "type": "function"
    },
    {
      "inputs": [
        {
          "internalType": "uint256",
          "name": "thresholdValue",
          "type": "uint256"
        },
        {
          "internalType": "uint256",
          "name": "xendTokenReward",
          "type": "uint256"
        },
        {
          "internalType": "uint256",
          "name": "depreciationFactor",
          "type": "uint256"
        },
        {
          "internalType": "uint256",
          "name": "savingsCategoryRewardFactor",
          "type": "uint256"
        },
        {
          "internalType": "uint256",
          "name": "groupCategoryRewardFactor",
          "type": "uint256"
        },
        {
          "internalType": "uint256",
          "name": "esusuCategoryRewardFactor",
          "type": "uint256"
        },
        {
          "internalType": "uint256",
          "name": "percentageRewardFactorPerTimeLevel",
          "type": "uint256"
        },
        {
          "internalType": "uint256",
          "name": "minimumNumberOfSeconds",
          "type": "uint256"
        },
        {
          "internalType": "uint256",
          "name": "maximumTimeLevel",
          "type": "uint256"
        }
      ],
      "name": "SetRewardParams",
      "outputs": [],
      "stateMutability": "nonpayable",
      "type": "function"
    },
    {
      "inputs": [
        {
          "internalType": "uint256",
          "name": "totalCycleTimeInSeconds",
          "type": "uint256"
        },
        {
          "internalType": "uint256",
          "name": "amountDeposited",
          "type": "uint256"
        }
      ],
      "name": "CalculateIndividualSavingsReward",
      "outputs": [
        {
          "internalType": "uint256",
          "name": "",
          "type": "uint256"
        }
      ],
      "stateMutability": "view",
      "type": "function"
    },
    {
      "inputs": [
        {
          "internalType": "uint256",
          "name": "totalCycleTimeInSeconds",
          "type": "uint256"
        },
        {
          "internalType": "uint256",
          "name": "amountDeposited",
          "type": "uint256"
        }
      ],
      "name": "CalculateCooperativeSavingsReward",
      "outputs": [
        {
          "internalType": "uint256",
          "name": "",
          "type": "uint256"
        }
      ],
      "stateMutability": "view",
      "type": "function"
    },
    {
      "inputs": [
        {
          "internalType": "uint256",
          "name": "totalCycleTimeInSeconds",
          "type": "uint256"
        },
        {
          "internalType": "uint256",
          "name": "amountDeposited",
          "type": "uint256"
        }
      ],
      "name": "CalculateEsusuReward",
      "outputs": [
        {
          "internalType": "uint256",
          "name": "",
          "type": "uint256"
        }
      ],
      "stateMutability": "view",
      "type": "function"
    },
    {
      "inputs": [
        {
          "internalType": "uint256",
          "name": "totalCycleTimeInSeconds",
          "type": "uint256"
        },
        {
          "internalType": "uint256",
          "name": "reward",
          "type": "uint256"
        }
      ],
      "name": "CalculateCategoryFactor",
      "outputs": [
        {
          "internalType": "uint256",
          "name": "",
          "type": "uint256"
        }
      ],
      "stateMutability": "view",
      "type": "function"
    },
    {
      "inputs": [],
      "name": "CalculateRewardFactorForCurrentThresholdLevel",
      "outputs": [
        {
          "internalType": "uint256",
          "name": "",
          "type": "uint256"
        }
      ],
      "stateMutability": "view",
      "type": "function"
    },
    {
      "inputs": [],
      "name": "GetTotalDeposits",
      "outputs": [
        {
          "internalType": "uint256",
          "name": "",
          "type": "uint256"
        }
      ],
      "stateMutability": "view",
      "type": "function"
    },
    {
      "inputs": [],
      "name": "GetCurrentThresholdLevel",
      "outputs": [
        {
          "internalType": "uint256",
          "name": "",
          "type": "uint256"
        }
      ],
      "stateMutability": "view",
      "type": "function"
    },
    {
      "inputs": [],
      "name": "GetCurrentXendTokenRewardThresholdAtCurrentLevel",
      "outputs": [
        {
          "internalType": "uint256",
          "name": "",
          "type": "uint256"
        }
      ],
      "stateMutability": "view",
      "type": "function"
    },
    {
      "inputs": [
        {
          "internalType": "uint256",
          "name": "totalCycleTimeInSeconds",
          "type": "uint256"
        }
      ],
      "name": "GetRewardTimeLevel",
      "outputs": [
        {
          "internalType": "uint256",
          "name": "",
          "type": "uint256"
        }
      ],
      "stateMutability": "view",
      "type": "function"
    },
    {
      "inputs": [
        {
          "internalType": "uint256",
          "name": "rewardTimeLevel",
          "type": "uint256"
        }
      ],
      "name": "CalculatePercentageRewardFactor",
      "outputs": [
        {
          "internalType": "uint256",
          "name": "",
          "type": "uint256"
        }
      ],
      "stateMutability": "view",
      "type": "function"
    },
    {
      "inputs": [
        {
          "internalType": "bool",
          "name": "isActive",
          "type": "bool"
        }
      ],
      "name": "SetRewardActive",
      "outputs": [],
      "stateMutability": "nonpayable",
      "type": "function"
    },
    {
      "inputs": [],
      "name": "GetRewardActive",
      "outputs": [
        {
          "internalType": "bool",
          "name": "rewardActiveStatus",
          "type": "bool"
        }
      ],
      "stateMutability": "view",
      "type": "function"
    }
  ],
  "bytecode": "0x608060405260038054600160a060020a031916736b175474e89094c44da98b954eedeac495271d0f17905562278d00600e5534801561003d57600080fd5b50604051610bdb380380610bdb8339818101604052604081101561006057600080fd5b50805160209091015160008054600160a060020a0319908116331790915560018054600160a060020a0394851690831617905560028054939092169216919091179055610b29806100b26000396000f3fe608060405234801561001057600080fd5b5060043610610112576000357c01000000000000000000000000000000000000000000000000000000009004806381a045af116100b4578063cd86f96011610083578063cd86f96014610271578063eabe85cb14610279578063ec50b2ff1461029c578063f2fde38b146102bf57610112565b806381a045af146101f05780638da5cb5b14610213578063a6c10cdf14610237578063b38098071461025457610112565b806344bfc383116100f057806344bfc383146101555780637024cbd71461015d5780637164ab5a1461017e57806378ac2e33146101a157610112565b80630dd41b67146101175780630f537f48146101335780631f82c5de1461014d575b600080fd5b61011f6102e5565b604080519115158252519081900360200190f35b61013b6102ef565b60408051918252519081900360200190f35b61013b61032d565b61013b61047d565b61017c6004803603602081101561017357600080fd5b503515156104b3565b005b61013b6004803603604081101561019457600080fd5b5080359060200135610528565b61017c60048036036101208110156101b857600080fd5b5080359060208101359060408101359060608101359060808101359060a08101359060c08101359060e0810135906101000135610572565b61013b6004803603604081101561020657600080fd5b5080359060200135610642565b61021b6106b7565b60408051600160a060020a039092168252519081900360200190f35b61013b6004803603602081101561024d57600080fd5b50356106c6565b61013b6004803603602081101561026a57600080fd5b50356106f1565b61013b61071e565b61013b6004803603604081101561028f57600080fd5b5080359060200135610777565b61013b600480360360408110156102b257600080fd5b508035906020013561079a565b61017c600480360360208110156102d557600080fd5b5035600160a060020a03166107bd565b60105460ff165b90565b6000806102fa61047d565b9050600061032661031283600163ffffffff61085a16565b60085460075491900a63ffffffff61089c16565b9250505090565b600080600160009054906101000a9004600160a060020a0316600160a060020a0316631f82c5de6040518163ffffffff167c010000000000000000000000000000000000000000000000000000000002815260040160206040518083038186803b15801561039a57600080fd5b505afa1580156103ae573d6000803e3d6000fd5b505050506040513d60208110156103c457600080fd5b5051600254600354604080517f8edb1a06000000000000000000000000000000000000000000000000000000008152600160a060020a03928316600482015290519394506000939190921691638edb1a06916024808301926020929190829003018186803b15801561043557600080fd5b505afa158015610449573d6000803e3d6000fd5b505050506040513d602081101561045f57600080fd5b505190506000610475838363ffffffff6108de16565b935050505090565b60008061048861032d565b60065490915060006104a0838363ffffffff61089c16565b90508061032657600193505050506102ec565b600054600160a060020a03163314610515576040805160e560020a62461bcd02815260206004820152601f60248201527f556e617574686f72697a65642061636365737320746f20636f6e747261637400604482015290519081900360640190fd5b6010805460ff1916911515919091179055565b600080610534846106f1565b90506000610541826106c6565b90506000610566600a61055a848863ffffffff61093b16565b9063ffffffff61089c16565b93505050505b92915050565b600054600160a060020a031633146105d4576040805160e560020a62461bcd02815260206004820152601f60248201527f556e617574686f72697a65642061636365737320746f20636f6e747261637400604482015290519081900360640190fd5b600f54600d54146106195760405160e560020a62461bcd028152600401808060200182810382526039815260200180610a9a6039913960400191505060405180910390fd5b600698909855600796909655600894909455600a92909255600b55600c55600d55600e55600f55565b60105460009060ff166106575750600061056c565b600061066584600b54610528565b9050600061067161071e565b90506000610685828463ffffffff61093b16565b905060006106ac6ec097ce7bc90715b34b9f100000000061055a848963ffffffff61093b16565b979650505050505050565b600054600160a060020a031681565b6000806106ea600d5461055a670de0b6b3a76400008661093b90919063ffffffff16565b9392505050565b600080610709600e548461089c90919063ffffffff16565b9050600f54811061056c5750600f5492915050565b60008061072961047d565b905060006107426006548361093b90919063ffffffff16565b9050600061074e6102ef565b9050600061076e8361055a84670de0b6b3a764000063ffffffff61093b16565b94505050505090565b60105460009060ff1661078c5750600061056c565b600061066584600a54610528565b60105460009060ff166107af5750600061056c565b600061066584600c54610528565b600054600160a060020a0316331461081f576040805160e560020a62461bcd02815260206004820152601f60248201527f556e617574686f72697a65642061636365737320746f20636f6e747261637400604482015290519081900360640190fd5b600160a060020a03811615610857576000805473ffffffffffffffffffffffffffffffffffffffff1916600160a060020a0383161790555b50565b60006106ea83836040518060400160405280601e81526020017f536166654d6174683a207375627472616374696f6e206f766572666c6f770000815250610997565b60006106ea83836040518060400160405280601a81526020017f536166654d6174683a206469766973696f6e206279207a65726f000000000000815250610a31565b6000828201838110156106ea576040805160e560020a62461bcd02815260206004820152601b60248201527f536166654d6174683a206164646974696f6e206f766572666c6f770000000000604482015290519081900360640190fd5b60008261094a5750600061056c565b8282028284828161095757fe5b04146106ea5760405160e560020a62461bcd028152600401808060200182810382526021815260200180610ad36021913960400191505060405180910390fd5b60008184841115610a295760405160e560020a62461bcd0281526004018080602001828103825283818151815260200191508051906020019080838360005b838110156109ee5781810151838201526020016109d6565b50505050905090810190601f168015610a1b5780820380516001836020036101000a031916815260200191505b509250505060405180910390fd5b505050900390565b60008183610a835760405160e560020a62461bcd0281526020600482018181528351602484015283519092839260449091019190850190808383600083156109ee5781810151838201526020016109d6565b506000838581610a8f57fe5b049594505050505056fe56616c756573206d757374206265207468652073616d6520746f206163686965766520756e697479206174206d6178696d756d206c6576656c536166654d6174683a206d756c7469706c69636174696f6e206f766572666c6f77a264697066735822122026caf389e2dc40b91e400ad3dc4a232bda901c9caf272f81ec42a11972c8452364736f6c63430006060033",
  "immutableReferences": {},
  "source": "pragma solidity >=0.6.6;\n\nimport \"./Ownable.sol\";\nimport \"../interfaces/IEsusuService.sol\";\nimport \"../interfaces/IGroups.sol\";\nimport \"./SafeMath.sol\";\n\n/*\n    @Brief: This contract should calculate the Xend Token reward for users. This contract implements the reward system as described in Litepaper but this is\n    much more detailed\n\n    1. We must get the Current Threshold level which is determined by the total amount deposited on the different smart contracts\n    2. They perform one or more of the following operations (Individual savings, cooperative savings, esusu)\n    3. The users must meet the timelock conditions per operation to receive reward for that condition\n    4. Create timelock to Category to CategoryRewardFactor Mapping\n    5. Once a new threshold level is reached, we will add it to the threshold level mapping with maximum Xend Tokens to be distributed in that level\n    6. We should be able to stop reward distribution by the owner\n    7. This contract can be replaced at anytime and updated in calling contracts\n\n*/\ncontract RewardConfig is Ownable {\n\n    using SafeMath for uint256;\n\n\n    constructor(address esusuServiceContract, address groupServiceContract) public{\n\n        iEsusuService = IEsusuService(esusuServiceContract);\n\n        //  NOTE: The groups contracts holds overall deposits for all savings , i.e Individual savings and groups savings\n        savingsStorage = IGroups(groupServiceContract);\n    }\n\n    IEsusuService iEsusuService;\n    IGroups savingsStorage;\n    address daiTokenAddress = 0x6B175474E89094C44Da98b954EedeAC495271d0F;\n\n\n    uint CurrentThresholdLevel;                 //\n\n    mapping(uint => uint)   DurationToRewardFactorMapping;\n\n    uint InitialThresholdValueInUSD;\n    uint XendTokenRewardAtInitialThreshold;\n    uint DepreciationFactor;\n    uint TimeLevelUnitInSeconds;        //  This unit is used to calculate the time levels.\n    uint SavingsCategoryRewardFactor;   //  Cir -> 0.7 (but we have to make it 7 to handle decimal)\n    uint GroupCategoryRewardFactor;     //  Cgr -> 1.0 (but we have to make it 10 to handle decimal)\n    uint EsusuCategoryRewardFactor;     //  Cer -> 1.5 (but we have to make it 10 to handle decimal)\n\n\n    //  The member variables below determine the reward factor based on time.\n    //  NOTE: Ensure that the PercentageRewardFactorPerTimeLevel at 100% corresponds with MaximumTimeLevel. It means MaximumTimeLevel/PercentageRewardFactorPerTimeLevel = 1\n\n    uint PercentageRewardFactorPerTimeLevel;    //  This determines the percentage of the reward factor paid for each time level eg 4 means 25%, 5 means 20%\n    uint MinimumNumberOfSeconds = 2592000;      //  This determines whether we are checking time level by days, weeks, months or years. It is 30 days(1 month) in seconds by default\n    uint MaximumTimeLevel;                      //  This determines how many levels can be derived based on the MinimumNumberOfSeconds that has been set\n    bool RewardActive;\n\n\n\n    /*\n        -   Sets the inital threshold value in USD (value in 1e18)\n        -   Sets XendToken reward at the initial threshold (value in 1e18)\n        -   Sets DepreciationFactor\n\n    */\n    function SetRewardParams(uint thresholdValue, uint xendTokenReward, uint depreciationFactor, \n                                uint savingsCategoryRewardFactor, uint groupCategoryRewardFactor,\n                                uint esusuCategoryRewardFactor, uint percentageRewardFactorPerTimeLevel,\n                                uint minimumNumberOfSeconds, uint maximumTimeLevel) onlyOwner external{\n        require(PercentageRewardFactorPerTimeLevel == MaximumTimeLevel, \"Values must be the same to achieve unity at maximum level\");\n        InitialThresholdValueInUSD = thresholdValue;\n        XendTokenRewardAtInitialThreshold = xendTokenReward;\n        DepreciationFactor = depreciationFactor;\n        SavingsCategoryRewardFactor = savingsCategoryRewardFactor;\n        GroupCategoryRewardFactor = groupCategoryRewardFactor;\n        EsusuCategoryRewardFactor = esusuCategoryRewardFactor;\n        PercentageRewardFactorPerTimeLevel = percentageRewardFactorPerTimeLevel;\n        MinimumNumberOfSeconds = minimumNumberOfSeconds;\n        MaximumTimeLevel = maximumTimeLevel;\n\n    }\n\n    /*\n        This function calculates XTr for individual savings based on the total cycle time and amountDeposited\n    */\n    function CalculateIndividualSavingsReward(uint totalCycleTimeInSeconds, uint amountDeposited) external view returns(uint){\n\n        //  If we are not currently rewarding users, return 0\n        if(RewardActive == false){\n            return 0;\n        }\n\n        uint Cir = CalculateCategoryFactor(totalCycleTimeInSeconds,SavingsCategoryRewardFactor);\n        uint XTf = CalculateRewardFactorForCurrentThresholdLevel();\n        uint XTr = XTf.mul(Cir);    // NOTE: this value is in 1e18\n\n        // return XTr * amountdeposited and divided by 1e18 since the amount is already in the wei unit\n\n        uint individualSavingsReward = XTr.mul(amountDeposited).div(1e36);\n\n        return individualSavingsReward;\n    }\n\n    /*\n        This function calculates XTr for group or cooperative or Group savings based on the total cycle time and amountDeposited\n    */\n    function CalculateCooperativeSavingsReward(uint totalCycleTimeInSeconds, uint amountDeposited) external view returns(uint){\n\n        //  If we are not currently rewarding users, return 0\n        if(RewardActive == false){\n            return 0;\n        }\n\n        uint Cgr = CalculateCategoryFactor(totalCycleTimeInSeconds,GroupCategoryRewardFactor);\n        uint XTf = CalculateRewardFactorForCurrentThresholdLevel();\n        uint XTr = XTf.mul(Cgr);    // NOTE: this value is in 1e18 which is correct\n\n        // return XTr * amountdeposited and divided by 1e18 since the amount is already in the wei unit\n\n        uint groupSavingsReward = XTr.mul(amountDeposited).div(1e36);\n        return groupSavingsReward;\n    }\n\n    /*\n        This function calculates XTr for Esusu based on the total cycle time and amountDeposited\n    */\n    function CalculateEsusuReward(uint totalCycleTimeInSeconds, uint amountDeposited) external view returns(uint){\n\n        //  If we are not currently rewarding users, return 0\n        if(RewardActive == false){\n            return 0;\n        }\n\n        uint Cer = CalculateCategoryFactor(totalCycleTimeInSeconds,EsusuCategoryRewardFactor);\n        uint XTf = CalculateRewardFactorForCurrentThresholdLevel();\n        uint XTr = XTf.mul(Cer);    // NOTE: this value is in 1e18 which is correct\n\n        // return XTr * amountdeposited and divided by 1e18 since the amount is already in the wei unit\n\n        uint groupSavingsReward = XTr.mul(amountDeposited).div(1e36);\n        return groupSavingsReward;\n    }\n\n    /*\n        -   Get the RewardTimeLevel based on the totalCycleTimeInSeconds\n        -   Get the PercentageRewardFactor based on the RewardTimeLevel : NOTE value is in 1e18\n        -   Reward value is multipied by 10 because it is usually a decimal based on the category\n    */\n\n    function CalculateCategoryFactor(uint totalCycleTimeInSeconds, uint reward) public view returns(uint){\n\n        uint timeLevel = GetRewardTimeLevel(totalCycleTimeInSeconds);\n\n        uint percentageRewardFactor = CalculatePercentageRewardFactor(timeLevel);\n\n        uint result = percentageRewardFactor.mul(reward).div(10);\n\n        return result;\n    }\n\n    /*\n        1. Get the CurrentThresholdLevel\n        2. Get reward factor for current threshold level (XTf) => Xend Token Threshold Per Level / Deposit Threshold for that level in USD\n\n    */\n    function CalculateRewardFactorForCurrentThresholdLevel() public view returns(uint){\n\n        uint level = GetCurrentThresholdLevel();\n        uint currentDepositThreshold = level.mul(InitialThresholdValueInUSD);\n        uint currentXendTokenRewardThreshold = GetCurrentXendTokenRewardThresholdAtCurrentLevel();\n        uint XTf = currentXendTokenRewardThreshold.mul(1e18).div(currentDepositThreshold);\n\n        return XTf;\n    }\n\n\n\n    /*\n        - This function gets the total deposits from all XendFinance smart contracts\n        - tokenAddress is required to get total deposits for the savings storage contract . Esusu service works only with DAI\n    */\n    function GetTotalDeposits() public view returns(uint){\n\n        uint esusuDesposit = iEsusuService.GetTotalDeposits();\n\n        uint savingsDeposit = savingsStorage.getTokenDeposit(daiTokenAddress);\n\n        uint result = esusuDesposit.add(savingsDeposit);\n\n        return result;\n    }\n\n    function GetCurrentThresholdLevel() public view returns(uint){\n\n        uint totalDeposits = GetTotalDeposits();\n        uint initialThresholdValue = InitialThresholdValueInUSD;\n\n        uint level = totalDeposits.div(initialThresholdValue);\n\n         if (level == 0){\n             return 1;\n         }\n\n         return level;\n    }\n\n    function GetCurrentXendTokenRewardThresholdAtCurrentLevel() public view returns(uint){\n\n        uint level = GetCurrentThresholdLevel();\n        uint result = XendTokenRewardAtInitialThreshold.div(DepreciationFactor ** level.sub(1));\n\n        return result;\n    }\n\n\n    /*\n        - Reward time levels determine the amount of reward you will receive based on the total time of the savings cycle\n        - Minimum reward time is 30 days which is 2592000 seconds\n        - If the Timelevel is 0, user does not get any Xend Token reward\n        - User gets maximum Xend Token reward from Timelevel 4 since the PercentageRewardFactor will return 100%\n    */\n\n    function GetRewardTimeLevel(uint totalCycleTimeInSeconds) public view returns(uint){\n\n\n        uint level = totalCycleTimeInSeconds.div(MinimumNumberOfSeconds);\n\n        if(level >= MaximumTimeLevel){\n            level = MaximumTimeLevel;\n        }\n        return level;\n    }\n\n    /*\n        -   This function calculates the percentage of the reward factor per time level.\n        -   PercentageRewardFactor = TimeLevel / PercentageRewardFactorPerTimeLevel\n        -   Value is returned in 1e18 to handle decimals\n    */\n    function CalculatePercentageRewardFactor(uint rewardTimeLevel) public view returns(uint){\n\n        uint result = rewardTimeLevel.mul(1e18).div(PercentageRewardFactorPerTimeLevel);\n\n        return result;\n    }\n\n    function SetRewardActive(bool isActive) onlyOwner external {\n        RewardActive = isActive;\n    }\n\n    function GetRewardActive() external view returns(bool rewardActiveStatus){\n        return RewardActive;\n    }\n}\n",
  "sourcePath": "/Users/mac/Desktop/BinaryHiils/esusu/test/contracts/RewardConfig.sol",
  "compiler": {
    "name": "solc",
    "version": "0.6.6+commit.6c089d02.Emscripten.clang"
  },
  "schemaVersion": "3.3.2",
  "updatedAt": "2021-02-03T16:37:21.455Z",
  "devdoc": {
    "methods": {}
  },
  "userdoc": {
    "methods": {}
  }
}