{
  "contractName": "SavingsConfig",
  "abi": [
    {
      "inputs": [],
      "stateMutability": "nonpayable",
      "type": "constructor"
    },
    {
      "inputs": [
        {
          "internalType": "string",
          "name": "",
          "type": "string"
        }
      ],
      "name": "RuleMapping",
      "outputs": [
        {
          "internalType": "bool",
          "name": "exists",
          "type": "bool"
        },
        {
          "internalType": "uint256",
          "name": "minimum",
          "type": "uint256"
        },
        {
          "internalType": "uint256",
          "name": "maximum",
          "type": "uint256"
        },
        {
          "internalType": "uint256",
          "name": "exact",
          "type": "uint256"
        },
        {
          "internalType": "bool",
          "name": "applies",
          "type": "bool"
        },
        {
          "internalType": "enum ISavingsConfigSchema.RuleDefinition",
          "name": "ruleDefinition",
          "type": "uint8"
        }
      ],
      "stateMutability": "view",
      "type": "function"
    },
    {
      "inputs": [
        {
          "internalType": "string",
          "name": "",
          "type": "string"
        }
      ],
      "name": "RuleModifier",
      "outputs": [
        {
          "internalType": "address",
          "name": "",
          "type": "address"
        }
      ],
      "stateMutability": "view",
      "type": "function"
    },
    {
      "inputs": [],
      "name": "owner",
      "outputs": [
        {
          "internalType": "address payable",
          "name": "",
          "type": "address"
        }
      ],
      "stateMutability": "view",
      "type": "function"
    },
    {
      "inputs": [
        {
          "internalType": "address payable",
          "name": "newOwner",
          "type": "address"
        }
      ],
      "name": "transferOwnership",
      "outputs": [],
      "stateMutability": "nonpayable",
      "type": "function"
    },
    {
      "inputs": [
        {
          "internalType": "string",
          "name": "ruleKey",
          "type": "string"
        }
      ],
      "name": "getRuleSet",
      "outputs": [
        {
          "internalType": "uint256",
          "name": "",
          "type": "uint256"
        },
        {
          "internalType": "uint256",
          "name": "",
          "type": "uint256"
        },
        {
          "internalType": "uint256",
          "name": "",
          "type": "uint256"
        },
        {
          "internalType": "bool",
          "name": "",
          "type": "bool"
        },
        {
          "internalType": "enum ISavingsConfigSchema.RuleDefinition",
          "name": "",
          "type": "uint8"
        }
      ],
      "stateMutability": "nonpayable",
      "type": "function"
    },
    {
      "inputs": [
        {
          "internalType": "string",
          "name": "ruleKey",
          "type": "string"
        }
      ],
      "name": "getRuleManager",
      "outputs": [
        {
          "internalType": "address",
          "name": "",
          "type": "address"
        }
      ],
      "stateMutability": "nonpayable",
      "type": "function"
    },
    {
      "inputs": [
        {
          "internalType": "string",
          "name": "ruleKey",
          "type": "string"
        },
        {
          "internalType": "address",
          "name": "newRuleManager",
          "type": "address"
        }
      ],
      "name": "changeRuleCreator",
      "outputs": [],
      "stateMutability": "nonpayable",
      "type": "function"
    },
    {
      "inputs": [
        {
          "internalType": "string",
          "name": "ruleKey",
          "type": "string"
        },
        {
          "internalType": "uint256",
          "name": "minimum",
          "type": "uint256"
        },
        {
          "internalType": "uint256",
          "name": "maximum",
          "type": "uint256"
        },
        {
          "internalType": "uint256",
          "name": "exact",
          "type": "uint256"
        },
        {
          "internalType": "enum ISavingsConfigSchema.RuleDefinition",
          "name": "ruleDefinition",
          "type": "uint8"
        }
      ],
      "name": "createRule",
      "outputs": [],
      "stateMutability": "nonpayable",
      "type": "function"
    },
    {
      "inputs": [
        {
          "internalType": "string",
          "name": "ruleKey",
          "type": "string"
        },
        {
          "internalType": "uint256",
          "name": "minimum",
          "type": "uint256"
        },
        {
          "internalType": "uint256",
          "name": "maximum",
          "type": "uint256"
        },
        {
          "internalType": "uint256",
          "name": "exact",
          "type": "uint256"
        },
        {
          "internalType": "enum ISavingsConfigSchema.RuleDefinition",
          "name": "ruleDefinition",
          "type": "uint8"
        }
      ],
      "name": "modifyRule",
      "outputs": [],
      "stateMutability": "nonpayable",
      "type": "function"
    },
    {
      "inputs": [
        {
          "internalType": "string",
          "name": "ruleKey",
          "type": "string"
        }
      ],
      "name": "disableRule",
      "outputs": [],
      "stateMutability": "nonpayable",
      "type": "function"
    },
    {
      "inputs": [
        {
          "internalType": "string",
          "name": "ruleKey",
          "type": "string"
        }
      ],
      "name": "enableRule",
      "outputs": [],
      "stateMutability": "nonpayable",
      "type": "function"
    }
  ],
  "bytecode": "0x608060405234801561001057600080fd5b5060008054600160a060020a0319163317905561181e806100326000396000f3fe608060405234801561001057600080fd5b50600436106100c6576000357c01000000000000000000000000000000000000000000000000000000009004806369653f5c1161008e57806369653f5c146103e45780636c021b3b146104695780638da5cb5b1461052b578063bb2ab2ee14610533578063e09e630c146105a3578063f2fde38b14610613576100c6565b806333800c62146100cb57806337f2a024146101c057806340ee684c1461027457806346377439146102e657806364ffd5d61461035f575b600080fd5b610171600480360360208110156100e157600080fd5b8101906020810181356401000000008111156100fc57600080fd5b82018360208201111561010e57600080fd5b8035906020019184600183028401116401000000008311171561013057600080fd5b91908080601f016020809104026020016040519081016040528093929190818152602001838380828437600092019190915250929550610639945050505050565b6040518087151515158152602001868152602001858152602001848152602001831515151581526020018260018111156101a757fe5b60ff168152602001965050505050505060405180910390f35b610230600480360360208110156101d657600080fd5b8101906020810181356401000000008111156101f157600080fd5b82018360208201111561020357600080fd5b8035906020019184600183028401116401000000008311171561022557600080fd5b509092509050610685565b604051808681526020018581526020018481526020018315151515815260200182600181111561025c57fe5b60ff1681526020019550505050505060405180910390f35b6102e46004803603602081101561028a57600080fd5b8101906020810181356401000000008111156102a557600080fd5b8201836020820111156102b757600080fd5b803590602001918460018302840111640100000000831117156102d957600080fd5b50909250905061079b565b005b6102e4600480360360408110156102fc57600080fd5b81019060208101813564010000000081111561031757600080fd5b82018360208201111561032957600080fd5b8035906020019184600183028401116401000000008311171561034b57600080fd5b919350915035600160a060020a03166109a1565b6102e4600480360360a081101561037557600080fd5b81019060208101813564010000000081111561039057600080fd5b8201836020820111156103a257600080fd5b803590602001918460018302840111640100000000831117156103c457600080fd5b91935091508035906020810135906040810135906060013560ff16610b55565b6102e4600480360360a08110156103fa57600080fd5b81019060208101813564010000000081111561041557600080fd5b82018360208201111561042757600080fd5b8035906020019184600183028401116401000000008311171561044957600080fd5b91935091508035906020810135906040810135906060013560ff16610cd4565b61050f6004803603602081101561047f57600080fd5b81019060208101813564010000000081111561049a57600080fd5b8201836020820111156104ac57600080fd5b803590602001918460018302840111640100000000831117156104ce57600080fd5b91908080601f016020809104026020016040519081016040528093929190818152602001838380828437600092019190915250929550610eaf945050505050565b60408051600160a060020a039092168252519081900360200190f35b61050f610ed5565b6102e46004803603602081101561054957600080fd5b81019060208101813564010000000081111561056457600080fd5b82018360208201111561057657600080fd5b8035906020019184600183028401116401000000008311171561059857600080fd5b509092509050610ee4565b61050f600480360360208110156105b957600080fd5b8101906020810181356401000000008111156105d457600080fd5b8201836020820111156105e657600080fd5b8035906020019184600183028401116401000000008311171561060857600080fd5b5090925090506110dd565b6102e46004803603602081101561062957600080fd5b5035600160a060020a03166111fd565b8051602081830181018051600180835293830192909401919091209290528154908201546002830154600384015460049094015460ff9384169492939192918082169161010090041686565b600080600080600061069561169a565b600188886040518083838082843791909101948552505060408051938490036020908101852060c086018352805460ff90811615158752600180830154938801939093526002820154938701939093526003810154606087015260048101548084161515608088015290945060a08601935061010090049091169081111561071957fe5b600181111561072457fe5b9052508051909150151560011461076f5760405160e560020a62461bcd0281526004018080602001828103825260268152602001806117396026913960400191505060405180910390fd5b602081015160408201516060830151608084015160a090940151929b919a509850919650945092505050565b81818080601f0160208091040260200160405190810160405280939291908181526020018383808284376000920191909152506107db925061169a915050565b6107e48261129a565b905060006002836040518082805190602001908083835b6020831061081a5780518252601f1990920191602091820191016107fb565b51815160209384036101000a6000190180199092169116179052920194855250604051938490030190922054600160a060020a031692505033821490508061086c5750600054600160a060020a031633145b6108aa5760405160e560020a62461bcd0281526004018080602001828103825260258152602001806116ce6025913960400191505060405180910390fd5b6108b261169a565b6108f186868080601f01602080910402602001604051908101604052809392919081815260200183838082843760009201919091525061129a92505050565b9050806080015115156001151514610953576040805160e560020a62461bcd02815260206004820152601c60248201527f52756c652073657420697320616c72656164792064697361626c656400000000604482015290519081900360640190fd5b60006080820152604080516020601f8801819004810282018101909252868152610999918890889081908401838280828437600092019190915250859250611446915050565b505050505050565b82828080601f0160208091040260200160405190810160405280939291908181526020018383808284376000920191909152506109e1925061169a915050565b6109ea8261129a565b905060006002836040518082805190602001908083835b60208310610a205780518252601f199092019160209182019101610a01565b51815160209384036101000a6000190180199092169116179052920194855250604051938490030190922054600160a060020a0316925050338214905080610a725750600054600160a060020a031633145b610ab05760405160e560020a62461bcd0281526004018080602001828103825260258152602001806116ce6025913960400191505060405180910390fd5b600160a060020a038416610af85760405160e560020a62461bcd02815260040180806020018281038252602b8152602001806117be602b913960400191505060405180910390fd5b836002878760405180838380828437919091019485525050604051928390036020019092208054600160a060020a039490941673ffffffffffffffffffffffffffffffffffffffff19909416939093179092555050505050505050565b610b5d61169a565b6040518060c00160405280600115158152602001868152602001858152602001848152602001600115158152602001836001811115610b9857fe5b8152509050610bde87878080601f016020809104026020016040519081016040528093929190818152602001838380828437600092019190915250859250611522915050565b806001888860405180838380828437919091019485525050604080519384900360209081019094208551815490151560ff1991821617825594860151600180830191909155918601516002820155606086015160038201556080860151600482018054911515919096161780865560a0870151919591945090925061ff00191690610100908490811115610c6e57fe5b0217905550905050336002888860405180838380828437919091019485525050604051928390036020019092208054600160a060020a039490941673ffffffffffffffffffffffffffffffffffffffff1990941693909317909255505050505050505050565b85858080601f016020809104026020016040519081016040528093929190818152602001838380828437600092019190915250610d14925061169a915050565b610d1d8261129a565b905060006002836040518082805190602001908083835b60208310610d535780518252601f199092019160209182019101610d34565b51815160209384036101000a6000190180199092169116179052920194855250604051938490030190922054600160a060020a0316925050338214905080610da55750600054600160a060020a031633145b610de35760405160e560020a62461bcd0281526004018080602001828103825260258152602001806116ce6025913960400191505060405180910390fd5b610deb61169a565b610e2a8a8a8080601f01602080910402602001604051908101604052809392919081815260200183838082843760009201919091525061129a92505050565b602081018990526040810188905260608101879052905060a08101856001811115610e5157fe5b90816001811115610e5e57fe5b81525050610ea38a8a8080601f016020809104026020016040519081016040528093929190818152602001838380828437600092019190915250859250611522915050565b50505050505050505050565b8051602081830181018051600282529282019190930120915254600160a060020a031681565b600054600160a060020a031681565b81818080601f016020809104026020016040519081016040528093929190818152602001838380828437600092019190915250610f24925061169a915050565b610f2d8261129a565b905060006002836040518082805190602001908083835b60208310610f635780518252601f199092019160209182019101610f44565b51815160209384036101000a6000190180199092169116179052920194855250604051938490030190922054600160a060020a0316925050338214905080610fb55750600054600160a060020a031633145b610ff35760405160e560020a62461bcd0281526004018080602001828103825260258152602001806116ce6025913960400191505060405180910390fd5b610ffb61169a565b61103a86868080601f01602080910402602001604051908101604052809392919081815260200183838082843760009201919091525061129a92505050565b608081015190915015611097576040805160e560020a62461bcd02815260206004820152601b60248201527f52756c652073657420697320616c726561647920656e61626c65640000000000604482015290519081900360640190fd5b60016080820152604080516020601f8801819004810282018101909252868152610999918890889081908401838280828437600092019190915250859250611446915050565b60006110e761169a565b600184846040518083838082843791909101948552505060408051938490036020908101852060c086018352805460ff90811615158752600180830154938801939093526002820154938701939093526003810154606087015260048101548084161515608088015290945060a08601935061010090049091169081111561116b57fe5b600181111561117657fe5b905250805190915015156001146111c15760405160e560020a62461bcd0281526004018080602001828103825260268152602001806117396026913960400191505060405180910390fd5b600060028585604051808383808284379190910194855250506040519283900360200190922054600160a060020a031694505050505092915050565b600054600160a060020a0316331461125f576040805160e560020a62461bcd02815260206004820152601f60248201527f556e617574686f72697a65642061636365737320746f20636f6e747261637400604482015290519081900360640190fd5b600160a060020a03811615611297576000805473ffffffffffffffffffffffffffffffffffffffff1916600160a060020a0383161790555b50565b6112a261169a565b60006001836040518082805190602001908083835b602083106112d65780518252601f1990920191602091820191016112b7565b51815160209384036101000a600019018019909216911617905292019485525060405193849003019092205460ff169250506001821515149050611364576040805160e560020a62461bcd02815260206004820152601360248201527f52756c6520646f6573206e6f7420657869737400000000000000000000000000604482015290519081900360640190fd5b61136c61169a565b6001846040518082805190602001908083835b6020831061139e5780518252601f19909201916020918201910161137f565b518151602093840361010090810a60001901801990931692909116919091179091529190930195865260408051968790038401872060c088018252805460ff90811615158952600180830154968a0196909652600282015492890192909252600381015460608901526004810154808316151560808a015290965060a088019550919091041691821115905061143057fe5b600181111561143b57fe5b905250949350505050565b806001836040518082805190602001908083835b602083106114795780518252601f19909201916020918201910161145a565b518151600019602094850361010090810a919091019182169119929092161790915293909101958652604080519687900382019096208751815490151560ff1991821617825591880151600182810191909155968801516002820155606088015160038201556080880151600482018054911515919093161780835560a0890151919791965091945061ff0019909116929150849081111561151757fe5b021790555050505050565b60006001836040518082805190602001908083835b602083106115565780518252601f199092019160209182019101611537565b51815160209384036101000a600019018019909216911617905292019485525060405193849003019092205460ff16925050811590506115ca5760405160e560020a62461bcd02815260040180806020018281038252602781526020018061175f6027913960400191505060405180910390fd5b60008260a0015160018111156115dc57fe5b141561162b576060820151156116265760405160e560020a62461bcd0281526004018080602001828103825260388152602001806117866038913960400191505060405180910390fd5b611695565b60018260a00151600181111561163d57fe5b141561169557602082015115801561165757506040820151155b6116955760405160e560020a62461bcd0281526004018080602001828103825260468152602001806116f36046913960600191505060405180910390fd5b505050565b6040805160c08101825260008082526020820181905291810182905260608101829052608081018290529060a08201529056fe63616e6e6f74206d6f646966792072756c652c207065726d697373696f6e2064656e69656452756c6520646566696e6974696f6e20666f722076616c75652072657175697265732074686174206d696e696d756d20616e64206d6178696d756d206669656c6420697320304e6f2072756c6520646566696e6974696f6e7320666f756e6420666f722072756c65206b657952756c6520636f6e66696775726174696f6e2068617320616c7265616479206265656e2073657452756c6520646566696e6974696f6e20666f722072616e67652072657175697265732074686174206578616374206669656c642069732030496e76616c696420616464726573732070617373656420666f72206e65772072756c65206d616e61676572a2646970667358221220268b99bb840723f91a354dae367dd618dda399769f602f2c62f792e366ff1ef364736f6c63430006060033",
  "immutableReferences": {},
  "source": "// SPDX-License-Identifier: MIT\n\npragma solidity >=0.4.22 <0.8.0;\n\nimport \"./Ownable.sol\";\nimport \"../interfaces/ISavingsConfigSchema.sol\";\n\ncontract SavingsConfig is ISavingsConfigSchema, Ownable {\n\n    mapping(string => RuleSet) public RuleMapping;\n    mapping(string => address) public RuleModifier;\n\n    constructor() public {}\n\n    function getRuleSet(string calldata ruleKey)\n        external\n        returns (\n            uint256,\n            uint256,\n            uint256,\n            bool,\n            RuleDefinition\n        )\n    {\n        RuleSet memory ruleSet = RuleMapping[ruleKey];\n\n        require(\n            ruleSet.exists == true,\n            \"No rule definitions found for rule key\"\n        );\n\n        return (\n            ruleSet.minimum,\n            ruleSet.maximum,\n            ruleSet.exact,\n            ruleSet.applies,\n            ruleSet.ruleDefinition\n        );\n    }\n\n    function getRuleManager(string calldata ruleKey)\n        external\n        returns (address)\n    {\n        RuleSet memory ruleSet = RuleMapping[ruleKey];\n        require(\n            ruleSet.exists == true,\n            \"No rule definitions found for rule key\"\n        );\n        address ruleManager = RuleModifier[ruleKey];\n        return (ruleManager);\n    }\n\n    function changeRuleCreator(string calldata ruleKey, address newRuleManager)\n        external\n        onlyRuleCreatorOrOwner(ruleKey)\n    {\n        require(\n            newRuleManager != address(0),\n            \"Invalid address passed for new rule manager\"\n        );\n        RuleModifier[ruleKey] = newRuleManager;\n    }\n\n    function createRule(\n        string calldata ruleKey,\n        uint256 minimum,\n        uint256 maximum,\n        uint256 exact,\n        RuleDefinition ruleDefinition\n    ) external {\n        RuleSet memory rule = RuleSet(\n            true,\n            minimum,\n            maximum,\n            exact,\n            true,\n            ruleDefinition\n        );\n        _validateRuleCreation(ruleKey, rule);\n        RuleMapping[ruleKey] = rule;\n        RuleModifier[ruleKey] = msg.sender;\n    }\n\n    function modifyRule(\n        string calldata ruleKey,\n        uint256 minimum,\n        uint256 maximum,\n        uint256 exact,\n        RuleDefinition ruleDefinition\n    ) external onlyRuleCreatorOrOwner(ruleKey) {\n        RuleSet memory ruleSet = _getRule(ruleKey);\n        ruleSet.minimum = minimum;\n        ruleSet.maximum = maximum;\n        ruleSet.exact = exact;\n        ruleSet.ruleDefinition = ruleDefinition;\n        _validateRuleCreation(ruleKey, ruleSet);\n    }\n\n    function disableRule(string calldata ruleKey)\n        external\n        onlyRuleCreatorOrOwner(ruleKey)\n    {\n        RuleSet memory ruleSet = _getRule(ruleKey);\n        require(ruleSet.applies == true, \"Rule set is already disabled\");\n        ruleSet.applies = false;\n        _saveRule(ruleKey, ruleSet);\n    }\n\n    function enableRule(string calldata ruleKey)\n        external\n        onlyRuleCreatorOrOwner(ruleKey)\n    {\n        RuleSet memory ruleSet = _getRule(ruleKey);\n        require(ruleSet.applies == false, \"Rule set is already enabled\");\n        ruleSet.applies = true;\n        _saveRule(ruleKey, ruleSet);\n    }\n\n    function _getRule(string memory ruleKey) internal returns (RuleSet memory) {\n        bool ruleExist = RuleMapping[ruleKey].exists;\n        require(ruleExist == true, \"Rule does not exist\");\n        RuleSet memory ruleSet = RuleMapping[ruleKey];\n        return ruleSet;\n    }\n\n    function _saveRule(string memory ruleKey, RuleSet memory ruleSet) internal {\n        RuleMapping[ruleKey] = ruleSet;\n    }\n\n    function _validateRuleCreation(string memory ruleKey, RuleSet memory rule)\n        internal\n    {\n        bool ruleExist = RuleMapping[ruleKey].exists;\n        require(ruleExist == false, \"Rule configuration has already been set\");\n\n        if (rule.ruleDefinition == RuleDefinition.RANGE) {\n            require(\n                rule.exact == 0,\n                \"Rule definition for range requires that exact field is 0\"\n            );\n        } else if (rule.ruleDefinition == RuleDefinition.VALUE) {\n            require(\n                rule.minimum == 0 && rule.maximum == 0,\n                \"Rule definition for value requires that minimum and maximum field is 0\"\n            );\n        }\n    }\n\n    modifier onlyRuleCreatorOrOwner(string memory ruleKey) {\n        RuleSet memory ruleSet = _getRule(ruleKey);\n        address ruleCreator = RuleModifier[ruleKey];\n\n        require(\n            msg.sender == ruleCreator || msg.sender == owner,\n            \"cannot modify rule, permission denied\"\n        );\n        _;\n    }\n}\n",
  "sourcePath": "/Users/mac/Desktop/BinaryHiils/esusu/test/contracts/SavingsConfig.sol",
  "compiler": {
    "name": "solc",
    "version": "0.6.6+commit.6c089d02.Emscripten.clang"
  },
  "schemaVersion": "3.3.2",
  "updatedAt": "2021-02-03T16:37:21.466Z",
  "devdoc": {
    "methods": {}
  },
  "userdoc": {
    "methods": {}
  }
}