{
  "contractName": "StorageOwners",
  "abi": [
    {
      "inputs": [],
      "stateMutability": "nonpayable",
      "type": "constructor"
    },
    {
      "inputs": [
        {
          "internalType": "address",
          "name": "oracle",
          "type": "address"
        }
      ],
      "name": "activateStorageOracle",
      "outputs": [],
      "stateMutability": "nonpayable",
      "type": "function"
    },
    {
      "inputs": [
        {
          "internalType": "address",
          "name": "oracle",
          "type": "address"
        }
      ],
      "name": "deactivateStorageOracle",
      "outputs": [],
      "stateMutability": "nonpayable",
      "type": "function"
    },
    {
      "inputs": [
        {
          "internalType": "address",
          "name": "newOracle",
          "type": "address"
        }
      ],
      "name": "reAssignStorageOracle",
      "outputs": [],
      "stateMutability": "nonpayable",
      "type": "function"
    },
    {
      "inputs": [
        {
          "internalType": "address payable",
          "name": "newOwner",
          "type": "address"
        }
      ],
      "name": "transferOwnership",
      "outputs": [],
      "stateMutability": "nonpayable",
      "type": "function"
    }
  ],
  "bytecode": "0x608060405234801561001057600080fd5b5060008054600160a060020a0319163317905561035f806100326000396000f3fe608060405234801561001057600080fd5b5060043610610068577c010000000000000000000000000000000000000000000000000000000060003504630fdf80ed811461006d5780636041fc88146100955780636f583ba6146100bb578063f2fde38b146100e1575b600080fd5b6100936004803603602081101561008357600080fd5b5035600160a060020a0316610107565b005b610093600480360360208110156100ab57600080fd5b5035600160a060020a0316610196565b610093600480360360208110156100d157600080fd5b5035600160a060020a0316610207565b610093600480360360208110156100f757600080fd5b5035600160a060020a031661027e565b3360009081526001602052604090205460ff168061015d576040805160e560020a62461bcd02815260206004820152601f602482015260008051602061030a833981519152604482015290519081900360640190fd5b50336000908152600160208190526040808320805460ff19908116909155600160a060020a039490941683529091208054909216179055565b600054600160a060020a031633146101e6576040805160e560020a62461bcd02815260206004820152601f602482015260008051602061030a833981519152604482015290519081900360640190fd5b600160a060020a03166000908152600160205260409020805460ff19169055565b600054600160a060020a03163314610257576040805160e560020a62461bcd02815260206004820152601f602482015260008051602061030a833981519152604482015290519081900360640190fd5b600160a060020a03166000908152600160208190526040909120805460ff19169091179055565b600054600160a060020a031633146102ce576040805160e560020a62461bcd02815260206004820152601f602482015260008051602061030a833981519152604482015290519081900360640190fd5b600160a060020a03811615610306576000805473ffffffffffffffffffffffffffffffffffffffff1916600160a060020a0383161790555b5056fe756e617574686f72697a65642061636365737320746f20636f6e747261637400a26469706673582212204449a1931a4b53aab1051733a40df78a99b3d7f84f2ee809627d6c0e01e761fa64736f6c63430006060033",
  "immutableReferences": {},
  "source": "// SPDX-License-Identifier: MIT\npragma solidity >=0.6.6;\n\ncontract StorageOwners {\n    address owner;\n    mapping(address => bool) private storageOracles;\n\n    constructor() public {\n        owner = msg.sender;\n    }\n\n    function activateStorageOracle(address oracle) external onlyOwner {\n        storageOracles[oracle] = true;\n    }\n\n    function deactivateStorageOracle(address oracle) external onlyOwner {\n        storageOracles[oracle] = false;\n    }\n\n    function reAssignStorageOracle(address newOracle)\n        external\n        onlyStorageOracle\n    {\n        storageOracles[msg.sender] = false;\n        storageOracles[newOracle] = true;\n    }\n\n    function transferOwnership(address payable newOwner) public onlyOwner {\n        if (newOwner != address(0)) {\n            owner = newOwner;\n        }\n    }\n\n    modifier onlyOwner() {\n        require(msg.sender == owner, \"unauthorized access to contract\");\n        _;\n    }\n\n    modifier onlyStorageOracle() {\n        bool hasAccess = storageOracles[msg.sender];\n        require(hasAccess, \"unauthorized access to contract\");\n        _;\n    }\n}\n",
  "sourcePath": "/Users/mac/Desktop/BinaryHiils/esusu/test/contracts/StorageOwners.sol",
  "compiler": {
    "name": "solc",
    "version": "0.6.6+commit.6c089d02.Emscripten.clang"
  },
  "schemaVersion": "3.3.2",
  "updatedAt": "2021-02-03T16:37:21.471Z",
  "devdoc": {
    "methods": {}
  },
  "userdoc": {
    "methods": {}
  }
}