{
  "contractName": "DaiLendingAdapter",
  "abi": [
    {
      "inputs": [
        {
          "internalType": "address payable",
          "name": "serviceContract",
          "type": "address"
        }
      ],
      "stateMutability": "nonpayable",
      "type": "constructor"
    },
    {
      "inputs": [],
      "name": "owner",
      "outputs": [
        {
          "internalType": "address payable",
          "name": "",
          "type": "address"
        }
      ],
      "stateMutability": "view",
      "type": "function",
      "constant": true
    },
    {
      "inputs": [],
      "name": "serviceContract",
      "outputs": [
        {
          "internalType": "address payable",
          "name": "",
          "type": "address"
        }
      ],
      "stateMutability": "view",
      "type": "function",
      "constant": true
    },
    {
      "inputs": [
        {
          "internalType": "address payable",
          "name": "newServiceContract",
          "type": "address"
        }
      ],
      "name": "transferContractOwnership",
      "outputs": [],
      "stateMutability": "nonpayable",
      "type": "function"
    },
    {
      "inputs": [
        {
          "internalType": "address payable",
          "name": "newOwner",
          "type": "address"
        }
      ],
      "name": "transferOwnership",
      "outputs": [],
      "stateMutability": "nonpayable",
      "type": "function"
    },
    {
      "inputs": [],
      "name": "GetPricePerFullShare",
      "outputs": [
        {
          "internalType": "uint256",
          "name": "",
          "type": "uint256"
        }
      ],
      "stateMutability": "view",
      "type": "function",
      "constant": true
    },
    {
      "inputs": [
        {
          "internalType": "address",
          "name": "account",
          "type": "address"
        }
      ],
      "name": "GetYDaiBalance",
      "outputs": [
        {
          "internalType": "uint256",
          "name": "",
          "type": "uint256"
        }
      ],
      "stateMutability": "view",
      "type": "function",
      "constant": true
    },
    {
      "inputs": [
        {
          "internalType": "address",
          "name": "account",
          "type": "address"
        }
      ],
      "name": "GetDaiBalance",
      "outputs": [
        {
          "internalType": "uint256",
          "name": "",
          "type": "uint256"
        }
      ],
      "stateMutability": "view",
      "type": "function",
      "constant": true
    },
    {
      "inputs": [
        {
          "internalType": "uint256",
          "name": "amount",
          "type": "uint256"
        },
        {
          "internalType": "address",
          "name": "account",
          "type": "address"
        }
      ],
      "name": "save",
      "outputs": [],
      "stateMutability": "nonpayable",
      "type": "function"
    },
    {
      "inputs": [
        {
          "internalType": "address",
          "name": "account",
          "type": "address"
        }
      ],
      "name": "GetGrossRevenue",
      "outputs": [
        {
          "internalType": "uint256",
          "name": "",
          "type": "uint256"
        }
      ],
      "stateMutability": "view",
      "type": "function",
      "constant": true
    },
    {
      "inputs": [
        {
          "internalType": "address",
          "name": "account",
          "type": "address"
        }
      ],
      "name": "GetNetRevenue",
      "outputs": [
        {
          "internalType": "uint256",
          "name": "",
          "type": "uint256"
        }
      ],
      "stateMutability": "view",
      "type": "function",
      "constant": true
    },
    {
      "inputs": [
        {
          "internalType": "uint256",
          "name": "amount",
          "type": "uint256"
        },
        {
          "internalType": "address",
          "name": "owner",
          "type": "address"
        }
      ],
      "name": "Withdraw",
      "outputs": [],
      "stateMutability": "nonpayable",
      "type": "function"
    },
    {
      "inputs": [
        {
          "internalType": "uint256",
          "name": "amount",
          "type": "uint256"
        },
        {
          "internalType": "address",
          "name": "owner",
          "type": "address"
        },
        {
          "internalType": "uint256",
          "name": "sharesAmount",
          "type": "uint256"
        }
      ],
      "name": "WithdrawByShares",
      "outputs": [],
      "stateMutability": "nonpayable",
      "type": "function"
    },
    {
      "inputs": [
        {
          "internalType": "address",
          "name": "owner",
          "type": "address"
        },
        {
          "internalType": "uint256",
          "name": "sharesAmount",
          "type": "uint256"
        }
      ],
      "name": "WithdrawBySharesOnly",
      "outputs": [],
      "stateMutability": "nonpayable",
      "type": "function"
    }
  ],
  "bytecode": "0x608060405260028054600160a060020a0319908116736b175474e89094c44da98b954eedeac495271d0f179091556003805490911673c2cb1040220768554cf699b0d863a3cd4324ce3217905534801561005857600080fd5b506040516117ae3803806117ae8339818101604052602081101561007b57600080fd5b505160008054600160a060020a0319908116331790915560018054600160a060020a03909316929091169190911790556116f4806100ba6000396000f3fe608060405234801561001057600080fd5b50600436106100d35760003560e060020a90048063a843c51f11610090578063ef1dff551161006a578063ef1dff5514610216578063f2fde38b14610242578063f6a4b3d514610268578063fdd085cc1461028e576100d3565b8063a843c51f146101b6578063df3b642d146101dc578063dfba2954146101e4576100d3565b80632f4cbe38146100d8578063364dab101461011057806373faaf38146101345780638353ffca1461015a5780638da5cb5b14610188578063a4d86fb414610190575b600080fd5b6100fe600480360360208110156100ee57600080fd5b5035600160a060020a03166102ba565b60408051918252519081900360200190f35b610118610340565b60408051600160a060020a039092168252519081900360200190f35b6100fe6004803603602081101561014a57600080fd5b5035600160a060020a031661034f565b6101866004803603604081101561017057600080fd5b5080359060200135600160a060020a031661046b565b005b6101186107f2565b6100fe600480360360208110156101a657600080fd5b5035600160a060020a0316610801565b610186600480360360208110156101cc57600080fd5b5035600160a060020a0316610968565b6100fe610a08565b610186600480360360608110156101fa57600080fd5b50803590600160a060020a036020820135169060400135610a97565b6101866004803603604081101561022c57600080fd5b50600160a060020a038135169060200135610da0565b6101866004803603602081101561025857600080fd5b5035600160a060020a0316611097565b6100fe6004803603602081101561027e57600080fd5b5035600160a060020a0316611123565b610186600480360360408110156102a457600080fd5b5080359060200135600160a060020a0316611177565b6002546040805160e060020a6370a08231028152600160a060020a038481166004830152915160009392909216916370a0823191602480820192602092909190829003018186803b15801561030e57600080fd5b505afa158015610322573d6000803e3d6000fd5b505050506040513d602081101561033857600080fd5b505192915050565b600154600160a060020a031681565b600080600360009054906101000a9004600160a060020a0316600160a060020a03166377c7b8fc6040518163ffffffff1660e060020a02815260040160206040518083038186803b1580156103a357600080fd5b505afa1580156103b7573d6000803e3d6000fd5b505050506040513d60208110156103cd57600080fd5b50516003546040805160e060020a6370a08231028152600160a060020a038781166004830152915193945060009391909216916370a08231916024808301926020929190829003018186803b15801561042557600080fd5b505afa158015610439573d6000803e3d6000fd5b505050506040513d602081101561044f57600080fd5b50519050610463818363ffffffff61127616565b949350505050565b600054600160a060020a031633148061048e5750600154600160a060020a031633145b6104d0576040805160e560020a62461bcd02815260206004820152601f602482015260008051602061167e833981519152604482015290519081900360640190fd5b6003546040805160e060020a6370a08231028152600160a060020a038481166004830152915160009392909216916370a0823191602480820192602092909190829003018186803b15801561052457600080fd5b505afa158015610538573d6000803e3d6000fd5b505050506040513d602081101561054e57600080fd5b50516003546040805160e060020a6323b872dd028152600160a060020a0386811660048301523060248301526044820185905291519394509116916323b872dd916064808201926020929091908290030181600087803b1580156105b157600080fd5b505af11580156105c5573d6000803e3d6000fd5b505050506040513d60208110156105db57600080fd5b5050600354604080517f2e1a7d4d000000000000000000000000000000000000000000000000000000008152600481018490529051600160a060020a0390921691632e1a7d4d9160248082019260009290919082900301818387803b15801561064357600080fd5b505af1158015610657573d6000803e3d6000fd5b50506002546040805160e060020a63a9059cbb028152600160a060020a03878116600483015260248201899052915191909216935063a9059cbb925060448083019260209291908290030181600087803b1580156106b457600080fd5b505af11580156106c8573d6000803e3d6000fd5b505050506040513d60208110156106de57600080fd5b5050600160a060020a038216600090815260046020526040902054831161074657600160a060020a038216600090815260046020526040902054610728908463ffffffff6112db16565b600160a060020a038316600090815260046020526040902055610760565b600160a060020a0382166000908152600460205260408120555b6002546040805160e060020a6370a082310281523060048201529051600092600160a060020a0316916370a08231916024808301926020929190829003018186803b1580156107ae57600080fd5b505afa1580156107c2573d6000803e3d6000fd5b505050506040513d60208110156107d857600080fd5b5051905080156107ec576107ec818461131d565b50505050565b600054600160a060020a031681565b600080600360009054906101000a9004600160a060020a0316600160a060020a03166377c7b8fc6040518163ffffffff1660e060020a02815260040160206040518083038186803b15801561085557600080fd5b505afa158015610869573d6000803e3d6000fd5b505050506040513d602081101561087f57600080fd5b50516003546040805160e060020a6370a08231028152600160a060020a038781166004830152915193945060009391909216916370a08231916024808301926020929190829003018186803b1580156108d757600080fd5b505afa1580156108eb573d6000803e3d6000fd5b505050506040513d602081101561090157600080fd5b505190506000610917828463ffffffff61127616565b600160a060020a0386166000908152600460205260408120549192509061094c90670de0b6b3a764000063ffffffff61127616565b905061095e828263ffffffff6112db16565b9695505050505050565b600054600160a060020a031633148061098b5750600154600160a060020a031633145b6109cd576040805160e560020a62461bcd02815260206004820152601f602482015260008051602061167e833981519152604482015290519081900360640190fd5b600160a060020a03811615610a05576001805473ffffffffffffffffffffffffffffffffffffffff1916600160a060020a0383161790555b50565b600354604080517f77c7b8fc0000000000000000000000000000000000000000000000000000000081529051600092600160a060020a0316916377c7b8fc916004808301926020929190829003018186803b158015610a6657600080fd5b505afa158015610a7a573d6000803e3d6000fd5b505050506040513d6020811015610a9057600080fd5b5051905090565b600054600160a060020a0316331480610aba5750600154600160a060020a031633145b610afc576040805160e560020a62461bcd02815260206004820152601f602482015260008051602061167e833981519152604482015290519081900360640190fd5b6003546040805160e060020a6323b872dd028152600160a060020a038581166004830152306024830152604482018590529151849392909216916323b872dd916064808201926020929091908290030181600087803b158015610b5e57600080fd5b505af1158015610b72573d6000803e3d6000fd5b505050506040513d6020811015610b8857600080fd5b5050600354604080517f2e1a7d4d000000000000000000000000000000000000000000000000000000008152600481018490529051600160a060020a0390921691632e1a7d4d9160248082019260009290919082900301818387803b158015610bf057600080fd5b505af1158015610c04573d6000803e3d6000fd5b50506002546040805160e060020a63a9059cbb028152600160a060020a038881166004830152602482018a9052915191909216935063a9059cbb925060448083019260209291908290030181600087803b158015610c6157600080fd5b505af1158015610c75573d6000803e3d6000fd5b505050506040513d6020811015610c8b57600080fd5b5050600160a060020a0383166000908152600460205260409020548411610cf357600160a060020a038316600090815260046020526040902054610cd5908563ffffffff6112db16565b600160a060020a038416600090815260046020526040902055610d0d565b600160a060020a0383166000908152600460205260408120555b6002546040805160e060020a6370a082310281523060048201529051600092600160a060020a0316916370a08231916024808301926020929190829003018186803b158015610d5b57600080fd5b505afa158015610d6f573d6000803e3d6000fd5b505050506040513d6020811015610d8557600080fd5b505190508015610d9957610d99818561131d565b5050505050565b600054600160a060020a0316331480610dc35750600154600160a060020a031633145b610e05576040805160e560020a62461bcd02815260206004820152601f602482015260008051602061167e833981519152604482015290519081900360640190fd5b6003546040805160e060020a6323b872dd028152600160a060020a038581166004830152306024830152604482018590529151849392909216916323b872dd916064808201926020929091908290030181600087803b158015610e6757600080fd5b505af1158015610e7b573d6000803e3d6000fd5b505050506040513d6020811015610e9157600080fd5b5050600354604080517f2e1a7d4d000000000000000000000000000000000000000000000000000000008152600481018490529051600160a060020a0390921691632e1a7d4d9160248082019260009290919082900301818387803b158015610ef957600080fd5b505af1158015610f0d573d6000803e3d6000fd5b50506002546040805160e060020a6370a08231028152306004820152905160009450600160a060020a0390921692506370a08231916024808301926020929190829003018186803b158015610f6157600080fd5b505afa158015610f75573d6000803e3d6000fd5b505050506040513d6020811015610f8b57600080fd5b50516002546040805160e060020a63a9059cbb028152600160a060020a03888116600483015260248201859052915193945091169163a9059cbb916044808201926020929091908290030181600087803b158015610fe857600080fd5b505af1158015610ffc573d6000803e3d6000fd5b505050506040513d602081101561101257600080fd5b5050600160a060020a038416600090815260046020526040902054811161107a57600160a060020a03841660009081526004602052604090205461105c908263ffffffff6112db16565b600160a060020a0385166000908152600460205260409020556107ec565b505050600160a060020a0316600090815260046020526040812055565b600054600160a060020a031633146110e7576040805160e560020a62461bcd02815260206004820152601f602482015260008051602061167e833981519152604482015290519081900360640190fd5b600160a060020a03811615610a055760008054600160a060020a03831673ffffffffffffffffffffffffffffffffffffffff1990911617905550565b6003546040805160e060020a6370a08231028152600160a060020a038481166004830152915160009392909216916370a0823191602480820192602092909190829003018186803b15801561030e57600080fd5b600054600160a060020a031633148061119a5750600154600160a060020a031633145b6111dc576040805160e560020a62461bcd02815260206004820152601f602482015260008051602061167e833981519152604482015290519081900360640190fd5b6002546040805160e060020a6323b872dd028152600160a060020a03848116600483015230602483015260448201869052915191909216916323b872dd9160648083019260209291908290030181600087803b15801561123b57600080fd5b505af115801561124f573d6000803e3d6000fd5b505050506040513d602081101561126557600080fd5b506112729050828261131d565b5050565b600082611285575060006112d5565b8282028284828161129257fe5b04146112d25760405160e560020a62461bcd02815260040180806020018281038252602181526020018061169e6021913960400191505060405180910390fd5b90505b92915050565b60006112d283836040518060400160405280601e81526020017f536166654d6174683a207375627472616374696f6e206f766572666c6f770000815250611586565b600254600354604080517f095ea7b3000000000000000000000000000000000000000000000000000000008152600160a060020a039283166004820152602481018690529051919092169163095ea7b39160448083019260209291908290030181600087803b15801561138f57600080fd5b505af11580156113a3573d6000803e3d6000fd5b505050506040513d60208110156113b957600080fd5b5050600354604080517fb6b55f25000000000000000000000000000000000000000000000000000000008152600481018590529051600160a060020a039092169163b6b55f259160248082019260009290919082900301818387803b15801561142157600080fd5b505af1158015611435573d6000803e3d6000fd5b50506003546040805160e060020a6370a08231028152306004820152905160009450600160a060020a0390921692506370a08231916024808301926020929190829003018186803b15801561148957600080fd5b505afa15801561149d573d6000803e3d6000fd5b505050506040513d60208110156114b357600080fd5b50516003546040805160e060020a63a9059cbb028152600160a060020a03868116600483015260248201859052915193945091169163a9059cbb916044808201926020929091908290030181600087803b15801561151057600080fd5b505af1158015611524573d6000803e3d6000fd5b505050506040513d602081101561153a57600080fd5b5050600160a060020a038216600090815260046020526040902054611565908463ffffffff61162016565b600160a060020a039092166000908152600460205260409020919091555050565b600081848411156116185760405160e560020a62461bcd0281526004018080602001828103825283818151815260200191508051906020019080838360005b838110156115dd5781810151838201526020016115c5565b50505050905090810190601f16801561160a5780820380516001836020036101000a031916815260200191505b509250505060405180910390fd5b505050900390565b6000828201838110156112d2576040805160e560020a62461bcd02815260206004820152601b60248201527f536166654d6174683a206164646974696f6e206f766572666c6f770000000000604482015290519081900360640190fdfe556e617574686f72697a65642061636365737320746f20636f6e747261637400536166654d6174683a206d756c7469706c69636174696f6e206f766572666c6f77a2646970667358221220d15121ba45da8f020a886496422d2d6f74f0cabf8237aacf0efb21ebccd8d4e464736f6c63430006060033",
  "immutableReferences": {},
  "source": "pragma solidity ^0.6.6;\n\nimport \"./IDaiToken.sol\";\nimport \"./IYDaiToken.sol\";\nimport \"./Ownable.sol\";\n\nlibrary SafeMath {\n    function add(uint256 a, uint256 b) internal pure returns (uint256) {\n        uint256 c = a + b;\n        require(c >= a, \"SafeMath: addition overflow\");\n\n        return c;\n    }\n\n    function sub(uint256 a, uint256 b) internal pure returns (uint256) {\n        return sub(a, b, \"SafeMath: subtraction overflow\");\n    }\n\n    function sub(\n        uint256 a,\n        uint256 b,\n        string memory errorMessage\n    ) internal pure returns (uint256) {\n        require(b <= a, errorMessage);\n        uint256 c = a - b;\n\n        return c;\n    }\n\n    function mul(uint256 a, uint256 b) internal pure returns (uint256) {\n        if (a == 0) {\n            return 0;\n        }\n\n        uint256 c = a * b;\n        require(c / a == b, \"SafeMath: multiplication overflow\");\n\n        return c;\n    }\n\n    function div(uint256 a, uint256 b) internal pure returns (uint256) {\n        return div(a, b, \"SafeMath: division by zero\");\n    }\n\n    function div(\n        uint256 a,\n        uint256 b,\n        string memory errorMessage\n    ) internal pure returns (uint256) {\n        // Solidity only automatically asserts when dividing by 0\n        require(b > 0, errorMessage);\n        uint256 c = a / b;\n\n        return c;\n    }\n\n    function mod(uint256 a, uint256 b) internal pure returns (uint256) {\n        return mod(a, b, \"SafeMath: modulo by zero\");\n    }\n\n    function mod(\n        uint256 a,\n        uint256 b,\n        string memory errorMessage\n    ) internal pure returns (uint256) {\n        require(b != 0, errorMessage);\n        return a % b;\n    }\n}\n\ncontract DaiLendingAdapter is Ownable {\n    using SafeMath for uint256;\n\n    IDaiToken dai = IDaiToken(0x6B175474E89094C44Da98b954EedeAC495271d0F);\n\n    IYDaiToken yDai = IYDaiToken(0xC2cB1040220768554cf699b0d863A3cd4324ce32);\n\n    mapping(address => uint256) userDaiDeposits;\n\n    constructor(address payable serviceContract)\n        public\n        Ownable(serviceContract)\n    {}\n\n    function GetPricePerFullShare() public view returns (uint256) {\n        return yDai.getPricePerFullShare();\n    }\n\n    function GetYDaiBalance(address account) public view returns (uint256) {\n        return yDai.balanceOf(account);\n    }\n\n    function GetDaiBalance(address account) public view returns (uint256) {\n        return dai.balanceOf(account);\n    }\n\n    /*\n        account: this is the owner of the Dai token\n    */\n    function save(uint256 amount, address account)\n        public\n        onlyOwnerAndServiceContract\n    {\n        //  Give allowance that a spender can spend on behalf of the owner. NOTE: This approve function has to be called from outside this smart contract because if you call\n        //  it from the smart contract, it will use the smart contract address as msg.sender which is not what we want,\n        //  we want the address with the DAI token to be the one that will be msg.sender. Hence the line below will not work and needs to be called\n        //  from Javascript or C# environment\n        //   dai.approve(address(this),amount); (Not work)\n\n        //  See example with Node.js below\n        //  await daiContract.methods.approve(\"recipient(in our case, this smart contract address)\",1000000).send({from: \"wallet address with DAI\"});\n\n        //  Transfer DAI from the account address to this smart contract address\n        dai.transferFrom(account, address(this), amount);\n\n        //  This gives the yDAI contract approval to invest our DAI\n        _save(amount, account);\n    }\n\n    //  This function returns your DAI balance + interest. NOTE: There is no function in Yearn finance that gives you the direct balance of DAI\n    //  So you have to get it in two steps\n\n    function GetGrossRevenue(address account) public view returns (uint256) {\n        //  Get the price per full share\n        uint256 price = yDai.getPricePerFullShare();\n\n        //  Get the balance of yDai in this users address\n        uint256 balanceShares = yDai.balanceOf(account);\n\n        return balanceShares.mul(price);\n    }\n\n    function GetNetRevenue(address account) public view returns (uint256) {\n        //  Get the price per full share\n        uint256 price = yDai.getPricePerFullShare();\n\n        //  Get the balance of yDai in this users address\n        uint256 balanceShares = yDai.balanceOf(account);\n\n        uint256 grossBalance = balanceShares.mul(price); //   value in 10 ^ 36\n\n        uint256 userDaiDepositBalance = userDaiDeposits[account].mul(1e18); // multiply dai deposit by 1 * 10 ^ 18 to get value in 10 ^36\n\n        return grossBalance.sub(userDaiDepositBalance);\n    }\n\n    function Withdraw(uint256 amount, address owner)\n        public\n        onlyOwnerAndServiceContract\n    {\n        //  To withdraw our DAI amount, the amount argument is in DAI but the withdraw function of the yDAI expects amount in yDAI token\n        //  So we need to find our balance in yDAI\n\n        uint256 balanceShares = yDai.balanceOf(owner);\n\n        //  transfer yDai From owner to this contract address\n        yDai.transferFrom(owner, address(this), balanceShares);\n\n        //  We now call the withdraw function to withdraw the total DAI we have. This withdrawal is sent to this smart contract\n        yDai.withdraw(balanceShares);\n\n        //  Now all the DAI we have are in the smart contract wallet, we can now transfer the specified amount to a recipient of our choice\n        dai.transfer(owner, amount);\n\n        //   remove withdrawn dai of this owner from userDaiDeposits mapping\n        if (userDaiDeposits[owner] >= amount) {\n            userDaiDeposits[owner] = userDaiDeposits[owner].sub(amount);\n        } else {\n            userDaiDeposits[owner] = 0;\n        }\n\n        //  If we have some DAI left after transferring a specified amount to a recipient, we can re-invest it in yearn finance\n        uint256 balanceDai = dai.balanceOf(address(this));\n\n        if (balanceDai > 0) {\n            //  This gives the yDAI contract approval to invest our DAI\n            _save(balanceDai, owner);\n        }\n    }\n\n    function WithdrawByShares(\n        uint256 amount,\n        address owner,\n        uint256 sharesAmount\n    ) public onlyOwnerAndServiceContract {\n        //  To withdraw our DAI amount, the amount argument is in DAI but the withdraw function of the yDAI expects amount in yDAI token\n\n        uint256 balanceShares = sharesAmount;\n\n        //  transfer yDai From owner to this contract address\n        yDai.transferFrom(owner, address(this), balanceShares);\n\n        //  We now call the withdraw function to withdraw the total DAI we have. This withdrawal is sent to this smart contract\n        yDai.withdraw(balanceShares);\n\n        //  Now all the DAI we have are in the smart contract wallet, we can now transfer the specified amount to a recipient of our choice\n        dai.transfer(owner, amount);\n\n        //   remove withdrawn dai of this owner from userDaiDeposits mapping\n        if (userDaiDeposits[owner] >= amount) {\n            userDaiDeposits[owner] = userDaiDeposits[owner].sub(amount);\n        } else {\n            userDaiDeposits[owner] = 0;\n        }\n\n        //  If we have some DAI left after transferring a specified amount to a recipient, we can re-invest it in yearn finance\n        uint256 balanceDai = dai.balanceOf(address(this));\n\n        if (balanceDai > 0) {\n            //  This gives the yDAI contract approval to invest our DAI\n            _save(balanceDai, owner);\n        }\n    }\n\n    /*\n        this function withdraws all the dai to this contract based on the sharesAmount passed\n    */\n    function WithdrawBySharesOnly(address owner, uint256 sharesAmount)\n        public\n        onlyOwnerAndServiceContract\n    {\n        uint256 balanceShares = sharesAmount;\n\n        //  transfer yDai From owner to this contract address\n        yDai.transferFrom(owner, address(this), balanceShares);\n\n        //  We now call the withdraw function to withdraw the total DAI we have. This withdrawal is sent to this smart contract\n        yDai.withdraw(balanceShares);\n\n        uint256 contractDaiBalance = dai.balanceOf(address(this));\n\n        //  Now all the DAI we have are in the smart contract wallet, we can now transfer the total amount to the recipient\n        dai.transfer(owner, contractDaiBalance);\n\n        //   remove withdrawn dai of this owner from userDaiDeposits mapping\n        if (userDaiDeposits[owner] >= contractDaiBalance) {\n            userDaiDeposits[owner] = userDaiDeposits[owner].sub(\n                contractDaiBalance\n            );\n        } else {\n            userDaiDeposits[owner] = 0;\n        }\n\n        //  We do not have any dai left in this contract so nothing to re-invest\n\n        // //  If we have some DAI left after transferring a specified amount to a recipient, we can re-invest it in yearn finance\n        // uint balanceDai = dai.balanceOf(address(this));\n\n        // if(balanceDai > 0){\n        //     //  This gives the yDAI contract approval to invest our DAI\n        //     _save(balanceDai,owner);\n        // }\n    }\n\n    //  This function is an internal function that enabled DAI contract where user has money to approve the yDai contract address to invest the user's DAI\n    //  and to send the yDai shares to the user's address\n    function _save(uint256 amount, address account) internal {\n        //  Approve the yDAI contract address to spend amount of DAI\n        dai.approve(address(yDai), amount);\n\n        //  Now our yDAI contract has deposited our DAI and it is earning interest and this gives us yDAI token in this Wallet contract\n        //  and we will use the yDAI token to redeem our DAI\n        yDai.deposit(amount);\n\n        //  call balanceOf and get the total balance of yDai in this contract\n        uint256 shares = yDai.balanceOf(address(this));\n\n        //  transfer the yDai shares to the user's address\n        yDai.transfer(account, shares);\n\n        //  add deposited dai to userDaiDeposits mapping\n        userDaiDeposits[account] = userDaiDeposits[account].add(amount);\n    }\n}\n",
  "sourcePath": "/Users/njokuscript/Desktop/programming/esusu/contracts/DaiLendingAdapter.sol",
  "compiler": {
    "name": "solc",
    "version": "0.6.6+commit.6c089d02.Emscripten.clang"
  },
  "schemaVersion": "3.2.5",
  "updatedAt": "2020-11-09T12:09:20.398Z",
  "networkType": "ethereum",
  "devdoc": {
    "methods": {}
  },
  "userdoc": {
    "methods": {}
  }
}