{
  "contractName": "DaiLendingService",
  "abi": [
    {
      "inputs": [],
      "stateMutability": "nonpayable",
      "type": "constructor"
    },
    {
      "inputs": [
        {
          "internalType": "address",
          "name": "account",
          "type": "address"
        }
      ],
      "name": "transferOwnership",
      "outputs": [],
      "stateMutability": "nonpayable",
      "type": "function"
    },
    {
      "inputs": [
        {
          "internalType": "address",
          "name": "adapterAddress",
          "type": "address"
        }
      ],
      "name": "updateAdapter",
      "outputs": [],
      "stateMutability": "nonpayable",
      "type": "function"
    },
    {
      "inputs": [],
      "name": "getPricePerFullShare",
      "outputs": [
        {
          "internalType": "uint256",
          "name": "",
          "type": "uint256"
        }
      ],
      "stateMutability": "view",
      "type": "function",
      "constant": true
    },
    {
      "inputs": [
        {
          "internalType": "uint256",
          "name": "amount",
          "type": "uint256"
        }
      ],
      "name": "save",
      "outputs": [],
      "stateMutability": "nonpayable",
      "type": "function"
    },
    {
      "inputs": [],
      "name": "userShares",
      "outputs": [
        {
          "internalType": "uint256",
          "name": "",
          "type": "uint256"
        }
      ],
      "stateMutability": "view",
      "type": "function",
      "constant": true
    },
    {
      "inputs": [],
      "name": "userDaiBalance",
      "outputs": [
        {
          "internalType": "uint256",
          "name": "",
          "type": "uint256"
        }
      ],
      "stateMutability": "view",
      "type": "function",
      "constant": true
    },
    {
      "inputs": [],
      "name": "GetUserGrossRevenue",
      "outputs": [
        {
          "internalType": "uint256",
          "name": "",
          "type": "uint256"
        }
      ],
      "stateMutability": "view",
      "type": "function",
      "constant": true
    },
    {
      "inputs": [],
      "name": "GetNetRevenue",
      "outputs": [
        {
          "internalType": "uint256",
          "name": "",
          "type": "uint256"
        }
      ],
      "stateMutability": "view",
      "type": "function",
      "constant": true
    },
    {
      "inputs": [
        {
          "internalType": "uint256",
          "name": "amount",
          "type": "uint256"
        }
      ],
      "name": "Withdraw",
      "outputs": [],
      "stateMutability": "nonpayable",
      "type": "function"
    },
    {
      "inputs": [
        {
          "internalType": "uint256",
          "name": "amount",
          "type": "uint256"
        },
        {
          "internalType": "uint256",
          "name": "sharesAmount",
          "type": "uint256"
        }
      ],
      "name": "WithdrawByShares",
      "outputs": [],
      "stateMutability": "nonpayable",
      "type": "function"
    },
    {
      "inputs": [
        {
          "internalType": "uint256",
          "name": "sharesAmount",
          "type": "uint256"
        }
      ],
      "name": "WithdrawBySharesOnly",
      "outputs": [],
      "stateMutability": "nonpayable",
      "type": "function"
    },
    {
      "inputs": [],
      "name": "GetDaiLendingAdapterAddress",
      "outputs": [
        {
          "internalType": "address",
          "name": "",
          "type": "address"
        }
      ],
      "stateMutability": "view",
      "type": "function",
      "constant": true
    },
    {
      "inputs": [
        {
          "internalType": "address payable",
          "name": "newServiceContract",
          "type": "address"
        }
      ],
      "name": "TransferAdapterContractOwnership",
      "outputs": [],
      "stateMutability": "nonpayable",
      "type": "function"
    }
  ],
  "bytecode": "0x608060405234801561001057600080fd5b5060008054600160a060020a031916331790556108cd806100326000396000f3fe608060405234801561001057600080fd5b50600436106100ec576000357c0100000000000000000000000000000000000000000000000000000000900480636583d12a116100a957806377c7b8fc1161008357806377c7b8fc146101e157806377f1a4af146101e957806382f9a869146101f1578063f2fde38b14610217576100ec565b80636583d12a146101995780636e0d5ff1146101b65780637057f929146101be576100ec565b80630bbea0d9146100f15780630db8d01e1461010b5780630fcf3b3e146101135780631b8620271461013b578063593669aa146101585780635b6b431d1461017c575b600080fd5b6100f961023d565b60408051918252519081900360200190f35b6100f96102d2565b6101396004803603602081101561012957600080fd5b5035600160a060020a0316610336565b005b6101396004803603602081101561015157600080fd5b5035610431565b61016061049d565b60408051600160a060020a039092168252519081900360200190f35b6101396004803603602081101561019257600080fd5b50356104ac565b610139600480360360208110156101af57600080fd5b5035610518565b6100f9610584565b610139600480360360408110156101d457600080fd5b50803590602001356105e8565b6100f9610677565b6100f96106d5565b6101396004803603602081101561020757600080fd5b5035600160a060020a0316610739565b6101396004803603602081101561022d57600080fd5b5035600160a060020a03166107e1565b600154604080517fa4d86fb40000000000000000000000000000000000000000000000000000000081523360048201529051600092600160a060020a03169163a4d86fb4916024808301926020929190829003018186803b1580156102a157600080fd5b505afa1580156102b5573d6000803e3d6000fd5b505050506040513d60208110156102cb57600080fd5b5051905090565b600154604080517ff6a4b3d50000000000000000000000000000000000000000000000000000000081523360048201529051600092600160a060020a03169163f6a4b3d5916024808301926020929190829003018186803b1580156102a157600080fd5b600054600160a060020a031633146103af57604080517f08c379a000000000000000000000000000000000000000000000000000000000815260206004820152601d60248201527f4f6e6c79206f776e65722063616e206d616b6520746869732063616c6c000000604482015290519081900360640190fd5b600154604080517fa843c51f000000000000000000000000000000000000000000000000000000008152600160a060020a0384811660048301529151919092169163a843c51f91602480830192600092919082900301818387803b15801561041657600080fd5b505af115801561042a573d6000803e3d6000fd5b5050505050565b600154604080517ffdd085cc000000000000000000000000000000000000000000000000000000008152600481018490523360248201529051600160a060020a039092169163fdd085cc9160448082019260009290919082900301818387803b15801561041657600080fd5b600154600160a060020a031690565b600154604080517f8353ffca000000000000000000000000000000000000000000000000000000008152600481018490523360248201529051600160a060020a0390921691638353ffca9160448082019260009290919082900301818387803b15801561041657600080fd5b600154604080517fef1dff55000000000000000000000000000000000000000000000000000000008152336004820152602481018490529051600160a060020a039092169163ef1dff559160448082019260009290919082900301818387803b15801561041657600080fd5b600154604080517f73faaf380000000000000000000000000000000000000000000000000000000081523360048201529051600092600160a060020a0316916373faaf38916024808301926020929190829003018186803b1580156102a157600080fd5b600154604080517fdfba295400000000000000000000000000000000000000000000000000000000815260048101859052336024820152604481018490529051600160a060020a039092169163dfba29549160648082019260009290919082900301818387803b15801561065b57600080fd5b505af115801561066f573d6000803e3d6000fd5b505050505050565b600154604080517fdf3b642d0000000000000000000000000000000000000000000000000000000081529051600092600160a060020a03169163df3b642d916004808301926020929190829003018186803b1580156102a157600080fd5b600154604080517f2f4cbe380000000000000000000000000000000000000000000000000000000081523360048201529051600092600160a060020a031691632f4cbe38916024808301926020929190829003018186803b1580156102a157600080fd5b600054600160a060020a031633146107b257604080517f08c379a000000000000000000000000000000000000000000000000000000000815260206004820152601d60248201527f4f6e6c79206f776e65722063616e206d616b6520746869732063616c6c000000604482015290519081900360640190fd5b6001805473ffffffffffffffffffffffffffffffffffffffff1916600160a060020a0392909216919091179055565b600054600160a060020a0316331461085a57604080517f08c379a000000000000000000000000000000000000000000000000000000000815260206004820152601d60248201527f4f6e6c79206f776e65722063616e206d616b6520746869732063616c6c000000604482015290519081900360640190fd5b600054600160a060020a031615610894576000805473ffffffffffffffffffffffffffffffffffffffff1916600160a060020a0383161790555b5056fea2646970667358221220c8ed3095e16dc22db09eb623ac415874c68a167cd0a91c1538aa42ab3754b02664736f6c63430006060033",
  "immutableReferences": {},
  "source": "pragma solidity ^0.6.6;\n\nimport \"./DaiLendingAdapter.sol\";\n\ncontract DaiLendingService {\n    address _owner;\n    DaiLendingAdapter _daiLendingAdapter;\n\n    constructor() public {\n        _owner = msg.sender;\n    }\n\n    function transferOwnership(address account) external onlyOwner() {\n        if (_owner != address(0)) _owner = account;\n    }\n\n    function updateAdapter(address adapterAddress) external onlyOwner() {\n        _daiLendingAdapter = DaiLendingAdapter(adapterAddress);\n    }\n\n    function getPricePerFullShare() external view returns (uint256) {\n        return _daiLendingAdapter.GetPricePerFullShare();\n    }\n\n    /*\n        -   Before calling this function, ensure that the msg.sender or caller has given this contract address\n            approval to transfer money on its behalf to another address\n    */\n    function save(uint256 amount) external {\n        _daiLendingAdapter.save(amount, msg.sender);\n    }\n\n    //  Get the user's shares or the yDai tokens\n    function userShares() external view returns (uint256) {\n        return _daiLendingAdapter.GetYDaiBalance(msg.sender);\n    }\n\n    //  Get the user's Dai balance\n    function userDaiBalance() external view returns (uint256) {\n        return _daiLendingAdapter.GetDaiBalance(msg.sender);\n    }\n\n    //  Get the gross revenue the user has made ( shares * current share price )\n    function GetUserGrossRevenue() external view returns (uint256) {\n        return _daiLendingAdapter.GetGrossRevenue(msg.sender);\n    }\n\n    //  Get the net revenue the user has made ( (shares * current share price) - total invested amount)\n    function GetNetRevenue() external view returns (uint256) {\n        return _daiLendingAdapter.GetNetRevenue(msg.sender);\n    }\n\n    function Withdraw(uint256 amount) external {\n        _daiLendingAdapter.Withdraw(amount, msg.sender);\n    }\n\n    function WithdrawByShares(uint256 amount, uint256 sharesAmount) external {\n        _daiLendingAdapter.WithdrawByShares(amount, msg.sender, sharesAmount);\n    }\n\n    function WithdrawBySharesOnly(uint256 sharesAmount) external {\n        _daiLendingAdapter.WithdrawBySharesOnly(msg.sender, sharesAmount);\n    }\n\n    function GetDaiLendingAdapterAddress() external view returns (address) {\n        return address(_daiLendingAdapter);\n    }\n\n    function TransferAdapterContractOwnership(\n        address payable newServiceContract\n    ) external onlyOwner {\n        _daiLendingAdapter.transferContractOwnership(newServiceContract);\n    }\n\n    modifier onlyOwner() {\n        require(_owner == msg.sender, \"Only owner can make this call\");\n        _;\n    }\n}\n",
  "sourcePath": "/Users/njokuscript/Desktop/programming/esusu/contracts/DaiLendingService.sol",
  "compiler": {
    "name": "solc",
    "version": "0.6.6+commit.6c089d02.Emscripten.clang"
  },
  "schemaVersion": "3.2.5",
  "updatedAt": "2020-11-09T12:09:20.418Z",
  "networkType": "ethereum",
  "devdoc": {
    "methods": {}
  },
  "userdoc": {
    "methods": {}
  }
}