{
  "contractName": "EsusuAdapter",
  "abi": [
    {
      "inputs": [
        {
          "internalType": "address payable",
          "name": "serviceContract",
          "type": "address"
        },
        {
          "internalType": "address",
          "name": "savingsConfigContract",
          "type": "address"
        },
        {
          "internalType": "address",
          "name": "groupsContract",
          "type": "address"
        },
        {
          "internalType": "address",
          "name": "esusuStorageContract",
          "type": "address"
        }
      ],
      "stateMutability": "nonpayable",
      "type": "constructor"
    },
    {
      "anonymous": false,
      "inputs": [
        {
          "indexed": false,
          "internalType": "uint256",
          "name": "date",
          "type": "uint256"
        },
        {
          "indexed": true,
          "internalType": "uint256",
          "name": "cycleId",
          "type": "uint256"
        },
        {
          "indexed": false,
          "internalType": "uint256",
          "name": "depositAmount",
          "type": "uint256"
        },
        {
          "indexed": false,
          "internalType": "address",
          "name": "Owner",
          "type": "address"
        },
        {
          "indexed": false,
          "internalType": "uint256",
          "name": "payoutIntervalSeconds",
          "type": "uint256"
        },
        {
          "indexed": false,
          "internalType": "enum EsusuAdapter.CurrencyEnum",
          "name": "currency",
          "type": "uint8"
        },
        {
          "indexed": false,
          "internalType": "string",
          "name": "currencySymbol",
          "type": "string"
        },
        {
          "indexed": false,
          "internalType": "uint256",
          "name": "cycleState",
          "type": "uint256"
        }
      ],
      "name": "CreateEsusuCycleEvent",
      "type": "event"
    },
    {
      "anonymous": false,
      "inputs": [
        {
          "indexed": false,
          "internalType": "uint256",
          "name": "date",
          "type": "uint256"
        },
        {
          "indexed": false,
          "internalType": "address",
          "name": "owner",
          "type": "address"
        },
        {
          "indexed": false,
          "internalType": "string",
          "name": "reason",
          "type": "string"
        },
        {
          "indexed": false,
          "internalType": "uint256",
          "name": "yDaiSharesTransfered",
          "type": "uint256"
        }
      ],
      "name": "DepricateContractEvent",
      "type": "event"
    },
    {
      "anonymous": false,
      "inputs": [
        {
          "indexed": false,
          "internalType": "uint256",
          "name": "date",
          "type": "uint256"
        },
        {
          "indexed": true,
          "internalType": "address",
          "name": "member",
          "type": "address"
        },
        {
          "indexed": false,
          "internalType": "uint256",
          "name": "memberPosition",
          "type": "uint256"
        },
        {
          "indexed": false,
          "internalType": "uint256",
          "name": "totalAmountDeposited",
          "type": "uint256"
        },
        {
          "indexed": false,
          "internalType": "uint256",
          "name": "cycleId",
          "type": "uint256"
        }
      ],
      "name": "JoinEsusuCycleEvent",
      "type": "event"
    },
    {
      "anonymous": false,
      "inputs": [
        {
          "indexed": false,
          "internalType": "uint256",
          "name": "date",
          "type": "uint256"
        },
        {
          "indexed": false,
          "internalType": "uint256",
          "name": "totalAmountDeposited",
          "type": "uint256"
        },
        {
          "indexed": false,
          "internalType": "uint256",
          "name": "totalCycleDuration",
          "type": "uint256"
        },
        {
          "indexed": false,
          "internalType": "uint256",
          "name": "totalShares",
          "type": "uint256"
        },
        {
          "indexed": true,
          "internalType": "uint256",
          "name": "cycleId",
          "type": "uint256"
        }
      ],
      "name": "StartEsusuCycleEvent",
      "type": "event"
    },
    {
      "inputs": [],
      "name": "owner",
      "outputs": [
        {
          "internalType": "address payable",
          "name": "",
          "type": "address"
        }
      ],
      "stateMutability": "view",
      "type": "function",
      "constant": true
    },
    {
      "inputs": [],
      "name": "serviceContract",
      "outputs": [
        {
          "internalType": "address payable",
          "name": "",
          "type": "address"
        }
      ],
      "stateMutability": "view",
      "type": "function",
      "constant": true
    },
    {
      "inputs": [
        {
          "internalType": "address payable",
          "name": "newServiceContract",
          "type": "address"
        }
      ],
      "name": "transferContractOwnership",
      "outputs": [],
      "stateMutability": "nonpayable",
      "type": "function"
    },
    {
      "inputs": [
        {
          "internalType": "address payable",
          "name": "newOwner",
          "type": "address"
        }
      ],
      "name": "transferOwnership",
      "outputs": [],
      "stateMutability": "nonpayable",
      "type": "function"
    },
    {
      "inputs": [
        {
          "internalType": "address",
          "name": "daiLendingServiceContractAddress",
          "type": "address"
        }
      ],
      "name": "UpdateDaiLendingService",
      "outputs": [],
      "stateMutability": "nonpayable",
      "type": "function"
    },
    {
      "inputs": [
        {
          "internalType": "address",
          "name": "delegateContract",
          "type": "address"
        }
      ],
      "name": "UpdateEsusuAdapterWithdrawalDelegate",
      "outputs": [],
      "stateMutability": "nonpayable",
      "type": "function"
    },
    {
      "inputs": [
        {
          "internalType": "uint256",
          "name": "groupId",
          "type": "uint256"
        },
        {
          "internalType": "uint256",
          "name": "depositAmount",
          "type": "uint256"
        },
        {
          "internalType": "uint256",
          "name": "payoutIntervalSeconds",
          "type": "uint256"
        },
        {
          "internalType": "uint256",
          "name": "startTimeInSeconds",
          "type": "uint256"
        },
        {
          "internalType": "address",
          "name": "owner",
          "type": "address"
        },
        {
          "internalType": "uint256",
          "name": "maxMembers",
          "type": "uint256"
        }
      ],
      "name": "CreateEsusu",
      "outputs": [],
      "stateMutability": "nonpayable",
      "type": "function"
    },
    {
      "inputs": [
        {
          "internalType": "uint256",
          "name": "esusuCycleId",
          "type": "uint256"
        },
        {
          "internalType": "address",
          "name": "member",
          "type": "address"
        }
      ],
      "name": "JoinEsusu",
      "outputs": [],
      "stateMutability": "nonpayable",
      "type": "function"
    },
    {
      "inputs": [
        {
          "internalType": "uint256",
          "name": "esusuCycleId",
          "type": "uint256"
        }
      ],
      "name": "StartEsusuCycle",
      "outputs": [],
      "stateMutability": "nonpayable",
      "type": "function"
    },
    {
      "inputs": [
        {
          "internalType": "address",
          "name": "memberAddress",
          "type": "address"
        },
        {
          "internalType": "uint256",
          "name": "esusuCycleId",
          "type": "uint256"
        }
      ],
      "name": "GetMemberCycleInfo",
      "outputs": [
        {
          "internalType": "uint256",
          "name": "CycleId",
          "type": "uint256"
        },
        {
          "internalType": "address",
          "name": "MemberId",
          "type": "address"
        },
        {
          "internalType": "uint256",
          "name": "TotalAmountDepositedInCycle",
          "type": "uint256"
        },
        {
          "internalType": "uint256",
          "name": "TotalPayoutReceivedInCycle",
          "type": "uint256"
        },
        {
          "internalType": "uint256",
          "name": "memberPosition",
          "type": "uint256"
        }
      ],
      "stateMutability": "view",
      "type": "function",
      "constant": true
    },
    {
      "inputs": [
        {
          "internalType": "uint256",
          "name": "esusuCycleId",
          "type": "uint256"
        }
      ],
      "name": "GetEsusuCycle",
      "outputs": [
        {
          "internalType": "uint256",
          "name": "CycleId",
          "type": "uint256"
        },
        {
          "internalType": "uint256",
          "name": "DepositAmount",
          "type": "uint256"
        },
        {
          "internalType": "uint256",
          "name": "PayoutIntervalSeconds",
          "type": "uint256"
        },
        {
          "internalType": "uint256",
          "name": "CycleState",
          "type": "uint256"
        },
        {
          "internalType": "uint256",
          "name": "TotalMembers",
          "type": "uint256"
        },
        {
          "internalType": "uint256",
          "name": "TotalAmountDeposited",
          "type": "uint256"
        },
        {
          "internalType": "uint256",
          "name": "TotalShares",
          "type": "uint256"
        },
        {
          "internalType": "uint256",
          "name": "TotalCycleDurationInSeconds",
          "type": "uint256"
        },
        {
          "internalType": "uint256",
          "name": "TotalCapitalWithdrawn",
          "type": "uint256"
        },
        {
          "internalType": "uint256",
          "name": "CycleStartTimeInSeconds",
          "type": "uint256"
        },
        {
          "internalType": "uint256",
          "name": "TotalBeneficiaries",
          "type": "uint256"
        },
        {
          "internalType": "uint256",
          "name": "MaxMembers",
          "type": "uint256"
        }
      ],
      "stateMutability": "view",
      "type": "function",
      "constant": true
    },
    {
      "inputs": [
        {
          "internalType": "address",
          "name": "member",
          "type": "address"
        }
      ],
      "name": "GetDaiBalance",
      "outputs": [
        {
          "internalType": "uint256",
          "name": "",
          "type": "uint256"
        }
      ],
      "stateMutability": "view",
      "type": "function",
      "constant": true
    },
    {
      "inputs": [
        {
          "internalType": "address",
          "name": "member",
          "type": "address"
        }
      ],
      "name": "GetYDaiBalance",
      "outputs": [
        {
          "internalType": "uint256",
          "name": "",
          "type": "uint256"
        }
      ],
      "stateMutability": "view",
      "type": "function",
      "constant": true
    },
    {
      "inputs": [],
      "name": "GetTotalDeposits",
      "outputs": [
        {
          "internalType": "uint256",
          "name": "",
          "type": "uint256"
        }
      ],
      "stateMutability": "view",
      "type": "function",
      "constant": true
    },
    {
      "inputs": [],
      "name": "GetCurrentEsusuCycleId",
      "outputs": [
        {
          "internalType": "uint256",
          "name": "",
          "type": "uint256"
        }
      ],
      "stateMutability": "view",
      "type": "function",
      "constant": true
    },
    {
      "inputs": [
        {
          "internalType": "string",
          "name": "name",
          "type": "string"
        }
      ],
      "name": "GetGroupInformationByName",
      "outputs": [
        {
          "internalType": "uint256",
          "name": "groupId",
          "type": "uint256"
        },
        {
          "internalType": "string",
          "name": "groupName",
          "type": "string"
        },
        {
          "internalType": "string",
          "name": "groupSymbol",
          "type": "string"
        },
        {
          "internalType": "address",
          "name": "groupCreatorAddress",
          "type": "address"
        }
      ],
      "stateMutability": "view",
      "type": "function",
      "constant": true
    },
    {
      "inputs": [
        {
          "internalType": "uint256",
          "name": "id",
          "type": "uint256"
        }
      ],
      "name": "GetGroupInformationById",
      "outputs": [
        {
          "internalType": "uint256",
          "name": "groupId",
          "type": "uint256"
        },
        {
          "internalType": "string",
          "name": "groupName",
          "type": "string"
        },
        {
          "internalType": "string",
          "name": "groupSymbol",
          "type": "string"
        },
        {
          "internalType": "address",
          "name": "groupCreatorAddress",
          "type": "address"
        }
      ],
      "stateMutability": "view",
      "type": "function",
      "constant": true
    },
    {
      "inputs": [
        {
          "internalType": "string",
          "name": "name",
          "type": "string"
        },
        {
          "internalType": "string",
          "name": "symbol",
          "type": "string"
        },
        {
          "internalType": "address",
          "name": "groupCreator",
          "type": "address"
        }
      ],
      "name": "CreateGroup",
      "outputs": [],
      "stateMutability": "nonpayable",
      "type": "function"
    },
    {
      "inputs": [
        {
          "internalType": "uint256",
          "name": "amount",
          "type": "uint256"
        }
      ],
      "name": "TransferYDaiSharesToWithdrawalDelegate",
      "outputs": [],
      "stateMutability": "nonpayable",
      "type": "function"
    },
    {
      "inputs": [
        {
          "internalType": "address",
          "name": "newEsusuAdapterContract",
          "type": "address"
        },
        {
          "internalType": "string",
          "name": "reason",
          "type": "string"
        }
      ],
      "name": "DepricateContract",
      "outputs": [],
      "stateMutability": "nonpayable",
      "type": "function"
    }
  ],
  "bytecode": "0x60c0604052600e60808190527f44616920537461626c65636f696e00000000000000000000000000000000000060a090815262000040916002919062000160565b5060078054600160a060020a0319908116736b175474e89094c44da98b954eedeac495271d0f179091556008805490911673c2cb1040220768554cf699b0d863a3cd4324ce32179055600a805460a060020a60ff02191674010000000000000000000000000000000000000000179055348015620000bd57600080fd5b50604051620034f5380380620034f583398181016040526080811015620000e357600080fd5b508051602082015160408301516060909301516000805433600160a060020a03199182168117909255600180548216600160a060020a039687161790556003805482169092179091556004805482169385169390931790925560058054831694841694909417909355600980549091169190921617905562000205565b828054600181600116156101000203166002900490600052602060002090601f016020900481019282601f10620001a357805160ff1916838001178555620001d3565b82800160010185558215620001d3579182015b82811115620001d3578251825591602001919060010190620001b6565b50620001e1929150620001e5565b5090565b6200020291905b80821115620001e15760008155600101620001ec565b90565b6132e080620002156000396000f3fe608060405234801561001057600080fd5b50600436106101305760003560e060020a9004806389826132116100b1578063e6cfd36a11610075578063e6cfd36a14610632578063ebd9c46a14610658578063f2fde38b146106fe578063f6a4b3d514610724578063fc3232101461074a57610130565b806389826132146105775780638da5cb5b14610594578063a0bbeb651461059c578063a843c51f146105c8578063e11ffee5146105ee57610130565b8063364dab10116100f8578063364dab10146102c05780634e830466146102e457806357ac7703146103605780637b3a173f146103bf578063846e9f37146104f757610130565b8063050f93ed146101355780631b2b00cb146102505780631f82c5de1461027857806324943907146102925780632f4cbe381461029a575b600080fd5b6101526004803603602081101561014b57600080fd5b5035610767565b60405180858152602001806020018060200184600160a060020a0316600160a060020a03168152602001838103835286818151815260200191508051906020019080838360005b838110156101b1578181015183820152602001610199565b50505050905090810190601f1680156101de5780820380516001836020036101000a031916815260200191505b50838103825285518152855160209182019187019080838360005b838110156102115781810151838201526020016101f9565b50505050905090810190601f16801561023e5780820380516001836020036101000a031916815260200191505b50965050505050505060405180910390f35b6102766004803603602081101561026657600080fd5b5035600160a060020a03166109dc565b005b610280610aab565b60408051918252519081900360200190f35b610280610b80565b610280600480360360208110156102b057600080fd5b5035600160a060020a0316610c24565b6102c8610cf9565b60408051600160a060020a039092168252519081900360200190f35b610301600480360360208110156102fa57600080fd5b5035610d08565b604080519c8d5260208d019b909b528b8b019990995260608b019790975260808a019590955260a089019390935260c088019190915260e087015261010086015261012085015261014084015261016083015251908190036101800190f35b61038c6004803603604081101561037657600080fd5b50600160a060020a038135169060200135610e48565b60408051958652600160a060020a0390941660208601528484019290925260608401526080830152519081900360a00190f35b610276600480360360608110156103d557600080fd5b8101906020810181356401000000008111156103f057600080fd5b82018360208201111561040257600080fd5b8035906020019184600183028401116401000000008311171561042457600080fd5b91908080601f016020809104026020016040519081016040528093929190818152602001838380828437600092019190915250929594936020810193503591505064010000000081111561047757600080fd5b82018360208201111561048957600080fd5b803590602001918460018302840111640100000000831117156104ab57600080fd5b91908080601f01602080910402602001604051908101604052809392919081815260200183838082843760009201919091525092955050509035600160a060020a03169150610f669050565b6102766004803603604081101561050d57600080fd5b600160a060020a03823516919081019060408101602082013564010000000081111561053857600080fd5b82018360208201111561054a57600080fd5b8035906020019184600183028401116401000000008311171561056c57600080fd5b509092509050611124565b6102766004803603602081101561058d57600080fd5b503561133a565b6102c8611490565b610276600480360360408110156105b257600080fd5b5080359060200135600160a060020a031661149f565b610276600480360360208110156105de57600080fd5b5035600160a060020a0316611b93565b610276600480360360c081101561060457600080fd5b50803590602081013590604081013590606081013590600160a060020a036080820135169060a00135611c33565b6102766004803603602081101561064857600080fd5b5035600160a060020a031661200f565b6101526004803603602081101561066e57600080fd5b81019060208101813564010000000081111561068957600080fd5b82018360208201111561069b57600080fd5b803590602001918460018302840111640100000000831117156106bd57600080fd5b91908080601f0160208091040260200160405190810160405280939291908181526020018383808284376000920191909152509295506120de945050505050565b6102766004803603602081101561071457600080fd5b5035600160a060020a0316612454565b6102806004803603602081101561073a57600080fd5b5035600160a060020a03166124e0565b6102766004803603602081101561076057600080fd5b5035612583565b60006060806000600a60149054906101000a900460ff16151560011515146107c35760405160e560020a62461bcd02815260040180806020018281038252603881526020018061321e6038913960400191505060405180910390fd5b600554604080517f6cc29ea0000000000000000000000000000000000000000000000000000000008152600481018890529051600160a060020a0390921691636cc29ea091602480820192600092909190829003018186803b15801561082857600080fd5b505afa15801561083c573d6000803e3d6000fd5b505050506040513d6000823e601f3d908101601f19168201604052608081101561086557600080fd5b81516020830180516040519294929383019291908464010000000082111561088c57600080fd5b9083019060208201858111156108a157600080fd5b82516401000000008111828201881017156108bb57600080fd5b82525081516020918201929091019080838360005b838110156108e85781810151838201526020016108d0565b50505050905090810190601f1680156109155780820380516001836020036101000a031916815260200191505b506040526020018051604051939291908464010000000082111561093857600080fd5b90830190602082018581111561094d57600080fd5b825164010000000081118282018810171561096757600080fd5b82525081516020918201929091019080838360005b8381101561099457818101518382015260200161097c565b50505050905090810190601f1680156109c15780820380516001836020036101000a031916815260200191505b5060405260200151949a939950919750929550909350505050565b600054600160a060020a03163314610a2c576040805160e560020a62461bcd02815260206004820152601f6024820152600080516020613198833981519152604482015290519081900360640190fd5b600a5460a060020a900460ff161515600114610a7c5760405160e560020a62461bcd02815260040180806020018281038252603881526020018061321e6038913960400191505060405180910390fd5b6006805473ffffffffffffffffffffffffffffffffffffffff1916600160a060020a0392909216919091179055565b600a5460009060a060020a900460ff161515600114610afe5760405160e560020a62461bcd02815260040180806020018281038252603881526020018061321e6038913960400191505060405180910390fd5b600960009054906101000a9004600160a060020a0316600160a060020a0316631f82c5de6040518163ffffffff1660e060020a02815260040160206040518083038186803b158015610b4f57600080fd5b505afa158015610b63573d6000803e3d6000fd5b505050506040513d6020811015610b7957600080fd5b5051905090565b600a5460009060a060020a900460ff161515600114610bd35760405160e560020a62461bcd02815260040180806020018281038252603881526020018061321e6038913960400191505060405180910390fd5b600960009054906101000a9004600160a060020a0316600160a060020a031663ab30d5396040518163ffffffff1660e060020a02815260040160206040518083038186803b158015610b4f57600080fd5b600a5460009060a060020a900460ff161515600114610c775760405160e560020a62461bcd02815260040180806020018281038252603881526020018061321e6038913960400191505060405180910390fd5b6007546040805160e060020a6370a08231028152600160a060020a038581166004830152915191909216916370a08231916024808301926020929190829003018186803b158015610cc757600080fd5b505afa158015610cdb573d6000803e3d6000fd5b505050506040513d6020811015610cf157600080fd5b505192915050565b600154600160a060020a031681565b600080600080600080600080600080600080600960009054906101000a9004600160a060020a0316600160a060020a0316634e8304668e6040518263ffffffff1660e060020a028152600401808281526020019150506101806040518083038186803b158015610d7757600080fd5b505afa158015610d8b573d6000803e3d6000fd5b505050506040513d610180811015610da257600080fd5b810190808051906020019092919080519060200190929190805190602001909291908051906020019092919080519060200190929190805190602001909291908051906020019092919080519060200190929190805190602001909291908051906020019092919080519060200190929190805190602001909291905050509b509b509b509b509b509b509b509b509b509b509b509b5091939597999b5091939597999b565b6000806000806000600a60149054906101000a900460ff1615156001151514610ea55760405160e560020a62461bcd02815260040180806020018281038252603881526020018061321e6038913960400191505060405180910390fd5b600954604080517f57ac7703000000000000000000000000000000000000000000000000000000008152600160a060020a038a81166004830152602482018a9052915191909216916357ac77039160448083019260a0929190829003018186803b158015610f1257600080fd5b505afa158015610f26573d6000803e3d6000fd5b505050506040513d60a0811015610f3c57600080fd5b508051602082015160408301516060840151608090940151929b919a509850919650945092505050565b600a5460a060020a900460ff161515600114610fb65760405160e560020a62461bcd02815260040180806020018281038252603881526020018061321e6038913960400191505060405180910390fd5b6005546040517f9a259798000000000000000000000000000000000000000000000000000000008152600160a060020a0383811660448301526060600483019081528651606484015286519190931692639a25979892879287928792909182916024810191608490910190602088019080838360005b8381101561104457818101518382015260200161102c565b50505050905090810190601f1680156110715780820380516001836020036101000a031916815260200191505b50838103825285518152855160209182019187019080838360005b838110156110a457818101518382015260200161108c565b50505050905090810190601f1680156110d15780820380516001836020036101000a031916815260200191505b5095505050505050602060405180830381600087803b1580156110f357600080fd5b505af1158015611107573d6000803e3d6000fd5b505050506040513d602081101561111d57600080fd5b5050505050565b600054600160a060020a03163314611174576040805160e560020a62461bcd02815260206004820152601f6024820152600080516020613198833981519152604482015290519081900360640190fd5b600a805474ff0000000000000000000000000000000000000000191690556008546040805160e060020a6370a082310281523060048201529051600092600160a060020a0316916370a08231916024808301926020929190829003018186803b1580156111e057600080fd5b505afa1580156111f4573d6000803e3d6000fd5b505050506040513d602081101561120a57600080fd5b5051600854604080517fa9059cbb000000000000000000000000000000000000000000000000000000008152600160a060020a03888116600483015260248201859052915193945091169163a9059cbb916044808201926020929091908290030181600087803b15801561127d57600080fd5b505af1158015611291573d6000803e3d6000fd5b505050506040513d60208110156112a757600080fd5b50506003546040805142808252600160a060020a03909316602082018190526060820185905260809282018381529282018690527f1fe29a409cd78af27cbff8be6f598a05eabfaffe82764770c428118e12662cf89392909187918791879160a08201858580828437600083820152604051601f909101601f19169092018290039850909650505050505050a150505050565b600a5460a060020a900460ff16151560011461138a5760405160e560020a62461bcd02815260040180806020018281038252603881526020018061321e6038913960400191505060405180910390fd5b600054600160a060020a03163314806113ad5750600a54600160a060020a031633145b6113ef576040805160e560020a62461bcd02815260206004820152601f6024820152600080516020613198833981519152604482015290519081900360640190fd5b600854600a54604080517fa9059cbb000000000000000000000000000000000000000000000000000000008152600160a060020a039283166004820152602481018590529051919092169163a9059cbb9160448083019260209291908290030181600087803b15801561146157600080fd5b505af1158015611475573d6000803e3d6000fd5b505050506040513d602081101561148b57600080fd5b505050565b600054600160a060020a031681565b600054600160a060020a03163314806114c25750600154600160a060020a031633145b611504576040805160e560020a62461bcd02815260206004820152601f6024820152600080516020613198833981519152604482015290519081900360640190fd5b600a5460a060020a900460ff1615156001146115545760405160e560020a62461bcd02815260040180806020018281038252603881526020018061321e6038913960400191505060405180910390fd5b600954604080517fab30d5390000000000000000000000000000000000000000000000000000000081529051600092600160a060020a03169163ab30d539916004808301926020929190829003018186803b1580156115b257600080fd5b505afa1580156115c6573d6000803e3d6000fd5b505050506040513d60208110156115dc57600080fd5b5051905082158015906115ef5750808311155b61162d5760405160e560020a62461bcd02815260040180806020018281038252603081526020018061313c6030913960400191505060405180910390fd5b6000806000806000600960009054906101000a9004600160a060020a0316600160a060020a031663299c8817896040518263ffffffff1660e060020a0281526004018082815260200191505060a06040518083038186803b15801561169157600080fd5b505afa1580156116a5573d6000803e3d6000fd5b505050506040513d60a08110156116bb57600080fd5b5080516020820151604083015160608401516080909401519298509096509450909250905082156117205760405160e560020a62461bcd0281526004018080602001828103825260358152602001806131e96035913960400191505060405180910390fd5b8082106117615760405160e560020a62461bcd0281526004018080602001828103825260288152602001806132836028913960400191505060405180910390fd5b61176b8789612eeb565b156117aa5760405160e560020a62461bcd0281526004018080602001828103825260318152602001806131b86031913960400191505060405180910390fd5b6007546040805160e060020a6370a08231028152600160a060020a038a81166004830152915160009392909216916370a0823191602480820192602092909190829003018186803b1580156117fe57600080fd5b505afa158015611812573d6000803e3d6000fd5b505050506040513d602081101561182857600080fd5b505190508481101561186e5760405160e560020a62461bcd0281526004018080602001828103825260378152602001806131056037913960400191505060405180910390fd5b600754604080517f23b872dd000000000000000000000000000000000000000000000000000000008152600160a060020a038b8116600483015230602483015260448201899052915191909216916323b872dd9160648083019260209291908290030181600087803b1580156118e357600080fd5b505af11580156118f7573d6000803e3d6000fd5b505050506040513d602081101561190d57600080fd5b5050600954604080517f4c215b04000000000000000000000000000000000000000000000000000000008152600481018c9052602481018890529051600092600160a060020a031691634c215b0491604480830192602092919082900301818787803b15801561197c57600080fd5b505af1158015611990573d6000803e3d6000fd5b505050506040513d60208110156119a657600080fd5b5051600954604080517fa90e2d5a000000000000000000000000000000000000000000000000000000008152600160a060020a038d81166004830152602482018f9052915193945091169163a90e2d5a9160448082019260009290919082900301818387803b158015611a1857600080fd5b505af1158015611a2c573d6000803e3d6000fd5b5050600954604080517f13becce4000000000000000000000000000000000000000000000000000000008152600481018f90529051600160a060020a0390921693506313becce4925060248082019260009290919082900301818387803b158015611a9657600080fd5b505af1158015611aaa573d6000803e3d6000fd5b5050600954604080517f0d43acd3000000000000000000000000000000000000000000000000000000008152600481018c9052600160a060020a038e811660248301529151919092169350630d43acd39250604480830192600092919082900301818387803b158015611b1c57600080fd5b505af1158015611b30573d6000803e3d6000fd5b50506040805142815260208101889052808201859052606081018e90529051600160a060020a038d1693507ff587969de97be370bebfce89f44e0df40c7a9a195ee0f876fb139d7b70da8d5992509081900360800190a250505050505050505050565b600054600160a060020a0316331480611bb65750600154600160a060020a031633145b611bf8576040805160e560020a62461bcd02815260206004820152601f6024820152600080516020613198833981519152604482015290519081900360640190fd5b600160a060020a03811615611c30576001805473ffffffffffffffffffffffffffffffffffffffff1916600160a060020a0383161790555b50565b600a5460a060020a900460ff161515600114611c835760405160e560020a62461bcd02815260040180806020018281038252603881526020018061321e6038913960400191505060405180910390fd5b600054600160a060020a0316331480611ca65750600154600160a060020a031633145b611ce8576040805160e560020a62461bcd02815260206004820152601f6024820152600080516020613198833981519152604482015290519081900360640190fd5b600954604080517fab30d5390000000000000000000000000000000000000000000000000000000081529051600092600160a060020a03169163ab30d539916004808301926020929190829003018186803b158015611d4657600080fd5b505afa158015611d5a573d6000803e3d6000fd5b505050506040513d6020811015611d7057600080fd5b50519050600060608082611d838b610767565b935093509350935080600160a060020a031687600160a060020a031614611dde5760405160e560020a62461bcd02815260040180806020018281038252602d815260200180613256602d913960400191505060405180910390fd5b600954604080517f5a4c4da0000000000000000000000000000000000000000000000000000000008152600481018e9052602481018d9052604481018c9052606481018b9052600160a060020a038a8116608483015260a482018a905291519190921691635a4c4da09160c480830192600092919082900301818387803b158015611e6857600080fd5b505af1158015611e7c573d6000803e3d6000fd5b50505050847f92658eac81aaa7bf6b38670479b6f2b5eb7184ab47bcd9a827c9315e12ce6d1f428c8a8d60006002600960009054906101000a9004600160a060020a0316600160a060020a0316631942d5718e6040518263ffffffff1660e060020a0281526004018082815260200191505060206040518083038186803b158015611f0657600080fd5b505afa158015611f1a573d6000803e3d6000fd5b505050506040513d6020811015611f3057600080fd5b50516040805188815260208101889052600160a060020a038716918101919091526060810185905260808101848015611f6557fe5b60ff168152604081018390526060828203810160208301908152855460026001821615610100026000190190911604918301829052916080019085908015611fee5780601f10611fc357610100808354040283529160200191611fee565b820191906000526020600020905b815481529060010190602001808311611fd157829003601f168201915b50509850505050505050505060405180910390a25050505050505050505050565b600054600160a060020a0316331461205f576040805160e560020a62461bcd02815260206004820152601f6024820152600080516020613198833981519152604482015290519081900360640190fd5b600a5460a060020a900460ff1615156001146120af5760405160e560020a62461bcd02815260040180806020018281038252603881526020018061321e6038913960400191505060405180910390fd5b600a805473ffffffffffffffffffffffffffffffffffffffff1916600160a060020a0392909216919091179055565b60006060806000600a60149054906101000a900460ff161515600115151461213a5760405160e560020a62461bcd02815260040180806020018281038252603881526020018061321e6038913960400191505060405180910390fd5b6005546040517f08099b5d0000000000000000000000000000000000000000000000000000000081526020600482018181528851602484015288516000948594600160a060020a03909116936308099b5d938c9390928392604490910191908501908083838b5b838110156121b95781810151838201526020016121a1565b50505050905090810190601f1680156121e65780820380516001836020036101000a031916815260200191505b5092505050604080518083038186803b15801561220257600080fd5b505afa158015612216573d6000803e3d6000fd5b505050506040513d604081101561222c57600080fd5b508051602090910151600554604080517f3037faf1000000000000000000000000000000000000000000000000000000008152600481018490529051939550919350600160a060020a031691633037faf191602480820192600092909190829003018186803b15801561229e57600080fd5b505afa1580156122b2573d6000803e3d6000fd5b505050506040513d6000823e601f3d908101601f1916820160405260808110156122db57600080fd5b81516020830180516040519294929383019291908464010000000082111561230257600080fd5b90830190602082018581111561231757600080fd5b825164010000000081118282018810171561233157600080fd5b82525081516020918201929091019080838360005b8381101561235e578181015183820152602001612346565b50505050905090810190601f16801561238b5780820380516001836020036101000a031916815260200191505b50604052602001805160405193929190846401000000008211156123ae57600080fd5b9083019060208201858111156123c357600080fd5b82516401000000008111828201881017156123dd57600080fd5b82525081516020918201929091019080838360005b8381101561240a5781810151838201526020016123f2565b50505050905090810190601f1680156124375780820380516001836020036101000a031916815260200191505b5060405260200151949c939b509199509297509095505050505050565b600054600160a060020a031633146124a4576040805160e560020a62461bcd02815260206004820152601f6024820152600080516020613198833981519152604482015290519081900360640190fd5b600160a060020a03811615611c305760008054600160a060020a03831673ffffffffffffffffffffffffffffffffffffffff1990911617905550565b600a5460009060a060020a900460ff1615156001146125335760405160e560020a62461bcd02815260040180806020018281038252603881526020018061321e6038913960400191505060405180910390fd5b6008546040805160e060020a6370a08231028152600160a060020a038581166004830152915191909216916370a08231916024808301926020929190829003018186803b158015610cc757600080fd5b600054600160a060020a03163314806125a65750600154600160a060020a031633145b6125e8576040805160e560020a62461bcd02815260206004820152601f6024820152600080516020613198833981519152604482015290519081900360640190fd5b600a5460a060020a900460ff1615156001146126385760405160e560020a62461bcd02815260040180806020018281038252603881526020018061321e6038913960400191505060405180910390fd5b600954604080517fab30d5390000000000000000000000000000000000000000000000000000000081529051600092600160a060020a03169163ab30d539916004808301926020929190829003018186803b15801561269657600080fd5b505afa1580156126aa573d6000803e3d6000fd5b505050506040513d60208110156126c057600080fd5b5051600954604080517f299c88170000000000000000000000000000000000000000000000000000000081526004810186905290519293506000928392839283928392600160a060020a03169163299c88179160248083019260a0929190829003018186803b15801561273257600080fd5b505afa158015612746573d6000803e3d6000fd5b505050506040513d60a081101561275c57600080fd5b810190808051906020019092919080519060200190929190805190602001909291908051906020019092919080519060200190929190505050945094509450945094506000600960009054906101000a9004600160a060020a0316600160a060020a03166382da9fdf896040518263ffffffff1660e060020a0281526004018082815260200191505060206040518083038186803b1580156127fd57600080fd5b505afa158015612811573d6000803e3d6000fd5b505050506040513d602081101561282757600080fd5b5051600954604080517fb4392797000000000000000000000000000000000000000000000000000000008152600481018c90529051929350600092600160a060020a039092169163b439279791602480820192602092909190829003018186803b15801561289457600080fd5b505afa1580156128a8573d6000803e3d6000fd5b505050506040513d60208110156128be57600080fd5b5051905088158015906128d15750878911155b61290f5760405160e560020a62461bcd02815260040180806020018281038252603081526020018061313c6030913960400191505060405180910390fd5b841561294f5760405160e560020a62461bcd02815260040180806020018281038252602c81526020018061316c602c913960400191505060405180910390fd5b600954604080517f0853c1f4000000000000000000000000000000000000000000000000000000008152600481018c90529051600160a060020a0390921691630853c1f491602480820192602092909190829003018186803b1580156129b457600080fd5b505afa1580156129c8573d6000803e3d6000fd5b505050506040513d60208110156129de57600080fd5b50514211612a205760405160e560020a62461bcd0281526004018080602001828103825260358152602001806130d06035913960400191505060405180910390fd5b600954604080517ff06c8bbd000000000000000000000000000000000000000000000000000000008152600481018c9052905183870292600092600160a060020a039091169163f06c8bbd91602480820192602092909190829003018186803b158015612a8c57600080fd5b505afa158015612aa0573d6000803e3d6000fd5b505050506040513d6020811015612ab657600080fd5b50516008546040805160e060020a6370a082310281523060048201529051929350600092600160a060020a03909216916370a0823191602480820192602092909190829003018186803b158015612b0c57600080fd5b505afa158015612b20573d6000803e3d6000fd5b505050506040513d6020811015612b3657600080fd5b5051600654604080517f593669aa0000000000000000000000000000000000000000000000000000000081529051929350600092600160a060020a039092169163593669aa91600480820192602092909190829003018186803b158015612b9c57600080fd5b505afa158015612bb0573d6000803e3d6000fd5b505050506040513d6020811015612bc657600080fd5b5051600754604080517f095ea7b3000000000000000000000000000000000000000000000000000000008152600160a060020a03808516600483015260248201889052915193945091169163095ea7b3916044808201926020929091908290030181600087803b158015612c3957600080fd5b505af1158015612c4d573d6000803e3d6000fd5b505050506040513d6020811015612c6357600080fd5b5050600654604080517f1b862027000000000000000000000000000000000000000000000000000000008152600481018690529051600160a060020a0390921691631b8620279160248082019260009290919082900301818387803b158015612ccb57600080fd5b505af1158015612cdf573d6000803e3d6000fd5b50506008546040805160e060020a6370a08231028152306004820152905160009450600160a060020a0390921692506370a08231916024808301926020929190829003018186803b158015612d3357600080fd5b505afa158015612d47573d6000803e3d6000fd5b505050506040513d6020811015612d5d57600080fd5b505190506000612d8388612d77848763ffffffff612f8f16565b9063ffffffff612fd816565b600954604080517fc86dde9c000000000000000000000000000000000000000000000000000000008152600481018990529051929350600160a060020a039091169163c86dde9c9160248082019260009290919082900301818387803b158015612dec57600080fd5b505af1158015612e00573d6000803e3d6000fd5b5050600954600160a060020a0316915063cbe47cb390508e60018985426040518663ffffffff1660e060020a0281526004018086815260200185815260200184815260200183815260200182815260200195505050505050600060405180830381600087803b158015612e7257600080fd5b505af1158015612e86573d6000803e3d6000fd5b505050508e7f2b20ce364c0f94bcea35962d3a1a87e3f13622bf8671057ad8f7363c90d2326d428789856040518085815260200184815260200183815260200182815260200194505050505060405180910390a2505050505050505050505050505050565b600954604080517f5e4f0ca9000000000000000000000000000000000000000000000000000000008152600160a060020a0385811660048301526024820185905291516000939290921691635e4f0ca991604480820192602092909190829003018186803b158015612f5c57600080fd5b505afa158015612f70573d6000803e3d6000fd5b505050506040513d6020811015612f8657600080fd5b50519392505050565b6000612fd183836040518060400160405280601e81526020017f536166654d6174683a207375627472616374696f6e206f766572666c6f770000815250613035565b9392505050565b600082820183811015612fd1576040805160e560020a62461bcd02815260206004820152601b60248201527f536166654d6174683a206164646974696f6e206f766572666c6f770000000000604482015290519081900360640190fd5b600081848411156130c75760405160e560020a62461bcd0281526004018080602001828103825283818151815260200191508051906020019080838360005b8381101561308c578181015183820152602001613074565b50505050905090810190601f1680156130b95780820380516001836020036101000a031916815260200191505b509250505060405180910390fd5b50505090039056fe4379636c652063616e206f6e6c792062652073746172746564207768656e2073746172742074696d652068617320656c617073656442616c616e6365206d7573742062652067726561746572207468616e206f7220657175616c20746f204465706f73697420416d6f756e744379636c65204944206d7573742062652077697468696e2076616c69642045737573754379636c6549642072616e67654379636c652063616e206f6e6c792062652073746172746564207768656e20696e2049646c65207374617465556e617574686f72697a65642061636365737320746f20636f6e7472616374004d656d6265722063616e2774206a6f696e2073616d65204573757375204379636c65206d6f7265207468616e206f6e63654573757375204379636c65206d75737420626520696e2049646c65205374617465206265666f726520796f752063616e206a6f696e5468697320636f6e747261637420697320646570726963617465642c20757365206e65772076657273696f6e206f6620636f6e747261637445737573754379636c652063616e206f6e6c7920626520637265617465642062792067726f7570206f776e65724573757375204379636c652069732066696c6c65642075702c20796f752063616e2774206a6f696ea2646970667358221220bee538279f53c0aaa8c08e2e81740035a726cc75e9a617d85e7a4e25fa12038f64736f6c63430006060033",
  "immutableReferences": {},
  "source": "pragma solidity ^0.6.6;\n\nimport \"./IDaiToken.sol\";\nimport \"./IYDaiToken.sol\";\n\nimport \"./IDaiLendingService.sol\";\nimport \"./OwnableService.sol\";\n\nimport \"./ISavingsConfig.sol\";\nimport \"./ISavingsConfigSchema.sol\";\nimport \"./IGroups.sol\";\nimport \"./SafeMath.sol\";\nimport \"./IEsusuStorage.sol\";\n\n\ncontract EsusuAdapter is OwnableService, ISavingsConfigSchema {\n\n    /*\n        Events to emit \n        1. Creation of Esusu Cycle \n        2. Joining of Esusu Cycle \n        3. Starting of Esusu Cycle \n        4. Withdrawal of ROI\n        5. Withdrawal of Capital\n    */\n    event CreateEsusuCycleEvent\n    (\n        uint date,\n        uint indexed cycleId,\n        uint depositAmount,\n        address  Owner,\n        uint payoutIntervalSeconds,\n        CurrencyEnum currency,\n        string currencySymbol,\n        uint cycleState\n    );\n    \n    event DepricateContractEvent(\n        \n        uint date,\n        address owner, \n        string reason,\n        uint yDaiSharesTransfered\n    );\n    event JoinEsusuCycleEvent\n    (\n        uint date,\n        address indexed member,   \n        uint memberPosition,\n        uint totalAmountDeposited,\n        uint cycleId\n    );\n    \n    event StartEsusuCycleEvent\n    (\n        uint date,\n        uint totalAmountDeposited,\n        uint totalCycleDuration,\n        uint totalShares,\n        uint indexed cycleId\n    );\n    \n\n    \n    /*  Enum definitions */\n    enum CurrencyEnum{\n        Dai\n    }\n    \n    enum CycleStateEnum{\n        Idle,               // Cycle has just been created and members can join in this state\n        Active,             // Cycle has started and members can take their ROI\n        Expired,            // Cycle Duration has elapsed and members can withdraw their capital as well as ROI\n        Inactive            // Total beneficiaries is equal to Total members, so all members have withdrawn their Capital and ROI \n    }\n\n    \n        /*  Model definition starts */\n    string Dai = \"Dai Stablecoin\";\n\n\n    /* Model definition ends */\n    \n    //  Member variables\n    address _owner;\n    ISavingsConfig _savingsConfigContract;\n    IGroups _groupsContract;\n\n    IDaiLendingService _iDaiLendingService;\n    IDaiToken _dai = IDaiToken(0x6B175474E89094C44Da98b954EedeAC495271d0F);\n    IYDaiToken _yDai = IYDaiToken(0xC2cB1040220768554cf699b0d863A3cd4324ce32);\n    IEsusuStorage _esusuStorage;\n    address  _delegateContract;\n    bool _isActive = true;\n    \n    using SafeMath for uint256;\n\n    constructor (address payable serviceContract, address savingsConfigContract, \n                     address groupsContract,\n                    address esusuStorageContract) public OwnableService(serviceContract){\n        _owner = msg.sender;\n        _savingsConfigContract = ISavingsConfig(savingsConfigContract);\n        _groupsContract = IGroups(groupsContract);\n        _esusuStorage = IEsusuStorage(esusuStorageContract);\n    }\n\n    \n    function UpdateDaiLendingService(address daiLendingServiceContractAddress) onlyOwner active external {\n        _iDaiLendingService = IDaiLendingService(daiLendingServiceContractAddress);\n    }\n    \n    function UpdateEsusuAdapterWithdrawalDelegate(address delegateContract) onlyOwner active external {\n        _delegateContract = delegateContract;\n    }\n    \n    /*\n        NOTE: startTimeInSeconds is the time at which when elapsed, any one can start the cycle \n        -   Creates a new EsusuCycle\n        -   Esusu Cycle can only be created by the owner of the group\n    */\n    \n    function CreateEsusu(uint groupId, uint depositAmount, uint payoutIntervalSeconds,uint startTimeInSeconds, address owner, uint maxMembers) public active onlyOwnerAndServiceContract {\n        //  Get Current EsusuCycleId\n        uint currentEsusuCycleId = _esusuStorage.GetEsusuCycleId();\n\n        // Get Group information by Id\n        (uint id, string memory name, string memory symbol, address creatorAddress) = GetGroupInformationById(groupId);\n        \n        require(owner == creatorAddress, \"EsusuCycle can only be created by group owner\");\n        \n        _esusuStorage.CreateEsusuCycleMapping(groupId,depositAmount,payoutIntervalSeconds,startTimeInSeconds,owner,maxMembers);\n        \n        //  emit event\n        emit CreateEsusuCycleEvent(now, currentEsusuCycleId, depositAmount, owner, payoutIntervalSeconds,CurrencyEnum.Dai,Dai,_esusuStorage.GetEsusuCycleState(currentEsusuCycleId));\n        \n    }\n    \n    //  Join a particular Esusu Cycle \n    /*\n        - Check if the cycle ID is valid\n        - Check if the cycle is in Idle state, that is the only state a member can join\n        - Check if member is already in Cycle\n        - Ensure member has approved this contract to transfer the token on his/her behalf\n        - If member has enough balance, transfer the tokens to this contract else bounce\n        - Increment the total deposited amount in this cycle and total deposited amount for the member cycle struct \n        - Increment the total number of Members that have joined this cycle \n    */\n    \n    function JoinEsusu(uint esusuCycleId, address member) public onlyOwnerAndServiceContract active {\n        //  Get Current EsusuCycleId\n        uint currentEsusuCycleId = _esusuStorage.GetEsusuCycleId();\n        \n        //  Check if the cycle ID is valid\n        require(esusuCycleId > 0 && esusuCycleId <= currentEsusuCycleId, \"Cycle ID must be within valid EsusuCycleId range\");\n        \n        //  Get the Esusu Cycle struct\n        \n        (uint CycleId, uint DepositAmount, uint CycleState,uint TotalMembers,uint MaxMembers) = _esusuStorage.GetEsusuCycleBasicInformation(esusuCycleId);\n        //  If cycle is not in Idle State, bounce \n        require( CycleState == uint(CycleStateEnum.Idle), \"Esusu Cycle must be in Idle State before you can join\");\n\n        \n        //  If cycle is filled up, bounce \n\n        require(TotalMembers < MaxMembers, \"Esusu Cycle is filled up, you can't join\");\n        \n        //  check if member is already in this cycle \n        require(_isMemberInCycle(member,esusuCycleId) == false, \"Member can't join same Esusu Cycle more than once\");\n        \n        //  If user does not have enough Balance, bounce. For now we use Dai as default\n        uint memberBalance = _dai.balanceOf(member);\n        \n        require(memberBalance >= DepositAmount, \"Balance must be greater than or equal to Deposit Amount\");\n        \n        \n        //  If user balance is greater than or equal to deposit amount then transfer from member to this contract\n        //  NOTE: approve this contract to withdraw before transferFrom can work\n        _dai.transferFrom(member, address(this), DepositAmount);\n        \n        //  Increment the total deposited amount in this cycle\n        uint totalAmountDeposited = _esusuStorage.IncreaseTotalAmountDepositedInCycle(esusuCycleId,DepositAmount);\n        \n        \n        _esusuStorage.CreateMemberAddressToMemberCycleMapping(member,esusuCycleId);\n        \n        //  Increase TotalMembers count by 1\n        _esusuStorage.IncreaseTotalMembersInCycle(esusuCycleId);\n        \n        _esusuStorage.CreateMemberPositionMapping(CycleId, member);\n\n        //  emit event \n        emit JoinEsusuCycleEvent(now, member,TotalMembers, totalAmountDeposited,esusuCycleId);\n    }\n\n    \n    /*\n        - Check if the Id is a valid ID\n        - Check if the cycle is in Idle State\n        - Anyone  can start that cycle -\n        - Get the total number of members and then mulitply by the time interval in seconds to get the total time this Cycle will last for\n        - Set the Cycle start time to now \n        - Take everyones deposited DAI from this Esusu Cycle and then invest through Yearn \n        - Track the yDai shares that belong to this cycle using the derived equation below for save/investment operation\n            - yDaiSharesPerCycle = Change in yDaiSharesForContract + Current yDai Shares in the cycle \n            - Change in yDaiSharesForContract = yDai.balanceOf(address(this) after save operation - yDai.balanceOf(address(this) after before operation\n    */\n    \n    function StartEsusuCycle(uint esusuCycleId) public onlyOwnerAndServiceContract active{\n        \n        //  Get Current EsusuCycleId\n        uint currentEsusuCycleId = _esusuStorage.GetEsusuCycleId();\n        \n        //  Get Esusu Cycle Basic information\n        (uint CycleId, uint DepositAmount, uint CycleState,uint TotalMembers,uint MaxMembers) = _esusuStorage.GetEsusuCycleBasicInformation(esusuCycleId);\n\n        //  Get Esusu Cycle Total Shares\n        (uint EsusuCycleTotalShares) = _esusuStorage.GetEsusuCycleTotalShares(esusuCycleId);\n        \n        \n        //  Get Esusu Cycle Payout Interval \n        (uint EsusuCyclePayoutInterval) = _esusuStorage.GetEsusuCyclePayoutInterval(esusuCycleId);\n        \n        \n        //  If cycle ID is valid, else bonunce\n        require(esusuCycleId > 0 && esusuCycleId <= currentEsusuCycleId, \"Cycle ID must be within valid EsusuCycleId range\");\n        \n\n        require(CycleState == uint(CycleStateEnum.Idle), \"Cycle can only be started when in Idle state\");\n        \n        require(now > _esusuStorage.GetEsusuCycleStartTime(esusuCycleId), \"Cycle can only be started when start time has elapsed\");\n        \n\n        //  Calculate Cycle LifeTime in seconds\n        uint toalCycleDuration = EsusuCyclePayoutInterval * TotalMembers;\n\n        \n        //  Get all the dai deposited for this cycle\n        uint esusuCycleBalance = _esusuStorage.GetEsusuCycleTotalAmountDeposited(esusuCycleId);\n        \n        //  Get the balance of yDaiSharesForContract before save opration\n        uint yDaiSharesForContractBeforeSave = _yDai.balanceOf(address(this));\n        \n        //  Invest the dai in Yearn Finance using Dai Lending Service.\n        \n        //  NOTE: yDai will be sent to this contract\n        //  Transfer dai from this contract to dai lending adapter and then call a new save function that will not use transferFrom internally\n        //  Approve the daiLendingAdapter so it can spend our Dai on our behalf \n        address daiLendingAdapterContractAddress = _iDaiLendingService.GetDaiLendingAdapterAddress();\n        _dai.approve(daiLendingAdapterContractAddress,esusuCycleBalance);\n        \n        _iDaiLendingService.save(esusuCycleBalance);\n        \n        //  Get the balance of yDaiSharesForContract after save operation\n        uint yDaiSharesForContractAfterSave = _yDai.balanceOf(address(this));\n        \n        \n        //  Save yDai Total balanceShares\n        uint totalShares = yDaiSharesForContractAfterSave.sub(yDaiSharesForContractBeforeSave).add(EsusuCycleTotalShares);\n        \n        //  Increase TotalDeposits made to this contract \n\n        _esusuStorage.IncreaseTotalDeposits(esusuCycleBalance);\n        \n        //  Update Esusu Cycle State, total cycle duration, total shares  and  cycle start time, \n        _esusuStorage.UpdateEsusuCycleDuringStart(CycleId,uint(CycleStateEnum.Active),toalCycleDuration,totalShares,now);\n        \n        //  emit event \n        emit StartEsusuCycleEvent(now,esusuCycleBalance, toalCycleDuration,\n                                    totalShares,esusuCycleId);\n    }\n    \n    \n  \n    function GetMemberCycleInfo(address memberAddress, uint esusuCycleId) active public view returns(uint CycleId, address MemberId, uint TotalAmountDepositedInCycle, uint TotalPayoutReceivedInCycle, uint memberPosition) {\n        \n        return _esusuStorage.GetMemberCycleInfo(memberAddress, esusuCycleId);\n    }\n\n    function GetEsusuCycle(uint esusuCycleId) public view returns(uint CycleId, uint DepositAmount, \n                                                            uint PayoutIntervalSeconds, uint CycleState, \n                                                            uint TotalMembers, uint TotalAmountDeposited, uint TotalShares, \n                                                            uint TotalCycleDurationInSeconds, uint TotalCapitalWithdrawn, uint CycleStartTimeInSeconds,\n                                                            uint TotalBeneficiaries, uint MaxMembers){\n        \n        return _esusuStorage.GetEsusuCycle(esusuCycleId);\n        \n    }\n    \n    \n\n    \n    function GetDaiBalance(address member) active external view returns(uint){\n        return _dai.balanceOf(member);\n    }\n    \n    function GetYDaiBalance(address member) active external view returns(uint){\n        return _yDai.balanceOf(member);\n    }\n    \n    \n    \n    function GetTotalDeposits() active public view returns(uint)  {\n        return _esusuStorage.GetTotalDeposits();\n    } \n    \n    \n\n    \n    function GetCurrentEsusuCycleId() active public view returns(uint){\n        \n        return _esusuStorage.GetEsusuCycleId();\n    }\n    \n    function _isMemberInCycle(address memberAddress,uint esusuCycleId ) internal view returns(bool){\n        \n        return _esusuStorage.IsMemberInCycle(memberAddress,esusuCycleId);\n    }\n    \n    function _isMemberABeneficiaryInCycle(address memberAddress,uint esusuCycleId ) internal view returns(bool){\n\n        uint amount = _esusuStorage.GetMemberCycleToBeneficiaryMapping(esusuCycleId, memberAddress);\n\n        //  If member has received money from this cycle, the amount recieved should be greater than 0\n\n        if(amount > 0){\n            \n            return true;\n        }else{\n            return false;\n        }\n    }\n    \n    function _isMemberInWithdrawnCapitalMapping(address memberAddress,uint esusuCycleId ) internal view returns(bool){\n        \n        uint amount = _esusuStorage.GetMemberWithdrawnCapitalInEsusuCycle(esusuCycleId, memberAddress);\n        //  If member has withdrawn capital from this cycle, the amount recieved should be greater than 0\n\n        if(amount > 0){\n            \n            return true;\n        }else{\n            return false;\n        }\n    }\n    \n    /*\n        - Get the group index by name\n        - Get the group information by index\n    */\n    function GetGroupInformationByName(string memory name) active public view returns (uint groupId, string memory groupName, string memory groupSymbol, address groupCreatorAddress){\n        \n        //  Get the group index by name\n        (bool exists, uint index ) = _groupsContract.getGroupIndexerByName(name);\n        \n        //  Get the group id by index and return \n\n        return _groupsContract.getGroupByIndex(index);\n    }\n    \n        /*\n        - Get the group information by Id\n    */\n    function GetGroupInformationById(uint id) active public view returns (uint groupId, string memory groupName, string memory groupSymbol, address groupCreatorAddress){\n        \n        //  Get the group id by index and return \n\n        return _groupsContract.getGroupById(id);\n    }\n    \n    /*\n        - Creates the group \n        - returns the ID and other information\n    */\n    function CreateGroup(string memory name, string memory symbol, address groupCreator) active public {\n        \n           _groupsContract.createGroup(name,symbol,groupCreator);\n           \n    }\n    \n    function TransferYDaiSharesToWithdrawalDelegate(uint amount) external active onlyOwnerAndDelegateContract {\n        \n        _yDai.transfer(_delegateContract, amount);\n\n    }\n\n\n    function DepricateContract(address newEsusuAdapterContract, string calldata reason) external onlyOwner{\n        //  set _isActive to false\n        _isActive = false;\n        \n        uint yDaiSharesBalance = _yDai.balanceOf(address(this));\n\n        //  Send yDai shares to the new contract and halt operations of this contract\n        _yDai.transfer(newEsusuAdapterContract, yDaiSharesBalance);\n        \n        DepricateContractEvent(now, _owner, reason, yDaiSharesBalance);\n\n    }\n    \n    modifier onlyOwnerAndDelegateContract() {\n        require(\n            msg.sender == owner || msg.sender == _delegateContract,\n            \"Unauthorized access to contract\"\n        );\n        _;\n    }\n    \n    modifier active(){\n        require(_isActive == true, \"This contract is depricated, use new version of contract\");\n        _;\n    }\n    \n\n}\n\n",
  "sourcePath": "/Users/njokuscript/Desktop/programming/esusu/contracts/EsusuAdapter.sol",
  "compiler": {
    "name": "solc",
    "version": "0.6.6+commit.6c089d02.Emscripten.clang"
  },
  "schemaVersion": "3.2.5",
  "updatedAt": "2020-11-05T10:54:24.646Z",
  "networkType": "ethereum",
  "devdoc": {
    "methods": {}
  },
  "userdoc": {
    "methods": {}
  }
}