{
  "contractName": "EsusuService",
  "abi": [
    {
      "inputs": [],
      "stateMutability": "nonpayable",
      "type": "constructor"
    },
    {
      "inputs": [
        {
          "internalType": "address",
          "name": "account",
          "type": "address"
        }
      ],
      "name": "TransferOwnership",
      "outputs": [],
      "stateMutability": "nonpayable",
      "type": "function"
    },
    {
      "inputs": [
        {
          "internalType": "address",
          "name": "adapterAddress",
          "type": "address"
        }
      ],
      "name": "UpdateAdapter",
      "outputs": [],
      "stateMutability": "nonpayable",
      "type": "function"
    },
    {
      "inputs": [
        {
          "internalType": "address",
          "name": "delegateAddress",
          "type": "address"
        }
      ],
      "name": "UpdateAdapterWithdrawalDelegate",
      "outputs": [],
      "stateMutability": "nonpayable",
      "type": "function"
    },
    {
      "inputs": [
        {
          "internalType": "string",
          "name": "name",
          "type": "string"
        }
      ],
      "name": "GetGroupInformationByName",
      "outputs": [
        {
          "internalType": "uint256",
          "name": "groupId",
          "type": "uint256"
        },
        {
          "internalType": "string",
          "name": "groupName",
          "type": "string"
        },
        {
          "internalType": "string",
          "name": "groupSymbol",
          "type": "string"
        },
        {
          "internalType": "address",
          "name": "groupCreatorAddress",
          "type": "address"
        }
      ],
      "stateMutability": "view",
      "type": "function",
      "constant": true
    },
    {
      "inputs": [],
      "name": "GetEsusuAdapterAddress",
      "outputs": [
        {
          "internalType": "address",
          "name": "",
          "type": "address"
        }
      ],
      "stateMutability": "view",
      "type": "function",
      "constant": true
    },
    {
      "inputs": [
        {
          "internalType": "string",
          "name": "name",
          "type": "string"
        },
        {
          "internalType": "string",
          "name": "symbol",
          "type": "string"
        }
      ],
      "name": "CreateGroup",
      "outputs": [],
      "stateMutability": "nonpayable",
      "type": "function"
    },
    {
      "inputs": [
        {
          "internalType": "uint256",
          "name": "groupId",
          "type": "uint256"
        },
        {
          "internalType": "uint256",
          "name": "depositAmount",
          "type": "uint256"
        },
        {
          "internalType": "uint256",
          "name": "payoutIntervalSeconds",
          "type": "uint256"
        },
        {
          "internalType": "uint256",
          "name": "startTimeInSeconds",
          "type": "uint256"
        },
        {
          "internalType": "uint256",
          "name": "maxMembers",
          "type": "uint256"
        }
      ],
      "name": "CreateEsusu",
      "outputs": [],
      "stateMutability": "nonpayable",
      "type": "function"
    },
    {
      "inputs": [
        {
          "internalType": "uint256",
          "name": "esusuCycleId",
          "type": "uint256"
        },
        {
          "internalType": "address",
          "name": "member",
          "type": "address"
        }
      ],
      "name": "JoinEsusu",
      "outputs": [],
      "stateMutability": "nonpayable",
      "type": "function"
    },
    {
      "inputs": [
        {
          "internalType": "address",
          "name": "memberAddress",
          "type": "address"
        },
        {
          "internalType": "uint256",
          "name": "esusuCycleId",
          "type": "uint256"
        }
      ],
      "name": "GetMemberCycleInfo",
      "outputs": [
        {
          "internalType": "uint256",
          "name": "CycleId",
          "type": "uint256"
        },
        {
          "internalType": "address",
          "name": "MemberId",
          "type": "address"
        },
        {
          "internalType": "uint256",
          "name": "TotalAmountDepositedInCycle",
          "type": "uint256"
        },
        {
          "internalType": "uint256",
          "name": "TotalPayoutReceivedInCycle",
          "type": "uint256"
        },
        {
          "internalType": "uint256",
          "name": "memberPosition",
          "type": "uint256"
        }
      ],
      "stateMutability": "view",
      "type": "function",
      "constant": true
    },
    {
      "inputs": [
        {
          "internalType": "uint256",
          "name": "esusuCycleId",
          "type": "uint256"
        }
      ],
      "name": "GetEsusuCycle",
      "outputs": [
        {
          "internalType": "uint256",
          "name": "CycleId",
          "type": "uint256"
        },
        {
          "internalType": "uint256",
          "name": "DepositAmount",
          "type": "uint256"
        },
        {
          "internalType": "uint256",
          "name": "PayoutIntervalSeconds",
          "type": "uint256"
        },
        {
          "internalType": "uint256",
          "name": "CycleState",
          "type": "uint256"
        },
        {
          "internalType": "uint256",
          "name": "TotalMembers",
          "type": "uint256"
        },
        {
          "internalType": "uint256",
          "name": "TotalAmountDeposited",
          "type": "uint256"
        },
        {
          "internalType": "uint256",
          "name": "TotalShares",
          "type": "uint256"
        },
        {
          "internalType": "uint256",
          "name": "TotalCycleDurationInSeconds",
          "type": "uint256"
        },
        {
          "internalType": "uint256",
          "name": "TotalCapitalWithdrawn",
          "type": "uint256"
        },
        {
          "internalType": "uint256",
          "name": "CycleStartTimeInSeconds",
          "type": "uint256"
        },
        {
          "internalType": "uint256",
          "name": "TotalBeneficiaries",
          "type": "uint256"
        },
        {
          "internalType": "uint256",
          "name": "MaxMembers",
          "type": "uint256"
        }
      ],
      "stateMutability": "view",
      "type": "function",
      "constant": true
    },
    {
      "inputs": [
        {
          "internalType": "uint256",
          "name": "esusuCycleId",
          "type": "uint256"
        }
      ],
      "name": "StartEsusuCycle",
      "outputs": [],
      "stateMutability": "nonpayable",
      "type": "function"
    },
    {
      "inputs": [
        {
          "internalType": "uint256",
          "name": "esusuCycleId",
          "type": "uint256"
        }
      ],
      "name": "WithdrawROIFromEsusuCycle",
      "outputs": [],
      "stateMutability": "nonpayable",
      "type": "function"
    },
    {
      "inputs": [
        {
          "internalType": "uint256",
          "name": "esusuCycleId",
          "type": "uint256"
        }
      ],
      "name": "WithdrawCapitalFromEsusuCycle",
      "outputs": [],
      "stateMutability": "nonpayable",
      "type": "function"
    },
    {
      "inputs": [
        {
          "internalType": "uint256",
          "name": "esusuCycleId",
          "type": "uint256"
        },
        {
          "internalType": "address",
          "name": "member",
          "type": "address"
        }
      ],
      "name": "IsMemberEligibleToWithdrawROI",
      "outputs": [
        {
          "internalType": "bool",
          "name": "",
          "type": "bool"
        }
      ],
      "stateMutability": "view",
      "type": "function",
      "constant": true
    },
    {
      "inputs": [
        {
          "internalType": "uint256",
          "name": "esusuCycleId",
          "type": "uint256"
        },
        {
          "internalType": "address",
          "name": "member",
          "type": "address"
        }
      ],
      "name": "IsMemberEligibleToWithdrawCapital",
      "outputs": [
        {
          "internalType": "bool",
          "name": "",
          "type": "bool"
        }
      ],
      "stateMutability": "view",
      "type": "function",
      "constant": true
    },
    {
      "inputs": [],
      "name": "GetCurrentEsusuCycleId",
      "outputs": [
        {
          "internalType": "uint256",
          "name": "",
          "type": "uint256"
        }
      ],
      "stateMutability": "view",
      "type": "function",
      "constant": true
    },
    {
      "inputs": [],
      "name": "GetTotalDeposits",
      "outputs": [
        {
          "internalType": "uint256",
          "name": "",
          "type": "uint256"
        }
      ],
      "stateMutability": "view",
      "type": "function",
      "constant": true
    }
  ],
  "bytecode": "0x608060405234801561001057600080fd5b5060008054600160a060020a03191633179055611239806100326000396000f3fe608060405234801561001057600080fd5b5060043610610128576000357c010000000000000000000000000000000000000000000000000000000090048063608ad5a3116100bf578063cea07b131161008e578063cea07b1314610404578063cfaaa26614610430578063e1c39f1514610456578063ebd9c46a1461048b578063fc323210146105f957610128565b8063608ad5a3146102d35780636a327586146102f957806378fe7a5114610316578063a0bbeb65146103d857610128565b806323caec69116100fb57806323caec69146101ca57806324943907146101f05780634e830466146101f857806357ac77031461027457610128565b8063011966f91461012d5780630590b9051461016d5780630d0353c91461018c5780631f82c5de146101b0575b600080fd5b6101596004803603604081101561014357600080fd5b5080359060200135600160a060020a0316610616565b604080519115158252519081900360200190f35b61018a6004803603602081101561018357600080fd5b50356106ba565b005b610194610741565b60408051600160a060020a039092168252519081900360200190f35b6101b8610750565b60408051918252519081900360200190f35b61018a600480360360208110156101e057600080fd5b5035600160a060020a03166107df565b6101b8610887565b6102156004803603602081101561020e57600080fd5b50356108e5565b604080519c8d5260208d019b909b528b8b019990995260608b019790975260808a019590955260a089019390935260c088019190915260e087015261010086015261012085015261014084015261016083015251908190036101800190f35b6102a06004803603604081101561028a57600080fd5b50600160a060020a038135169060200135610a3e565b60408051958652600160a060020a0390941660208601528484019290925260608401526080830152519081900360a00190f35b61018a600480360360208110156102e957600080fd5b5035600160a060020a0316610b0b565b61018a6004803603602081101561030f57600080fd5b5035610bb3565b61018a6004803603604081101561032c57600080fd5b81019060208101813564010000000081111561034757600080fd5b82018360208201111561035957600080fd5b8035906020019184600183028401116401000000008311171561037b57600080fd5b91939092909160208101903564010000000081111561039957600080fd5b8201836020820111156103ab57600080fd5b803590602001918460018302840111640100000000831117156103cd57600080fd5b509092509050610c1f565b61018a600480360360408110156103ee57600080fd5b5080359060200135600160a060020a0316610d07565b6101596004803603604081101561041a57600080fd5b5080359060200135600160a060020a0316610d91565b61018a6004803603602081101561044657600080fd5b5035600160a060020a0316610e02565b61018a600480360360a081101561046c57600080fd5b5080359060208101359060408101359060608101359060800135610eaa565b6104fb600480360360208110156104a157600080fd5b8101906020810181356401000000008111156104bc57600080fd5b8201836020820111156104ce57600080fd5b803590602001918460018302840111640100000000831117156104f057600080fd5b509092509050610f51565b60405180858152602001806020018060200184600160a060020a0316600160a060020a03168152602001838103835286818151815260200191508051906020019080838360005b8381101561055a578181015183820152602001610542565b50505050905090810190601f1680156105875780820380516001836020036101000a031916815260200191505b50838103825285518152855160209182019187019080838360005b838110156105ba5781810151838201526020016105a2565b50505050905090810190601f1680156105e75780820380516001836020036101000a031916815260200191505b50965050505050505060405180910390f35b61018a6004803603602081101561060f57600080fd5b503561119d565b600254604080517f011966f900000000000000000000000000000000000000000000000000000000815260048101859052600160a060020a0384811660248301529151600093929092169163011966f991604480820192602092909190829003018186803b15801561068757600080fd5b505afa15801561069b573d6000803e3d6000fd5b505050506040513d60208110156106b157600080fd5b50909392505050565b600254604080517f53a86be5000000000000000000000000000000000000000000000000000000008152600481018490523360248201529051600160a060020a03909216916353a86be59160448082019260009290919082900301818387803b15801561072657600080fd5b505af115801561073a573d6000803e3d6000fd5b5050505050565b600154600160a060020a031690565b600154604080517f1f82c5de0000000000000000000000000000000000000000000000000000000081529051600092600160a060020a031691631f82c5de916004808301926020929190829003018186803b1580156107ae57600080fd5b505afa1580156107c2573d6000803e3d6000fd5b505050506040513d60208110156107d857600080fd5b5051905090565b600054600160a060020a0316331461085857604080517f08c379a000000000000000000000000000000000000000000000000000000000815260206004820152601d60248201527f4f6e6c79206f776e65722063616e206d616b6520746869732063616c6c000000604482015290519081900360640190fd5b6001805473ffffffffffffffffffffffffffffffffffffffff1916600160a060020a0392909216919091179055565b600154604080517f249439070000000000000000000000000000000000000000000000000000000081529051600092600160a060020a0316916324943907916004808301926020929190829003018186803b1580156107ae57600080fd5b600080600080600080600080600080600080600160009054906101000a9004600160a060020a0316600160a060020a0316634e8304668e6040518263ffffffff167c0100000000000000000000000000000000000000000000000000000000028152600401808281526020019150506101806040518083038186803b15801561096d57600080fd5b505afa158015610981573d6000803e3d6000fd5b505050506040513d61018081101561099857600080fd5b810190808051906020019092919080519060200190929190805190602001909291908051906020019092919080519060200190929190805190602001909291908051906020019092919080519060200190929190805190602001909291908051906020019092919080519060200190929190805190602001909291905050509b509b509b509b509b509b509b509b509b509b509b509b5091939597999b5091939597999b565b600154604080517f57ac7703000000000000000000000000000000000000000000000000000000008152600160a060020a038581166004830152602482018590529151600093849384938493849392909216916357ac77039160448082019260a092909190829003018186803b158015610ab757600080fd5b505afa158015610acb573d6000803e3d6000fd5b505050506040513d60a0811015610ae157600080fd5b508051602082015160408301516060840151608090940151929b919a509850919650945092505050565b600054600160a060020a03163314610b8457604080517f08c379a000000000000000000000000000000000000000000000000000000000815260206004820152601d60248201527f4f6e6c79206f776e65722063616e206d616b6520746869732063616c6c000000604482015290519081900360640190fd5b6002805473ffffffffffffffffffffffffffffffffffffffff1916600160a060020a0392909216919091179055565b600254604080517f958efd1d000000000000000000000000000000000000000000000000000000008152600481018490523360248201529051600160a060020a039092169163958efd1d9160448082019260009290919082900301818387803b15801561072657600080fd5b6001546040517f7b3a173f000000000000000000000000000000000000000000000000000000008152336044820181905260606004830190815260648301879052600160a060020a0390931692637b3a173f928892889288928892919081906024810190608401888880828437600083820152601f01601f191690910184810383528681526020019050868680828437600081840152601f19601f820116905080830192505050975050505050505050600060405180830381600087803b158015610ce957600080fd5b505af1158015610cfd573d6000803e3d6000fd5b5050505050505050565b600154604080517fa0bbeb6500000000000000000000000000000000000000000000000000000000815260048101859052600160a060020a0384811660248301529151919092169163a0bbeb6591604480830192600092919082900301818387803b158015610d7557600080fd5b505af1158015610d89573d6000803e3d6000fd5b505050505050565b600254604080517fcea07b1300000000000000000000000000000000000000000000000000000000815260048101859052600160a060020a0384811660248301529151600093929092169163cea07b1391604480820192602092909190829003018186803b15801561068757600080fd5b600054600160a060020a03163314610e7b57604080517f08c379a000000000000000000000000000000000000000000000000000000000815260206004820152601d60248201527f4f6e6c79206f776e65722063616e206d616b6520746869732063616c6c000000604482015290519081900360640190fd5b6000805473ffffffffffffffffffffffffffffffffffffffff1916600160a060020a0392909216919091179055565b600154604080517fe11ffee50000000000000000000000000000000000000000000000000000000081526004810188905260248101879052604481018690526064810185905233608482015260a481018490529051600160a060020a039092169163e11ffee59160c48082019260009290919082900301818387803b158015610f3257600080fd5b505af1158015610f46573d6000803e3d6000fd5b505050505050505050565b6001546040517febd9c46a0000000000000000000000000000000000000000000000000000000081526020600482019081526024820184905260009260609283928592600160a060020a03169163ebd9c46a9189918991908190604401848480828437600081840152601f19601f820116905080830192505050935050505060006040518083038186803b158015610fe857600080fd5b505afa158015610ffc573d6000803e3d6000fd5b505050506040513d6000823e601f3d908101601f19168201604052608081101561102557600080fd5b81516020830180516040519294929383019291908464010000000082111561104c57600080fd5b90830190602082018581111561106157600080fd5b825164010000000081118282018810171561107b57600080fd5b82525081516020918201929091019080838360005b838110156110a8578181015183820152602001611090565b50505050905090810190601f1680156110d55780820380516001836020036101000a031916815260200191505b50604052602001805160405193929190846401000000008211156110f857600080fd5b90830190602082018581111561110d57600080fd5b825164010000000081118282018810171561112757600080fd5b82525081516020918201929091019080838360005b8381101561115457818101518382015260200161113c565b50505050905090810190601f1680156111815780820380516001836020036101000a031916815260200191505b5060405260200151949b939a5091985092965090945050505050565b600154604080517ffc323210000000000000000000000000000000000000000000000000000000008152600481018490529051600160a060020a039092169163fc3232109160248082019260009290919082900301818387803b15801561072657600080fdfea2646970667358221220997af9a8d75192a454c647d305c29f664124c57cbabd1428a5b24d917abed36664736f6c63430006060033",
  "immutableReferences": {},
  "source": "pragma solidity ^0.6.6;\n\nimport \"./EsusuAdapter.sol\";\nimport \"./EsusuAdapterWithdrawalDelegate.sol\";\n\n\ncontract EsusuService{\n    \n    address _owner;\n    EsusuAdapter _esusuAdapter;\n    EsusuAdapterWithdrawalDelegate _esusuAdapterWithdrawalDelegate;\n    \n    mapping(address => uint) userDaiDeposits;   \n\n    constructor() public {\n        _owner = msg.sender;\n    }\n    \n    function TransferOwnership(address account) onlyOwner() external{\n        _owner = account;\n    }\n    \n    function UpdateAdapter(address adapterAddress) onlyOwner() external{\n        _esusuAdapter = EsusuAdapter(adapterAddress);   \n    }\n    \n    function UpdateAdapterWithdrawalDelegate(address delegateAddress) onlyOwner() external{\n        _esusuAdapterWithdrawalDelegate = EsusuAdapterWithdrawalDelegate(delegateAddress);   \n    }\n    \n    function GetGroupInformationByName(string calldata name) external view returns (uint groupId, string memory groupName, string memory groupSymbol, address groupCreatorAddress){\n        \n\n        return _esusuAdapter.GetGroupInformationByName(name);\n    }\n    \n    function GetEsusuAdapterAddress() external view returns (address){\n        return address(_esusuAdapter);\n    }\n    \n    \n    function CreateGroup(string calldata name, string calldata symbol) external {\n        \n           _esusuAdapter.CreateGroup(name,symbol,msg.sender);\n           \n    }\n    \n    function CreateEsusu(uint groupId, uint depositAmount, uint payoutIntervalSeconds,uint startTimeInSeconds,uint maxMembers) external {\n        \n        _esusuAdapter.CreateEsusu(groupId,depositAmount,payoutIntervalSeconds,startTimeInSeconds,msg.sender,maxMembers);\n    }\n    \n    /*\n        NOTE: member must approve _esusuAdapter to transfer deposit amount on his/her behalf\n    */\n    function JoinEsusu(uint esusuCycleId, address member) external {\n        _esusuAdapter.JoinEsusu(esusuCycleId,member);\n    }\n    \n    \n    /*\n        This function returns information about a member in an esusu Cycle \n    */\n    function GetMemberCycleInfo(address memberAddress, uint esusuCycleId) \n                                external view returns(uint CycleId, address MemberId, uint TotalAmountDepositedInCycle, \n                                uint TotalPayoutReceivedInCycle, uint memberPosition){\n        \n        return _esusuAdapter.GetMemberCycleInfo(memberAddress,esusuCycleId);\n    }\n    \n     function GetEsusuCycle(uint esusuCycleId) external view returns(uint CycleId, uint DepositAmount, \n                                                            uint PayoutIntervalSeconds, uint CycleState, \n                                                            uint TotalMembers, uint TotalAmountDeposited, uint TotalShares, \n                                                            uint TotalCycleDurationInSeconds, uint TotalCapitalWithdrawn, uint CycleStartTimeInSeconds,\n                                                            uint TotalBeneficiaries, uint MaxMembers){\n    \n        return _esusuAdapter.GetEsusuCycle(esusuCycleId);                                                        \n    }\n    \n    function StartEsusuCycle(uint esusuCycleId) external {\n        _esusuAdapter.StartEsusuCycle(esusuCycleId);\n    }\n    \n    function WithdrawROIFromEsusuCycle(uint esusuCycleId) external{\n        _esusuAdapterWithdrawalDelegate.WithdrawROIFromEsusuCycle(esusuCycleId,msg.sender);\n    }\n    \n    function WithdrawCapitalFromEsusuCycle(uint esusuCycleId) external{\n        _esusuAdapterWithdrawalDelegate.WithdrawCapitalFromEsusuCycle(esusuCycleId,msg.sender);\n    }\n    \n    function IsMemberEligibleToWithdrawROI(uint esusuCycleId, address member) external view returns(bool){\n        _esusuAdapterWithdrawalDelegate.IsMemberEligibleToWithdrawROI(esusuCycleId,member);\n    }\n    \n    function IsMemberEligibleToWithdrawCapital(uint esusuCycleId, address member) external view returns(bool){\n        _esusuAdapterWithdrawalDelegate.IsMemberEligibleToWithdrawCapital(esusuCycleId,member);\n    }\n    \n    function GetCurrentEsusuCycleId() external view returns(uint){\n        return _esusuAdapter.GetCurrentEsusuCycleId();\n    }\n    \n    function GetTotalDeposits() external view returns(uint)  {\n        return _esusuAdapter.GetTotalDeposits();\n    }\n    modifier onlyOwner(){\n        require(_owner == msg.sender, \"Only owner can make this call\");\n        _;\n    }\n    \n    \n}",
  "sourcePath": "/Users/njokuscript/Desktop/programming/esusu/contracts/EsusuService.sol",
  "compiler": {
    "name": "solc",
    "version": "0.6.6+commit.6c089d02.Emscripten.clang"
  },
  "schemaVersion": "3.2.5",
  "updatedAt": "2020-11-05T10:54:24.616Z",
  "networkType": "ethereum",
  "devdoc": {
    "methods": {}
  },
  "userdoc": {
    "methods": {}
  }
}