{
  "contractName": "EsusuAdapter",
  "abi": [
    {
      "inputs": [
        {
          "internalType": "address payable",
          "name": "serviceContract",
          "type": "address"
        },
        {
          "internalType": "address payable",
          "name": "treasuryContract",
          "type": "address"
        },
        {
          "internalType": "address",
          "name": "savingsConfigContract",
          "type": "address"
        },
        {
          "internalType": "string",
          "name": "feeRuleKey",
          "type": "string"
        },
        {
          "internalType": "address",
          "name": "groupsContract",
          "type": "address"
        },
        {
          "internalType": "address",
          "name": "rewardConfigContract",
          "type": "address"
        },
        {
          "internalType": "address",
          "name": "xendTokenContract",
          "type": "address"
        }
      ],
      "stateMutability": "nonpayable",
      "type": "constructor"
    },
    {
      "anonymous": false,
      "inputs": [
        {
          "indexed": false,
          "internalType": "uint256",
          "name": "date",
          "type": "uint256"
        },
        {
          "indexed": true,
          "internalType": "address",
          "name": "member",
          "type": "address"
        },
        {
          "indexed": false,
          "internalType": "uint256",
          "name": "cycleId",
          "type": "uint256"
        },
        {
          "indexed": false,
          "internalType": "uint256",
          "name": "amount",
          "type": "uint256"
        }
      ],
      "name": "CapitalWithdrawalEvent",
      "type": "event"
    },
    {
      "anonymous": false,
      "inputs": [
        {
          "indexed": false,
          "internalType": "uint256",
          "name": "date",
          "type": "uint256"
        },
        {
          "indexed": true,
          "internalType": "uint256",
          "name": "cycleId",
          "type": "uint256"
        },
        {
          "indexed": false,
          "internalType": "uint256",
          "name": "depositAmount",
          "type": "uint256"
        },
        {
          "indexed": false,
          "internalType": "address",
          "name": "Owner",
          "type": "address"
        },
        {
          "indexed": false,
          "internalType": "uint256",
          "name": "payoutIntervalSeconds",
          "type": "uint256"
        },
        {
          "indexed": false,
          "internalType": "enum EsusuAdapter.CurrencyEnum",
          "name": "currency",
          "type": "uint8"
        },
        {
          "indexed": false,
          "internalType": "string",
          "name": "currencySymbol",
          "type": "string"
        },
        {
          "indexed": false,
          "internalType": "enum EsusuAdapter.CycleStateEnum",
          "name": "cycleState",
          "type": "uint8"
        }
      ],
      "name": "CreateEsusuCycleEvent",
      "type": "event"
    },
    {
      "anonymous": false,
      "inputs": [
        {
          "indexed": false,
          "internalType": "uint256",
          "name": "date",
          "type": "uint256"
        },
        {
          "indexed": true,
          "internalType": "address",
          "name": "member",
          "type": "address"
        },
        {
          "indexed": false,
          "internalType": "uint256",
          "name": "memberPosition",
          "type": "uint256"
        },
        {
          "indexed": false,
          "internalType": "uint256",
          "name": "totalAmountDeposited",
          "type": "uint256"
        },
        {
          "indexed": false,
          "internalType": "uint256",
          "name": "cycleId",
          "type": "uint256"
        }
      ],
      "name": "JoinEsusuCycleEvent",
      "type": "event"
    },
    {
      "anonymous": false,
      "inputs": [
        {
          "indexed": false,
          "internalType": "uint256",
          "name": "date",
          "type": "uint256"
        },
        {
          "indexed": true,
          "internalType": "address",
          "name": "member",
          "type": "address"
        },
        {
          "indexed": false,
          "internalType": "uint256",
          "name": "cycleId",
          "type": "uint256"
        },
        {
          "indexed": false,
          "internalType": "uint256",
          "name": "amount",
          "type": "uint256"
        }
      ],
      "name": "ROIWithdrawalEvent",
      "type": "event"
    },
    {
      "anonymous": false,
      "inputs": [
        {
          "indexed": false,
          "internalType": "uint256",
          "name": "date",
          "type": "uint256"
        },
        {
          "indexed": false,
          "internalType": "address",
          "name": "owner",
          "type": "address"
        },
        {
          "indexed": false,
          "internalType": "uint256",
          "name": "totalAmountDeposited",
          "type": "uint256"
        },
        {
          "indexed": false,
          "internalType": "uint256",
          "name": "totalCycleDuration",
          "type": "uint256"
        },
        {
          "indexed": false,
          "internalType": "uint256",
          "name": "totalShares",
          "type": "uint256"
        },
        {
          "indexed": false,
          "internalType": "uint256",
          "name": "totalMembers",
          "type": "uint256"
        },
        {
          "indexed": true,
          "internalType": "uint256",
          "name": "cycleId",
          "type": "uint256"
        }
      ],
      "name": "StartEsusuCycleEvent",
      "type": "event"
    },
    {
      "inputs": [],
      "name": "owner",
      "outputs": [
        {
          "internalType": "address payable",
          "name": "",
          "type": "address"
        }
      ],
      "stateMutability": "view",
      "type": "function"
    },
    {
      "inputs": [],
      "name": "serviceContract",
      "outputs": [
        {
          "internalType": "address payable",
          "name": "",
          "type": "address"
        }
      ],
      "stateMutability": "view",
      "type": "function"
    },
    {
      "inputs": [
        {
          "internalType": "address payable",
          "name": "newServiceContract",
          "type": "address"
        }
      ],
      "name": "transferContractOwnership",
      "outputs": [],
      "stateMutability": "nonpayable",
      "type": "function"
    },
    {
      "inputs": [
        {
          "internalType": "address payable",
          "name": "newOwner",
          "type": "address"
        }
      ],
      "name": "transferOwnership",
      "outputs": [],
      "stateMutability": "nonpayable",
      "type": "function"
    },
    {
      "inputs": [
        {
          "internalType": "address",
          "name": "daiLendingServiceContractAddress",
          "type": "address"
        }
      ],
      "name": "UpdateDaiLendingService",
      "outputs": [],
      "stateMutability": "nonpayable",
      "type": "function"
    },
    {
      "inputs": [
        {
          "internalType": "uint256",
          "name": "groupId",
          "type": "uint256"
        },
        {
          "internalType": "uint256",
          "name": "depositAmount",
          "type": "uint256"
        },
        {
          "internalType": "uint256",
          "name": "payoutIntervalSeconds",
          "type": "uint256"
        },
        {
          "internalType": "uint256",
          "name": "startTimeInSeconds",
          "type": "uint256"
        },
        {
          "internalType": "address",
          "name": "owner",
          "type": "address"
        },
        {
          "internalType": "uint256",
          "name": "maxMembers",
          "type": "uint256"
        }
      ],
      "name": "CreateEsusu",
      "outputs": [],
      "stateMutability": "nonpayable",
      "type": "function"
    },
    {
      "inputs": [
        {
          "internalType": "uint256",
          "name": "esusuCycleId",
          "type": "uint256"
        },
        {
          "internalType": "address",
          "name": "member",
          "type": "address"
        }
      ],
      "name": "JoinEsusu",
      "outputs": [],
      "stateMutability": "nonpayable",
      "type": "function"
    },
    {
      "inputs": [
        {
          "internalType": "uint256",
          "name": "esusuCycleId",
          "type": "uint256"
        }
      ],
      "name": "StartEsusuCycle",
      "outputs": [],
      "stateMutability": "nonpayable",
      "type": "function"
    },
    {
      "inputs": [
        {
          "internalType": "address",
          "name": "memberAddress",
          "type": "address"
        },
        {
          "internalType": "uint256",
          "name": "esusuCycleId",
          "type": "uint256"
        }
      ],
      "name": "GetMemberCycleInfo",
      "outputs": [
        {
          "internalType": "uint256",
          "name": "CycleId",
          "type": "uint256"
        },
        {
          "internalType": "address",
          "name": "MemberId",
          "type": "address"
        },
        {
          "internalType": "uint256",
          "name": "TotalAmountDepositedInCycle",
          "type": "uint256"
        },
        {
          "internalType": "uint256",
          "name": "TotalPayoutReceivedInCycle",
          "type": "uint256"
        },
        {
          "internalType": "uint256",
          "name": "memberPosition",
          "type": "uint256"
        }
      ],
      "stateMutability": "view",
      "type": "function"
    },
    {
      "inputs": [
        {
          "internalType": "uint256",
          "name": "esusuCycleId",
          "type": "uint256"
        }
      ],
      "name": "GetEsusuCycle",
      "outputs": [
        {
          "internalType": "uint256",
          "name": "CycleId",
          "type": "uint256"
        },
        {
          "internalType": "uint256",
          "name": "DepositAmount",
          "type": "uint256"
        },
        {
          "internalType": "uint256",
          "name": "PayoutIntervalSeconds",
          "type": "uint256"
        },
        {
          "internalType": "uint256",
          "name": "CycleState",
          "type": "uint256"
        },
        {
          "internalType": "uint256",
          "name": "TotalMembers",
          "type": "uint256"
        },
        {
          "internalType": "uint256",
          "name": "TotalAmountDeposited",
          "type": "uint256"
        },
        {
          "internalType": "uint256",
          "name": "TotalShares",
          "type": "uint256"
        },
        {
          "internalType": "uint256",
          "name": "TotalCycleDurationInSeconds",
          "type": "uint256"
        },
        {
          "internalType": "uint256",
          "name": "TotalCapitalWithdrawn",
          "type": "uint256"
        },
        {
          "internalType": "uint256",
          "name": "CycleStartTimeInSeconds",
          "type": "uint256"
        },
        {
          "internalType": "uint256",
          "name": "TotalBeneficiaries",
          "type": "uint256"
        },
        {
          "internalType": "uint256",
          "name": "MaxMembers",
          "type": "uint256"
        }
      ],
      "stateMutability": "view",
      "type": "function"
    },
    {
      "inputs": [
        {
          "internalType": "uint256",
          "name": "esusuCycleId",
          "type": "uint256"
        },
        {
          "internalType": "address",
          "name": "member",
          "type": "address"
        }
      ],
      "name": "IsMemberEligibleToWithdrawROI",
      "outputs": [
        {
          "internalType": "bool",
          "name": "",
          "type": "bool"
        }
      ],
      "stateMutability": "view",
      "type": "function"
    },
    {
      "inputs": [
        {
          "internalType": "uint256",
          "name": "esusuCycleId",
          "type": "uint256"
        },
        {
          "internalType": "address",
          "name": "member",
          "type": "address"
        }
      ],
      "name": "IsMemberEligibleToWithdrawCapital",
      "outputs": [
        {
          "internalType": "bool",
          "name": "",
          "type": "bool"
        }
      ],
      "stateMutability": "view",
      "type": "function"
    },
    {
      "inputs": [
        {
          "internalType": "address",
          "name": "member",
          "type": "address"
        }
      ],
      "name": "GetDaiBalance",
      "outputs": [
        {
          "internalType": "uint256",
          "name": "",
          "type": "uint256"
        }
      ],
      "stateMutability": "view",
      "type": "function"
    },
    {
      "inputs": [
        {
          "internalType": "address",
          "name": "member",
          "type": "address"
        }
      ],
      "name": "GetYDaiBalance",
      "outputs": [
        {
          "internalType": "uint256",
          "name": "",
          "type": "uint256"
        }
      ],
      "stateMutability": "view",
      "type": "function"
    },
    {
      "inputs": [],
      "name": "GetTotalDeposits",
      "outputs": [
        {
          "internalType": "uint256",
          "name": "",
          "type": "uint256"
        }
      ],
      "stateMutability": "view",
      "type": "function"
    },
    {
      "inputs": [],
      "name": "GetCurrentEsusuCycleId",
      "outputs": [
        {
          "internalType": "uint256",
          "name": "",
          "type": "uint256"
        }
      ],
      "stateMutability": "view",
      "type": "function"
    },
    {
      "inputs": [
        {
          "internalType": "string",
          "name": "name",
          "type": "string"
        }
      ],
      "name": "GetGroupInformationByName",
      "outputs": [
        {
          "internalType": "uint256",
          "name": "groupId",
          "type": "uint256"
        },
        {
          "internalType": "string",
          "name": "groupName",
          "type": "string"
        },
        {
          "internalType": "string",
          "name": "groupSymbol",
          "type": "string"
        },
        {
          "internalType": "address",
          "name": "groupCreatorAddress",
          "type": "address"
        }
      ],
      "stateMutability": "view",
      "type": "function"
    },
    {
      "inputs": [
        {
          "internalType": "uint256",
          "name": "id",
          "type": "uint256"
        }
      ],
      "name": "GetGroupInformationById",
      "outputs": [
        {
          "internalType": "uint256",
          "name": "groupId",
          "type": "uint256"
        },
        {
          "internalType": "string",
          "name": "groupName",
          "type": "string"
        },
        {
          "internalType": "string",
          "name": "groupSymbol",
          "type": "string"
        },
        {
          "internalType": "address",
          "name": "groupCreatorAddress",
          "type": "address"
        }
      ],
      "stateMutability": "view",
      "type": "function"
    },
    {
      "inputs": [
        {
          "internalType": "string",
          "name": "name",
          "type": "string"
        },
        {
          "internalType": "string",
          "name": "symbol",
          "type": "string"
        },
        {
          "internalType": "address",
          "name": "groupCreator",
          "type": "address"
        }
      ],
      "name": "CreateGroup",
      "outputs": [],
      "stateMutability": "nonpayable",
      "type": "function"
    },
    {
      "inputs": [
        {
          "internalType": "uint256",
          "name": "esusuCycleId",
          "type": "uint256"
        },
        {
          "internalType": "address",
          "name": "member",
          "type": "address"
        }
      ],
      "name": "WithdrawCapitalFromEsusuCycle",
      "outputs": [],
      "stateMutability": "nonpayable",
      "type": "function"
    },
    {
      "inputs": [
        {
          "internalType": "uint256",
          "name": "esusuCycleId",
          "type": "uint256"
        },
        {
          "internalType": "address",
          "name": "member",
          "type": "address"
        }
      ],
      "name": "WithdrawROIFromEsusuCycle",
      "outputs": [],
      "stateMutability": "nonpayable",
      "type": "function"
    }
  ],
  "bytecode": "0x60806040526040518060400160405280600e81526020017f44616920537461626c65636f696e000000000000000000000000000000000000815250600290805190602001906200005192919062000463565b50736b175474e89094c44da98b954eedeac495271d0f600a60006101000a81548173ffffffffffffffffffffffffffffffffffffffff021916908373ffffffffffffffffffffffffffffffffffffffff16021790555073c2cb1040220768554cf699b0d863a3cd4324ce32600b60006101000a81548173ffffffffffffffffffffffffffffffffffffffff021916908373ffffffffffffffffffffffffffffffffffffffff1602179055506000600d553480156200010e57600080fd5b506040516200667538038062006675833981810160405260e08110156200013457600080fd5b81019080805190602001909291908051906020019092919080519060200190929190805160405193929190846401000000008211156200017357600080fd5b838201915060208201858111156200018a57600080fd5b8251866001820283011164010000000082111715620001a857600080fd5b8083526020830192505050908051906020019080838360005b83811015620001de578082015181840152602081019050620001c1565b50505050905090810190601f1680156200020c5780820380516001836020036101000a031916815260200191505b5060405260200180519060200190929190805190602001909291908051906020019092919050505086336000806101000a81548173ffffffffffffffffffffffffffffffffffffffff021916908373ffffffffffffffffffffffffffffffffffffffff16021790555080600160006101000a81548173ffffffffffffffffffffffffffffffffffffffff021916908373ffffffffffffffffffffffffffffffffffffffff1602179055505033600360006101000a81548173ffffffffffffffffffffffffffffffffffffffff021916908373ffffffffffffffffffffffffffffffffffffffff16021790555085600460006101000a81548173ffffffffffffffffffffffffffffffffffffffff021916908373ffffffffffffffffffffffffffffffffffffffff16021790555084600560006101000a81548173ffffffffffffffffffffffffffffffffffffffff021916908373ffffffffffffffffffffffffffffffffffffffff16021790555083600c90805190602001906200039292919062000463565b5082600660006101000a81548173ffffffffffffffffffffffffffffffffffffffff021916908373ffffffffffffffffffffffffffffffffffffffff16021790555081600760006101000a81548173ffffffffffffffffffffffffffffffffffffffff021916908373ffffffffffffffffffffffffffffffffffffffff16021790555080600860006101000a81548173ffffffffffffffffffffffffffffffffffffffff021916908373ffffffffffffffffffffffffffffffffffffffff1602179055505050505050505062000512565b828054600181600116156101000203166002900490600052602060002090601f016020900481019282601f10620004a657805160ff1916838001178555620004d7565b82800160010185558215620004d7579182015b82811115620004d6578251825591602001919060010190620004b9565b5b509050620004e69190620004ea565b5090565b6200050f91905b808211156200050b576000816000905550600101620004f1565b5090565b90565b61615380620005226000396000f3fe608060405234801561001057600080fd5b5060043610610154576000357c0100000000000000000000000000000000000000000000000000000000900480637b3a173f116100d5578063cea07b1311610099578063cea07b1314610851578063e11ffee5146108b7578063ebd9c46a1461092d578063f2fde38b14610b07578063f6a4b3d514610b4b578063fc32321014610ba357610154565b80637b3a173f146105b55780638da5cb5b14610727578063958efd1d14610771578063a0bbeb65146107bf578063a843c51f1461080d57610154565b80632f4cbe381161011c5780632f4cbe381461038c578063364dab10146103e45780634e8304661461042e57806353a86be5146104bd57806357ac77031461050b57610154565b8063011966f914610159578063050f93ed146101bf5780631b2b00cb1461030c5780631f82c5de14610350578063249439071461036e575b600080fd5b6101a56004803603604081101561016f57600080fd5b8101908080359060200190929190803573ffffffffffffffffffffffffffffffffffffffff169060200190929190505050610bd1565b604051808215151515815260200191505060405180910390f35b6101eb600480360360208110156101d557600080fd5b8101908080359060200190929190505050610be5565b6040518085815260200180602001806020018473ffffffffffffffffffffffffffffffffffffffff1673ffffffffffffffffffffffffffffffffffffffff168152602001838103835286818151815260200191508051906020019080838360005b8381101561026757808201518184015260208101905061024c565b50505050905090810190601f1680156102945780820380516001836020036101000a031916815260200191505b50838103825285818151815260200191508051906020019080838360005b838110156102cd5780820151818401526020810190506102b2565b50505050905090810190601f1680156102fa5780820380516001836020036101000a031916815260200191505b50965050505050505060405180910390f35b61034e6004803603602081101561032257600080fd5b81019080803573ffffffffffffffffffffffffffffffffffffffff169060200190929190505050610e54565b005b610358610f5a565b6040518082815260200191505060405180910390f35b610376610f64565b6040518082815260200191505060405180910390f35b6103ce600480360360208110156103a257600080fd5b81019080803573ffffffffffffffffffffffffffffffffffffffff1690602001909291905050506110c4565b6040518082815260200191505060405180910390f35b6103ec6111c3565b604051808273ffffffffffffffffffffffffffffffffffffffff1673ffffffffffffffffffffffffffffffffffffffff16815260200191505060405180910390f35b61045a6004803603602081101561044457600080fd5b81019080803590602001909291905050506111e9565b604051808d81526020018c81526020018b81526020018a81526020018981526020018881526020018781526020018681526020018581526020018481526020018381526020018281526020019c5050505050505050505050505060405180910390f35b610509600480360360408110156104d357600080fd5b8101908080359060200190929190803573ffffffffffffffffffffffffffffffffffffffff169060200190929190505050611428565b005b6105576004803603604081101561052157600080fd5b81019080803573ffffffffffffffffffffffffffffffffffffffff16906020019092919080359060200190929190505050611cc3565b604051808681526020018573ffffffffffffffffffffffffffffffffffffffff1673ffffffffffffffffffffffffffffffffffffffff1681526020018481526020018381526020018281526020019550505050505060405180910390f35b610725600480360360608110156105cb57600080fd5b81019080803590602001906401000000008111156105e857600080fd5b8201836020820111156105fa57600080fd5b8035906020019184600183028401116401000000008311171561061c57600080fd5b91908080601f016020809104026020016040519081016040528093929190818152602001838380828437600081840152601f19601f8201169050808301925050505050505091929192908035906020019064010000000081111561067f57600080fd5b82018360208201111561069157600080fd5b803590602001918460018302840111640100000000831117156106b357600080fd5b91908080601f016020809104026020016040519081016040528093929190818152602001838380828437600081840152601f19601f820116905080830192505050505050509192919290803573ffffffffffffffffffffffffffffffffffffffff169060200190929190505050611e5e565b005b61072f612036565b604051808273ffffffffffffffffffffffffffffffffffffffff1673ffffffffffffffffffffffffffffffffffffffff16815260200191505060405180910390f35b6107bd6004803603604081101561078757600080fd5b8101908080359060200190929190803573ffffffffffffffffffffffffffffffffffffffff16906020019092919050505061205b565b005b61080b600480360360408110156107d557600080fd5b8101908080359060200190929190803573ffffffffffffffffffffffffffffffffffffffff169060200190929190505050612c9a565b005b61084f6004803603602081101561082357600080fd5b81019080803573ffffffffffffffffffffffffffffffffffffffff169060200190929190505050613544565b005b61089d6004803603604081101561086757600080fd5b8101908080359060200190929190803573ffffffffffffffffffffffffffffffffffffffff1690602001909291905050506136d7565b604051808215151515815260200191505060405180910390f35b61092b600480360360c08110156108cd57600080fd5b8101908080359060200190929190803590602001909291908035906020019092919080359060200190929190803573ffffffffffffffffffffffffffffffffffffffff169060200190929190803590602001909291905050506136eb565b005b6109e66004803603602081101561094357600080fd5b810190808035906020019064010000000081111561096057600080fd5b82018360208201111561097257600080fd5b8035906020019184600183028401116401000000008311171561099457600080fd5b91908080601f016020809104026020016040519081016040528093929190818152602001838380828437600081840152601f19601f820116905080830192505050505050509192919290505050613b94565b6040518085815260200180602001806020018473ffffffffffffffffffffffffffffffffffffffff1673ffffffffffffffffffffffffffffffffffffffff168152602001838103835286818151815260200191508051906020019080838360005b83811015610a62578082015181840152602081019050610a47565b50505050905090810190601f168015610a8f5780820380516001836020036101000a031916815260200191505b50838103825285818151815260200191508051906020019080838360005b83811015610ac8578082015181840152602081019050610aad565b50505050905090810190601f168015610af55780820380516001836020036101000a031916815260200191505b50965050505050505060405180910390f35b610b4960048036036020811015610b1d57600080fd5b81019080803573ffffffffffffffffffffffffffffffffffffffff169060200190929190505050613f44565b005b610b8d60048036036020811015610b6157600080fd5b81019080803573ffffffffffffffffffffffffffffffffffffffff16906020019092919050505061407e565b6040518082815260200191505060405180910390f35b610bcf60048036036020811015610bb957600080fd5b810190808035906020019092919050505061417d565b005b6000610bdd8383614a2b565b905092915050565b60006060806000600660009054906101000a900473ffffffffffffffffffffffffffffffffffffffff1673ffffffffffffffffffffffffffffffffffffffff16636cc29ea0866040518263ffffffff167c01000000000000000000000000000000000000000000000000000000000281526004018082815260200191505060006040518083038186803b158015610c7b57600080fd5b505afa158015610c8f573d6000803e3d6000fd5b505050506040513d6000823e3d601f19601f820116820180604052506080811015610cb957600080fd5b810190808051906020019092919080516040519392919084640100000000821115610ce357600080fd5b83820191506020820185811115610cf957600080fd5b8251866001820283011164010000000082111715610d1657600080fd5b8083526020830192505050908051906020019080838360005b83811015610d4a578082015181840152602081019050610d2f565b50505050905090810190601f168015610d775780820380516001836020036101000a031916815260200191505b5060405260200180516040519392919084640100000000821115610d9a57600080fd5b83820191506020820185811115610db057600080fd5b8251866001820283011164010000000082111715610dcd57600080fd5b8083526020830192505050908051906020019080838360005b83811015610e01578082015181840152602081019050610de6565b50505050905090810190601f168015610e2e5780820380516001836020036101000a031916815260200191505b506040526020018051906020019092919050505080905093509350935093509193509193565b6000809054906101000a900473ffffffffffffffffffffffffffffffffffffffff1673ffffffffffffffffffffffffffffffffffffffff163373ffffffffffffffffffffffffffffffffffffffff1614610f16576040517f08c379a000000000000000000000000000000000000000000000000000000000815260040180806020018281038252601f8152602001807f556e617574686f72697a65642061636365737320746f20636f6e74726163740081525060200191505060405180910390fd5b80600960006101000a81548173ffffffffffffffffffffffffffffffffffffffff021916908373ffffffffffffffffffffffffffffffffffffffff16021790555050565b6000601354905090565b6000610f6e615dc3565b600e6000600d548152602001908152602001600020604051806101e001604052908160008201548152602001600182015481526020016002820154815260200160038201548152602001600482015481526020016005820160009054906101000a900473ffffffffffffffffffffffffffffffffffffffff1673ffffffffffffffffffffffffffffffffffffffff1673ffffffffffffffffffffffffffffffffffffffff16815260200160068201548152602001600782015481526020016008820160009054906101000a900460ff16600081111561104957fe5b600081111561105457fe5b81526020016008820160019054906101000a900460ff16600381111561107657fe5b600381111561108157fe5b815260200160098201548152602001600a8201548152602001600b8201548152602001600c8201548152602001600d820154815250509050806000015191505090565b6000600a60009054906101000a900473ffffffffffffffffffffffffffffffffffffffff1673ffffffffffffffffffffffffffffffffffffffff166370a08231836040518263ffffffff167c0100000000000000000000000000000000000000000000000000000000028152600401808273ffffffffffffffffffffffffffffffffffffffff1673ffffffffffffffffffffffffffffffffffffffff16815260200191505060206040518083038186803b15801561118157600080fd5b505afa158015611195573d6000803e3d6000fd5b505050506040513d60208110156111ab57600080fd5b81019080805190602001909291905050509050919050565b600160009054906101000a900473ffffffffffffffffffffffffffffffffffffffff1681565b60008060008060008060008060008060008060008d11801561120d5750600d548d11155b611262576040517f08c379a0000000000000000000000000000000000000000000000000000000008152600401808060200182810382526030815260200180615f586030913960400191505060405180910390fd5b61126a615dc3565b600e60008f8152602001908152602001600020604051806101e001604052908160008201548152602001600182015481526020016002820154815260200160038201548152602001600482015481526020016005820160009054906101000a900473ffffffffffffffffffffffffffffffffffffffff1673ffffffffffffffffffffffffffffffffffffffff1673ffffffffffffffffffffffffffffffffffffffff16815260200160068201548152602001600782015481526020016008820160009054906101000a900460ff16600081111561134357fe5b600081111561134e57fe5b81526020016008820160019054906101000a900460ff16600381111561137057fe5b600381111561137b57fe5b815260200160098201548152602001600a8201548152602001600b8201548152602001600c8201548152602001600d820154815250509050806000015181604001518260c0015183610120015160038111156113d357fe5b8460600151856101400151866101a001518760e001518861016001518961018001518a608001518b6101c001519c509c509c509c509c509c509c509c509c509c509c509c505091939597999b5091939597999b565b60006114348383614dab565b90508061148c576040517f08c379a00000000000000000000000000000000000000000000000000000000081526004018080602001828103825260238152602001806160fb6023913960400191505060405180910390fd5b6000600e60008581526020019081526020016000209050600081600c015490506000600960009054906101000a900473ffffffffffffffffffffffffffffffffffffffff1673ffffffffffffffffffffffffffffffffffffffff166377c7b8fc6040518163ffffffff167c010000000000000000000000000000000000000000000000000000000002815260040160206040518083038186803b15801561153257600080fd5b505afa158015611546573d6000803e3d6000fd5b505050506040513d602081101561155c57600080fd5b81019080805190602001909291905050509050600061159e670de0b6b3a7640000611590848661512b90919063ffffffff16565b6151b190919063ffffffff16565b905060006115bd8560040154866006015461512b90919063ffffffff16565b905060006115d482426151fb90919063ffffffff16565b905060006116056115f688600a015489600901546151fb90919063ffffffff16565b856151fb90919063ffffffff16565b9050600061161c83836151b190919063ffffffff16565b9050600088600c015490506000600b60009054906101000a900473ffffffffffffffffffffffffffffffffffffffff1673ffffffffffffffffffffffffffffffffffffffff166370a08231306040518263ffffffff167c0100000000000000000000000000000000000000000000000000000000028152600401808273ffffffffffffffffffffffffffffffffffffffff1673ffffffffffffffffffffffffffffffffffffffff16815260200191505060206040518083038186803b1580156116e457600080fd5b505afa1580156116f8573d6000803e3d6000fd5b505050506040513d602081101561170e57600080fd5b810190808051906020019092919050505090506000600960009054906101000a900473ffffffffffffffffffffffffffffffffffffffff1673ffffffffffffffffffffffffffffffffffffffff1663593669aa6040518163ffffffff167c010000000000000000000000000000000000000000000000000000000002815260040160206040518083038186803b1580156117a757600080fd5b505afa1580156117bb573d6000803e3d6000fd5b505050506040513d60208110156117d157600080fd5b81019080805190602001909291905050509050600b60009054906101000a900473ffffffffffffffffffffffffffffffffffffffff1673ffffffffffffffffffffffffffffffffffffffff1663095ea7b382856040518363ffffffff167c0100000000000000000000000000000000000000000000000000000000028152600401808373ffffffffffffffffffffffffffffffffffffffff1673ffffffffffffffffffffffffffffffffffffffff16815260200182815260200192505050602060405180830381600087803b1580156118a957600080fd5b505af11580156118bd573d6000803e3d6000fd5b505050506040513d60208110156118d357600080fd5b810190808051906020019092919050505050600960009054906101000a900473ffffffffffffffffffffffffffffffffffffffff1673ffffffffffffffffffffffffffffffffffffffff16637057f92985856040518363ffffffff167c01000000000000000000000000000000000000000000000000000000000281526004018083815260200182815260200192505050600060405180830381600087803b15801561197e57600080fd5b505af1158015611992573d6000803e3d6000fd5b505050506119a1848e8d615245565b6000600b60009054906101000a900473ffffffffffffffffffffffffffffffffffffffff1673ffffffffffffffffffffffffffffffffffffffff166370a08231306040518263ffffffff167c0100000000000000000000000000000000000000000000000000000000028152600401808273ffffffffffffffffffffffffffffffffffffffff1673ffffffffffffffffffffffffffffffffffffffff16815260200191505060206040518083038186803b158015611a5e57600080fd5b505afa158015611a72573d6000803e3d6000fd5b505050506040513d6020811015611a8857600080fd5b81019080805190602001909291905050509050808311611af3576040517f08c379a000000000000000000000000000000000000000000000000000000000815260040180806020018281038252603181526020018061603b6031913960400191505060405180910390fd5b611b18611b0982856151fb90919063ffffffff16565b856151fb90919063ffffffff16565b8c600c0181905550611b3860018d6004015461578890919063ffffffff16565b8c600401819055508b60070154421115611b735760028c60080160016101000a81548160ff02191690836003811115611b6d57fe5b02179055505b611cb28e868e604051806101e001604052908160008201548152602001600182015481526020016002820154815260200160038201548152602001600482015481526020016005820160009054906101000a900473ffffffffffffffffffffffffffffffffffffffff1673ffffffffffffffffffffffffffffffffffffffff1673ffffffffffffffffffffffffffffffffffffffff16815260200160068201548152602001600782015481526020016008820160009054906101000a900460ff166000811115611c3f57fe5b6000811115611c4a57fe5b81526020016008820160019054906101000a900460ff166003811115611c6c57fe5b6003811115611c7757fe5b815260200160098201548152602001600a8201548152602001600b8201548152602001600c8201548152602001600d82015481525050615810565b505050505050505050505050505050565b60008060008060008086118015611cdc5750600d548611155b611d31576040517f08c379a0000000000000000000000000000000000000000000000000000000008152600401808060200182810382526030815260200180615f586030913960400191505060405180910390fd5b6000600f60008973ffffffffffffffffffffffffffffffffffffffff1673ffffffffffffffffffffffffffffffffffffffff1681526020019081526020016000209050600060106000898152602001908152602001600020905060008160008b73ffffffffffffffffffffffffffffffffffffffff1673ffffffffffffffffffffffffffffffffffffffff1681526020019081526020016000205490508260008a8152602001908152602001600020600001548360008b815260200190815260200160002060010160009054906101000a900473ffffffffffffffffffffffffffffffffffffffff168460008c8152602001908152602001600020600201548560008d81526020019081526020016000206003015484975097509750975097505050509295509295909350565b600660009054906101000a900473ffffffffffffffffffffffffffffffffffffffff1673ffffffffffffffffffffffffffffffffffffffff16639a2597988484846040518463ffffffff167c01000000000000000000000000000000000000000000000000000000000281526004018080602001806020018473ffffffffffffffffffffffffffffffffffffffff1673ffffffffffffffffffffffffffffffffffffffff168152602001838103835286818151815260200191508051906020019080838360005b83811015611f40578082015181840152602081019050611f25565b50505050905090810190601f168015611f6d5780820380516001836020036101000a031916815260200191505b50838103825285818151815260200191508051906020019080838360005b83811015611fa6578082015181840152602081019050611f8b565b50505050905090810190601f168015611fd35780820380516001836020036101000a031916815260200191505b5095505050505050602060405180830381600087803b158015611ff557600080fd5b505af1158015612009573d6000803e3d6000fd5b505050506040513d602081101561201f57600080fd5b810190808051906020019092919050505050505050565b6000809054906101000a900473ffffffffffffffffffffffffffffffffffffffff1681565b6120658282614a2b565b61206e57600080fd5b60006012600084815260200190815260200160002090506000600e60008581526020019081526020016000209050600081600201549050600082600c015490506000600b60009054906101000a900473ffffffffffffffffffffffffffffffffffffffff1673ffffffffffffffffffffffffffffffffffffffff166370a08231306040518263ffffffff167c0100000000000000000000000000000000000000000000000000000000028152600401808273ffffffffffffffffffffffffffffffffffffffff1673ffffffffffffffffffffffffffffffffffffffff16815260200191505060206040518083038186803b15801561216b57600080fd5b505afa15801561217f573d6000803e3d6000fd5b505050506040513d602081101561219557600080fd5b810190808051906020019092919050505090506000600960009054906101000a900473ffffffffffffffffffffffffffffffffffffffff1673ffffffffffffffffffffffffffffffffffffffff1663593669aa6040518163ffffffff167c010000000000000000000000000000000000000000000000000000000002815260040160206040518083038186803b15801561222e57600080fd5b505afa158015612242573d6000803e3d6000fd5b505050506040513d602081101561225857600080fd5b81019080805190602001909291905050509050600b60009054906101000a900473ffffffffffffffffffffffffffffffffffffffff1673ffffffffffffffffffffffffffffffffffffffff1663095ea7b382856040518363ffffffff167c0100000000000000000000000000000000000000000000000000000000028152600401808373ffffffffffffffffffffffffffffffffffffffff1673ffffffffffffffffffffffffffffffffffffffff16815260200182815260200192505050602060405180830381600087803b15801561233057600080fd5b505af1158015612344573d6000803e3d6000fd5b505050506040513d602081101561235a57600080fd5b810190808051906020019092919050505050600960009054906101000a900473ffffffffffffffffffffffffffffffffffffffff1673ffffffffffffffffffffffffffffffffffffffff16637057f92985856040518363ffffffff167c01000000000000000000000000000000000000000000000000000000000281526004018083815260200182815260200192505050600060405180830381600087803b15801561240557600080fd5b505af1158015612419573d6000803e3d6000fd5b50505050600a60009054906101000a900473ffffffffffffffffffffffffffffffffffffffff1673ffffffffffffffffffffffffffffffffffffffff1663a9059cbb88866040518363ffffffff167c0100000000000000000000000000000000000000000000000000000000028152600401808373ffffffffffffffffffffffffffffffffffffffff1673ffffffffffffffffffffffffffffffffffffffff16815260200182815260200192505050602060405180830381600087803b1580156124e257600080fd5b505af11580156124f6573d6000803e3d6000fd5b505050506040513d602081101561250c57600080fd5b81019080805190602001909291905050505061252d85600701548886615877565b6000600b60009054906101000a900473ffffffffffffffffffffffffffffffffffffffff1673ffffffffffffffffffffffffffffffffffffffff166370a08231306040518263ffffffff167c0100000000000000000000000000000000000000000000000000000000028152600401808273ffffffffffffffffffffffffffffffffffffffff1673ffffffffffffffffffffffffffffffffffffffff16815260200191505060206040518083038186803b1580156125ea57600080fd5b505afa1580156125fe573d6000803e3d6000fd5b505050506040513d602081101561261457600080fd5b8101908080519060200190929190505050905080831161267f576040517f08c379a000000000000000000000000000000000000000000000000000000000815260040180806020018281038252603181526020018061603b6031913960400191505060405180910390fd5b6126a461269582856151fb90919063ffffffff16565b856151fb90919063ffffffff16565b86600c0181905550848760008a73ffffffffffffffffffffffffffffffffffffffff1673ffffffffffffffffffffffffffffffffffffffff168152602001908152602001600020819055506127068587600a015461578890919063ffffffff16565b86600a0181905550856009015486600a015414801561272c575085600401548660030154145b15612c31576003600e60008b815260200190815260200160002060080160016101000a81548160ff0219169083600381111561276457fe5b0217905550600b60009054906101000a900473ffffffffffffffffffffffffffffffffffffffff1673ffffffffffffffffffffffffffffffffffffffff1663095ea7b38388600c01546040518363ffffffff167c0100000000000000000000000000000000000000000000000000000000028152600401808373ffffffffffffffffffffffffffffffffffffffff1673ffffffffffffffffffffffffffffffffffffffff16815260200182815260200192505050602060405180830381600087803b15801561283257600080fd5b505af1158015612846573d6000803e3d6000fd5b505050506040513d602081101561285c57600080fd5b810190808051906020019092919050505050600960009054906101000a900473ffffffffffffffffffffffffffffffffffffffff1673ffffffffffffffffffffffffffffffffffffffff16636583d12a87600c01546040518263ffffffff167c010000000000000000000000000000000000000000000000000000000002815260040180828152602001915050600060405180830381600087803b15801561290357600080fd5b505af1158015612917573d6000803e3d6000fd5b505050506000600a60009054906101000a900473ffffffffffffffffffffffffffffffffffffffff1673ffffffffffffffffffffffffffffffffffffffff166370a08231306040518263ffffffff167c0100000000000000000000000000000000000000000000000000000000028152600401808273ffffffffffffffffffffffffffffffffffffffff1673ffffffffffffffffffffffffffffffffffffffff16815260200191505060206040518083038186803b1580156129d857600080fd5b505afa1580156129ec573d6000803e3d6000fd5b505050506040513d6020811015612a0257600080fd5b81019080805190602001909291905050509050600a60009054906101000a900473ffffffffffffffffffffffffffffffffffffffff1673ffffffffffffffffffffffffffffffffffffffff1663095ea7b3600460009054906101000a900473ffffffffffffffffffffffffffffffffffffffff16836040518363ffffffff167c0100000000000000000000000000000000000000000000000000000000028152600401808373ffffffffffffffffffffffffffffffffffffffff1673ffffffffffffffffffffffffffffffffffffffff16815260200182815260200192505050602060405180830381600087803b158015612afc57600080fd5b505af1158015612b10573d6000803e3d6000fd5b505050506040513d6020811015612b2657600080fd5b810190808051906020019092919050505050600460009054906101000a900473ffffffffffffffffffffffffffffffffffffffff1673ffffffffffffffffffffffffffffffffffffffff16632fd55265600a60009054906101000a900473ffffffffffffffffffffffffffffffffffffffff166040518263ffffffff167c0100000000000000000000000000000000000000000000000000000000028152600401808273ffffffffffffffffffffffffffffffffffffffff1673ffffffffffffffffffffffffffffffffffffffff168152602001915050600060405180830381600087803b158015612c1757600080fd5b505af1158015612c2b573d6000803e3d6000fd5b50505050505b8773ffffffffffffffffffffffffffffffffffffffff167f952e4fb28355c133b029ac8c46a341c9e98d0627a8d5d1457f9b8c1dbf48b2ce428b8860405180848152602001838152602001828152602001935050505060405180910390a2505050505050505050565b6000809054906101000a900473ffffffffffffffffffffffffffffffffffffffff1673ffffffffffffffffffffffffffffffffffffffff163373ffffffffffffffffffffffffffffffffffffffff161480612d425750600160009054906101000a900473ffffffffffffffffffffffffffffffffffffffff1673ffffffffffffffffffffffffffffffffffffffff163373ffffffffffffffffffffffffffffffffffffffff16145b612db4576040517f08c379a000000000000000000000000000000000000000000000000000000000815260040180806020018281038252601f8152602001807f556e617574686f72697a65642061636365737320746f20636f6e74726163740081525060200191505060405180910390fd5b600082118015612dc65750600d548211155b612e1b576040517f08c379a0000000000000000000000000000000000000000000000000000000008152600401808060200182810382526030815260200180615f586030913960400191505060405180910390fd5b60006003811115612e2857fe5b600e600084815260200190815260200160002060080160019054906101000a900460ff166003811115612e5757fe5b14612ead576040517f08c379a0000000000000000000000000000000000000000000000000000000008152600401808060200182810382526035815260200180615fe56035913960400191505060405180910390fd5b600e6000838152602001908152602001600020600d0154600e60008481526020019081526020016000206003015410612f31576040517f08c379a00000000000000000000000000000000000000000000000000000000081526004018080602001828103825260288152602001806160996028913960400191505060405180910390fd5b60001515612f3f8284615a30565b151514612f97576040517f08c379a0000000000000000000000000000000000000000000000000000000008152600401808060200182810382526031815260200180615fb46031913960400191505060405180910390fd5b6000600a60009054906101000a900473ffffffffffffffffffffffffffffffffffffffff1673ffffffffffffffffffffffffffffffffffffffff166370a08231836040518263ffffffff167c0100000000000000000000000000000000000000000000000000000000028152600401808273ffffffffffffffffffffffffffffffffffffffff1673ffffffffffffffffffffffffffffffffffffffff16815260200191505060206040518083038186803b15801561305457600080fd5b505afa158015613068573d6000803e3d6000fd5b505050506040513d602081101561307e57600080fd5b81019080805190602001909291905050509050600e600084815260200190815260200160002060020154811015613100576040517f08c379a0000000000000000000000000000000000000000000000000000000008152600401808060200182810382526037815260200180615f216037913960400191505060405180910390fd5b600a60009054906101000a900473ffffffffffffffffffffffffffffffffffffffff1673ffffffffffffffffffffffffffffffffffffffff166323b872dd8330600e6000888152602001908152602001600020600201546040518463ffffffff167c0100000000000000000000000000000000000000000000000000000000028152600401808473ffffffffffffffffffffffffffffffffffffffff1673ffffffffffffffffffffffffffffffffffffffff1681526020018373ffffffffffffffffffffffffffffffffffffffff1673ffffffffffffffffffffffffffffffffffffffff1681526020018281526020019350505050602060405180830381600087803b15801561320f57600080fd5b505af1158015613223573d6000803e3d6000fd5b505050506040513d602081101561323957600080fd5b81019080805190602001909291905050505061328a600e600085815260200190815260200160002060020154600e60008681526020019081526020016000206009015461578890919063ffffffff16565b600e6000858152602001908152602001600020600901819055506000600f60008473ffffffffffffffffffffffffffffffffffffffff1673ffffffffffffffffffffffffffffffffffffffff168152602001908152602001600020905083816000868152602001908152602001600020600001819055508281600086815260200190815260200160002060010160006101000a81548173ffffffffffffffffffffffffffffffffffffffff021916908373ffffffffffffffffffffffffffffffffffffffff160217905550613393600e6000868152602001908152602001600020600201548260008781526020019081526020016000206002015461578890919063ffffffff16565b816000868152602001908152602001600020600201819055506133d560008260008781526020019081526020016000206003015461578890919063ffffffff16565b816000868152602001908152602001600020600301819055506001600e6000868152602001908152602001600020600301600082825401925050819055506000601060008681526020019081526020016000209050600e6000868152602001908152602001600020600301548160008673ffffffffffffffffffffffffffffffffffffffff1673ffffffffffffffffffffffffffffffffffffffff168152602001908152602001600020819055508373ffffffffffffffffffffffffffffffffffffffff167ff587969de97be370bebfce89f44e0df40c7a9a195ee0f876fb139d7b70da8d59428360008873ffffffffffffffffffffffffffffffffffffffff1673ffffffffffffffffffffffffffffffffffffffff16815260200190815260200160002054600e60008a815260200190815260200160002060090154896040518085815260200184815260200183815260200182815260200194505050505060405180910390a25050505050565b6000809054906101000a900473ffffffffffffffffffffffffffffffffffffffff1673ffffffffffffffffffffffffffffffffffffffff163373ffffffffffffffffffffffffffffffffffffffff1614806135ec5750600160009054906101000a900473ffffffffffffffffffffffffffffffffffffffff1673ffffffffffffffffffffffffffffffffffffffff163373ffffffffffffffffffffffffffffffffffffffff16145b61365e576040517f08c379a000000000000000000000000000000000000000000000000000000000815260040180806020018281038252601f8152602001807f556e617574686f72697a65642061636365737320746f20636f6e74726163740081525060200191505060405180910390fd5b600073ffffffffffffffffffffffffffffffffffffffff168173ffffffffffffffffffffffffffffffffffffffff16146136d45780600160006101000a81548173ffffffffffffffffffffffffffffffffffffffff021916908373ffffffffffffffffffffffffffffffffffffffff1602179055505b50565b60006136e38383614dab565b905092915050565b6000809054906101000a900473ffffffffffffffffffffffffffffffffffffffff1673ffffffffffffffffffffffffffffffffffffffff163373ffffffffffffffffffffffffffffffffffffffff1614806137935750600160009054906101000a900473ffffffffffffffffffffffffffffffffffffffff1673ffffffffffffffffffffffffffffffffffffffff163373ffffffffffffffffffffffffffffffffffffffff16145b613805576040517f08c379a000000000000000000000000000000000000000000000000000000000815260040180806020018281038252601f8152602001807f556e617574686f72697a65642061636365737320746f20636f6e74726163740081525060200191505060405180910390fd5b600060608060006138158a610be5565b93509350935093508073ffffffffffffffffffffffffffffffffffffffff168673ffffffffffffffffffffffffffffffffffffffff16146138a1576040517f08c379a000000000000000000000000000000000000000000000000000000000815260040180806020018281038252602d81526020018061606c602d913960400191505060405180910390fd5b6001600d60008282540192505081905550600d54600e6000600d5481526020019081526020016000206000018190555088600e6000600d5481526020019081526020016000206002018190555087600e6000600d548152602001908152602001600020600601819055506000600e6000600d54815260200190815260200160002060080160006101000a81548160ff0219169083600081111561394057fe5b02179055506000600e6000600d54815260200190815260200160002060080160016101000a81548160ff0219169083600381111561397a57fe5b021790555085600e6000600d54815260200190815260200160002060050160006101000a81548173ffffffffffffffffffffffffffffffffffffffff021916908373ffffffffffffffffffffffffffffffffffffffff16021790555084600e6000600d548152602001908152602001600020600d018190555086600e6000600d548152602001908152602001600020600b018190555089600e6000600d54815260200190815260200160002060010181905550600d547f3d1646e07b22a3d92d4dd628267a0c6f75e302a9419bffdf391e846203a08fc5428b898c60006002600e6000600d54815260200190815260200160002060080160019054906101000a900460ff16604051808881526020018781526020018673ffffffffffffffffffffffffffffffffffffffff1673ffffffffffffffffffffffffffffffffffffffff168152602001858152602001846000811115613ad357fe5b60ff16815260200180602001836003811115613aeb57fe5b60ff168152602001828103825284818154600181600116156101000203166002900481526020019150805460018160011615610100020316600290048015613b745780601f10613b4957610100808354040283529160200191613b74565b820191906000526020600020905b815481529060010190602001808311613b5757829003601f168201915b50509850505050505050505060405180910390a250505050505050505050565b60006060806000806000600660009054906101000a900473ffffffffffffffffffffffffffffffffffffffff1673ffffffffffffffffffffffffffffffffffffffff166308099b5d886040518263ffffffff167c01000000000000000000000000000000000000000000000000000000000281526004018080602001828103825283818151815260200191508051906020019080838360005b83811015613c48578082015181840152602081019050613c2d565b50505050905090810190601f168015613c755780820380516001836020036101000a031916815260200191505b5092505050604080518083038186803b158015613c9157600080fd5b505afa158015613ca5573d6000803e3d6000fd5b505050506040513d6040811015613cbb57600080fd5b81019080805190602001909291908051906020019092919050505091509150600660009054906101000a900473ffffffffffffffffffffffffffffffffffffffff1673ffffffffffffffffffffffffffffffffffffffff16633037faf1826040518263ffffffff167c01000000000000000000000000000000000000000000000000000000000281526004018082815260200191505060006040518083038186803b158015613d6957600080fd5b505afa158015613d7d573d6000803e3d6000fd5b505050506040513d6000823e3d601f19601f820116820180604052506080811015613da757600080fd5b810190808051906020019092919080516040519392919084640100000000821115613dd157600080fd5b83820191506020820185811115613de757600080fd5b8251866001820283011164010000000082111715613e0457600080fd5b8083526020830192505050908051906020019080838360005b83811015613e38578082015181840152602081019050613e1d565b50505050905090810190601f168015613e655780820380516001836020036101000a031916815260200191505b5060405260200180516040519392919084640100000000821115613e8857600080fd5b83820191506020820185811115613e9e57600080fd5b8251866001820283011164010000000082111715613ebb57600080fd5b8083526020830192505050908051906020019080838360005b83811015613eef578082015181840152602081019050613ed4565b50505050905090810190601f168015613f1c5780820380516001836020036101000a031916815260200191505b5060405260200180519060200190929190505050809050955095509550955050509193509193565b6000809054906101000a900473ffffffffffffffffffffffffffffffffffffffff1673ffffffffffffffffffffffffffffffffffffffff163373ffffffffffffffffffffffffffffffffffffffff1614614006576040517f08c379a000000000000000000000000000000000000000000000000000000000815260040180806020018281038252601f8152602001807f556e617574686f72697a65642061636365737320746f20636f6e74726163740081525060200191505060405180910390fd5b600073ffffffffffffffffffffffffffffffffffffffff168173ffffffffffffffffffffffffffffffffffffffff161461407b57806000806101000a81548173ffffffffffffffffffffffffffffffffffffffff021916908373ffffffffffffffffffffffffffffffffffffffff1602179055505b50565b6000600b60009054906101000a900473ffffffffffffffffffffffffffffffffffffffff1673ffffffffffffffffffffffffffffffffffffffff166370a08231836040518263ffffffff167c0100000000000000000000000000000000000000000000000000000000028152600401808273ffffffffffffffffffffffffffffffffffffffff1673ffffffffffffffffffffffffffffffffffffffff16815260200191505060206040518083038186803b15801561413b57600080fd5b505afa15801561414f573d6000803e3d6000fd5b505050506040513d602081101561416557600080fd5b81019080805190602001909291905050509050919050565b6000809054906101000a900473ffffffffffffffffffffffffffffffffffffffff1673ffffffffffffffffffffffffffffffffffffffff163373ffffffffffffffffffffffffffffffffffffffff1614806142255750600160009054906101000a900473ffffffffffffffffffffffffffffffffffffffff1673ffffffffffffffffffffffffffffffffffffffff163373ffffffffffffffffffffffffffffffffffffffff16145b614297576040517f08c379a000000000000000000000000000000000000000000000000000000000815260040180806020018281038252601f8152602001807f556e617574686f72697a65642061636365737320746f20636f6e74726163740081525060200191505060405180910390fd5b6000811180156142a95750600d548111155b6142fe576040517f08c379a0000000000000000000000000000000000000000000000000000000008152600401808060200182810382526030815260200180615f586030913960400191505060405180910390fd5b6000600e600083815260200190815260200160002090506000600381111561432257fe5b8160080160019054906101000a900460ff16600381111561433f57fe5b14614395576040517f08c379a000000000000000000000000000000000000000000000000000000000815260040180806020018281038252602c815260200180615f88602c913960400191505060405180910390fd5b80600b015442116143f1576040517f08c379a0000000000000000000000000000000000000000000000000000000008152600401808060200182810382526035815260200180615ea16035913960400191505060405180910390fd5b6001600e600084815260200190815260200160002060080160016101000a81548160ff0219169083600381111561442457fe5b02179055508060030154816006015402600e6000848152602001908152602001600020600701819055506000816009015490506000600b60009054906101000a900473ffffffffffffffffffffffffffffffffffffffff1673ffffffffffffffffffffffffffffffffffffffff166370a08231306040518263ffffffff167c0100000000000000000000000000000000000000000000000000000000028152600401808273ffffffffffffffffffffffffffffffffffffffff1673ffffffffffffffffffffffffffffffffffffffff16815260200191505060206040518083038186803b15801561451457600080fd5b505afa158015614528573d6000803e3d6000fd5b505050506040513d602081101561453e57600080fd5b810190808051906020019092919050505090506000600960009054906101000a900473ffffffffffffffffffffffffffffffffffffffff1673ffffffffffffffffffffffffffffffffffffffff1663593669aa6040518163ffffffff167c010000000000000000000000000000000000000000000000000000000002815260040160206040518083038186803b1580156145d757600080fd5b505afa1580156145eb573d6000803e3d6000fd5b505050506040513d602081101561460157600080fd5b81019080805190602001909291905050509050600a60009054906101000a900473ffffffffffffffffffffffffffffffffffffffff1673ffffffffffffffffffffffffffffffffffffffff1663095ea7b382856040518363ffffffff167c0100000000000000000000000000000000000000000000000000000000028152600401808373ffffffffffffffffffffffffffffffffffffffff1673ffffffffffffffffffffffffffffffffffffffff16815260200182815260200192505050602060405180830381600087803b1580156146d957600080fd5b505af11580156146ed573d6000803e3d6000fd5b505050506040513d602081101561470357600080fd5b810190808051906020019092919050505050600960009054906101000a900473ffffffffffffffffffffffffffffffffffffffff1673ffffffffffffffffffffffffffffffffffffffff16631b862027846040518263ffffffff167c010000000000000000000000000000000000000000000000000000000002815260040180828152602001915050600060405180830381600087803b1580156147a657600080fd5b505af11580156147ba573d6000803e3d6000fd5b505050506000600b60009054906101000a900473ffffffffffffffffffffffffffffffffffffffff1673ffffffffffffffffffffffffffffffffffffffff166370a08231306040518263ffffffff167c0100000000000000000000000000000000000000000000000000000000028152600401808273ffffffffffffffffffffffffffffffffffffffff1673ffffffffffffffffffffffffffffffffffffffff16815260200191505060206040518083038186803b15801561487b57600080fd5b505afa15801561488f573d6000803e3d6000fd5b505050506040513d60208110156148a557600080fd5b810190808051906020019092919050505090506148f3600e6000888152602001908152602001600020600c01546148e585846151fb90919063ffffffff16565b61578890919063ffffffff16565b600e6000888152602001908152602001600020600c018190555042600e6000888152602001908152602001600020600b018190555061493d8460135461578890919063ffffffff16565b601381905550857f6549193ba7e0ca0cafa3454c45498e6bea133bd20a8218c615b228d54144ff47428760050160009054906101000a900473ffffffffffffffffffffffffffffffffffffffff1687600e60008c815260200190815260200160002060070154600e60008d8152602001908152602001600020600c01548b60030154604051808781526020018673ffffffffffffffffffffffffffffffffffffffff1673ffffffffffffffffffffffffffffffffffffffff168152602001858152602001848152602001838152602001828152602001965050505050505060405180910390a2505050505050565b60008083118015614a3e5750600d548311155b614a93576040517f08c379a0000000000000000000000000000000000000000000000000000000008152600401808060200182810382526030815260200180615f586030913960400191505060405180910390fd5b614a9b615dc3565b600e6000858152602001908152602001600020604051806101e001604052908160008201548152602001600182015481526020016002820154815260200160038201548152602001600482015481526020016005820160009054906101000a900473ffffffffffffffffffffffffffffffffffffffff1673ffffffffffffffffffffffffffffffffffffffff1673ffffffffffffffffffffffffffffffffffffffff16815260200160068201548152602001600782015481526020016008820160009054906101000a900460ff166000811115614b7457fe5b6000811115614b7f57fe5b81526020016008820160019054906101000a900460ff166003811115614ba157fe5b6003811115614bac57fe5b815260200160098201548152602001600a8201548152602001600b8201548152602001600c8201548152602001600d82015481525050905060026003811115614bf157fe5b8161012001516003811115614c0257fe5b14614c58576040517f08c379a000000000000000000000000000000000000000000000000000000000815260040180806020018281038252603a8152602001806160c1603a913960400191505060405180910390fd5b614c628385615a30565b614cd4576040517f08c379a000000000000000000000000000000000000000000000000000000000815260040180806020018281038252601b8152602001807f4d656d626572206973206e6f7420696e2074686973206379636c65000000000081525060200191505060405180910390fd5b60011515614ce28486615aa8565b151514614d3a576040517f08c379a000000000000000000000000000000000000000000000000000000000815260040180806020018281038252603c815260200180615e65603c913960400191505060405180910390fd5b60001515614d488486615b24565b151514614da0576040517f08c379a0000000000000000000000000000000000000000000000000000000008152600401808060200182810382526023815260200180615ed66023913960400191505060405180910390fd5b600191505092915050565b60008083118015614dbe5750600d548311155b614e13576040517f08c379a0000000000000000000000000000000000000000000000000000000008152600401808060200182810382526030815260200180615f586030913960400191505060405180910390fd5b614e1b615dc3565b600e6000858152602001908152602001600020604051806101e001604052908160008201548152602001600182015481526020016002820154815260200160038201548152602001600482015481526020016005820160009054906101000a900473ffffffffffffffffffffffffffffffffffffffff1673ffffffffffffffffffffffffffffffffffffffff1673ffffffffffffffffffffffffffffffffffffffff16815260200160068201548152602001600782015481526020016008820160009054906101000a900460ff166000811115614ef457fe5b6000811115614eff57fe5b81526020016008820160019054906101000a900460ff166003811115614f2157fe5b6003811115614f2c57fe5b815260200160098201548152602001600a8201548152602001600b8201548152602001600c8201548152602001600d82015481525050905060016003811115614f7157fe5b8161012001516003811115614f8257fe5b1480614fa9575060026003811115614f9657fe5b8161012001516003811115614fa757fe5b145b614ffe576040517f08c379a0000000000000000000000000000000000000000000000000000000008152600401808060200182810382526028815260200180615ef96028913960400191505060405180910390fd5b6150088385615a30565b61507a576040517f08c379a000000000000000000000000000000000000000000000000000000000815260040180806020018281038252601b8152602001807f4d656d626572206973206e6f7420696e2074686973206379636c65000000000081525060200191505060405180910390fd5b600015156150888486615aa8565b1515146150fd576040517f08c379a000000000000000000000000000000000000000000000000000000000815260040180806020018281038252601f8152602001807f4d656d62657220697320616c726561647920612062656e65666963696172790081525060200191505060405180910390fd5b60006151098285615ba0565b90508042111561511e57600192505050615125565b6000925050505b92915050565b60008083141561513e57600090506151ab565b600082840290508284828161514f57fe5b04146151a6576040517f08c379a000000000000000000000000000000000000000000000000000000000815260040180806020018281038252602181526020018061601a6021913960400191505060405180910390fd5b809150505b92915050565b60006151f383836040518060400160405280601a81526020017f536166654d6174683a206469766973696f6e206279207a65726f000000000000815250615c3d565b905092915050565b600061523d83836040518060400160405280601e81526020017f536166654d6174683a207375627472616374696f6e206f766572666c6f770000815250615d03565b905092915050565b6000806000806000600560009054906101000a900473ffffffffffffffffffffffffffffffffffffffff1673ffffffffffffffffffffffffffffffffffffffff166337f2a024600c6040518263ffffffff167c010000000000000000000000000000000000000000000000000000000002815260040180806020018281038252838181546001816001161561010002031660029004815260200191508054600181600116156101000203166002900480156153415780601f1061531657610100808354040283529160200191615341565b820191906000526020600020905b81548152906001019060200180831161532457829003601f168201915b50509250505060a060405180830381600087803b15801561536157600080fd5b505af1158015615375573d6000803e3d6000fd5b505050506040513d60a081101561538b57600080fd5b81019080805190602001909291908051906020019092919080519060200190929190805190602001909291908051906020019092919050505094509450945094509450600083905060006153e8828b6151b190919063ffffffff16565b905060006153ff828c6151fb90919063ffffffff16565b90506000601160008b6000015481526020019081526020016000209050818160008d73ffffffffffffffffffffffffffffffffffffffff1673ffffffffffffffffffffffffffffffffffffffff16815260200190815260200160002081905550600a60009054906101000a900473ffffffffffffffffffffffffffffffffffffffff1673ffffffffffffffffffffffffffffffffffffffff1663a9059cbb8c846040518363ffffffff167c0100000000000000000000000000000000000000000000000000000000028152600401808373ffffffffffffffffffffffffffffffffffffffff1673ffffffffffffffffffffffffffffffffffffffff16815260200182815260200192505050602060405180830381600087803b15801561552457600080fd5b505af1158015615538573d6000803e3d6000fd5b505050506040513d602081101561554e57600080fd5b810190808051906020019092919050505050600a60009054906101000a900473ffffffffffffffffffffffffffffffffffffffff1673ffffffffffffffffffffffffffffffffffffffff1663095ea7b3600460009054906101000a900473ffffffffffffffffffffffffffffffffffffffff16856040518363ffffffff167c0100000000000000000000000000000000000000000000000000000000028152600401808373ffffffffffffffffffffffffffffffffffffffff1673ffffffffffffffffffffffffffffffffffffffff16815260200182815260200192505050602060405180830381600087803b15801561564757600080fd5b505af115801561565b573d6000803e3d6000fd5b505050506040513d602081101561567157600080fd5b810190808051906020019092919050505050600460009054906101000a900473ffffffffffffffffffffffffffffffffffffffff1673ffffffffffffffffffffffffffffffffffffffff16632fd55265600a60009054906101000a900473ffffffffffffffffffffffffffffffffffffffff166040518263ffffffff167c0100000000000000000000000000000000000000000000000000000000028152600401808273ffffffffffffffffffffffffffffffffffffffff1673ffffffffffffffffffffffffffffffffffffffff168152602001915050600060405180830381600087803b15801561576257600080fd5b505af1158015615776573d6000803e3d6000fd5b50505050505050505050505050505050565b600080828401905083811015615806576040517f08c379a000000000000000000000000000000000000000000000000000000000815260040180806020018281038252601b8152602001807f536166654d6174683a206164646974696f6e206f766572666c6f77000000000081525060200191505060405180910390fd5b8091505092915050565b8273ffffffffffffffffffffffffffffffffffffffff167f66160dcf237407b8a107d6c0dc29d0fa5d8a70919bb8c4223dd8455f61ec4ec14283600001518560405180848152602001838152602001828152602001935050505060405180910390a2505050565b6000600760009054906101000a900473ffffffffffffffffffffffffffffffffffffffff1673ffffffffffffffffffffffffffffffffffffffff1663ec50b2ff85846040518363ffffffff167c0100000000000000000000000000000000000000000000000000000000028152600401808381526020018281526020019250505060206040518083038186803b15801561591057600080fd5b505afa158015615924573d6000803e3d6000fd5b505050506040513d602081101561593a57600080fd5b81019080805190602001909291905050509050600860009054906101000a900473ffffffffffffffffffffffffffffffffffffffff1673ffffffffffffffffffffffffffffffffffffffff166340c10f1984836040518363ffffffff167c0100000000000000000000000000000000000000000000000000000000028152600401808373ffffffffffffffffffffffffffffffffffffffff1673ffffffffffffffffffffffffffffffffffffffff16815260200182815260200192505050600060405180830381600087803b158015615a1257600080fd5b505af1158015615a26573d6000803e3d6000fd5b5050505050505050565b600080600f60008573ffffffffffffffffffffffffffffffffffffffff1673ffffffffffffffffffffffffffffffffffffffff16815260200190815260200160002090506000816000858152602001908152602001600020600001541115615a9c576001915050615aa2565b60009150505b92915050565b60008060116000848152602001908152602001600020905060008160008673ffffffffffffffffffffffffffffffffffffffff1673ffffffffffffffffffffffffffffffffffffffff1681526020019081526020016000205490506000811115615b1757600192505050615b1e565b6000925050505b92915050565b60008060126000848152602001908152602001600020905060008160008673ffffffffffffffffffffffffffffffffffffffff1673ffffffffffffffffffffffffffffffffffffffff1681526020019081526020016000205490506000811115615b9357600192505050615b9a565b6000925050505b92915050565b6000806010600085600001518152602001908152602001600020905060008160008573ffffffffffffffffffffffffffffffffffffffff1673ffffffffffffffffffffffffffffffffffffffff1681526020019081526020016000205490506000615c2f615c1b8760c001518461512b90919063ffffffff16565b87610180015161578890919063ffffffff16565b905080935050505092915050565b60008083118290615ce9576040517f08c379a00000000000000000000000000000000000000000000000000000000081526004018080602001828103825283818151815260200191508051906020019080838360005b83811015615cae578082015181840152602081019050615c93565b50505050905090810190601f168015615cdb5780820380516001836020036101000a031916815260200191505b509250505060405180910390fd5b506000838581615cf557fe5b049050809150509392505050565b6000838311158290615db0576040517f08c379a00000000000000000000000000000000000000000000000000000000081526004018080602001828103825283818151815260200191508051906020019080838360005b83811015615d75578082015181840152602081019050615d5a565b50505050905090810190601f168015615da25780820380516001836020036101000a031916815260200191505b509250505060405180910390fd5b5060008385039050809150509392505050565b604051806101e001604052806000815260200160008152602001600081526020016000815260200160008152602001600073ffffffffffffffffffffffffffffffffffffffff1681526020016000815260200160008152602001600080811115615e2957fe5b815260200160006003811115615e3b57fe5b81526020016000815260200160008152602001600081526020016000815260200160008152509056fe4d656d626572206d75737420626520612062656e6566696369617279206265666f726520796f752063616e207769746864726177206361706974616c4379636c652063616e206f6e6c792062652073746172746564207768656e2073746172742074696d652068617320656c61707365644d656d6265722063616e2774207769746864726177206361706974616c2074776963654379636c65206d75737420626520696e20616374697665206f72206578706972656420737461746542616c616e6365206d7573742062652067726561746572207468616e206f7220657175616c20746f204465706f73697420416d6f756e744379636c65204944206d7573742062652077697468696e2076616c69642045737573754379636c6549642072616e67654379636c652063616e206f6e6c792062652073746172746564207768656e20696e2049646c652073746174654d656d6265722063616e2774206a6f696e2073616d65204573757375204379636c65206d6f7265207468616e206f6e63654573757375204379636c65206d75737420626520696e2049646c65205374617465206265666f726520796f752063616e206a6f696e536166654d6174683a206d756c7469706c69636174696f6e206f766572666c6f777944616920736861726573206265666f7265207769746864726177616c206d75737420626520677265617465722021212145737573754379636c652063616e206f6e6c7920626520637265617465642062792067726f7570206f776e65724573757375204379636c652069732066696c6c65642075702c20796f752063616e2774206a6f696e4379636c65206d75737420626520696e204578706972656420737461746520666f7220796f7520746f207769746864726177206361706974616c4d656d6265722063616e6e6f7420776974686472617720617420746869732074696d65a2646970667358221220ae0b832133a9bf4f561f626aa5c771725f8c4dc9f72b6b6294c86ee698b77ba564736f6c63430006060033",
  "immutableReferences": {},
  "source": "pragma solidity ^0.6.6;\n\nimport \"./IDaiToken.sol\";\nimport \"./IYDaiToken.sol\";\n\nimport \"./IDaiLendingService.sol\";\nimport \"./OwnableService.sol\";\nimport \"./ITreasury.sol\";\nimport \"./ISavingsConfig.sol\";\nimport \"./ISavingsConfigSchema.sol\";\nimport \"./IGroups.sol\";\nimport \"./IRewardConfig.sol\";\nimport \"./IXendToken.sol\";\nimport \"./SafeMath.sol\";\n\n\n\ncontract EsusuAdapter is OwnableService, ISavingsConfigSchema {\n\n    /*\n        Events to emit \n        1. Creation of Esusu Cycle \n        2. Joining of Esusu Cycle \n        3. Starting of Esusu Cycle \n        4. Withdrawal of ROI\n        5. Withdrawal of Capital\n    */\n    event CreateEsusuCycleEvent\n    (\n        uint date,\n        uint indexed cycleId,\n        uint depositAmount,\n        address  Owner,\n        uint payoutIntervalSeconds,\n        CurrencyEnum currency,\n        string currencySymbol,\n        CycleStateEnum cycleState\n    );\n    \n    event JoinEsusuCycleEvent\n    (\n        uint date,\n        address indexed member,   \n        uint memberPosition,\n        uint totalAmountDeposited,\n        uint cycleId\n    );\n    \n    event StartEsusuCycleEvent\n    (\n        uint date,\n        address owner,  \n        uint totalAmountDeposited,\n        uint totalCycleDuration,\n        uint totalShares,\n        uint totalMembers,\n        uint indexed cycleId\n    );\n    \n    event ROIWithdrawalEvent\n    (\n        uint date,\n        address indexed member,  \n        uint cycleId,\n        uint amount\n        \n    );\n    \n    event CapitalWithdrawalEvent\n    (\n        uint date,\n        address indexed member,  \n        uint cycleId,\n        uint amount\n        \n    );\n    \n    /*  Enum definitions */\n    enum CurrencyEnum{\n        Dai\n    }\n    \n    enum CycleStateEnum{\n        Idle,               // Cycle has just been created and members can join in this state\n        Active,             // Cycle has started and members can take their ROI\n        Expired,            // Cycle Duration has elapsed and members can withdraw their capital as well as ROI\n        Inactive            // Total beneficiaries is equal to Total members, so all members have withdrawn their Capital and ROI \n    }\n\n    /*  Struct Definitions */\n    struct EsusuCycle{\n        uint CycleId;\n        uint GroupId;                   //  Group this Esusu Cycle belongs to\n        uint DepositAmount;\n        uint TotalMembers;\n        uint TotalBeneficiaries;        //  This is the total number of members that have withdrawn their ROI \n        address Owner;                  //  This is the creator of the cycle who is also the creator of the group\n        uint PayoutIntervalSeconds;     //  Time each member receives overall ROI within one Esusu Cycle in seconds\n        uint TotalCycleDuration;        //  The total time it will take for all users to be paid which is (number of members * payout interval)\n        CurrencyEnum Currency;          //  Currency supported in this Esusu Cycle \n        CycleStateEnum CycleState;      //  The current state of the Esusu Cycle\n        uint256 TotalAmountDeposited;   // Total  Dai Deposited\n        uint TotalCapitalWithdrawn;     // Total Capital In Dai Withdrawn\n        uint CycleStartTime;            //  Time which the cycle will start when it has elapsed. Anyone can start cycle after this time has elapsed\n        uint TotalShares;               //  Total yDai Shares \n        uint MaxMembers;                //  Maximum number of members that can join this esusu cycle\n    }\n    \n    struct Member{\n        address MemberId;\n        uint TotalDeposited;\n        uint TotalPayoutReceived;\n    }\n    \n    struct MemberCycle{\n        uint CycleId;\n        address MemberId;\n        uint TotalAmountDepositedInCycle;\n        uint TotalPayoutReceivedInCycle;\n    }\n    \n        /*  Model definition starts */\n    string Dai = \"Dai Stablecoin\";\n\n\n    /* Model definition ends */\n    \n    //  Member variables\n    address _owner;\n    ITreasury _treasuryContract;\n    ISavingsConfig _savingsConfigContract;\n    IGroups _groupsContract;\n    IRewardConfig _rewardConfigContract;\n    IXendToken  _xendTokenContract;\n    \n    IDaiLendingService _iDaiLendingService;\n    IDaiToken _dai = IDaiToken(0x6B175474E89094C44Da98b954EedeAC495271d0F);\n    IYDaiToken _yDai = IYDaiToken(0xC2cB1040220768554cf699b0d863A3cd4324ce32);\n    string _feeRuleKey;\n\n    uint EsusuCycleId = 0;\n    \n\n    mapping(uint => EsusuCycle) EsusuCycleMapping;\n    \n\n    mapping(address=>mapping(uint=>MemberCycle)) MemberAddressToMemberCycleMapping;\n\n    mapping(uint=>mapping(address=>uint)) CycleToMemberPositionMapping;   //  This tracks position of the  member in an Esusu Cycle\n\n    mapping(uint=>mapping(address=> uint)) CycleToBeneficiaryMapping;  // This tracks members that have received overall ROI and amount received within an Esusu Cycle\n    \n    mapping(uint=>mapping(address=> uint)) CycleToMemberWithdrawnCapitalMapping;    // This tracks members that have withdrawn their capital and the amount withdrawn \n    \n    uint TotalDeposits; //  This holds all the dai amounts users have deposited in this contract\n    \n    using SafeMath for uint256;\n\n    constructor (address payable serviceContract, address payable treasuryContract, address savingsConfigContract, \n                    string memory feeRuleKey, address groupsContract, address rewardConfigContract,\n                    address xendTokenContract) public OwnableService(serviceContract){\n        _owner = msg.sender;\n        _treasuryContract = ITreasury(treasuryContract);\n        _savingsConfigContract = ISavingsConfig(savingsConfigContract);\n        _feeRuleKey = feeRuleKey;\n        _groupsContract = IGroups(groupsContract);\n        _rewardConfigContract = IRewardConfig(rewardConfigContract);\n        _xendTokenContract = IXendToken(xendTokenContract);\n    }\n    \n    //  TODO: Uncommenting this makes the code too large, find alternative \n    // function UpdateDependencies (address payable treasuryContract, address savingsConfigContract, \n    //                 string calldata feeRuleKey, address groupsContract, address rewardConfigContract,\n    //                 address xendTokenContract) external onlyOwner{\n    //     _treasuryContract = ITreasury(treasuryContract);\n    //     _savingsConfigContract = ISavingsConfig(savingsConfigContract);\n    //     _feeRuleKey = feeRuleKey;\n    //     _groupsContract = IGroups(groupsContract);\n    //     _rewardConfigContract = IRewardConfig(rewardConfigContract);\n    //     _xendTokenContract = IXendToken(xendTokenContract);\n    // }\n    \n    function UpdateDaiLendingService(address daiLendingServiceContractAddress) onlyOwner external {\n        _iDaiLendingService = IDaiLendingService(daiLendingServiceContractAddress);\n    }\n    \n\n    /*\n        NOTE: startTimeInSeconds is the time at which when elapsed, any one can start the cycle \n        -   Creates a new EsusuCycle\n        -   Esusu Cycle can only be created by the owner of the group\n    */\n    \n    function CreateEsusu(uint groupId, uint depositAmount, uint payoutIntervalSeconds,uint startTimeInSeconds, address owner, uint maxMembers) public onlyOwnerAndServiceContract {\n\n        // Get Group information by Id\n        (uint id, string memory name, string memory symbol, address creatorAddress) = GetGroupInformationById(groupId);\n        \n        require(owner == creatorAddress, \"EsusuCycle can only be created by group owner\");\n        \n        //  Increment EsusuCycleId by 1\n        EsusuCycleId += 1;\n        EsusuCycleMapping[EsusuCycleId].CycleId = EsusuCycleId;\n        EsusuCycleMapping[EsusuCycleId].DepositAmount = depositAmount;\n        EsusuCycleMapping[EsusuCycleId].PayoutIntervalSeconds = payoutIntervalSeconds;\n        EsusuCycleMapping[EsusuCycleId].Currency = CurrencyEnum.Dai;\n        EsusuCycleMapping[EsusuCycleId].CycleState = CycleStateEnum.Idle; \n        EsusuCycleMapping[EsusuCycleId].Owner = owner;\n        EsusuCycleMapping[EsusuCycleId].MaxMembers = maxMembers;\n        \n        \n        //  Set the Cycle start time \n        EsusuCycleMapping[EsusuCycleId].CycleStartTime = startTimeInSeconds;\n\n         //  Assign groupId\n        EsusuCycleMapping[EsusuCycleId].GroupId = groupId;\n        \n        //  emit event\n        emit CreateEsusuCycleEvent(now, EsusuCycleId, depositAmount, owner, payoutIntervalSeconds,CurrencyEnum.Dai,Dai,EsusuCycleMapping[EsusuCycleId].CycleState);\n        \n    }\n    \n    //  Join a particular Esusu Cycle \n    /*\n        - Check if the cycle ID is valid\n        - Check if the cycle is in Idle state, that is the only state a member can join\n        - Check if member is already in Cycle\n        - Ensure member has approved this contract to transfer the token on his/her behalf\n        - If member has enough balance, transfer the tokens to this contract else bounce\n        - Increment the total deposited amount in this cycle and total deposited amount for the member cycle struct \n        - Increment the total number of Members that have joined this cycle \n    */\n    \n    function JoinEsusu(uint esusuCycleId, address member) public onlyOwnerAndServiceContract {\n        //  Check if the cycle ID is valid\n        require(esusuCycleId > 0 && esusuCycleId <= EsusuCycleId, \"Cycle ID must be within valid EsusuCycleId range\");\n\n        //  If cycle is not in Idle State, bounce \n        require( EsusuCycleMapping[esusuCycleId].CycleState == CycleStateEnum.Idle, \"Esusu Cycle must be in Idle State before you can join\");\n        \n        //  If cycle is filled up, bounce \n        require(EsusuCycleMapping[esusuCycleId].TotalMembers < EsusuCycleMapping[esusuCycleId].MaxMembers, \"Esusu Cycle is filled up, you can't join\");\n        \n        //  check if member is already in this cycle \n        require(_isMemberInCycle(member,esusuCycleId) == false, \"Member can't join same Esusu Cycle more than once\");\n        \n        //  If user does not have enough Balance, bounce. For now we use Dai as default\n        uint memberBalance = _dai.balanceOf(member);\n        \n        require(memberBalance >=  EsusuCycleMapping[esusuCycleId].DepositAmount, \"Balance must be greater than or equal to Deposit Amount\");\n        \n        //  If user balance is greater than or equal to deposit amount then transfer from member to this contract\n        //  NOTE: approve this contract to withdraw before transferFrom can work\n        _dai.transferFrom(member, address(this), EsusuCycleMapping[esusuCycleId].DepositAmount);\n        \n        //  Increment the total deposited amount in this cycle\n        EsusuCycleMapping[esusuCycleId].TotalAmountDeposited =  EsusuCycleMapping[esusuCycleId].TotalAmountDeposited.add(EsusuCycleMapping[esusuCycleId].DepositAmount);\n        \n        //  Increment the total deposited amount for the member cycle struct\n        mapping(uint=>MemberCycle) storage memberCycleMapping =  MemberAddressToMemberCycleMapping[member];\n        \n\n        memberCycleMapping[esusuCycleId].CycleId = esusuCycleId;\n        memberCycleMapping[esusuCycleId].MemberId = member;\n        memberCycleMapping[esusuCycleId].TotalAmountDepositedInCycle = memberCycleMapping[esusuCycleId].TotalAmountDepositedInCycle.add( EsusuCycleMapping[esusuCycleId].DepositAmount);\n        memberCycleMapping[esusuCycleId].TotalPayoutReceivedInCycle = memberCycleMapping[esusuCycleId].TotalPayoutReceivedInCycle.add(0);\n        \n        //  Increase TotalMembers count by 1\n        EsusuCycleMapping[esusuCycleId].TotalMembers +=1;\n        \n        mapping(address=>uint) storage memberPositionMapping =  CycleToMemberPositionMapping[esusuCycleId];\n        \n        //  Assign Position to Member In this Cycle\n        memberPositionMapping[member] = EsusuCycleMapping[esusuCycleId].TotalMembers;\n        \n        \n        //  emit event \n        emit JoinEsusuCycleEvent(now, member,memberPositionMapping[member], EsusuCycleMapping[esusuCycleId].TotalAmountDeposited,esusuCycleId);\n    }\n\n    \n    /*\n        - Check if the Id is a valid ID\n        - Check if the cycle is in Idle State\n        - Anyone  can start that cycle -\n        - Get the total number of members and then mulitply by the time interval in seconds to get the total time this Cycle will last for\n        - Set the Cycle start time to now \n        - Take everyones deposited DAI from this Esusu Cycle and then invest through Yearn \n        - Track the yDai shares that belong to this cycle using the derived equation below for save/investment operation\n            - yDaiSharesPerCycle = Change in yDaiSharesForContract + Current yDai Shares in the cycle \n            - Change in yDaiSharesForContract = yDai.balanceOf(address(this) after save operation - yDai.balanceOf(address(this) after before operation\n    */\n    \n    function StartEsusuCycle(uint esusuCycleId) public onlyOwnerAndServiceContract{\n\n        //  If cycle ID is valid, else bonunce\n        require(esusuCycleId > 0 && esusuCycleId <= EsusuCycleId, \"Cycle ID must be within valid EsusuCycleId range\");\n        \n        EsusuCycle storage cycle = EsusuCycleMapping[esusuCycleId];\n        \n        require(cycle.CycleState == CycleStateEnum.Idle, \"Cycle can only be started when in Idle state\");\n        \n        require(now > cycle.CycleStartTime, \"Cycle can only be started when start time has elapsed\");\n        \n        EsusuCycleMapping[esusuCycleId].CycleState = CycleStateEnum.Active;\n        \n        //  Calculate Cycle LifeTime in seconds\n        EsusuCycleMapping[esusuCycleId].TotalCycleDuration = cycle.PayoutIntervalSeconds * cycle.TotalMembers;\n        \n\n        \n        //  Get all the dai deposited for this cycle\n        uint esusuCycleBalance = cycle.TotalAmountDeposited;\n        \n        //  Get the balance of yDaiSharesForContract before save opration\n        uint yDaiSharesForContractBeforeSave = _yDai.balanceOf(address(this));\n        \n        //  Invest the dai in Yearn Finance using Dai Lending Service.\n        \n        //  NOTE: yDai will be sent to this contract\n        //  Transfer dai from this contract to dai lending adapter and then call a new save function that will not use transferFrom internally\n        //  Approve the daiLendingAdapter so it can spend our Dai on our behalf \n        address daiLendingAdapterContractAddress = _iDaiLendingService.GetDaiLendingAdapterAddress();\n        _dai.approve(daiLendingAdapterContractAddress,esusuCycleBalance);\n        \n        _iDaiLendingService.save(esusuCycleBalance);\n        \n        //  Get the balance of yDaiSharesForContract after save operation\n        uint yDaiSharesForContractAfterSave = _yDai.balanceOf(address(this));\n        \n        \n        //  Save yDai Total balanceShares\n        EsusuCycleMapping[esusuCycleId].TotalShares = yDaiSharesForContractAfterSave.sub(yDaiSharesForContractBeforeSave).add(EsusuCycleMapping[esusuCycleId].TotalShares);\n        \n        //  Update the Cycle start time to now\n        EsusuCycleMapping[esusuCycleId].CycleStartTime = now;\n        \n        //  Increase TotalDeposits made to this contract \n        TotalDeposits = TotalDeposits.add(esusuCycleBalance);\n        \n        //  emit event \n        emit StartEsusuCycleEvent(now,cycle.Owner,esusuCycleBalance, EsusuCycleMapping[esusuCycleId].TotalCycleDuration,\n                                    EsusuCycleMapping[esusuCycleId].TotalShares,cycle.TotalMembers,esusuCycleId);\n    }\n    \n    \n  \n      function GetMemberCycleInfo(address memberAddress, uint esusuCycleId) public view returns(uint CycleId, address MemberId, uint TotalAmountDepositedInCycle, uint TotalPayoutReceivedInCycle, uint memberPosition){\n        \n        require(esusuCycleId > 0 && esusuCycleId <= EsusuCycleId, \"Cycle ID must be within valid EsusuCycleId range\");\n        \n        mapping(uint=>MemberCycle) storage memberCycleMapping =  MemberAddressToMemberCycleMapping[memberAddress];\n        \n        mapping(address=>uint) storage memberPositionMapping =  CycleToMemberPositionMapping[esusuCycleId];\n        \n        //  Get Number(Position) of Member In this Cycle\n        uint memberPos = memberPositionMapping[memberAddress];\n        \n        return  (memberCycleMapping[esusuCycleId].CycleId,memberCycleMapping[esusuCycleId].MemberId,\n        memberCycleMapping[esusuCycleId].TotalAmountDepositedInCycle,\n        memberCycleMapping[esusuCycleId].TotalPayoutReceivedInCycle,memberPos);\n    }\n\n    function GetEsusuCycle(uint esusuCycleId) public view returns(uint CycleId, uint DepositAmount, \n                                                            uint PayoutIntervalSeconds, uint CycleState, \n                                                            uint TotalMembers, uint TotalAmountDeposited, uint TotalShares, \n                                                            uint TotalCycleDurationInSeconds, uint TotalCapitalWithdrawn, uint CycleStartTimeInSeconds,\n                                                            uint TotalBeneficiaries, uint MaxMembers){\n        \n        require(esusuCycleId > 0 && esusuCycleId <= EsusuCycleId, \"Cycle ID must be within valid EsusuCycleId range\");\n        \n        EsusuCycle memory cycle = EsusuCycleMapping[esusuCycleId];\n        \n        return (cycle.CycleId, cycle.DepositAmount,  cycle.PayoutIntervalSeconds, \n                uint256(cycle.CycleState),\n                cycle.TotalMembers, cycle.TotalAmountDeposited, cycle.TotalShares,\n                cycle.TotalCycleDuration, cycle.TotalCapitalWithdrawn, cycle.CycleStartTime,\n                cycle.TotalBeneficiaries, cycle.MaxMembers);\n        \n    }\n    \n    /*\n        This function checks whether the user can withdraw at the time at which the user is making this call\n        \n        - Check if cycle is valid \n        - Check if cycle is in active state\n        - Check if member is in cycle\n        - Check if member is a beneficiary\n        - Calculate member withdrawal time\n        - Check if member can withdraw at this time\n    */\n    function IsMemberEligibleToWithdrawROI(uint esusuCycleId, address member) public view returns(bool){\n        \n        return _isMemberEligibleToWithdrawROI(esusuCycleId,member);\n        \n    }\n    \n    /*\n        This function checks whether the user can withdraw capital after the Esusu Cycle is complete. \n        \n        The cycle must be in an inactive state before capital can be withdrawn\n    */\n    function IsMemberEligibleToWithdrawCapital(uint esusuCycleId, address member) public view returns(bool){\n        \n        return _isMemberEligibleToWithdrawCapital(esusuCycleId,member);\n        \n    }\n    \n    function _isMemberEligibleToWithdrawROI(uint esusuCycleId, address member) internal view returns(bool){\n        \n        require(esusuCycleId > 0 && esusuCycleId <= EsusuCycleId, \"Cycle ID must be within valid EsusuCycleId range\");\n        \n        EsusuCycle memory cycle = EsusuCycleMapping[esusuCycleId];\n        \n        require(cycle.CycleState == CycleStateEnum.Active || cycle.CycleState == CycleStateEnum.Expired, \"Cycle must be in active or expired state\");\n        \n        require(_isMemberInCycle(member,esusuCycleId), \"Member is not in this cycle\");\n        \n        require(_isMemberABeneficiaryInCycle(member,esusuCycleId) == false, \"Member is already a beneficiary\");\n        \n        uint memberWithdrawalTime = _calculateMemberWithdrawalTime(cycle,member);\n        \n        if(now > memberWithdrawalTime){\n            return true;\n\n        }else{\n            return false;\n        }\n        \n    }\n    \n    function _isMemberEligibleToWithdrawCapital(uint esusuCycleId, address member) internal view returns(bool){\n        \n        require(esusuCycleId > 0 && esusuCycleId <= EsusuCycleId, \"Cycle ID must be within valid EsusuCycleId range\");\n        \n        EsusuCycle memory cycle = EsusuCycleMapping[esusuCycleId];\n        \n        require(cycle.CycleState == CycleStateEnum.Expired, \"Cycle must be in Expired state for you to withdraw capital\");\n        \n        require(_isMemberInCycle(member,esusuCycleId), \"Member is not in this cycle\");\n        \n        require(_isMemberABeneficiaryInCycle(member,esusuCycleId) == true, \"Member must be a beneficiary before you can withdraw capital\");\n\n        require(_isMemberInWithdrawnCapitalMapping(member,esusuCycleId) == false, \"Member can't withdraw capital twice\");\n\n        return true;\n        \n    }\n    \n    // /* Test helper functions starts  TODO: remove later */\n    function GetDaiBalance(address member) external view returns(uint){\n        return _dai.balanceOf(member);\n    }\n    \n    function GetYDaiBalance(address member) external view returns(uint){\n        return _yDai.balanceOf(member);\n    }\n    \n    \n    // function CalculateMemberWithdrawalTime(uint esusuCycleId, address member) internal view returns(uint){\n        \n    //     EsusuCycle memory cycle = EsusuCycleMapping[esusuCycleId];\n\n    //     mapping(address=>uint) storage memberPositionMapping =  CycleToMemberPositionMapping[cycle.CycleId];\n        \n    //     uint memberPosition = memberPositionMapping[member];\n        \n    //     uint withdrawalTime = (cycle.CycleStartTime.add(memberPosition.mul(cycle.PayoutIntervalSeconds)));\n        \n    //     return withdrawalTime;\n    // }\n    \n    function GetTotalDeposits() public view returns(uint)  {\n        return TotalDeposits;\n    } \n    \n    // /*  Test helper functions ends TODO: remove later */\n\n    /*\n        This function returns the Withdrawal time for a member in seconds\n        \n        Parameters\n        - Wt    -> Withdrawal Time for a member \n        - To    -> Cycle Start Time\n        - Mpos  -> Member Position in the Cycle \n        - Ct     -> Cycle Time Interval in seconds\n        \n        Equation\n        Wt = (To + (Mpos * Ct))\n    */\n    \n    function _calculateMemberWithdrawalTime(EsusuCycle memory cycle, address member) internal view returns(uint){\n        \n        mapping(address=>uint) storage memberPositionMapping =  CycleToMemberPositionMapping[cycle.CycleId];\n        \n        uint memberPosition = memberPositionMapping[member];\n        \n        uint withdrawalTime = (cycle.CycleStartTime.add(memberPosition.mul(cycle.PayoutIntervalSeconds)));\n        \n        return withdrawalTime;\n    }\n    \n    function GetCurrentEsusuCycleId() public view returns(uint){\n        \n        EsusuCycle memory cycle = EsusuCycleMapping[EsusuCycleId];\n        \n        return cycle.CycleId;\n    }\n    \n    function _isMemberInCycle(address memberAddress,uint esusuCycleId ) internal view returns(bool){\n        \n        mapping(uint=>MemberCycle) storage memberCycleMapping =  MemberAddressToMemberCycleMapping[memberAddress];\n        \n        //  If member is in cycle, the cycle ID should be greater than 0\n        if(memberCycleMapping[esusuCycleId].CycleId > 0){\n            \n            return true;\n        }else{\n            return false;\n        }\n    }\n    \n    function _isMemberABeneficiaryInCycle(address memberAddress,uint esusuCycleId ) internal view returns(bool){\n        \n        mapping(address=>uint) storage beneficiaryMapping =  CycleToBeneficiaryMapping[esusuCycleId];\n        \n        uint amount = beneficiaryMapping[memberAddress];\n        \n        //  If member has received money from this cycle, the amount recieved should be greater than 0\n\n        if(amount > 0){\n            \n            return true;\n        }else{\n            return false;\n        }\n    }\n    \n    function _isMemberInWithdrawnCapitalMapping(address memberAddress,uint esusuCycleId ) internal view returns(bool){\n        \n        mapping(address=>uint) storage memberWithdrawnCapitalMapping =  CycleToMemberWithdrawnCapitalMapping[esusuCycleId];\n        \n        uint amount = memberWithdrawnCapitalMapping[memberAddress];\n        \n        //  If member has withdrawn capital from this cycle, the amount recieved should be greater than 0\n\n        if(amount > 0){\n            \n            return true;\n        }else{\n            return false;\n        }\n    }\n    \n    /*\n        - Get the group index by name\n        - Get the group information by index\n    */\n    function GetGroupInformationByName(string memory name) public view returns (uint groupId, string memory groupName, string memory groupSymbol, address groupCreatorAddress){\n        \n        //  Get the group index by name\n        (bool exists, uint index ) = _groupsContract.getGroupIndexerByName(name);\n        \n        //  Get the group id by index and return \n\n        return _groupsContract.getGroupByIndex(index);\n    }\n    \n        /*\n        - Get the group information by Id\n    */\n    function GetGroupInformationById(uint id) public view returns (uint groupId, string memory groupName, string memory groupSymbol, address groupCreatorAddress){\n        \n        //  Get the group id by index and return \n\n        return _groupsContract.getGroupById(id);\n    }\n    \n    /*\n        - Creates the group \n        - returns the ID and other information\n    */\n    function CreateGroup(string memory name, string memory symbol, address groupCreator) public {\n        \n           _groupsContract.createGroup(name,symbol,groupCreator);\n           \n    }\n    \n    \n    function _rewardMember(uint totalCycleTime, address member, uint amount) internal {\n        \n        uint reward = _rewardConfigContract.CalculateEsusuReward(totalCycleTime, amount);\n        \n        // get Xend Token contract and mint token for member\n        _xendTokenContract.mint(payable(member), reward);\n    }\n    \n        /*\n        This function allows members to withdraw their capital from the esusu cycle\n        \n        - Check if member can withdraw capital \n        - Withdraw capital and increase TotalCapitalWithdrawn\n            - Get the total balanceShares from the calling contract\n            - Withdraw all the money from dai lending service\n            - Send the member's deposited amount to his/her address \n            - re-invest the remaining dai until all members have taken their capital, then we set the cycle inactive\n        - Reward member with Xend Tokens \n        - Add this member to the EsusuCycleCapitalMapping\n        - Check if TotalCapitalWithdrawn == TotalAmountDeposited && if TotalMembers == TotalBeneficiaries, if yes, set the Cycle to Inactive\n\n    */\n    \n    function WithdrawCapitalFromEsusuCycle(uint esusuCycleId, address member) public {\n        \n        require(_isMemberEligibleToWithdrawCapital(esusuCycleId,member));\n        \n        //  Add member to capital withdrawn mapping\n        \n        mapping(address=>uint) storage memberCapitalMapping =  CycleToMemberWithdrawnCapitalMapping[esusuCycleId];\n        \n        EsusuCycle storage cycle = EsusuCycleMapping[esusuCycleId];\n\n        uint memberDeposit = cycle.DepositAmount;\n        \n        //  Get the current yDaiSharesPerCycle and call the WithdrawByShares function on the daiLending Service\n        uint yDaiSharesPerCycle = cycle.TotalShares;\n        \n        //  Get the yDaiSharesForContractBeforeWithdrawal \n        uint yDaiSharesForContractBeforeWithdrawal = _yDai.balanceOf(address(this));\n        \n        //  Withdraw the Dai. At this point, we have withdrawn  Dai Capital deposited by this member for this cycle and we will now transfer the dai capital to the member\n        address daiLendingAdapterContractAddress = _iDaiLendingService.GetDaiLendingAdapterAddress();\n        _yDai.approve(daiLendingAdapterContractAddress,yDaiSharesPerCycle);\n        _iDaiLendingService.WithdrawByShares(memberDeposit,yDaiSharesPerCycle);\n        \n        //  Now the Dai is in this contract, transfer it to the member \n        _dai.transfer(member, memberDeposit);\n        \n        //  Reward member with Xend Tokens\n        _rewardMember(cycle.TotalCycleDuration,member,memberDeposit);\n        \n        //  Get the yDaiSharesForContractAfterWithdrawal \n        uint yDaiSharesForContractAfterWithdrawal = _yDai.balanceOf(address(this));\n        \n        require(yDaiSharesForContractBeforeWithdrawal > yDaiSharesForContractAfterWithdrawal, \"yDai shares before withdrawal must be greater !!!\");\n        \n        //  Update the total balanceShares for this cycle \n        cycle.TotalShares = yDaiSharesPerCycle.sub(yDaiSharesForContractBeforeWithdrawal.sub(yDaiSharesForContractAfterWithdrawal));\n        \n        //  Add this member to the CycleToMemberWithdrawnCapitalMapping\n        memberCapitalMapping[member] = memberDeposit;\n        \n        //  Increase total capital withdrawn \n        cycle.TotalCapitalWithdrawn = cycle.TotalCapitalWithdrawn.add(memberDeposit);\n        \n        //   Check if TotalCapitalWithdrawn == TotalAmountDeposited && if TotalMembers == TotalBeneficiaries, if yes, set the Cycle to Inactive\n        \n        if(cycle.TotalCapitalWithdrawn == cycle.TotalAmountDeposited && cycle.TotalMembers == cycle.TotalBeneficiaries){\n            \n            EsusuCycleMapping[esusuCycleId].CycleState = CycleStateEnum.Inactive;\n            \n            //  Since this cycle is inactive, send whatever Total shares Dai equivalent that is left to our treasury contract\n\n            //  Withdraw DAI equivalent fof TotalShares\n            _yDai.approve(daiLendingAdapterContractAddress,cycle.TotalShares);\n            _iDaiLendingService.WithdrawBySharesOnly(cycle.TotalShares);\n            \n            //  Now the Dai is in this contract, transfer it to the treasury contract \n            uint balance = _dai.balanceOf(address(this));\n            _dai.approve(address(_treasuryContract),balance);\n            _treasuryContract.depositToken(address(_dai));\n            \n        }\n        \n        //  emit event\n        emit CapitalWithdrawalEvent(now, member, esusuCycleId,memberDeposit);\n        \n    }\n    \n      /*\n        Assumption:\n        - We assume even distribution of Overall accumulated ROI among members of the group when a member places a withdrawal request at a time inverval \n          greater than members in the previous position who have not placed a withdrawal request.\n        \n        This function sends all ROI generated within an Esusu Cycle Payout Interval to a particular member\n        \n        - Check if member is eligible to withdraw\n        - Get the price per full share from Dai Lending Service\\\n        - Get overall DAI => yDai balanceShares * pricePerFullShare (NOTE: value is in 1e36)\n        - Get ROI => overall Dai - Total Deposited Dai in this esusu cycle \n        - Implement our derived equation to determine what ROI will be allocated to this member who is withdrawing \n        - Deduct fees from Member's ROI\n        - Equation Parameters\n            - Ta => Total available time in seconds\n            - Bt => Total Time Interval for beneficiaries in this cycle in seconds\n            - Tnow => Current Time in seconds\n            - T => Cycle PayoutIntervalSeconds\n            - Troi => Total accumulated ROI\n            - Mroi => Member ROI \n            \n            Equations \n            - Bt = T * number of beneficiaries\n            - Ta = Tnow - Bt\n            - Troi = ((balanceShares * pricePerFullShare ) - TotalDeposited - TotalCapitalWithdrawn)\n            - Mroi = (Total accumulated ROI at Tnow) / (Ta)   \n        \n        NOTE: As members withdraw their funds, the yDai balanceShares will change and we will be updating the TotalShares with this new value\n        at all times till TotalShares becomes approximately zero when all amounts have been withdrawn including capital invested\n        \n        - Track the yDai shares that belong to this cycle using the derived equation below for withdraw operation\n            - yDaiSharesPerCycle = Current yDai Shares in the cycle - Change in yDaiSharesForContract   \n            - Change in yDaiSharesForContract = yDai.balanceOf(address(this)) before withdraw operation - yDai.balanceOf(address(this)) after withdraw operation\n        \n    */\n    \n    function WithdrawROIFromEsusuCycle(uint esusuCycleId, address member) public  {\n        \n        bool isMemberEligibleToWithdraw = _isMemberEligibleToWithdrawROI(esusuCycleId,member);\n        \n        require(isMemberEligibleToWithdraw, \"Member cannot withdraw at this time\");\n        \n        EsusuCycle storage cycle = EsusuCycleMapping[esusuCycleId];\n\n        uint currentBalanceShares = cycle.TotalShares;\n        \n        uint pricePerFullShare = _iDaiLendingService.getPricePerFullShare();\n        \n        uint overallGrossDaiBalance = currentBalanceShares.mul(pricePerFullShare).div(1e18);\n        \n        \n        //  Implement our derived equation to get the amount of Dai to transfer to the member as ROI\n        uint Bt = cycle.PayoutIntervalSeconds.mul(cycle.TotalBeneficiaries);\n        uint Ta = now.sub(Bt);\n        uint Troi = overallGrossDaiBalance.sub(cycle.TotalAmountDeposited.sub(cycle.TotalCapitalWithdrawn));\n        uint Mroi = Troi.div(Ta);\n        \n        //  Get the current yDaiSharesPerCycle and call the WithdrawByShares function on the daiLending Service\n        uint yDaiSharesPerCycle = cycle.TotalShares;\n        \n        //  Get the yDaiSharesForContractBeforeWithdrawal \n        uint yDaiSharesForContractBeforeWithdrawal = _yDai.balanceOf(address(this));\n        \n        //  Withdraw the Dai. At this point, we have withdrawn the Dai ROI for this member and the dai ROI is in this contract, we will now transfer it to the member\n        address daiLendingAdapterContractAddress = _iDaiLendingService.GetDaiLendingAdapterAddress();\n        _yDai.approve(daiLendingAdapterContractAddress,yDaiSharesPerCycle);\n        _iDaiLendingService.WithdrawByShares(Mroi,yDaiSharesPerCycle);\n        \n        \n        //  Now the Dai is in this contract, transfer the net ROI to the member and fee to treasury contract \n        sendROI(Mroi,member,cycle);\n        \n        //  Get the yDaiSharesForContractAfterWithdrawal \n        uint yDaiSharesForContractAfterWithdrawal = _yDai.balanceOf(address(this));\n        \n        require(yDaiSharesForContractBeforeWithdrawal > yDaiSharesForContractAfterWithdrawal, \"yDai shares before withdrawal must be greater !!!\");\n        \n        //  Update the total balanceShares for this cycle \n        cycle.TotalShares = yDaiSharesPerCycle.sub(yDaiSharesForContractBeforeWithdrawal.sub(yDaiSharesForContractAfterWithdrawal));\n        \n        //  Increase total number of beneficiaries by 1\n        cycle.TotalBeneficiaries = cycle.TotalBeneficiaries.add(1);\n        \n        /*\n                \n            - Check whether the TotalCycleDuration has elapsed, if that is the case then this cycle has expired\n            - If cycle has expired then we move the left over yDai to treasury\n        */\n        \n        if(now > cycle.TotalCycleDuration){\n            \n            cycle.CycleState = CycleStateEnum.Expired;\n        }\n        \n\n        //  emit event \n        _emitROIWithdrawalEvent(member,Mroi,cycle);\n    }\n    \n    function _emitROIWithdrawalEvent(address member,uint Mroi, EsusuCycle memory cycle) internal{\n\n        emit ROIWithdrawalEvent(now, member,cycle.CycleId,Mroi);\n    }\n    \n            /*\n        This gets the fee percentage from the fee contract, deducts the fee and sends to treasury contract \n        \n        For now let us assume fee percentage is 0.1% \n        - Get the fee\n        - Send the net ROI in dai to member \n        - Send the fee to the treasury\n        - Add member to beneficiary mapping\n    */\n    function sendROI(uint Mroi, address memberAddress, EsusuCycle storage cycle) internal{\n        \n        //  get feeRate from fee contract\n\n        (uint minimum, uint maximum, uint exact, bool applies, RuleDefinition e)  = _savingsConfigContract.getRuleSet(_feeRuleKey);\n        \n        uint feeRate = exact;  \n        uint fee = Mroi.div(feeRate);\n        \n        //  Deduct the fee\n        uint memberROINet = Mroi.sub(fee); \n        \n         //  Add member to beneficiary mapping\n        mapping(address=>uint) storage beneficiaryMapping =  CycleToBeneficiaryMapping[cycle.CycleId];\n        \n        beneficiaryMapping[memberAddress] = memberROINet;\n        \n        //  Send ROI to member \n        _dai.transfer(memberAddress, memberROINet);\n        \n        //  Send deducted fee to treasury\n        //  Approve the treasury contract\n        _dai.approve(address(_treasuryContract),fee);\n        _treasuryContract.depositToken(address(_dai));\n        \n    }\n\n\n}\n\n",
  "sourcePath": "/Users/njokuscript/Desktop/programming/esusu/contracts/EsusuAdapter.sol",
  "compiler": {
    "name": "solc",
    "version": "0.6.6+commit.6c089d02.Emscripten.clang"
  },
  "schemaVersion": "3.2.5",
  "updatedAt": "2020-10-21T14:44:27.422Z",
  "devdoc": {
    "methods": {}
  },
  "userdoc": {
    "methods": {}
  }
}