{
  "contractName": "Groups",
  "abi": [
    {
      "inputs": [
        {
          "internalType": "address",
          "name": "oracle",
          "type": "address"
        }
      ],
      "name": "activateStorageOracle",
      "outputs": [],
      "stateMutability": "nonpayable",
      "type": "function"
    },
    {
      "inputs": [
        {
          "internalType": "address",
          "name": "oracle",
          "type": "address"
        }
      ],
      "name": "deactivateStorageOracle",
      "outputs": [],
      "stateMutability": "nonpayable",
      "type": "function"
    },
    {
      "inputs": [
        {
          "internalType": "address",
          "name": "newOracle",
          "type": "address"
        }
      ],
      "name": "reAssignStorageOracle",
      "outputs": [],
      "stateMutability": "nonpayable",
      "type": "function"
    },
    {
      "inputs": [
        {
          "internalType": "address payable",
          "name": "newOwner",
          "type": "address"
        }
      ],
      "name": "transferOwnership",
      "outputs": [],
      "stateMutability": "nonpayable",
      "type": "function"
    },
    {
      "inputs": [],
      "name": "getLengthOfTokenAddressesUsedInDeposit",
      "outputs": [
        {
          "internalType": "uint256",
          "name": "",
          "type": "uint256"
        }
      ],
      "stateMutability": "view",
      "type": "function"
    },
    {
      "inputs": [
        {
          "internalType": "address",
          "name": "tokenAddress",
          "type": "address"
        },
        {
          "internalType": "uint256",
          "name": "amount",
          "type": "uint256"
        }
      ],
      "name": "incrementTokenDeposit",
      "outputs": [
        {
          "internalType": "uint256",
          "name": "",
          "type": "uint256"
        }
      ],
      "stateMutability": "nonpayable",
      "type": "function"
    },
    {
      "inputs": [
        {
          "internalType": "address",
          "name": "tokenAddress",
          "type": "address"
        },
        {
          "internalType": "uint256",
          "name": "amount",
          "type": "uint256"
        }
      ],
      "name": "decrementTokenDeposit",
      "outputs": [
        {
          "internalType": "uint256",
          "name": "",
          "type": "uint256"
        }
      ],
      "stateMutability": "nonpayable",
      "type": "function"
    },
    {
      "inputs": [
        {
          "internalType": "address",
          "name": "tokenAddress",
          "type": "address"
        }
      ],
      "name": "getTokenDeposit",
      "outputs": [
        {
          "internalType": "uint256",
          "name": "",
          "type": "uint256"
        }
      ],
      "stateMutability": "view",
      "type": "function"
    },
    {
      "inputs": [
        {
          "internalType": "uint256",
          "name": "amount",
          "type": "uint256"
        }
      ],
      "name": "incrementEtherDeposit",
      "outputs": [
        {
          "internalType": "uint256",
          "name": "",
          "type": "uint256"
        }
      ],
      "stateMutability": "nonpayable",
      "type": "function"
    },
    {
      "inputs": [
        {
          "internalType": "uint256",
          "name": "amount",
          "type": "uint256"
        }
      ],
      "name": "decrementEtherDeposit",
      "outputs": [
        {
          "internalType": "uint256",
          "name": "",
          "type": "uint256"
        }
      ],
      "stateMutability": "nonpayable",
      "type": "function"
    },
    {
      "inputs": [],
      "name": "getEtherDeposit",
      "outputs": [
        {
          "internalType": "uint256",
          "name": "",
          "type": "uint256"
        }
      ],
      "stateMutability": "view",
      "type": "function"
    },
    {
      "inputs": [
        {
          "internalType": "address payable",
          "name": "depositor",
          "type": "address"
        }
      ],
      "name": "createMember",
      "outputs": [],
      "stateMutability": "nonpayable",
      "type": "function"
    },
    {
      "inputs": [
        {
          "internalType": "address",
          "name": "_address",
          "type": "address"
        }
      ],
      "name": "getMember",
      "outputs": [
        {
          "internalType": "address",
          "name": "",
          "type": "address"
        }
      ],
      "stateMutability": "view",
      "type": "function"
    },
    {
      "inputs": [
        {
          "internalType": "string",
          "name": "name",
          "type": "string"
        },
        {
          "internalType": "string",
          "name": "symbol",
          "type": "string"
        },
        {
          "internalType": "address",
          "name": "groupCreator",
          "type": "address"
        }
      ],
      "name": "createGroup",
      "outputs": [
        {
          "internalType": "uint256",
          "name": "",
          "type": "uint256"
        }
      ],
      "stateMutability": "nonpayable",
      "type": "function"
    },
    {
      "inputs": [
        {
          "internalType": "uint256",
          "name": "id",
          "type": "uint256"
        },
        {
          "internalType": "string",
          "name": "name",
          "type": "string"
        },
        {
          "internalType": "string",
          "name": "symbol",
          "type": "string"
        },
        {
          "internalType": "address payable",
          "name": "creatorAddress",
          "type": "address"
        }
      ],
      "name": "updateGroup",
      "outputs": [],
      "stateMutability": "nonpayable",
      "type": "function"
    },
    {
      "inputs": [
        {
          "internalType": "string",
          "name": "groupName",
          "type": "string"
        }
      ],
      "name": "doesGroupExist",
      "outputs": [
        {
          "internalType": "bool",
          "name": "",
          "type": "bool"
        }
      ],
      "stateMutability": "view",
      "type": "function"
    },
    {
      "inputs": [
        {
          "internalType": "uint256",
          "name": "groupId",
          "type": "uint256"
        }
      ],
      "name": "doesGroupExist",
      "outputs": [
        {
          "internalType": "bool",
          "name": "",
          "type": "bool"
        }
      ],
      "stateMutability": "view",
      "type": "function"
    },
    {
      "inputs": [
        {
          "internalType": "address",
          "name": "depositor",
          "type": "address"
        }
      ],
      "name": "doesMemberExist",
      "outputs": [
        {
          "internalType": "bool",
          "name": "",
          "type": "bool"
        }
      ],
      "stateMutability": "view",
      "type": "function"
    },
    {
      "inputs": [
        {
          "internalType": "uint256",
          "name": "groupId",
          "type": "uint256"
        },
        {
          "internalType": "address payable",
          "name": "depositor",
          "type": "address"
        }
      ],
      "name": "createGroupMember",
      "outputs": [],
      "stateMutability": "nonpayable",
      "type": "function"
    },
    {
      "inputs": [
        {
          "internalType": "uint256",
          "name": "index",
          "type": "uint256"
        }
      ],
      "name": "getGroupMember",
      "outputs": [
        {
          "internalType": "address payable",
          "name": "_address",
          "type": "address"
        },
        {
          "internalType": "uint256",
          "name": "groupId",
          "type": "uint256"
        }
      ],
      "stateMutability": "view",
      "type": "function"
    },
    {
      "inputs": [
        {
          "internalType": "uint256",
          "name": "groupId",
          "type": "uint256"
        },
        {
          "internalType": "address",
          "name": "depositor",
          "type": "address"
        }
      ],
      "name": "getGroupMembersDeepIndexer",
      "outputs": [
        {
          "internalType": "bool",
          "name": "exists",
          "type": "bool"
        },
        {
          "internalType": "uint256",
          "name": "index",
          "type": "uint256"
        }
      ],
      "stateMutability": "view",
      "type": "function"
    },
    {
      "inputs": [
        {
          "internalType": "uint256",
          "name": "groupId",
          "type": "uint256"
        }
      ],
      "name": "getRecordIndexLengthForGroupMembersIndexer",
      "outputs": [
        {
          "internalType": "uint256",
          "name": "",
          "type": "uint256"
        }
      ],
      "stateMutability": "view",
      "type": "function"
    },
    {
      "inputs": [
        {
          "internalType": "address",
          "name": "depositor",
          "type": "address"
        }
      ],
      "name": "getRecordIndexLengthForGroupMembersIndexerByDepositor",
      "outputs": [
        {
          "internalType": "uint256",
          "name": "",
          "type": "uint256"
        }
      ],
      "stateMutability": "view",
      "type": "function"
    },
    {
      "inputs": [
        {
          "internalType": "uint256",
          "name": "groupId",
          "type": "uint256"
        },
        {
          "internalType": "uint256",
          "name": "indexerLocation",
          "type": "uint256"
        }
      ],
      "name": "getGroupMembersIndexer",
      "outputs": [
        {
          "internalType": "bool",
          "name": "exist",
          "type": "bool"
        },
        {
          "internalType": "uint256",
          "name": "index",
          "type": "uint256"
        }
      ],
      "stateMutability": "view",
      "type": "function"
    },
    {
      "inputs": [
        {
          "internalType": "address",
          "name": "depositor",
          "type": "address"
        },
        {
          "internalType": "uint256",
          "name": "indexerLocation",
          "type": "uint256"
        }
      ],
      "name": "getGroupMembersIndexerByDepositor",
      "outputs": [
        {
          "internalType": "bool",
          "name": "exist",
          "type": "bool"
        },
        {
          "internalType": "uint256",
          "name": "index",
          "type": "uint256"
        }
      ],
      "stateMutability": "view",
      "type": "function"
    },
    {
      "inputs": [
        {
          "internalType": "uint256",
          "name": "groupId",
          "type": "uint256"
        },
        {
          "internalType": "address",
          "name": "depositor",
          "type": "address"
        }
      ],
      "name": "doesGroupMemberExist",
      "outputs": [
        {
          "internalType": "bool",
          "name": "",
          "type": "bool"
        }
      ],
      "stateMutability": "view",
      "type": "function"
    },
    {
      "inputs": [
        {
          "internalType": "uint256",
          "name": "groupId",
          "type": "uint256"
        }
      ],
      "name": "getGroupIndexer",
      "outputs": [
        {
          "internalType": "bool",
          "name": "exist",
          "type": "bool"
        },
        {
          "internalType": "uint256",
          "name": "index",
          "type": "uint256"
        }
      ],
      "stateMutability": "view",
      "type": "function"
    },
    {
      "inputs": [
        {
          "internalType": "address",
          "name": "groupCreator",
          "type": "address"
        }
      ],
      "name": "getRecordIndexLengthForCreator",
      "outputs": [
        {
          "internalType": "uint256",
          "name": "",
          "type": "uint256"
        }
      ],
      "stateMutability": "view",
      "type": "function"
    },
    {
      "inputs": [
        {
          "internalType": "address",
          "name": "groupCreator",
          "type": "address"
        },
        {
          "internalType": "uint256",
          "name": "indexerLocation",
          "type": "uint256"
        }
      ],
      "name": "getGroupForCreatorIndexer",
      "outputs": [
        {
          "internalType": "bool",
          "name": "exist",
          "type": "bool"
        },
        {
          "internalType": "uint256",
          "name": "index",
          "type": "uint256"
        }
      ],
      "stateMutability": "view",
      "type": "function"
    },
    {
      "inputs": [
        {
          "internalType": "string",
          "name": "groupName",
          "type": "string"
        }
      ],
      "name": "getGroupIndexerByName",
      "outputs": [
        {
          "internalType": "bool",
          "name": "exist",
          "type": "bool"
        },
        {
          "internalType": "uint256",
          "name": "index",
          "type": "uint256"
        }
      ],
      "stateMutability": "view",
      "type": "function"
    },
    {
      "inputs": [
        {
          "internalType": "uint256",
          "name": "groupId",
          "type": "uint256"
        }
      ],
      "name": "getGroupById",
      "outputs": [
        {
          "internalType": "uint256",
          "name": "",
          "type": "uint256"
        },
        {
          "internalType": "string",
          "name": "",
          "type": "string"
        },
        {
          "internalType": "string",
          "name": "",
          "type": "string"
        },
        {
          "internalType": "address payable",
          "name": "",
          "type": "address"
        }
      ],
      "stateMutability": "view",
      "type": "function"
    },
    {
      "inputs": [
        {
          "internalType": "uint256",
          "name": "index",
          "type": "uint256"
        }
      ],
      "name": "getGroupByIndex",
      "outputs": [
        {
          "internalType": "uint256",
          "name": "",
          "type": "uint256"
        },
        {
          "internalType": "string",
          "name": "",
          "type": "string"
        },
        {
          "internalType": "string",
          "name": "",
          "type": "string"
        },
        {
          "internalType": "address payable",
          "name": "",
          "type": "address"
        }
      ],
      "stateMutability": "view",
      "type": "function"
    },
    {
      "inputs": [
        {
          "internalType": "uint256",
          "name": "groupId",
          "type": "uint256"
        }
      ],
      "name": "getGroupIndex",
      "outputs": [
        {
          "internalType": "uint256",
          "name": "",
          "type": "uint256"
        }
      ],
      "stateMutability": "view",
      "type": "function"
    }
  ],
  "bytecode": "0x6080604052336000806101000a81548173ffffffffffffffffffffffffffffffffffffffff021916908373ffffffffffffffffffffffffffffffffffffffff160217905550613c6d806100536000396000f3fe608060405234801561001057600080fd5b5060043610610218576000357c01000000000000000000000000000000000000000000000000000000009004806348cf9e5c1161013757806381ea68fe116100ca578063d1f4427811610099578063d1f4427814610edd578063d73c9de414610efb578063daf0cf4314610f70578063e824f2b514610fc7578063f2fde38b1461103457610218565b806381ea68fe14610cc95780638c22482614610d215780638edb1a0614610d835780639a25979814610ddb57610218565b80636b2c46d5116101065780636b2c46d514610ad45780636cc29ea014610b1a5780636f583ba614610c6757806380abc21a14610cab57610218565b806348cf9e5c1461091457806352bc00c4146109565780635e82c389146109985780636041fc8814610a9057610218565b80632bd10bbc116101af5780633ac179f81161017e5780633ac179f8146107875780634448d5e1146107c9578063458a8c071461083657806348c88923146108c757610218565b80632bd10bbc1461053e5780632e367f9f146105805780633037faf1146105e25780633525e9c41461072f57610218565b80630fdf80ed116101eb5780630fdf80ed146103d6578063165301a51461041a5780632124d529146104765780632ada2596146104ba57610218565b806308099b5d1461021d57806309080945146102b55780630c202741146103225780630d15c07d14610370575b600080fd5b6102946004803603602081101561023357600080fd5b810190808035906020019064010000000081111561025057600080fd5b82018360208201111561026257600080fd5b8035906020019184600183028401116401000000008311171561028457600080fd5b9091929391929390505050611078565b60405180831515151581526020018281526020019250505060405180910390f35b610301600480360360408110156102cb57600080fd5b8101908080359060200190929190803573ffffffffffffffffffffffffffffffffffffffff1690602001909291905050506110f2565b60405180831515151581526020018281526020019250505060405180910390f35b61036e6004803603604081101561033857600080fd5b8101908080359060200190929190803573ffffffffffffffffffffffffffffffffffffffff169060200190929190505050611195565b005b6103bc6004803603604081101561038657600080fd5b8101908080359060200190929190803573ffffffffffffffffffffffffffffffffffffffff169060200190929190505050611569565b604051808215151515815260200191505060405180910390f35b610418600480360360208110156103ec57600080fd5b81019080803573ffffffffffffffffffffffffffffffffffffffff16906020019092919050505061157d565b005b61045c6004803603602081101561043057600080fd5b81019080803573ffffffffffffffffffffffffffffffffffffffff1690602001909291905050506116f4565b604051808215151515815260200191505060405180910390f35b6104b86004803603602081101561048c57600080fd5b81019080803573ffffffffffffffffffffffffffffffffffffffff169060200190929190505050611706565b005b6104fc600480360360208110156104d057600080fd5b81019080803573ffffffffffffffffffffffffffffffffffffffff1690602001909291905050506119b5565b604051808273ffffffffffffffffffffffffffffffffffffffff1673ffffffffffffffffffffffffffffffffffffffff16815260200191505060405180910390f35b61056a6004803603602081101561055457600080fd5b8101908080359060200190929190505050611a6e565b6040518082815260200191505060405180910390f35b6105cc6004803603604081101561059657600080fd5b81019080803573ffffffffffffffffffffffffffffffffffffffff16906020019092919080359060200190929190505050611ba9565b6040518082815260200191505060405180910390f35b61060e600480360360208110156105f857600080fd5b8101908080359060200190929190505050611da2565b6040518085815260200180602001806020018473ffffffffffffffffffffffffffffffffffffffff1673ffffffffffffffffffffffffffffffffffffffff168152602001838103835286818151815260200191508051906020019080838360005b8381101561068a57808201518184015260208101905061066f565b50505050905090810190601f1680156106b75780820380516001836020036101000a031916815260200191505b50838103825285818151815260200191508051906020019080838360005b838110156106f05780820151818401526020810190506106d5565b50505050905090810190601f16801561071d5780820380516001836020036101000a031916815260200191505b50965050505050505060405180910390f35b6107716004803603602081101561074557600080fd5b81019080803573ffffffffffffffffffffffffffffffffffffffff169060200190929190505050611e85565b6040518082815260200191505060405180910390f35b6107b36004803603602081101561079d57600080fd5b8101908080359060200190929190505050611ed1565b6040518082815260200191505060405180910390f35b610815600480360360408110156107df57600080fd5b81019080803573ffffffffffffffffffffffffffffffffffffffff16906020019092919080359060200190929190505050611ef1565b60405180831515151581526020018281526020019250505060405180910390f35b6108ad6004803603602081101561084c57600080fd5b810190808035906020019064010000000081111561086957600080fd5b82018360208201111561087b57600080fd5b8035906020019184600183028401116401000000008311171561089d57600080fd5b9091929391929390505050611f9c565b604051808215151515815260200191505060405180910390f35b6108f3600480360360208110156108dd57600080fd5b8101908080359060200190929190505050611ff3565b60405180831515151581526020018281526020019250505060405180910390f35b6109406004803603602081101561092a57600080fd5b8101908080359060200190929190505050612057565b6040518082815260200191505060405180910390f35b6109826004803603602081101561096c57600080fd5b810190808035906020019092919050505061212d565b6040518082815260200191505060405180910390f35b610a8e600480360360808110156109ae57600080fd5b8101908080359060200190929190803590602001906401000000008111156109d557600080fd5b8201836020820111156109e757600080fd5b80359060200191846001830284011164010000000083111715610a0957600080fd5b909192939192939080359060200190640100000000811115610a2a57600080fd5b820183602082011115610a3c57600080fd5b80359060200191846001830284011164010000000083111715610a5e57600080fd5b9091929391929390803573ffffffffffffffffffffffffffffffffffffffff16906020019092919050505061220d565b005b610ad260048036036020811015610aa657600080fd5b81019080803573ffffffffffffffffffffffffffffffffffffffff1690602001909291905050506123a1565b005b610b0060048036036020811015610aea57600080fd5b81019080803590602001909291905050506124be565b604051808215151515815260200191505060405180910390f35b610b4660048036036020811015610b3057600080fd5b81019080803590602001909291905050506124d0565b6040518085815260200180602001806020018473ffffffffffffffffffffffffffffffffffffffff1673ffffffffffffffffffffffffffffffffffffffff168152602001838103835286818151815260200191508051906020019080838360005b83811015610bc2578082015181840152602081019050610ba7565b50505050905090810190601f168015610bef5780820380516001836020036101000a031916815260200191505b50838103825285818151815260200191508051906020019080838360005b83811015610c28578082015181840152602081019050610c0d565b50505050905090810190601f168015610c555780820380516001836020036101000a031916815260200191505b50965050505050505060405180910390f35b610ca960048036036020811015610c7d57600080fd5b81019080803573ffffffffffffffffffffffffffffffffffffffff169060200190929190505050612742565b005b610cb361285e565b6040518082815260200191505060405180910390f35b610d0b60048036036020811015610cdf57600080fd5b81019080803573ffffffffffffffffffffffffffffffffffffffff16906020019092919050505061286b565b6040518082815260200191505060405180910390f35b610d6d60048036036040811015610d3757600080fd5b81019080803573ffffffffffffffffffffffffffffffffffffffff169060200190929190803590602001909291905050506128b7565b6040518082815260200191505060405180910390f35b610dc560048036036020811015610d9957600080fd5b81019080803573ffffffffffffffffffffffffffffffffffffffff169060200190929190505050612abe565b6040518082815260200191505060405180910390f35b610ec760048036036060811015610df157600080fd5b8101908080359060200190640100000000811115610e0e57600080fd5b820183602082011115610e2057600080fd5b80359060200191846001830284011164010000000083111715610e4257600080fd5b909192939192939080359060200190640100000000811115610e6357600080fd5b820183602082011115610e7557600080fd5b80359060200191846001830284011164010000000083111715610e9757600080fd5b9091929391929390803573ffffffffffffffffffffffffffffffffffffffff169060200190929190505050612b07565b6040518082815260200191505060405180910390f35b610ee5612fc1565b6040518082815260200191505060405180910390f35b610f2760048036036020811015610f1157600080fd5b8101908080359060200190929190505050612fcb565b604051808373ffffffffffffffffffffffffffffffffffffffff1673ffffffffffffffffffffffffffffffffffffffff1681526020018281526020019250505060405180910390f35b610fa660048036036040811015610f8657600080fd5b81019080803590602001909291908035906020019092919050505061308d565b60405180831515151581526020018281526020019250505060405180910390f35b61101360048036036040811015610fdd57600080fd5b81019080803573ffffffffffffffffffffffffffffffffffffffff1690602001909291908035906020019092919050505061310c565b60405180831515151581526020018281526020019250505060405180910390f35b6110766004803603602081101561104a57600080fd5b81019080803573ffffffffffffffffffffffffffffffffffffffff1690602001909291905050506131b7565b005b600080611083613a1c565b6005858560405180838380828437808301925050509250505090815260200160405180910390206040518060400160405290816000820160009054906101000a900460ff1615151515815260200160018201548152505090508060000151816020015192509250509250929050565b6000806110fd613a1c565b6009600086815260200190815260200160002060008573ffffffffffffffffffffffffffffffffffffffff1673ffffffffffffffffffffffffffffffffffffffff1681526020019081526020016000206040518060400160405290816000820160009054906101000a900460ff1615151515815260200160018201548152505090508060000151816020015192509250509250929050565b6000600160003373ffffffffffffffffffffffffffffffffffffffff1673ffffffffffffffffffffffffffffffffffffffff16815260200190815260200160002060009054906101000a900460ff16905080611259576040517f08c379a000000000000000000000000000000000000000000000000000000000815260040180806020018281038252601f8152602001807f756e617574686f72697a65642061636365737320746f20636f6e74726163740081525060200191505060405180910390fd5b600061126584846132f1565b905060001515811515146112e1576040517f08c379a00000000000000000000000000000000000000000000000000000000081526004018080602001828103825260138152602001807f47726f7570206d656d626572206578697374730000000000000000000000000081525060200191505060405180910390fd5b6112e9613a1c565b60405180604001604052806001151581526020016006805490508152509050611310613a38565b60405180606001604052806001151581526020018673ffffffffffffffffffffffffffffffffffffffff1681526020018781525090506007600087815260200190815260200160002082908060018154018082558091505060019003906000526020600020906002020160009091909190915060008201518160000160006101000a81548160ff021916908315150217905550602082015181600101555050600860008673ffffffffffffffffffffffffffffffffffffffff1673ffffffffffffffffffffffffffffffffffffffff16815260200190815260200160002082908060018154018082558091505060019003906000526020600020906002020160009091909190915060008201518160000160006101000a81548160ff021916908315150217905550602082015181600101555050816009600088815260200190815260200160002060008773ffffffffffffffffffffffffffffffffffffffff1673ffffffffffffffffffffffffffffffffffffffff16815260200190815260200160002060008201518160000160006101000a81548160ff02191690831515021790555060208201518160010155905050600681908060018154018082558091505060019003906000526020600020906002020160009091909190915060008201518160000160006101000a81548160ff02191690831515021790555060208201518160000160016101000a81548173ffffffffffffffffffffffffffffffffffffffff021916908373ffffffffffffffffffffffffffffffffffffffff160217905550604082015181600101555050505050505050565b600061157583836132f1565b905092915050565b6000600160003373ffffffffffffffffffffffffffffffffffffffff1673ffffffffffffffffffffffffffffffffffffffff16815260200190815260200160002060009054906101000a900460ff16905080611641576040517f08c379a000000000000000000000000000000000000000000000000000000000815260040180806020018281038252601f8152602001807f756e617574686f72697a65642061636365737320746f20636f6e74726163740081525060200191505060405180910390fd5b6000600160003373ffffffffffffffffffffffffffffffffffffffff1673ffffffffffffffffffffffffffffffffffffffff16815260200190815260200160002060006101000a81548160ff02191690831515021790555060018060008473ffffffffffffffffffffffffffffffffffffffff1673ffffffffffffffffffffffffffffffffffffffff16815260200190815260200160002060006101000a81548160ff0219169083151502179055505050565b60006116ff82613361565b9050919050565b6000600160003373ffffffffffffffffffffffffffffffffffffffff1673ffffffffffffffffffffffffffffffffffffffff16815260200190815260200160002060009054906101000a900460ff169050806117ca576040517f08c379a000000000000000000000000000000000000000000000000000000000815260040180806020018281038252601f8152602001807f756e617574686f72697a65642061636365737320746f20636f6e74726163740081525060200191505060405180910390fd5b6117d2613a71565b60405180604001604052806001151581526020018473ffffffffffffffffffffffffffffffffffffffff168152509050600061180d84613361565b90506000151581151514611889576040517f08c379a00000000000000000000000000000000000000000000000000000000081526004018080602001828103825260158152602001807f4d656d62657220616c726561647920657869737473000000000000000000000081525060200191505060405180910390fd5b611891613a1c565b6040518060400160405280600115158152602001600a805490508152509050600a839080600181540180825580915050600190039060005260206000200160009091909190915060008201518160000160006101000a81548160ff02191690831515021790555060208201518160000160016101000a81548173ffffffffffffffffffffffffffffffffffffffff021916908373ffffffffffffffffffffffffffffffffffffffff160217905550505080600b60008773ffffffffffffffffffffffffffffffffffffffff1673ffffffffffffffffffffffffffffffffffffffff16815260200190815260200160002060008201518160000160006101000a81548160ff021916908315150217905550602082015181600101559050505050505050565b6000806119c1836133d1565b90506119cb613a71565b600a82815481106119d857fe5b906000526020600020016040518060400160405290816000820160009054906101000a900460ff161515151581526020016000820160019054906101000a900473ffffffffffffffffffffffffffffffffffffffff1673ffffffffffffffffffffffffffffffffffffffff1673ffffffffffffffffffffffffffffffffffffffff16815250509050806020015192505050919050565b600080600160003373ffffffffffffffffffffffffffffffffffffffff1673ffffffffffffffffffffffffffffffffffffffff16815260200190815260200160002060009054906101000a900460ff16905080611b33576040517f08c379a000000000000000000000000000000000000000000000000000000000815260040180806020018281038252601f8152602001807f756e617574686f72697a65642061636365737320746f20636f6e74726163740081525060200191505060405180910390fd5b82600e541015611b8e576040517f08c379a0000000000000000000000000000000000000000000000000000000008152600401808060200182810382526028815260200180613c106028913960400191505060405180910390fd5b82600e60008282540392505081905550600e54915050919050565b600080600160003373ffffffffffffffffffffffffffffffffffffffff1673ffffffffffffffffffffffffffffffffffffffff16815260200190815260200160002060009054906101000a900460ff16905080611c6e576040517f08c379a000000000000000000000000000000000000000000000000000000000815260040180806020018281038252601f8152602001807f756e617574686f72697a65642061636365737320746f20636f6e74726163740081525060200191505060405180910390fd5b6000600f60008673ffffffffffffffffffffffffffffffffffffffff1673ffffffffffffffffffffffffffffffffffffffff16815260200190815260200160002054905083811015611d0b576040517f08c379a0000000000000000000000000000000000000000000000000000000008152600401808060200182810382526028815260200180613c106028913960400191505060405180910390fd5b83600f60008773ffffffffffffffffffffffffffffffffffffffff1673ffffffffffffffffffffffffffffffffffffffff16815260200190815260200160002060008282540392505081905550600f60008673ffffffffffffffffffffffffffffffffffffffff1673ffffffffffffffffffffffffffffffffffffffff168152602001908152602001600020549250505092915050565b6000606080600080600160003373ffffffffffffffffffffffffffffffffffffffff1673ffffffffffffffffffffffffffffffffffffffff16815260200190815260200160002060009054906101000a900460ff16905080611e6c576040517f08c379a000000000000000000000000000000000000000000000000000000000815260040180806020018281038252601f8152602001807f756e617574686f72697a65642061636365737320746f20636f6e74726163740081525060200191505060405180910390fd5b611e75866134f1565b9450945094509450509193509193565b6000600460008373ffffffffffffffffffffffffffffffffffffffff1673ffffffffffffffffffffffffffffffffffffffff168152602001908152602001600020805490509050919050565b600060076000838152602001908152602001600020805490509050919050565b600080611efc613a1c565b600460008673ffffffffffffffffffffffffffffffffffffffff1673ffffffffffffffffffffffffffffffffffffffff1681526020019081526020016000208481548110611f4657fe5b90600052602060002090600202016040518060400160405290816000820160009054906101000a900460ff1615151515815260200160018201548152505090508060000151816020015192509250509250929050565b6000611feb83838080601f016020809104026020016040519081016040528093929190818152602001838380828437600081840152601f19601f820116905080830192505050505050506137d5565b905092915050565b600080611ffe613a1c565b600360008581526020019081526020016000206040518060400160405290816000820160009054906101000a900460ff161515151581526020016001820154815250509050806000015181602001519250925050915091565b600080600160003373ffffffffffffffffffffffffffffffffffffffff1673ffffffffffffffffffffffffffffffffffffffff16815260200190815260200160002060009054906101000a900460ff1690508061211c576040517f08c379a000000000000000000000000000000000000000000000000000000000815260040180806020018281038252601f8152602001807f756e617574686f72697a65642061636365737320746f20636f6e74726163740081525060200191505060405180910390fd5b6121258361385d565b915050919050565b600080600160003373ffffffffffffffffffffffffffffffffffffffff1673ffffffffffffffffffffffffffffffffffffffff16815260200190815260200160002060009054906101000a900460ff169050806121f2576040517f08c379a000000000000000000000000000000000000000000000000000000000815260040180806020018281038252601f8152602001807f756e617574686f72697a65642061636365737320746f20636f6e74726163740081525060200191505060405180910390fd5b82600e60008282540192505081905550600e54915050919050565b6000600160003373ffffffffffffffffffffffffffffffffffffffff1673ffffffffffffffffffffffffffffffffffffffff16815260200190815260200160002060009054906101000a900460ff169050806122d1576040517f08c379a000000000000000000000000000000000000000000000000000000000815260040180806020018281038252601f8152602001807f756e617574686f72697a65642061636365737320746f20636f6e74726163740081525060200191505060405180910390fd5b60006122dc8861385d565b90508686600283815481106122ed57fe5b9060005260206000209060050201600201919061230b929190613aa3565b5084846002838154811061231b57fe5b90600052602060002090600502016003019190612339929190613aa3565b50826002828154811061234857fe5b906000526020600020906005020160040160006101000a81548173ffffffffffffffffffffffffffffffffffffffff021916908373ffffffffffffffffffffffffffffffffffffffff1602179055505050505050505050565b6000809054906101000a900473ffffffffffffffffffffffffffffffffffffffff1673ffffffffffffffffffffffffffffffffffffffff163373ffffffffffffffffffffffffffffffffffffffff1614612463576040517f08c379a000000000000000000000000000000000000000000000000000000000815260040180806020018281038252601f8152602001807f756e617574686f72697a65642061636365737320746f20636f6e74726163740081525060200191505060405180910390fd5b6000600160008373ffffffffffffffffffffffffffffffffffffffff1673ffffffffffffffffffffffffffffffffffffffff16815260200190815260200160002060006101000a81548160ff02191690831515021790555050565b60006124c9826139ea565b9050919050565b6000606080600080600160003373ffffffffffffffffffffffffffffffffffffffff1673ffffffffffffffffffffffffffffffffffffffff16815260200190815260200160002060009054906101000a900460ff1690508061259a576040517f08c379a000000000000000000000000000000000000000000000000000000000815260040180806020018281038252601f8152602001807f756e617574686f72697a65642061636365737320746f20636f6e74726163740081525060200191505060405180910390fd5b60006125a58761385d565b90506000600282815481106125b657fe5b90600052602060002090600502019050806001015481600201826003018360040160009054906101000a900473ffffffffffffffffffffffffffffffffffffffff16828054600181600116156101000203166002900480601f01602080910402602001604051908101604052809291908181526020018280546001816001161561010002031660029004801561268d5780601f106126625761010080835404028352916020019161268d565b820191906000526020600020905b81548152906001019060200180831161267057829003601f168201915b50505050509250818054600181600116156101000203166002900480601f0160208091040260200160405190810160405280929190818152602001828054600181600116156101000203166002900480156127295780601f106126fe57610100808354040283529160200191612729565b820191906000526020600020905b81548152906001019060200180831161270c57829003601f168201915b5050505050915096509650965096505050509193509193565b6000809054906101000a900473ffffffffffffffffffffffffffffffffffffffff1673ffffffffffffffffffffffffffffffffffffffff163373ffffffffffffffffffffffffffffffffffffffff1614612804576040517f08c379a000000000000000000000000000000000000000000000000000000000815260040180806020018281038252601f8152602001807f756e617574686f72697a65642061636365737320746f20636f6e74726163740081525060200191505060405180910390fd5b60018060008373ffffffffffffffffffffffffffffffffffffffff1673ffffffffffffffffffffffffffffffffffffffff16815260200190815260200160002060006101000a81548160ff02191690831515021790555050565b6000600d80549050905090565b6000600860008373ffffffffffffffffffffffffffffffffffffffff1673ffffffffffffffffffffffffffffffffffffffff168152602001908152602001600020805490509050919050565b600080600160003373ffffffffffffffffffffffffffffffffffffffff1673ffffffffffffffffffffffffffffffffffffffff16815260200190815260200160002060009054906101000a900460ff1690508061297c576040517f08c379a000000000000000000000000000000000000000000000000000000000815260040180806020018281038252601f8152602001807f756e617574686f72697a65642061636365737320746f20636f6e74726163740081525060200191505060405180910390fd5b6000600f60008673ffffffffffffffffffffffffffffffffffffffff1673ffffffffffffffffffffffffffffffffffffffff168152602001908152602001600020541415612a2857600d849080600181540180825580915050600190039060005260206000200160009091909190916101000a81548173ffffffffffffffffffffffffffffffffffffffff021916908373ffffffffffffffffffffffffffffffffffffffff1602179055505b82600f60008673ffffffffffffffffffffffffffffffffffffffff1673ffffffffffffffffffffffffffffffffffffffff16815260200190815260200160002060008282540192505081905550600f60008573ffffffffffffffffffffffffffffffffffffffff1673ffffffffffffffffffffffffffffffffffffffff1681526020019081526020016000205491505092915050565b6000600f60008373ffffffffffffffffffffffffffffffffffffffff1673ffffffffffffffffffffffffffffffffffffffff168152602001908152602001600020549050919050565b600080600160003373ffffffffffffffffffffffffffffffffffffffff1673ffffffffffffffffffffffffffffffffffffffff16815260200190815260200160002060009054906101000a900460ff16905080612bcc576040517f08c379a000000000000000000000000000000000000000000000000000000000815260040180806020018281038252601f8152602001807f756e617574686f72697a65642061636365737320746f20636f6e74726163740081525060200191505060405180910390fd5b6000612c1b88888080601f016020809104026020016040519081016040528093929190818152602001838380828437600081840152601f19601f820116905080830192505050505050506137d5565b90506000151581151514612c97576040517f08c379a00000000000000000000000000000000000000000000000000000000081526004018080602001828103825260208152602001807f47726f7570206e616d652068617320616c7265616479206265656e207573656481525060200191505060405180910390fd5b6001600c60008282540192505081905550612cb0613b23565b6040518060a00160405280600115158152602001600c5481526020018a8a8080601f016020809104026020016040519081016040528093929190818152602001838380828437600081840152601f19601f82011690508083019250505050505050815260200188888080601f016020809104026020016040519081016040528093929190818152602001838380828437600081840152601f19601f8201169050808301925050505050505081526020018673ffffffffffffffffffffffffffffffffffffffff16815250905060006002805490509050612d8e613a1c565b6040518060400160405280600115158152602001838152509050600283908060018154018082558091505060019003906000526020600020906005020160009091909190915060008201518160000160006101000a81548160ff021916908315150217905550602082015181600101556040820151816002019080519060200190612e1a929190613b6a565b506060820151816003019080519060200190612e37929190613b6a565b5060808201518160040160006101000a81548173ffffffffffffffffffffffffffffffffffffffff021916908373ffffffffffffffffffffffffffffffffffffffff16021790555050508060036000600c54815260200190815260200160002060008201518160000160006101000a81548160ff021916908315150217905550602082015181600101559050508060058c8c604051808383808284378083019250505092505050908152602001604051809103902060008201518160000160006101000a81548160ff02191690831515021790555060208201518160010155905050600460008873ffffffffffffffffffffffffffffffffffffffff1673ffffffffffffffffffffffffffffffffffffffff16815260200190815260200160002081908060018154018082558091505060019003906000526020600020906002020160009091909190915060008201518160000160006101000a81548160ff021916908315150217905550602082015181600101555050600c549550505050505095945050505050565b6000600e54905090565b600080612fd6613a38565b60068481548110612fe357fe5b90600052602060002090600202016040518060600160405290816000820160009054906101000a900460ff161515151581526020016000820160019054906101000a900473ffffffffffffffffffffffffffffffffffffffff1673ffffffffffffffffffffffffffffffffffffffff1673ffffffffffffffffffffffffffffffffffffffff1681526020016001820154815250509050806020015181604001519250925050915091565b600080613098613a1c565b6007600086815260200190815260200160002084815481106130b657fe5b90600052602060002090600202016040518060400160405290816000820160009054906101000a900460ff1615151515815260200160018201548152505090508060000151816020015192509250509250929050565b600080613117613a1c565b600860008673ffffffffffffffffffffffffffffffffffffffff1673ffffffffffffffffffffffffffffffffffffffff168152602001908152602001600020848154811061316157fe5b90600052602060002090600202016040518060400160405290816000820160009054906101000a900460ff1615151515815260200160018201548152505090508060000151816020015192509250509250929050565b6000809054906101000a900473ffffffffffffffffffffffffffffffffffffffff1673ffffffffffffffffffffffffffffffffffffffff163373ffffffffffffffffffffffffffffffffffffffff1614613279576040517f08c379a000000000000000000000000000000000000000000000000000000000815260040180806020018281038252601f8152602001807f756e617574686f72697a65642061636365737320746f20636f6e74726163740081525060200191505060405180910390fd5b600073ffffffffffffffffffffffffffffffffffffffff168173ffffffffffffffffffffffffffffffffffffffff16146132ee57806000806101000a81548173ffffffffffffffffffffffffffffffffffffffff021916908373ffffffffffffffffffffffffffffffffffffffff1602179055505b50565b6000806009600085815260200190815260200160002060008473ffffffffffffffffffffffffffffffffffffffff1673ffffffffffffffffffffffffffffffffffffffff16815260200190815260200160002060000160009054906101000a900460ff1690508091505092915050565b600080600b60008473ffffffffffffffffffffffffffffffffffffffff1673ffffffffffffffffffffffffffffffffffffffff16815260200190815260200160002060000160009054906101000a900460ff16905080156133c65760019150506133cc565b60009150505b919050565b600080600b60008473ffffffffffffffffffffffffffffffffffffffff1673ffffffffffffffffffffffffffffffffffffffff16815260200190815260200160002060000160009054906101000a900460ff16905060011515811515146134a0576040517f08c379a00000000000000000000000000000000000000000000000000000000081526004018080602001828103825260108152602001807f4d656d626572206e6f7420666f756e640000000000000000000000000000000081525060200191505060405180910390fd5b6000600b60008573ffffffffffffffffffffffffffffffffffffffff1673ffffffffffffffffffffffffffffffffffffffff1681526020019081526020016000206001015490508092505050919050565b6000606080600080600160003373ffffffffffffffffffffffffffffffffffffffff1673ffffffffffffffffffffffffffffffffffffffff16815260200190815260200160002060009054906101000a900460ff169050806135bb576040517f08c379a000000000000000000000000000000000000000000000000000000000815260040180806020018281038252601f8152602001807f756e617574686f72697a65642061636365737320746f20636f6e74726163740081525060200191505060405180910390fd5b6000600280549050905086811161363a576040517f08c379a000000000000000000000000000000000000000000000000000000000815260040180806020018281038252600c8152602001807f4f7574206f662072616e6765000000000000000000000000000000000000000081525060200191505060405180910390fd5b60006002888154811061364957fe5b90600052602060002090600502019050806001015481600201826003018360040160009054906101000a900473ffffffffffffffffffffffffffffffffffffffff16828054600181600116156101000203166002900480601f0160208091040260200160405190810160405280929190818152602001828054600181600116156101000203166002900480156137205780601f106136f557610100808354040283529160200191613720565b820191906000526020600020905b81548152906001019060200180831161370357829003601f168201915b50505050509250818054600181600116156101000203166002900480601f0160208091040260200160405190810160405280929190818152602001828054600181600116156101000203166002900480156137bc5780601f10613791576101008083540402835291602001916137bc565b820191906000526020600020905b81548152906001019060200180831161379f57829003601f168201915b5050505050915096509650965096505050509193509193565b6000806005836040518082805190602001908083835b6020831061380e57805182526020820191506020810190506020830392506137eb565b6001836020036101000a038019825116818451168082178552505050505050905001915050908152602001604051809103902060000160009054906101000a900460ff16905080915050919050565b600080600160003373ffffffffffffffffffffffffffffffffffffffff1673ffffffffffffffffffffffffffffffffffffffff16815260200190815260200160002060009054906101000a900460ff16905080613922576040517f08c379a000000000000000000000000000000000000000000000000000000000815260040180806020018281038252601f8152602001807f756e617574686f72697a65642061636365737320746f20636f6e74726163740081525060200191505060405180910390fd5b60006003600085815260200190815260200160002060000160009054906101000a900460ff16905060011515811515146139c4576040517f08c379a000000000000000000000000000000000000000000000000000000000815260040180806020018281038252600f8152602001807f47726f7570206e6f7420666f756e64000000000000000000000000000000000081525060200191505060405180910390fd5b600060036000868152602001908152602001600020600101549050809350505050919050565b6000806003600084815260200190815260200160002060000160009054906101000a900460ff16905080915050919050565b6040518060400160405280600015158152602001600081525090565b6040518060600160405280600015158152602001600073ffffffffffffffffffffffffffffffffffffffff168152602001600081525090565b6040518060400160405280600015158152602001600073ffffffffffffffffffffffffffffffffffffffff1681525090565b828054600181600116156101000203166002900490600052602060002090601f016020900481019282601f10613ae457803560ff1916838001178555613b12565b82800160010185558215613b12579182015b82811115613b11578235825591602001919060010190613af6565b5b509050613b1f9190613bea565b5090565b6040518060a00160405280600015158152602001600081526020016060815260200160608152602001600073ffffffffffffffffffffffffffffffffffffffff1681525090565b828054600181600116156101000203166002900490600052602060002090601f016020900481019282601f10613bab57805160ff1916838001178555613bd9565b82800160010185558215613bd9579182015b82811115613bd8578251825591602001919060010190613bbd565b5b509050613be69190613bea565b5090565b613c0c91905b80821115613c08576000816000905550600101613bf0565b5090565b9056fe6465706f7369742062616c616e6365206f7665726472616674206973206e6f7420616c6c6f776564a2646970667358221220886a023520abf92ada3d5e31eecaee525f7af919be87ea1094750d47df22336064736f6c63430006060033",
  "immutableReferences": {},
  "source": "pragma solidity ^0.6.6;\n\nimport \"./IGroupSchema.sol\";\nimport \"./StorageOwners.sol\";\n\ncontract Groups is IGroupSchema, StorageOwners {\n    // list of group records\n    Group[] private Groups;\n    //Mapping that enables ease of traversal of the group records\n    mapping(uint256 => RecordIndex) private GroupIndexer;\n\n    // Mapping that enables ease of traversal of groups created by an addressor\n    mapping(address => RecordIndex[]) private GroupForCreatorIndexer;\n\n    // indexes a group location using the group name\n    mapping(string => RecordIndex) private GroupIndexerByName;\n\n    GroupMember[] GroupMembers;\n\n    //Mapping of a groups members. Key is the group id,\n    mapping(uint256 => RecordIndex[]) private GroupMembersIndexer;\n\n    mapping(address => RecordIndex[]) private GroupMembersIndexerByDepositor;\n    mapping(uint256 => mapping(address => RecordIndex))\n        private GroupMembersDeepIndexer;\n\n    // list of group records\n    Member[] private Members;\n\n    //Mapping that enables ease of traversal of the member records. key is the member address\n    mapping(address => RecordIndex) private MemberIndexer;\n\n    uint256 lastGroupId;\n\n    address[] tokenAddresses;\n    uint256 totalEthersDeposited;\n    mapping(address => uint256) totalTokensDeposited;\n\n    function getLengthOfTokenAddressesUsedInDeposit()\n        external\n        view\n        returns (uint256)\n    {\n        return tokenAddresses.length;\n    }\n\n    function incrementTokenDeposit(address tokenAddress, uint256 amount)\n        external\n        onlyStorageOracle\n        returns (uint256)\n    {\n        if (totalTokensDeposited[tokenAddress] == 0) {\n            tokenAddresses.push(tokenAddress);\n        }\n        totalTokensDeposited[tokenAddress] += amount;\n        return totalTokensDeposited[tokenAddress];\n    }\n\n    function decrementTokenDeposit(address tokenAddress, uint256 amount)\n        external\n        onlyStorageOracle\n        returns (uint256)\n    {\n        uint256 currentAmount = totalTokensDeposited[tokenAddress];\n        require(\n            currentAmount >= amount,\n            \"deposit balance overdraft is not allowed\"\n        );\n        totalTokensDeposited[tokenAddress] -= amount;\n        return totalTokensDeposited[tokenAddress];\n    }\n\n    function getTokenDeposit(address tokenAddress)\n        external\n        view\n        returns (uint256)\n    {\n        return totalTokensDeposited[tokenAddress];\n    }\n\n    function incrementEtherDeposit(uint256 amount)\n        external\n        onlyStorageOracle\n        returns (uint256)\n    {\n        totalEthersDeposited += amount;\n        return totalEthersDeposited;\n    }\n\n    function decrementEtherDeposit(uint256 amount)\n        external\n        onlyStorageOracle\n        returns (uint256)\n    {\n        require(\n            totalEthersDeposited >= amount,\n            \"deposit balance overdraft is not allowed\"\n        );\n        totalEthersDeposited -= amount;\n        return totalEthersDeposited;\n    }\n\n    function getEtherDeposit() external view returns (uint256) {\n        return totalEthersDeposited;\n    }\n\n    function createMember(address payable depositor)\n        external\n        onlyStorageOracle\n    {\n        Member memory member = Member(true, depositor);\n\n        bool exist = _doesMemberExist(depositor);\n\n        require(exist == false, \"Member already exists\");\n\n        RecordIndex memory recordIndex = RecordIndex(true, Members.length);\n\n        Members.push(member);\n        MemberIndexer[depositor] = recordIndex;\n    }\n\n    function getMember(address _address) external view returns (address) {\n        uint256 index = _getMemberIndex(_address);\n        Member memory member = Members[index];\n\n        return (member._address);\n    }\n\n    function _getMemberIndex(address _address) internal view returns (uint256) {\n        bool doesMemberExist = MemberIndexer[_address].exists;\n        require(doesMemberExist == true, \"Member not found\");\n\n        uint256 index = MemberIndexer[_address].index;\n        return index;\n    }\n\n    function createGroup(\n        string calldata name,\n        string calldata symbol,\n        address groupCreator\n    ) external onlyStorageOracle returns (uint256) {\n        bool exist = _doesGroupExist(name);\n        require(exist == false, \"Group name has already been used\");\n\n        lastGroupId += 1;\n        Group memory group = Group(\n            true,\n            lastGroupId,\n            name,\n            symbol,\n            payable(groupCreator)\n        );\n        uint256 index = Groups.length;\n        RecordIndex memory recordIndex = RecordIndex(true, index);\n        Groups.push(group);\n        GroupIndexer[lastGroupId] = recordIndex;\n        GroupIndexerByName[name] = recordIndex;\n        GroupForCreatorIndexer[groupCreator].push(recordIndex);\n\n        return lastGroupId;\n    }\n\n    function updateGroup(\n        uint256 id,\n        string calldata name,\n        string calldata symbol,\n        address payable creatorAddress\n    ) external onlyStorageOracle {\n        uint256 index = _getGroupIndex(id);\n        Groups[index].name = name;\n        Groups[index].symbol = symbol;\n        Groups[index].creatorAddress = creatorAddress;\n    }\n\n    function doesGroupExist(uint256 groupId) external view returns (bool) {\n        return _doesGroupExist(groupId);\n    }\n\n    function _doesGroupExist(uint256 groupId) internal view returns (bool) {\n        bool groupExist = GroupIndexer[groupId].exists;\n\n        return groupExist;\n    }\n\n    function doesGroupExist(string calldata groupName)\n        external\n        view\n        returns (bool)\n    {\n        return _doesGroupExist(groupName);\n    }\n\n    function _doesGroupExist(string memory groupName)\n        internal\n        view\n        returns (bool)\n    {\n        bool groupExist = GroupIndexerByName[groupName].exists;\n\n        return groupExist;\n    }\n\n    function doesMemberExist(address depositor) external view returns (bool) {\n        return _doesMemberExist(depositor);\n    }\n\n    function _doesMemberExist(address depositor) internal view returns (bool) {\n        bool exist = MemberIndexer[depositor].exists;\n\n        if (exist) return true;\n        else return false;\n    }\n\n    function createGroupMember(uint256 groupId, address payable depositor)\n        external\n        onlyStorageOracle\n    {\n        bool exist = _doesGroupMemberExist(groupId, depositor);\n        require(exist == false, \"Group member exists\");\n\n        RecordIndex memory recordIndex = RecordIndex(true, GroupMembers.length);\n\n        GroupMember memory groupMember = GroupMember(true, depositor, groupId);\n\n        GroupMembersIndexer[groupId].push(recordIndex);\n        GroupMembersIndexerByDepositor[depositor].push(recordIndex);\n        GroupMembersDeepIndexer[groupId][depositor] = recordIndex;\n        GroupMembers.push(groupMember);\n    }\n\n    function getGroupMember(uint256 index)\n        external\n        view\n        returns (address payable _address, uint256 groupId)\n    {\n        GroupMember memory groupMember = GroupMembers[index];\n        return (groupMember._address, groupMember.groupId);\n    }\n\n    function getGroupMembersDeepIndexer(uint256 groupId, address depositor)\n        external\n        view\n        returns (bool exists, uint256 index)\n    {\n\n            RecordIndex memory recordIndex\n         = GroupMembersDeepIndexer[groupId][depositor];\n        return (recordIndex.exists, recordIndex.index);\n    }\n\n    function getRecordIndexLengthForGroupMembersIndexer(uint256 groupId)\n        external\n        view\n        returns (uint256)\n    {\n        return GroupMembersIndexer[groupId].length;\n    }\n\n    function getRecordIndexLengthForGroupMembersIndexerByDepositor(\n        address depositor\n    ) external view returns (uint256) {\n        return GroupMembersIndexerByDepositor[depositor].length;\n    }\n\n    function getGroupMembersIndexer(uint256 groupId, uint256 indexerLocation)\n        external\n        view\n        returns (bool exist, uint256 index)\n    {\n\n            RecordIndex memory recordIndex\n         = GroupMembersIndexer[groupId][indexerLocation];\n        return (recordIndex.exists, recordIndex.index);\n    }\n\n    function getGroupMembersIndexerByDepositor(\n        address depositor,\n        uint256 indexerLocation\n    ) external view returns (bool exist, uint256 index) {\n\n            RecordIndex memory recordIndex\n         = GroupMembersIndexerByDepositor[depositor][indexerLocation];\n        return (recordIndex.exists, recordIndex.index);\n    }\n\n    function doesGroupMemberExist(uint256 groupId, address depositor)\n        external\n        view\n        returns (bool)\n    {\n        return _doesGroupMemberExist(groupId, depositor);\n    }\n\n    function _doesGroupMemberExist(uint256 groupId, address depositor)\n        internal\n        view\n        returns (bool)\n    {\n        bool exist = GroupMembersDeepIndexer[groupId][depositor].exists;\n        return exist;\n    }\n\n    function getGroupIndexer(uint256 groupId)\n        external\n        view\n        returns (bool exist, uint256 index)\n    {\n        RecordIndex memory recordIndex = GroupIndexer[groupId];\n        return (recordIndex.exists, recordIndex.index);\n    }\n\n    function getRecordIndexLengthForCreator(address groupCreator)\n        external\n        view\n        returns (uint256)\n    {\n        return GroupForCreatorIndexer[groupCreator].length;\n    }\n\n    function getGroupForCreatorIndexer(\n        address groupCreator,\n        uint256 indexerLocation\n    ) external view returns (bool exist, uint256 index) {\n\n            RecordIndex memory recordIndex\n         = GroupForCreatorIndexer[groupCreator][indexerLocation];\n        return (recordIndex.exists, recordIndex.index);\n    }\n\n    function getGroupIndexerByName(string calldata groupName)\n        external\n        view\n        returns (bool exist, uint256 index)\n    {\n        RecordIndex memory recordIndex = GroupIndexerByName[groupName];\n        return (recordIndex.exists, recordIndex.index);\n    }\n\n    function getGroupById(uint256 groupId)\n        external\n        view\n        onlyStorageOracle\n        returns (\n            uint256,\n            string memory,\n            string memory,\n            address payable\n        )\n    {\n        uint256 index = _getGroupIndex(groupId);\n\n        Group storage group = Groups[index];\n        return (group.id, group.name, group.symbol, group.creatorAddress);\n    }\n\n    function getGroupByIndex(uint256 index)\n        external\n        view\n        onlyStorageOracle\n        returns (\n            uint256,\n            string memory,\n            string memory,\n            address payable\n        )\n    {\n        return _getGroupByIndex(index);\n    }\n\n    function _getGroupByIndex(uint256 index)\n        internal\n        view\n        onlyStorageOracle\n        returns (\n            uint256,\n            string memory,\n            string memory,\n            address payable\n        )\n    {\n        uint256 length = Groups.length;\n        require(length > index, \"Out of range\");\n        Group storage group = Groups[index];\n        return (group.id, group.name, group.symbol, group.creatorAddress);\n    }\n\n    function getGroupIndex(uint256 groupId)\n        external\n        view\n        onlyStorageOracle\n        returns (uint256)\n    {\n        return _getGroupIndex(groupId);\n    }\n\n    function _getGroupIndex(uint256 groupId)\n        internal\n        view\n        onlyStorageOracle\n        returns (uint256)\n    {\n        bool doesGroupExist = GroupIndexer[groupId].exists;\n        require(doesGroupExist == true, \"Group not found\");\n        uint256 index = GroupIndexer[groupId].index;\n        return index;\n    }\n}\n",
  "sourcePath": "/Users/njokuscript/Desktop/programming/esusu/contracts/Groups.sol",
  "compiler": {
    "name": "solc",
    "version": "0.6.6+commit.6c089d02.Emscripten.clang"
  },
  "schemaVersion": "3.2.5",
  "updatedAt": "2020-10-22T09:18:35.606Z",
  "devdoc": {
    "methods": {}
  },
  "userdoc": {
    "methods": {}
  }
}