{
  "contractName": "Groups",
  "abi": [
    {
      "inputs": [
        {
          "internalType": "address",
          "name": "oracle",
          "type": "address"
        }
      ],
      "name": "activateStorageOracle",
      "outputs": [],
      "stateMutability": "nonpayable",
      "type": "function"
    },
    {
      "inputs": [
        {
          "internalType": "address",
          "name": "oracle",
          "type": "address"
        }
      ],
      "name": "deactivateStorageOracle",
      "outputs": [],
      "stateMutability": "nonpayable",
      "type": "function"
    },
    {
      "inputs": [
        {
          "internalType": "address",
          "name": "newOracle",
          "type": "address"
        }
      ],
      "name": "reAssignStorageOracle",
      "outputs": [],
      "stateMutability": "nonpayable",
      "type": "function"
    },
    {
      "inputs": [
        {
          "internalType": "address payable",
          "name": "newOwner",
          "type": "address"
        }
      ],
      "name": "transferOwnership",
      "outputs": [],
      "stateMutability": "nonpayable",
      "type": "function"
    },
    {
      "inputs": [],
      "name": "getLengthOfTokenAddressesUsedInDeposit",
      "outputs": [
        {
          "internalType": "uint256",
          "name": "",
          "type": "uint256"
        }
      ],
      "stateMutability": "view",
      "type": "function",
      "constant": true
    },
    {
      "inputs": [
        {
          "internalType": "address",
          "name": "tokenAddress",
          "type": "address"
        },
        {
          "internalType": "uint256",
          "name": "amount",
          "type": "uint256"
        }
      ],
      "name": "incrementTokenDeposit",
      "outputs": [
        {
          "internalType": "uint256",
          "name": "",
          "type": "uint256"
        }
      ],
      "stateMutability": "nonpayable",
      "type": "function"
    },
    {
      "inputs": [
        {
          "internalType": "address",
          "name": "tokenAddress",
          "type": "address"
        },
        {
          "internalType": "uint256",
          "name": "amount",
          "type": "uint256"
        }
      ],
      "name": "decrementTokenDeposit",
      "outputs": [
        {
          "internalType": "uint256",
          "name": "",
          "type": "uint256"
        }
      ],
      "stateMutability": "nonpayable",
      "type": "function"
    },
    {
      "inputs": [
        {
          "internalType": "address",
          "name": "tokenAddress",
          "type": "address"
        }
      ],
      "name": "getTokenDeposit",
      "outputs": [
        {
          "internalType": "uint256",
          "name": "",
          "type": "uint256"
        }
      ],
      "stateMutability": "view",
      "type": "function",
      "constant": true
    },
    {
      "inputs": [
        {
          "internalType": "uint256",
          "name": "amount",
          "type": "uint256"
        }
      ],
      "name": "incrementEtherDeposit",
      "outputs": [
        {
          "internalType": "uint256",
          "name": "",
          "type": "uint256"
        }
      ],
      "stateMutability": "nonpayable",
      "type": "function"
    },
    {
      "inputs": [
        {
          "internalType": "uint256",
          "name": "amount",
          "type": "uint256"
        }
      ],
      "name": "decrementEtherDeposit",
      "outputs": [
        {
          "internalType": "uint256",
          "name": "",
          "type": "uint256"
        }
      ],
      "stateMutability": "nonpayable",
      "type": "function"
    },
    {
      "inputs": [],
      "name": "getEtherDeposit",
      "outputs": [
        {
          "internalType": "uint256",
          "name": "",
          "type": "uint256"
        }
      ],
      "stateMutability": "view",
      "type": "function",
      "constant": true
    },
    {
      "inputs": [
        {
          "internalType": "address payable",
          "name": "depositor",
          "type": "address"
        }
      ],
      "name": "createMember",
      "outputs": [],
      "stateMutability": "nonpayable",
      "type": "function"
    },
    {
      "inputs": [
        {
          "internalType": "address",
          "name": "_address",
          "type": "address"
        }
      ],
      "name": "getMember",
      "outputs": [
        {
          "internalType": "address",
          "name": "",
          "type": "address"
        }
      ],
      "stateMutability": "view",
      "type": "function",
      "constant": true
    },
    {
      "inputs": [
        {
          "internalType": "string",
          "name": "name",
          "type": "string"
        },
        {
          "internalType": "string",
          "name": "symbol",
          "type": "string"
        },
        {
          "internalType": "address",
          "name": "groupCreator",
          "type": "address"
        }
      ],
      "name": "createGroup",
      "outputs": [
        {
          "internalType": "uint256",
          "name": "",
          "type": "uint256"
        }
      ],
      "stateMutability": "nonpayable",
      "type": "function"
    },
    {
      "inputs": [
        {
          "internalType": "uint256",
          "name": "id",
          "type": "uint256"
        },
        {
          "internalType": "string",
          "name": "name",
          "type": "string"
        },
        {
          "internalType": "string",
          "name": "symbol",
          "type": "string"
        },
        {
          "internalType": "address payable",
          "name": "creatorAddress",
          "type": "address"
        }
      ],
      "name": "updateGroup",
      "outputs": [],
      "stateMutability": "nonpayable",
      "type": "function"
    },
    {
      "inputs": [
        {
          "internalType": "string",
          "name": "groupName",
          "type": "string"
        }
      ],
      "name": "doesGroupExist",
      "outputs": [
        {
          "internalType": "bool",
          "name": "",
          "type": "bool"
        }
      ],
      "stateMutability": "view",
      "type": "function",
      "constant": true
    },
    {
      "inputs": [
        {
          "internalType": "uint256",
          "name": "groupId",
          "type": "uint256"
        }
      ],
      "name": "doesGroupExist",
      "outputs": [
        {
          "internalType": "bool",
          "name": "",
          "type": "bool"
        }
      ],
      "stateMutability": "view",
      "type": "function",
      "constant": true
    },
    {
      "inputs": [
        {
          "internalType": "address",
          "name": "depositor",
          "type": "address"
        }
      ],
      "name": "doesMemberExist",
      "outputs": [
        {
          "internalType": "bool",
          "name": "",
          "type": "bool"
        }
      ],
      "stateMutability": "view",
      "type": "function",
      "constant": true
    },
    {
      "inputs": [
        {
          "internalType": "uint256",
          "name": "groupId",
          "type": "uint256"
        },
        {
          "internalType": "address payable",
          "name": "depositor",
          "type": "address"
        }
      ],
      "name": "createGroupMember",
      "outputs": [],
      "stateMutability": "nonpayable",
      "type": "function"
    },
    {
      "inputs": [
        {
          "internalType": "uint256",
          "name": "index",
          "type": "uint256"
        }
      ],
      "name": "getGroupMember",
      "outputs": [
        {
          "internalType": "address payable",
          "name": "_address",
          "type": "address"
        },
        {
          "internalType": "uint256",
          "name": "groupId",
          "type": "uint256"
        }
      ],
      "stateMutability": "view",
      "type": "function",
      "constant": true
    },
    {
      "inputs": [
        {
          "internalType": "uint256",
          "name": "groupId",
          "type": "uint256"
        },
        {
          "internalType": "address",
          "name": "depositor",
          "type": "address"
        }
      ],
      "name": "getGroupMembersDeepIndexer",
      "outputs": [
        {
          "internalType": "bool",
          "name": "exists",
          "type": "bool"
        },
        {
          "internalType": "uint256",
          "name": "index",
          "type": "uint256"
        }
      ],
      "stateMutability": "view",
      "type": "function",
      "constant": true
    },
    {
      "inputs": [
        {
          "internalType": "uint256",
          "name": "groupId",
          "type": "uint256"
        }
      ],
      "name": "getRecordIndexLengthForGroupMembersIndexer",
      "outputs": [
        {
          "internalType": "uint256",
          "name": "",
          "type": "uint256"
        }
      ],
      "stateMutability": "view",
      "type": "function",
      "constant": true
    },
    {
      "inputs": [
        {
          "internalType": "address",
          "name": "depositor",
          "type": "address"
        }
      ],
      "name": "getRecordIndexLengthForGroupMembersIndexerByDepositor",
      "outputs": [
        {
          "internalType": "uint256",
          "name": "",
          "type": "uint256"
        }
      ],
      "stateMutability": "view",
      "type": "function",
      "constant": true
    },
    {
      "inputs": [
        {
          "internalType": "uint256",
          "name": "groupId",
          "type": "uint256"
        },
        {
          "internalType": "uint256",
          "name": "indexerLocation",
          "type": "uint256"
        }
      ],
      "name": "getGroupMembersIndexer",
      "outputs": [
        {
          "internalType": "bool",
          "name": "exist",
          "type": "bool"
        },
        {
          "internalType": "uint256",
          "name": "index",
          "type": "uint256"
        }
      ],
      "stateMutability": "view",
      "type": "function",
      "constant": true
    },
    {
      "inputs": [
        {
          "internalType": "address",
          "name": "depositor",
          "type": "address"
        },
        {
          "internalType": "uint256",
          "name": "indexerLocation",
          "type": "uint256"
        }
      ],
      "name": "getGroupMembersIndexerByDepositor",
      "outputs": [
        {
          "internalType": "bool",
          "name": "exist",
          "type": "bool"
        },
        {
          "internalType": "uint256",
          "name": "index",
          "type": "uint256"
        }
      ],
      "stateMutability": "view",
      "type": "function",
      "constant": true
    },
    {
      "inputs": [
        {
          "internalType": "uint256",
          "name": "groupId",
          "type": "uint256"
        },
        {
          "internalType": "address",
          "name": "depositor",
          "type": "address"
        }
      ],
      "name": "doesGroupMemberExist",
      "outputs": [
        {
          "internalType": "bool",
          "name": "",
          "type": "bool"
        }
      ],
      "stateMutability": "view",
      "type": "function",
      "constant": true
    },
    {
      "inputs": [
        {
          "internalType": "uint256",
          "name": "groupId",
          "type": "uint256"
        }
      ],
      "name": "getGroupIndexer",
      "outputs": [
        {
          "internalType": "bool",
          "name": "exist",
          "type": "bool"
        },
        {
          "internalType": "uint256",
          "name": "index",
          "type": "uint256"
        }
      ],
      "stateMutability": "view",
      "type": "function",
      "constant": true
    },
    {
      "inputs": [
        {
          "internalType": "address",
          "name": "groupCreator",
          "type": "address"
        }
      ],
      "name": "getRecordIndexLengthForCreator",
      "outputs": [
        {
          "internalType": "uint256",
          "name": "",
          "type": "uint256"
        }
      ],
      "stateMutability": "view",
      "type": "function",
      "constant": true
    },
    {
      "inputs": [
        {
          "internalType": "address",
          "name": "groupCreator",
          "type": "address"
        },
        {
          "internalType": "uint256",
          "name": "indexerLocation",
          "type": "uint256"
        }
      ],
      "name": "getGroupForCreatorIndexer",
      "outputs": [
        {
          "internalType": "bool",
          "name": "exist",
          "type": "bool"
        },
        {
          "internalType": "uint256",
          "name": "index",
          "type": "uint256"
        }
      ],
      "stateMutability": "view",
      "type": "function",
      "constant": true
    },
    {
      "inputs": [
        {
          "internalType": "string",
          "name": "groupName",
          "type": "string"
        }
      ],
      "name": "getGroupIndexerByName",
      "outputs": [
        {
          "internalType": "bool",
          "name": "exist",
          "type": "bool"
        },
        {
          "internalType": "uint256",
          "name": "index",
          "type": "uint256"
        }
      ],
      "stateMutability": "view",
      "type": "function",
      "constant": true
    },
    {
      "inputs": [
        {
          "internalType": "uint256",
          "name": "groupId",
          "type": "uint256"
        }
      ],
      "name": "getGroupById",
      "outputs": [
        {
          "internalType": "uint256",
          "name": "",
          "type": "uint256"
        },
        {
          "internalType": "string",
          "name": "",
          "type": "string"
        },
        {
          "internalType": "string",
          "name": "",
          "type": "string"
        },
        {
          "internalType": "address payable",
          "name": "",
          "type": "address"
        }
      ],
      "stateMutability": "view",
      "type": "function",
      "constant": true
    },
    {
      "inputs": [
        {
          "internalType": "uint256",
          "name": "index",
          "type": "uint256"
        }
      ],
      "name": "getGroupByIndex",
      "outputs": [
        {
          "internalType": "uint256",
          "name": "",
          "type": "uint256"
        },
        {
          "internalType": "string",
          "name": "",
          "type": "string"
        },
        {
          "internalType": "string",
          "name": "",
          "type": "string"
        },
        {
          "internalType": "address payable",
          "name": "",
          "type": "address"
        }
      ],
      "stateMutability": "view",
      "type": "function",
      "constant": true
    },
    {
      "inputs": [
        {
          "internalType": "uint256",
          "name": "groupId",
          "type": "uint256"
        }
      ],
      "name": "getGroupIndex",
      "outputs": [
        {
          "internalType": "uint256",
          "name": "",
          "type": "uint256"
        }
      ],
      "stateMutability": "view",
      "type": "function",
      "constant": true
    }
  ],
  "bytecode": "0x608060405260008054600160a060020a03191633179055612274806100256000396000f3fe608060405234801561001057600080fd5b5060043610610218576000357c01000000000000000000000000000000000000000000000000000000009004806348cf9e5c1161013757806381ea68fe116100ca578063d1f4427811610099578063d1f4427814610945578063d73c9de41461094d578063daf0cf431461098d578063e824f2b5146109b0578063f2fde38b146109dc57610218565b806381ea68fe146108025780638c224826146108285780638edb1a06146108545780639a2597981461087a57610218565b80636b2c46d5116101065780636b2c46d51461079a5780636cc29ea0146107b75780636f583ba6146107d457806380abc21a146107fa57610218565b806348cf9e5c1461066857806352bc00c4146106855780635e82c389146106a25780636041fc881461077457610218565b80632bd10bbc116101af5780633ac179f81161017e5780633ac179f8146105925780634448d5e1146105af578063458a8c07146105db57806348c889231461064b57610218565b80632bd10bbc146103f65780632e367f9f146104255780633037faf1146104515780633525e9c41461056c57610218565b80630fdf80ed116101eb5780630fdf80ed14610342578063165301a5146103685780632124d5291461038e5780632ada2596146103b457610218565b806308099b5d1461021d57806309080945146102a85780630c202741146102d45780630d15c07d14610302575b600080fd5b61028d6004803603602081101561023357600080fd5b81019060208101813564010000000081111561024e57600080fd5b82018360208201111561026057600080fd5b8035906020019184600183028401116401000000008311171561028257600080fd5b509092509050610a02565b60408051921515835260208301919091528051918290030190f35b61028d600480360360408110156102be57600080fd5b5080359060200135600160a060020a0316610a5b565b610300600480360360408110156102ea57600080fd5b5080359060200135600160a060020a0316610ab2565b005b61032e6004803603604081101561031857600080fd5b5080359060200135600160a060020a0316610ce7565b604080519115158252519081900360200190f35b6103006004803603602081101561035857600080fd5b5035600160a060020a0316610cfa565b61032e6004803603602081101561037e57600080fd5b5035600160a060020a0316610d89565b610300600480360360208110156103a457600080fd5b5035600160a060020a0316610d9c565b6103da600480360360208110156103ca57600080fd5b5035600160a060020a0316610f35565b60408051600160a060020a039092168252519081900360200190f35b6104136004803603602081101561040c57600080fd5b5035610f93565b60408051918252519081900360200190f35b6104136004803603604081101561043b57600080fd5b50600160a060020a03813516906020013561103e565b61046e6004803603602081101561046757600080fd5b5035611119565b60405180858152602001806020018060200184600160a060020a0316600160a060020a03168152602001838103835286818151815260200191508051906020019080838360005b838110156104cd5781810151838201526020016104b5565b50505050905090810190601f1680156104fa5780820380516001836020036101000a031916815260200191505b50838103825285518152855160209182019187019080838360005b8381101561052d578181015183820152602001610515565b50505050905090810190601f16801561055a5780820380516001836020036101000a031916815260200191505b50965050505050505060405180910390f35b6104136004803603602081101561058257600080fd5b5035600160a060020a031661118f565b610413600480360360208110156105a857600080fd5b50356111aa565b61028d600480360360408110156105c557600080fd5b50600160a060020a0381351690602001356111bc565b61032e600480360360208110156105f157600080fd5b81019060208101813564010000000081111561060c57600080fd5b82018360208201111561061e57600080fd5b8035906020019184600183028401116401000000008311171561064057600080fd5b50909250905061122a565b61028d6004803603602081101561066157600080fd5b503561126b565b6104136004803603602081101561067e57600080fd5b50356112ad565b6104136004803603602081101561069b57600080fd5b503561130c565b610300600480360360808110156106b857600080fd5b813591908101906040810160208201356401000000008111156106da57600080fd5b8201836020820111156106ec57600080fd5b8035906020019184600183028401116401000000008311171561070e57600080fd5b91939092909160208101903564010000000081111561072c57600080fd5b82018360208201111561073e57600080fd5b8035906020019184600183028401116401000000008311171561076057600080fd5b919350915035600160a060020a0316611373565b6103006004803603602081101561078a57600080fd5b5035600160a060020a031661147f565b61032e600480360360208110156107b057600080fd5b50356114f0565b61046e600480360360208110156107cd57600080fd5b50356114fb565b610300600480360360208110156107ea57600080fd5b5035600160a060020a03166116e5565b61041361175c565b6104136004803603602081101561081857600080fd5b5035600160a060020a0316611763565b6104136004803603604081101561083e57600080fd5b50600160a060020a03813516906020013561177e565b6104136004803603602081101561086a57600080fd5b5035600160a060020a0316611873565b6104136004803603606081101561089057600080fd5b8101906020810181356401000000008111156108ab57600080fd5b8201836020820111156108bd57600080fd5b803590602001918460018302840111640100000000831117156108df57600080fd5b9193909290916020810190356401000000008111156108fd57600080fd5b82018360208201111561090f57600080fd5b8035906020019184600183028401116401000000008311171561093157600080fd5b919350915035600160a060020a031661188e565b610413611c19565b61096a6004803603602081101561096357600080fd5b5035611c1f565b60408051600160a060020a03909316835260208301919091528051918290030190f35b61028d600480360360408110156109a357600080fd5b5080359060200135611c87565b61028d600480360360408110156109c657600080fd5b50600160a060020a038135169060200135611cac565b610300600480360360208110156109f257600080fd5b5035600160a060020a0316611cdb565b600080610a0d61207f565b60058585604051808383808284379190910194855250506040805160209481900385018120818301909252815460ff1615158082526001909201549401849052989297509195505050505050565b600080610a6661207f565b5050506000918252600960209081526040808420600160a060020a03939093168452918152918190208151808301909252805460ff161515808352600190910154919092018190529091565b3360009081526001602052604090205460ff1680610b08576040805160e560020a62461bcd02815260206004820152601f60248201526000805160206121f7833981519152604482015290519081900360640190fd5b6000610b148484611d66565b90508015610b6c576040805160e560020a62461bcd02815260206004820152601360248201527f47726f7570206d656d6265722065786973747300000000000000000000000000604482015290519081900360640190fd5b610b7461207f565b5060408051808201909152600181526006546020820152610b93612096565b50604080516060810182526001808252600160a060020a0396871660208084018281528486018b815260008c815260078452878120805480880182559082528482208a516002928302909101805491151560ff199283161781558b87018051918a0191909155878452600887528a84208054808b0182559085528785208d519185020180549115159184169190911781558151908a01559e83526009865289832096835295909452968720975188549015159085161788559a5196840196909655600680549384018155909452915192027ff652222313e28459528d920b65115c16c04f3efc82aaedc97be59f3f377c0d3f8101805494519097166101000274ffffffffffffffffffffffffffffffffffffffff001993151594909216939093179190911617909355505090517ff652222313e28459528d920b65115c16c04f3efc82aaedc97be59f3f377c0d4090910155565b6000610cf38383611d66565b9392505050565b3360009081526001602052604090205460ff1680610d50576040805160e560020a62461bcd02815260206004820152601f60248201526000805160206121f7833981519152604482015290519081900360640190fd5b50336000908152600160208190526040808320805460ff19908116909155600160a060020a039490941683529091208054909216179055565b6000610d9482611d91565b90505b919050565b3360009081526001602052604090205460ff1680610df2576040805160e560020a62461bcd02815260206004820152601f60248201526000805160206121f7833981519152604482015290519081900360640190fd5b610dfa61207f565b506040805180820190915260018152600160a060020a03831660208201526000610e2384611d91565b90508015610e7b576040805160e560020a62461bcd02815260206004820152601560248201527f4d656d62657220616c7265616479206578697374730000000000000000000000604482015290519081900360640190fd5b610e8361207f565b50506040805180820182526001808252600a805460208085018281528285018455600093845287517fc65a7bb8d6351c1cf70c95a316cc6a92839c986682d98bc35f958f4883f9d2a890930180549883015160ff19998a169415159490941774ffffffffffffffffffffffffffffffffffffffff001916610100600160a060020a0395861602179055989091168252600b90529290922090518154909316921515929092178255925192019190915550565b600080610f4183611dc7565b9050610f4b61207f565b600a8281548110610f5857fe5b60009182526020918290206040805180820190915291015460ff8116151582526101009004600160a060020a03169101819052949350505050565b3360009081526001602052604081205460ff1680610fe9576040805160e560020a62461bcd02815260206004820152601f60248201526000805160206121f7833981519152604482015290519081900360640190fd5b82600e54101561102d5760405160e560020a62461bcd0281526004018080602001828103825260288152602001806122176028913960400191505060405180910390fd5b5050600e8054919091039081905590565b3360009081526001602052604081205460ff1680611094576040805160e560020a62461bcd02815260206004820152601f60248201526000805160206121f7833981519152604482015290519081900360640190fd5b600160a060020a0384166000908152600f6020526040902054838110156110ef5760405160e560020a62461bcd0281526004018080602001828103825260288152602001806122176028913960400191505060405180910390fd5b505050600160a060020a03919091166000908152600f602052604090208054919091039081905590565b336000908152600160205260408120546060908190839060ff1680611176576040805160e560020a62461bcd02815260206004820152601f60248201526000805160206121f7833981519152604482015290519081900360640190fd5b61117f86611e5d565b9450945094509450509193509193565b600160a060020a031660009081526004602052604090205490565b60009081526007602052604090205490565b6000806111c761207f565b600160a060020a03851660009081526004602052604090208054859081106111eb57fe5b600091825260209182902060408051808201909152600290920201805460ff161515808352600190910154919092018190529093509150509250929050565b6000610cf383838080601f016020809104026020016040519081016040528093929190818152602001838380828437600092019190915250611f2392505050565b60008061127661207f565b5050506000908152600360209081526040918290208251808401909352805460ff1615158084526001909101549290910182905291565b3360009081526001602052604081205460ff1680611303576040805160e560020a62461bcd02815260206004820152601f60248201526000805160206121f7833981519152604482015290519081900360640190fd5b610cf383611f90565b3360009081526001602052604081205460ff1680611362576040805160e560020a62461bcd02815260206004820152601f60248201526000805160206121f7833981519152604482015290519081900360640190fd5b5050600e8054919091019081905590565b3360009081526001602052604090205460ff16806113c9576040805160e560020a62461bcd02815260206004820152601f60248201526000805160206121f7833981519152604482015290519081900360640190fd5b60006113d488611f90565b90508686600283815481106113e557fe5b906000526020600020906005020160020191906114039291906120b6565b5084846002838154811061141357fe5b906000526020600020906005020160030191906114319291906120b6565b50826002828154811061144057fe5b906000526020600020906005020160040160006101000a815481600160a060020a030219169083600160a060020a031602179055505050505050505050565b600054600160a060020a031633146114cf576040805160e560020a62461bcd02815260206004820152601f60248201526000805160206121f7833981519152604482015290519081900360640190fd5b600160a060020a03166000908152600160205260409020805460ff19169055565b6000610d948261206a565b336000908152600160205260408120546060908190839060ff1680611558576040805160e560020a62461bcd02815260206004820152601f60248201526000805160206121f7833981519152604482015290519081900360640190fd5b600061156387611f90565b905060006002828154811061157457fe5b90600052602060002090600502019050806001015481600201826003018360040160009054906101000a9004600160a060020a0316828054600181600116156101000203166002900480601f01602080910402602001604051908101604052809291908181526020018280546001816001161561010002031660029004801561163e5780601f106116135761010080835404028352916020019161163e565b820191906000526020600020905b81548152906001019060200180831161162157829003601f168201915b5050855460408051602060026001851615610100026000190190941693909304601f8101849004840282018401909252818152959850879450925084019050828280156116cc5780601f106116a1576101008083540402835291602001916116cc565b820191906000526020600020905b8154815290600101906020018083116116af57829003601f168201915b5050505050915096509650965096505050509193509193565b600054600160a060020a03163314611735576040805160e560020a62461bcd02815260206004820152601f60248201526000805160206121f7833981519152604482015290519081900360640190fd5b600160a060020a03166000908152600160208190526040909120805460ff19169091179055565b600d545b90565b600160a060020a031660009081526008602052604090205490565b3360009081526001602052604081205460ff16806117d4576040805160e560020a62461bcd02815260206004820152601f60248201526000805160206121f7833981519152604482015290519081900360640190fd5b600160a060020a0384166000908152600f602052604090205461184a57600d80546001810182556000919091527fd7b6990105719101dabeb77144f2a3385c8033acd3af97e9423a695e81ad1eb501805473ffffffffffffffffffffffffffffffffffffffff1916600160a060020a0386161790555b600160a060020a0384166000908152600f60205260409020805484019081905591505092915050565b600160a060020a03166000908152600f602052604090205490565b3360009081526001602052604081205460ff16806118e4576040805160e560020a62461bcd02815260206004820152601f60248201526000805160206121f7833981519152604482015290519081900360640190fd5b600061192588888080601f016020809104026020016040519081016040528093929190818152602001838380828437600092019190915250611f2392505050565b9050801561197d576040805160e560020a62461bcd02815260206004820181905260248201527f47726f7570206e616d652068617320616c7265616479206265656e2075736564604482015290519081900360640190fd5b600c8054600101905561198e612134565b6040518060a00160405280600115158152602001600c5481526020018a8a8080601f016020809104026020016040519081016040528093929190818152602001838380828437600092019190915250505090825250604080516020601f8b0181900481028201810190925289815291810191908a908a9081908401838280828437600092019190915250505090825250600160a060020a038716602090910152600254909150611a3c61207f565b506040805180820182526001808252602080830185905260028054928301815560005285517f405787fa12a823e0f2b7631cc41b3ba8828b3321ca811111fa75cd3aa3bb5ace6005909302928301805460ff1916911515919091178155868201517f405787fa12a823e0f2b7631cc41b3ba8828b3321ca811111fa75cd3aa3bb5acf840155938601518051939487949093611afd937f405787fa12a823e0f2b7631cc41b3ba8828b3321ca811111fa75cd3aa3bb5ad090910192019061216e565b5060608201518051611b1991600384019160209091019061216e565b50608091909101516004909101805473ffffffffffffffffffffffffffffffffffffffff1916600160a060020a03909216919091179055600c546000908152600360209081526040918290208351815460ff191690151517815590830151600191909101555181906005908d908d908083838082843791909101948552505060408051602094819003850190208551815460ff1990811691151591909117825595850151600191820155600160a060020a039c909c166000908152600485529081208054808e0182559082529084902086516002909202018054909516901515178455505091909101519601959095555050600c54979650505050505050565b600e5490565b600080611c2a612096565b60068481548110611c3757fe5b6000918252602091829020604080516060810182526002909302909101805460ff811615158452600160a060020a0361010090910416938301849052600101549101819052909350915050915091565b600080611c9261207f565b60008581526007602052604090208054859081106111eb57fe5b600080611cb761207f565b600160a060020a03851660009081526008602052604090208054859081106111eb57fe5b600054600160a060020a03163314611d2b576040805160e560020a62461bcd02815260206004820152601f60248201526000805160206121f7833981519152604482015290519081900360640190fd5b600160a060020a03811615611d63576000805473ffffffffffffffffffffffffffffffffffffffff1916600160a060020a0383161790555b50565b6000918252600960209081526040808420600160a060020a0393909316845291905290205460ff1690565b600160a060020a0381166000908152600b602052604081205460ff168015611dbd576001915050610d97565b6000915050610d97565b600160a060020a0381166000908152600b602052604081205460ff16801515600114611e3d576040805160e560020a62461bcd02815260206004820152601060248201527f4d656d626572206e6f7420666f756e6400000000000000000000000000000000604482015290519081900360640190fd5b5050600160a060020a03166000908152600b602052604090206001015490565b336000908152600160205260408120546060908190839060ff1680611eba576040805160e560020a62461bcd02815260206004820152601f60248201526000805160206121f7833981519152604482015290519081900360640190fd5b600254868111611f14576040805160e560020a62461bcd02815260206004820152600c60248201527f4f7574206f662072616e67650000000000000000000000000000000000000000604482015290519081900360640190fd5b60006002888154811061157457fe5b6000806005836040518082805190602001908083835b60208310611f585780518252601f199092019160209182019101611f39565b51815160209384036101000a600019018019909216911617905292019485525060405193849003019092205460ff1695945050505050565b3360009081526001602052604081205460ff1680611fe6576040805160e560020a62461bcd02815260206004820152601f60248201526000805160206121f7833981519152604482015290519081900360640190fd5b60008381526003602052604090205460ff16801515600114612052576040805160e560020a62461bcd02815260206004820152600f60248201527f47726f7570206e6f7420666f756e640000000000000000000000000000000000604482015290519081900360640190fd5b50505060009081526003602052604090206001015490565b60009081526003602052604090205460ff1690565b604080518082019091526000808252602082015290565b604080516060810182526000808252602082018190529181019190915290565b828054600181600116156101000203166002900490600052602060002090601f016020900481019282601f106120f75782800160ff19823516178555612124565b82800160010185558215612124579182015b82811115612124578235825591602001919060010190612109565b506121309291506121dc565b5090565b6040518060a001604052806000151581526020016000815260200160608152602001606081526020016000600160a060020a031681525090565b828054600181600116156101000203166002900490600052602060002090601f016020900481019282601f106121af57805160ff1916838001178555612124565b82800160010185558215612124579182015b828111156121245782518255916020019190600101906121c1565b61176091905b8082111561213057600081556001016121e256fe756e617574686f72697a65642061636365737320746f20636f6e7472616374006465706f7369742062616c616e6365206f7665726472616674206973206e6f7420616c6c6f776564a26469706673582212202482219a08b24918f7110aef350864adf301f7446bd1018f848e12bea48b282364736f6c63430006060033",
  "immutableReferences": {},
  "source": "pragma solidity ^0.6.6;\n\nimport \"./IGroupSchema.sol\";\nimport \"./StorageOwners.sol\";\n\ncontract Groups is IGroupSchema, StorageOwners {\n    // list of group records\n    Group[] private Groups;\n    //Mapping that enables ease of traversal of the group records\n    mapping(uint256 => RecordIndex) private GroupIndexer;\n\n    // Mapping that enables ease of traversal of groups created by an addressor\n    mapping(address => RecordIndex[]) private GroupForCreatorIndexer;\n\n    // indexes a group location using the group name\n    mapping(string => RecordIndex) private GroupIndexerByName;\n\n    GroupMember[] GroupMembers;\n\n    //Mapping of a groups members. Key is the group id,\n    mapping(uint256 => RecordIndex[]) private GroupMembersIndexer;\n\n    mapping(address => RecordIndex[]) private GroupMembersIndexerByDepositor;\n    mapping(uint256 => mapping(address => RecordIndex))\n        private GroupMembersDeepIndexer;\n\n    // list of group records\n    Member[] private Members;\n\n    //Mapping that enables ease of traversal of the member records. key is the member address\n    mapping(address => RecordIndex) private MemberIndexer;\n\n    uint256 lastGroupId;\n\n    address[] tokenAddresses;\n    uint256 totalEthersDeposited;\n    mapping(address => uint256) totalTokensDeposited;\n\n    function getLengthOfTokenAddressesUsedInDeposit()\n        external\n        view\n        returns (uint256)\n    {\n        return tokenAddresses.length;\n    }\n\n    function incrementTokenDeposit(address tokenAddress, uint256 amount)\n        external\n        onlyStorageOracle\n        returns (uint256)\n    {\n        if (totalTokensDeposited[tokenAddress] == 0) {\n            tokenAddresses.push(tokenAddress);\n        }\n        totalTokensDeposited[tokenAddress] += amount;\n        return totalTokensDeposited[tokenAddress];\n    }\n\n    function decrementTokenDeposit(address tokenAddress, uint256 amount)\n        external\n        onlyStorageOracle\n        returns (uint256)\n    {\n        uint256 currentAmount = totalTokensDeposited[tokenAddress];\n        require(\n            currentAmount >= amount,\n            \"deposit balance overdraft is not allowed\"\n        );\n        totalTokensDeposited[tokenAddress] -= amount;\n        return totalTokensDeposited[tokenAddress];\n    }\n\n    function getTokenDeposit(address tokenAddress)\n        external\n        view\n        returns (uint256)\n    {\n        return totalTokensDeposited[tokenAddress];\n    }\n\n    function incrementEtherDeposit(uint256 amount)\n        external\n        onlyStorageOracle\n        returns (uint256)\n    {\n        totalEthersDeposited += amount;\n        return totalEthersDeposited;\n    }\n\n    function decrementEtherDeposit(uint256 amount)\n        external\n        onlyStorageOracle\n        returns (uint256)\n    {\n        require(\n            totalEthersDeposited >= amount,\n            \"deposit balance overdraft is not allowed\"\n        );\n        totalEthersDeposited -= amount;\n        return totalEthersDeposited;\n    }\n\n    function getEtherDeposit() external view returns (uint256) {\n        return totalEthersDeposited;\n    }\n\n    function createMember(address payable depositor)\n        external\n        onlyStorageOracle\n    {\n        Member memory member = Member(true, depositor);\n\n        bool exist = _doesMemberExist(depositor);\n\n        require(exist == false, \"Member already exists\");\n\n        RecordIndex memory recordIndex = RecordIndex(true, Members.length);\n\n        Members.push(member);\n        MemberIndexer[depositor] = recordIndex;\n    }\n\n    function getMember(address _address) external view returns (address) {\n        uint256 index = _getMemberIndex(_address);\n        Member memory member = Members[index];\n\n        return (member._address);\n    }\n\n    function _getMemberIndex(address _address) internal view returns (uint256) {\n        bool doesMemberExist = MemberIndexer[_address].exists;\n        require(doesMemberExist == true, \"Member not found\");\n\n        uint256 index = MemberIndexer[_address].index;\n        return index;\n    }\n\n    function createGroup(\n        string calldata name,\n        string calldata symbol,\n        address groupCreator\n    ) external onlyStorageOracle returns (uint256) {\n        bool exist = _doesGroupExist(name);\n        require(exist == false, \"Group name has already been used\");\n\n        lastGroupId += 1;\n        Group memory group = Group(\n            true,\n            lastGroupId,\n            name,\n            symbol,\n            payable(groupCreator)\n        );\n        uint256 index = Groups.length;\n        RecordIndex memory recordIndex = RecordIndex(true, index);\n        Groups.push(group);\n        GroupIndexer[lastGroupId] = recordIndex;\n        GroupIndexerByName[name] = recordIndex;\n        GroupForCreatorIndexer[groupCreator].push(recordIndex);\n\n        return lastGroupId;\n    }\n\n    function updateGroup(\n        uint256 id,\n        string calldata name,\n        string calldata symbol,\n        address payable creatorAddress\n    ) external onlyStorageOracle {\n        uint256 index = _getGroupIndex(id);\n        Groups[index].name = name;\n        Groups[index].symbol = symbol;\n        Groups[index].creatorAddress = creatorAddress;\n    }\n\n   \n\n    function doesGroupExist(uint256 groupId) external view returns (bool) {\n        return _doesGroupExist(groupId);\n    }\n\n    function _doesGroupExist(uint256 groupId) internal view returns (bool) {\n        bool groupExist = GroupIndexer[groupId].exists;\n\n        return groupExist;\n    }\n\n    function doesGroupExist(string calldata groupName)\n        external\n        view\n        returns (bool)\n    {\n        return _doesGroupExist(groupName);\n    }\n\n    function _doesGroupExist(string memory groupName)\n        internal\n        view\n        returns (bool)\n    {\n        bool groupExist = GroupIndexerByName[groupName].exists;\n\n        return groupExist;\n    }\n\n    function doesMemberExist(address depositor) external view returns (bool) {\n        return _doesMemberExist(depositor);\n    }\n\n    function _doesMemberExist(address depositor) internal view returns (bool) {\n        bool exist = MemberIndexer[depositor].exists;\n\n        if (exist) return true;\n        else return false;\n    }\n\n    function createGroupMember(uint256 groupId, address payable depositor)\n        external\n        onlyStorageOracle\n    {\n        bool exist = _doesGroupMemberExist(groupId, depositor);\n        require(exist == false, \"Group member exists\");\n\n        RecordIndex memory recordIndex = RecordIndex(true, GroupMembers.length);\n\n        GroupMember memory groupMember = GroupMember(true, depositor, groupId);\n\n        GroupMembersIndexer[groupId].push(recordIndex);\n        GroupMembersIndexerByDepositor[depositor].push(recordIndex);\n        GroupMembersDeepIndexer[groupId][depositor] = recordIndex;\n        GroupMembers.push(groupMember);\n    }\n\n    function getGroupMember(uint256 index)\n        external\n        view\n        returns (address payable _address, uint256 groupId)\n    {\n        GroupMember memory groupMember = GroupMembers[index];\n        return (groupMember._address, groupMember.groupId);\n    }\n\n    function getGroupMembersDeepIndexer(uint256 groupId, address depositor)\n        external\n        view\n        returns (bool exists, uint256 index)\n    {\n\n            RecordIndex memory recordIndex\n         = GroupMembersDeepIndexer[groupId][depositor];\n        return (recordIndex.exists, recordIndex.index);\n    }\n\n    function getRecordIndexLengthForGroupMembersIndexer(uint256 groupId)\n        external\n        view\n        returns (uint256)\n    {\n        return GroupMembersIndexer[groupId].length;\n    }\n\n    function getRecordIndexLengthForGroupMembersIndexerByDepositor(\n        address depositor\n    ) external view returns (uint256) {\n        return GroupMembersIndexerByDepositor[depositor].length;\n    }\n\n    function getGroupMembersIndexer(uint256 groupId, uint256 indexerLocation)\n        external\n        view\n        returns (bool exist, uint256 index)\n    {\n\n            RecordIndex memory recordIndex\n         = GroupMembersIndexer[groupId][indexerLocation];\n        return (recordIndex.exists, recordIndex.index);\n    }\n\n    function getGroupMembersIndexerByDepositor(\n        address depositor,\n        uint256 indexerLocation\n    ) external view returns (bool exist, uint256 index) {\n\n            RecordIndex memory recordIndex\n         = GroupMembersIndexerByDepositor[depositor][indexerLocation];\n        return (recordIndex.exists, recordIndex.index);\n    }\n\n    function doesGroupMemberExist(uint256 groupId, address depositor)\n        external\n        view\n        returns (bool)\n    {\n        return _doesGroupMemberExist(groupId, depositor);\n    }\n\n    function _doesGroupMemberExist(uint256 groupId, address depositor)\n        internal\n        view\n        returns (bool)\n    {\n        bool exist = GroupMembersDeepIndexer[groupId][depositor].exists;\n        return exist;\n    }\n\n    function getGroupIndexer(uint256 groupId)\n        external\n        view\n        returns (bool exist, uint256 index)\n    {\n        RecordIndex memory recordIndex = GroupIndexer[groupId];\n        return (recordIndex.exists, recordIndex.index);\n    }\n\n    function getRecordIndexLengthForCreator(address groupCreator)\n        external\n        view\n        returns (uint256)\n    {\n        return GroupForCreatorIndexer[groupCreator].length;\n    }\n\n    function getGroupForCreatorIndexer(\n        address groupCreator,\n        uint256 indexerLocation\n    ) external view returns (bool exist, uint256 index) {\n\n            RecordIndex memory recordIndex\n         = GroupForCreatorIndexer[groupCreator][indexerLocation];\n        return (recordIndex.exists, recordIndex.index);\n    }\n\n    function getGroupIndexerByName(string calldata groupName)\n        external\n        view\n        returns (bool exist, uint256 index)\n    {\n        RecordIndex memory recordIndex = GroupIndexerByName[groupName];\n        return (recordIndex.exists, recordIndex.index);\n    }\n\n    function getGroupById(uint256 groupId)\n        external\n        view\n        onlyStorageOracle\n        returns (\n            uint256,\n            string memory,\n            string memory,\n            address payable\n        )\n    {\n        uint256 index = _getGroupIndex(groupId);\n\n        Group storage group = Groups[index];\n        return (group.id, group.name, group.symbol, group.creatorAddress);\n    }\n\n    function getGroupByIndex(uint256 index)\n        external\n        view\n        onlyStorageOracle\n        returns (\n            uint256,\n            string memory,\n            string memory,\n            address payable\n        )\n    {\n        return _getGroupByIndex(index);\n    }\n\n    function _getGroupByIndex(uint256 index)\n        internal\n        view\n        onlyStorageOracle\n        returns (\n            uint256,\n            string memory,\n            string memory,\n            address payable\n        )\n    {\n        uint256 length = Groups.length;\n        require(length > index, \"Out of range\");\n        Group storage group = Groups[index];\n        return (group.id, group.name, group.symbol, group.creatorAddress);\n    }\n\n    function getGroupIndex(uint256 groupId)\n        external\n        view\n        onlyStorageOracle\n        returns (uint256)\n    {\n        return _getGroupIndex(groupId);\n    }\n\n    function _getGroupIndex(uint256 groupId)\n        internal\n        view\n        onlyStorageOracle\n        returns (uint256)\n    {\n        bool doesGroupExist = GroupIndexer[groupId].exists;\n        require(doesGroupExist == true, \"Group not found\");\n        uint256 index = GroupIndexer[groupId].index;\n        return index;\n    }\n\n    \n}\n",
  "sourcePath": "/Users/njokuscript/Desktop/programming/esusu/contracts/Groups.sol",
  "compiler": {
    "name": "solc",
    "version": "0.6.6+commit.6c089d02.Emscripten.clang"
  },
  "schemaVersion": "3.2.5",
  "updatedAt": "2020-11-09T12:09:20.432Z",
  "networkType": "ethereum",
  "devdoc": {
    "methods": {}
  },
  "userdoc": {
    "methods": {}
  }
}