{
  "contractName": "SavingsConfig",
  "abi": [
    {
      "inputs": [],
      "stateMutability": "nonpayable",
      "type": "constructor"
    },
    {
      "inputs": [
        {
          "internalType": "string",
          "name": "",
          "type": "string"
        }
      ],
      "name": "RuleMapping",
      "outputs": [
        {
          "internalType": "bool",
          "name": "exists",
          "type": "bool"
        },
        {
          "internalType": "uint256",
          "name": "minimum",
          "type": "uint256"
        },
        {
          "internalType": "uint256",
          "name": "maximum",
          "type": "uint256"
        },
        {
          "internalType": "uint256",
          "name": "exact",
          "type": "uint256"
        },
        {
          "internalType": "bool",
          "name": "applies",
          "type": "bool"
        },
        {
          "internalType": "enum ISavingsConfigSchema.RuleDefinition",
          "name": "ruleDefinition",
          "type": "uint8"
        }
      ],
      "stateMutability": "view",
      "type": "function",
      "constant": true
    },
    {
      "inputs": [
        {
          "internalType": "string",
          "name": "",
          "type": "string"
        }
      ],
      "name": "RuleModifier",
      "outputs": [
        {
          "internalType": "address",
          "name": "",
          "type": "address"
        }
      ],
      "stateMutability": "view",
      "type": "function",
      "constant": true
    },
    {
      "inputs": [],
      "name": "owner",
      "outputs": [
        {
          "internalType": "address payable",
          "name": "",
          "type": "address"
        }
      ],
      "stateMutability": "view",
      "type": "function",
      "constant": true
    },
    {
      "inputs": [
        {
          "internalType": "address payable",
          "name": "newOwner",
          "type": "address"
        }
      ],
      "name": "transferOwnership",
      "outputs": [],
      "stateMutability": "nonpayable",
      "type": "function"
    },
    {
      "inputs": [
        {
          "internalType": "string",
          "name": "ruleKey",
          "type": "string"
        }
      ],
      "name": "getRuleSet",
      "outputs": [
        {
          "internalType": "uint256",
          "name": "",
          "type": "uint256"
        },
        {
          "internalType": "uint256",
          "name": "",
          "type": "uint256"
        },
        {
          "internalType": "uint256",
          "name": "",
          "type": "uint256"
        },
        {
          "internalType": "bool",
          "name": "",
          "type": "bool"
        },
        {
          "internalType": "enum ISavingsConfigSchema.RuleDefinition",
          "name": "",
          "type": "uint8"
        }
      ],
      "stateMutability": "nonpayable",
      "type": "function"
    },
    {
      "inputs": [
        {
          "internalType": "string",
          "name": "ruleKey",
          "type": "string"
        }
      ],
      "name": "getRuleManager",
      "outputs": [
        {
          "internalType": "address",
          "name": "",
          "type": "address"
        }
      ],
      "stateMutability": "nonpayable",
      "type": "function"
    },
    {
      "inputs": [
        {
          "internalType": "string",
          "name": "ruleKey",
          "type": "string"
        },
        {
          "internalType": "address",
          "name": "newRuleManager",
          "type": "address"
        }
      ],
      "name": "changeRuleCreator",
      "outputs": [],
      "stateMutability": "nonpayable",
      "type": "function"
    },
    {
      "inputs": [
        {
          "internalType": "string",
          "name": "ruleKey",
          "type": "string"
        },
        {
          "internalType": "uint256",
          "name": "minimum",
          "type": "uint256"
        },
        {
          "internalType": "uint256",
          "name": "maximum",
          "type": "uint256"
        },
        {
          "internalType": "uint256",
          "name": "exact",
          "type": "uint256"
        },
        {
          "internalType": "enum ISavingsConfigSchema.RuleDefinition",
          "name": "ruleDefinition",
          "type": "uint8"
        }
      ],
      "name": "createRule",
      "outputs": [],
      "stateMutability": "nonpayable",
      "type": "function"
    },
    {
      "inputs": [
        {
          "internalType": "string",
          "name": "ruleKey",
          "type": "string"
        },
        {
          "internalType": "uint256",
          "name": "minimum",
          "type": "uint256"
        },
        {
          "internalType": "uint256",
          "name": "maximum",
          "type": "uint256"
        },
        {
          "internalType": "uint256",
          "name": "exact",
          "type": "uint256"
        },
        {
          "internalType": "enum ISavingsConfigSchema.RuleDefinition",
          "name": "ruleDefinition",
          "type": "uint8"
        }
      ],
      "name": "modifyRule",
      "outputs": [],
      "stateMutability": "nonpayable",
      "type": "function"
    },
    {
      "inputs": [
        {
          "internalType": "string",
          "name": "ruleKey",
          "type": "string"
        }
      ],
      "name": "disableRule",
      "outputs": [],
      "stateMutability": "nonpayable",
      "type": "function"
    },
    {
      "inputs": [
        {
          "internalType": "string",
          "name": "ruleKey",
          "type": "string"
        }
      ],
      "name": "enableRule",
      "outputs": [],
      "stateMutability": "nonpayable",
      "type": "function"
    }
  ],
  "bytecode": "0x608060405234801561001057600080fd5b50336000806101000a81548173ffffffffffffffffffffffffffffffffffffffff021916908373ffffffffffffffffffffffffffffffffffffffff160217905550612034806100606000396000f3fe608060405234801561001057600080fd5b50600436106100c6576000357c01000000000000000000000000000000000000000000000000000000009004806369653f5c1161008e57806369653f5c146104445780636c021b3b146104e85780638da5cb5b146105e3578063bb2ab2ee1461062d578063e09e630c146106a6578063f2fde38b1461075f576100c6565b806333800c62146100cb57806337f2a024146101d357806340ee684c1461028e578063463774391461030757806364ffd5d6146103a0575b600080fd5b610184600480360360208110156100e157600080fd5b81019080803590602001906401000000008111156100fe57600080fd5b82018360208201111561011057600080fd5b8035906020019184600183028401116401000000008311171561013257600080fd5b91908080601f016020809104026020016040519081016040528093929190818152602001838380828437600081840152601f19601f8201169050808301925050505050505091929192905050506107a3565b6040518087151515158152602001868152602001858152602001848152602001831515151581526020018260018111156101ba57fe5b60ff168152602001965050505050505060405180910390f35b61024a600480360360208110156101e957600080fd5b810190808035906020019064010000000081111561020657600080fd5b82018360208201111561021857600080fd5b8035906020019184600183028401116401000000008311171561023a57600080fd5b909192939192939050505061081c565b604051808681526020018581526020018481526020018315151515815260200182600181111561027657fe5b60ff1681526020019550505050505060405180910390f35b610305600480360360208110156102a457600080fd5b81019080803590602001906401000000008111156102c157600080fd5b8201836020820111156102d357600080fd5b803590602001918460018302840111640100000000831117156102f557600080fd5b9091929391929390505050610970565b005b61039e6004803603604081101561031d57600080fd5b810190808035906020019064010000000081111561033a57600080fd5b82018360208201111561034c57600080fd5b8035906020019184600183028401116401000000008311171561036e57600080fd5b9091929391929390803573ffffffffffffffffffffffffffffffffffffffff169060200190929190505050610c6d565b005b610442600480360360a08110156103b657600080fd5b81019080803590602001906401000000008111156103d357600080fd5b8201836020820111156103e557600080fd5b8035906020019184600183028401116401000000008311171561040757600080fd5b9091929391929390803590602001909291908035906020019092919080359060200190929190803560ff169060200190929190505050610f22565b005b6104e6600480360360a081101561045a57600080fd5b810190808035906020019064010000000081111561047757600080fd5b82018360208201111561048957600080fd5b803590602001918460018302840111640100000000831117156104ab57600080fd5b9091929391929390803590602001909291908035906020019092919080359060200190929190803560ff1690602001909291905050506110d9565b005b6105a1600480360360208110156104fe57600080fd5b810190808035906020019064010000000081111561051b57600080fd5b82018360208201111561052d57600080fd5b8035906020019184600183028401116401000000008311171561054f57600080fd5b91908080601f016020809104026020016040519081016040528093929190818152602001838380828437600081840152601f19601f82011690508083019250505050505050919291929050505061138b565b604051808273ffffffffffffffffffffffffffffffffffffffff1673ffffffffffffffffffffffffffffffffffffffff16815260200191505060405180910390f35b6105eb6113d4565b604051808273ffffffffffffffffffffffffffffffffffffffff1673ffffffffffffffffffffffffffffffffffffffff16815260200191505060405180910390f35b6106a46004803603602081101561064357600080fd5b810190808035906020019064010000000081111561066057600080fd5b82018360208201111561067257600080fd5b8035906020019184600183028401116401000000008311171561069457600080fd5b90919293919293905050506113f9565b005b61071d600480360360208110156106bc57600080fd5b81019080803590602001906401000000008111156106d957600080fd5b8201836020820111156106eb57600080fd5b8035906020019184600183028401116401000000008311171561070d57600080fd5b90919293919293905050506116f6565b604051808273ffffffffffffffffffffffffffffffffffffffff1673ffffffffffffffffffffffffffffffffffffffff16815260200191505060405180910390f35b6107a16004803603602081101561077557600080fd5b81019080803573ffffffffffffffffffffffffffffffffffffffff16906020019092919050505061186d565b005b6001818051602081018201805184825260208301602085012081835280955050505050506000915090508060000160009054906101000a900460ff16908060010154908060020154908060030154908060040160009054906101000a900460ff16908060040160019054906101000a900460ff16905086565b600080600080600061082c611e9e565b6001888860405180838380828437808301925050509250505090815260200160405180910390206040518060c00160405290816000820160009054906101000a900460ff161515151581526020016001820154815260200160028201548152602001600382015481526020016004820160009054906101000a900460ff161515151581526020016004820160019054906101000a900460ff1660018111156108d057fe5b60018111156108db57fe5b815250509050600115158160000151151514610942576040517f08c379a0000000000000000000000000000000000000000000000000000000008152600401808060200182810382526026815260200180611f4f6026913960400191505060405180910390fd5b80602001518160400151826060015183608001518460a0015195509550955095509550509295509295909350565b81818080601f016020809104026020016040519081016040528093929190818152602001838380828437600081840152601f19601f820116905080830192505050505050506109bd611e9e565b6109c6826119a7565b905060006002836040518082805190602001908083835b60208310610a0057805182526020820191506020810190506020830392506109dd565b6001836020036101000a038019825116818451168082178552505050505050905001915050908152602001604051809103902060009054906101000a900473ffffffffffffffffffffffffffffffffffffffff1690508073ffffffffffffffffffffffffffffffffffffffff163373ffffffffffffffffffffffffffffffffffffffff161480610adc57506000809054906101000a900473ffffffffffffffffffffffffffffffffffffffff1673ffffffffffffffffffffffffffffffffffffffff163373ffffffffffffffffffffffffffffffffffffffff16145b610b31576040517f08c379a0000000000000000000000000000000000000000000000000000000008152600401808060200182810382526025815260200180611ee46025913960400191505060405180910390fd5b610b39611e9e565b610b8686868080601f016020809104026020016040519081016040528093929190818152602001838380828437600081840152601f19601f820116905080830192505050505050506119a7565b9050600115158160800151151514610c06576040517f08c379a000000000000000000000000000000000000000000000000000000000815260040180806020018281038252601c8152602001807f52756c652073657420697320616c72656164792064697361626c65640000000081525060200191505060405180910390fd5b6000816080019015159081151581525050610c6586868080601f016020809104026020016040519081016040528093929190818152602001838380828437600081840152601f19601f8201169050808301925050505050505082611bb0565b505050505050565b82828080601f016020809104026020016040519081016040528093929190818152602001838380828437600081840152601f19601f82011690508083019250505050505050610cba611e9e565b610cc3826119a7565b905060006002836040518082805190602001908083835b60208310610cfd5780518252602082019150602081019050602083039250610cda565b6001836020036101000a038019825116818451168082178552505050505050905001915050908152602001604051809103902060009054906101000a900473ffffffffffffffffffffffffffffffffffffffff1690508073ffffffffffffffffffffffffffffffffffffffff163373ffffffffffffffffffffffffffffffffffffffff161480610dd957506000809054906101000a900473ffffffffffffffffffffffffffffffffffffffff1673ffffffffffffffffffffffffffffffffffffffff163373ffffffffffffffffffffffffffffffffffffffff16145b610e2e576040517f08c379a0000000000000000000000000000000000000000000000000000000008152600401808060200182810382526025815260200180611ee46025913960400191505060405180910390fd5b600073ffffffffffffffffffffffffffffffffffffffff168473ffffffffffffffffffffffffffffffffffffffff161415610eb4576040517f08c379a000000000000000000000000000000000000000000000000000000000815260040180806020018281038252602b815260200180611fd4602b913960400191505060405180910390fd5b8360028787604051808383808284378083019250505092505050908152602001604051809103902060006101000a81548173ffffffffffffffffffffffffffffffffffffffff021916908373ffffffffffffffffffffffffffffffffffffffff160217905550505050505050565b610f2a611e9e565b6040518060c00160405280600115158152602001868152602001858152602001848152602001600115158152602001836001811115610f6557fe5b8152509050610fb887878080601f016020809104026020016040519081016040528093929190818152602001838380828437600081840152601f19601f8201169050808301925050505050505082611ca8565b8060018888604051808383808284378083019250505092505050908152602001604051809103902060008201518160000160006101000a81548160ff02191690831515021790555060208201518160010155604082015181600201556060820151816003015560808201518160040160006101000a81548160ff02191690831515021790555060a08201518160040160016101000a81548160ff0219169083600181111561106257fe5b02179055509050503360028888604051808383808284378083019250505092505050908152602001604051809103902060006101000a81548173ffffffffffffffffffffffffffffffffffffffff021916908373ffffffffffffffffffffffffffffffffffffffff16021790555050505050505050565b85858080601f016020809104026020016040519081016040528093929190818152602001838380828437600081840152601f19601f82011690508083019250505050505050611126611e9e565b61112f826119a7565b905060006002836040518082805190602001908083835b602083106111695780518252602082019150602081019050602083039250611146565b6001836020036101000a038019825116818451168082178552505050505050905001915050908152602001604051809103902060009054906101000a900473ffffffffffffffffffffffffffffffffffffffff1690508073ffffffffffffffffffffffffffffffffffffffff163373ffffffffffffffffffffffffffffffffffffffff16148061124557506000809054906101000a900473ffffffffffffffffffffffffffffffffffffffff1673ffffffffffffffffffffffffffffffffffffffff163373ffffffffffffffffffffffffffffffffffffffff16145b61129a576040517f08c379a0000000000000000000000000000000000000000000000000000000008152600401808060200182810382526025815260200180611ee46025913960400191505060405180910390fd5b6112a2611e9e565b6112ef8a8a8080601f016020809104026020016040519081016040528093929190818152602001838380828437600081840152601f19601f820116905080830192505050505050506119a7565b9050878160200181815250508681604001818152505085816060018181525050848160a00190600181111561132057fe5b9081600181111561132d57fe5b8152505061137f8a8a8080601f016020809104026020016040519081016040528093929190818152602001838380828437600081840152601f19601f8201169050808301925050505050505082611ca8565b50505050505050505050565b6002818051602081018201805184825260208301602085012081835280955050505050506000915054906101000a900473ffffffffffffffffffffffffffffffffffffffff1681565b6000809054906101000a900473ffffffffffffffffffffffffffffffffffffffff1681565b81818080601f016020809104026020016040519081016040528093929190818152602001838380828437600081840152601f19601f82011690508083019250505050505050611446611e9e565b61144f826119a7565b905060006002836040518082805190602001908083835b602083106114895780518252602082019150602081019050602083039250611466565b6001836020036101000a038019825116818451168082178552505050505050905001915050908152602001604051809103902060009054906101000a900473ffffffffffffffffffffffffffffffffffffffff1690508073ffffffffffffffffffffffffffffffffffffffff163373ffffffffffffffffffffffffffffffffffffffff16148061156557506000809054906101000a900473ffffffffffffffffffffffffffffffffffffffff1673ffffffffffffffffffffffffffffffffffffffff163373ffffffffffffffffffffffffffffffffffffffff16145b6115ba576040517f08c379a0000000000000000000000000000000000000000000000000000000008152600401808060200182810382526025815260200180611ee46025913960400191505060405180910390fd5b6115c2611e9e565b61160f86868080601f016020809104026020016040519081016040528093929190818152602001838380828437600081840152601f19601f820116905080830192505050505050506119a7565b905060001515816080015115151461168f576040517f08c379a000000000000000000000000000000000000000000000000000000000815260040180806020018281038252601b8152602001807f52756c652073657420697320616c726561647920656e61626c6564000000000081525060200191505060405180910390fd5b60018160800190151590811515815250506116ee86868080601f016020809104026020016040519081016040528093929190818152602001838380828437600081840152601f19601f8201169050808301925050505050505082611bb0565b505050505050565b6000611700611e9e565b6001848460405180838380828437808301925050509250505090815260200160405180910390206040518060c00160405290816000820160009054906101000a900460ff161515151581526020016001820154815260200160028201548152602001600382015481526020016004820160009054906101000a900460ff161515151581526020016004820160019054906101000a900460ff1660018111156117a457fe5b60018111156117af57fe5b815250509050600115158160000151151514611816576040517f08c379a0000000000000000000000000000000000000000000000000000000008152600401808060200182810382526026815260200180611f4f6026913960400191505060405180910390fd5b600060028585604051808383808284378083019250505092505050908152602001604051809103902060009054906101000a900473ffffffffffffffffffffffffffffffffffffffff169050809250505092915050565b6000809054906101000a900473ffffffffffffffffffffffffffffffffffffffff1673ffffffffffffffffffffffffffffffffffffffff163373ffffffffffffffffffffffffffffffffffffffff161461192f576040517f08c379a000000000000000000000000000000000000000000000000000000000815260040180806020018281038252601f8152602001807f556e617574686f72697a65642061636365737320746f20636f6e74726163740081525060200191505060405180910390fd5b600073ffffffffffffffffffffffffffffffffffffffff168173ffffffffffffffffffffffffffffffffffffffff16146119a457806000806101000a81548173ffffffffffffffffffffffffffffffffffffffff021916908373ffffffffffffffffffffffffffffffffffffffff1602179055505b50565b6119af611e9e565b60006001836040518082805190602001908083835b602083106119e757805182526020820191506020810190506020830392506119c4565b6001836020036101000a038019825116818451168082178552505050505050905001915050908152602001604051809103902060000160009054906101000a900460ff1690506001151581151514611aa7576040517f08c379a00000000000000000000000000000000000000000000000000000000081526004018080602001828103825260138152602001807f52756c6520646f6573206e6f742065786973740000000000000000000000000081525060200191505060405180910390fd5b611aaf611e9e565b6001846040518082805190602001908083835b60208310611ae55780518252602082019150602081019050602083039250611ac2565b6001836020036101000a03801982511681845116808217855250505050505090500191505090815260200160405180910390206040518060c00160405290816000820160009054906101000a900460ff161515151581526020016001820154815260200160028201548152602001600382015481526020016004820160009054906101000a900460ff161515151581526020016004820160019054906101000a900460ff166001811115611b9557fe5b6001811115611ba057fe5b8152505090508092505050919050565b806001836040518082805190602001908083835b60208310611be75780518252602082019150602081019050602083039250611bc4565b6001836020036101000a038019825116818451168082178552505050505050905001915050908152602001604051809103902060008201518160000160006101000a81548160ff02191690831515021790555060208201518160010155604082015181600201556060820151816003015560808201518160040160006101000a81548160ff02191690831515021790555060a08201518160040160016101000a81548160ff02191690836001811115611c9c57fe5b02179055509050505050565b60006001836040518082805190602001908083835b60208310611ce05780518252602082019150602081019050602083039250611cbd565b6001836020036101000a038019825116818451168082178552505050505050905001915050908152602001604051809103902060000160009054906101000a900460ff1690506000151581151514611d83576040517f08c379a0000000000000000000000000000000000000000000000000000000008152600401808060200182810382526027815260200180611f756027913960400191505060405180910390fd5b60006001811115611d9057fe5b8260a001516001811115611da057fe5b1415611e08576000826060015114611e03576040517f08c379a0000000000000000000000000000000000000000000000000000000008152600401808060200182810382526038815260200180611f9c6038913960400191505060405180910390fd5b611e99565b600180811115611e1457fe5b8260a001516001811115611e2457fe5b1415611e985760008260200151148015611e42575060008260400151145b611e97576040517f08c379a0000000000000000000000000000000000000000000000000000000008152600401808060200182810382526046815260200180611f096046913960600191505060405180910390fd5b5b5b505050565b6040518060c0016040528060001515815260200160008152602001600081526020016000815260200160001515815260200160006001811115611edd57fe5b8152509056fe63616e6e6f74206d6f646966792072756c652c207065726d697373696f6e2064656e69656452756c6520646566696e6974696f6e20666f722076616c75652072657175697265732074686174206d696e696d756d20616e64206d6178696d756d206669656c6420697320304e6f2072756c6520646566696e6974696f6e7320666f756e6420666f722072756c65206b657952756c6520636f6e66696775726174696f6e2068617320616c7265616479206265656e2073657452756c6520646566696e6974696f6e20666f722072616e67652072657175697265732074686174206578616374206669656c642069732030496e76616c696420616464726573732070617373656420666f72206e65772072756c65206d616e61676572a264697066735822122047fe599bc727b234998c87ac3ebc021681c5959772e0d495f27ad3053381ac5264736f6c63430006060033",
  "immutableReferences": {},
  "source": "pragma solidity ^0.6.6;\nimport \"./SafeMath.sol\";\nimport \"./YearnSavings/Ownable.sol\";\nimport \"./ISavingsConfigSchema.sol\";\n\ncontract SavingsConfig is ISavingsConfigSchema, OwnableYearn {\n    using SafeMath for uint256;\n\n    mapping(string => RuleSet) public RuleMapping;\n    mapping(string => address) public RuleModifier;\n\n    constructor() public {}\n\n    function getRuleSet(string calldata ruleKey)\n        external\n        returns (\n            uint256,\n            uint256,\n            uint256,\n            bool,\n            RuleDefinition\n        )\n    {\n        RuleSet memory ruleSet = RuleMapping[ruleKey];\n\n        require(\n            ruleSet.exists == true,\n            \"No rule definitions found for rule key\"\n        );\n\n        return (\n            ruleSet.minimum,\n            ruleSet.maximum,\n            ruleSet.exact,\n            ruleSet.applies,\n            ruleSet.ruleDefinition\n        );\n    }\n\n    function getRuleManager(string calldata ruleKey)\n        external\n        returns (address)\n    {\n        RuleSet memory ruleSet = RuleMapping[ruleKey];\n        require(\n            ruleSet.exists == true,\n            \"No rule definitions found for rule key\"\n        );\n        address ruleManager = RuleModifier[ruleKey];\n        return (ruleManager);\n    }\n\n    function changeRuleCreator(string calldata ruleKey, address newRuleManager)\n        external\n        onlyRuleCreatorOrOwner(ruleKey)\n    {\n        require(\n            newRuleManager != address(0),\n            \"Invalid address passed for new rule manager\"\n        );\n        RuleModifier[ruleKey] = newRuleManager;\n    }\n\n    function createRule(\n        string calldata ruleKey,\n        uint256 minimum,\n        uint256 maximum,\n        uint256 exact,\n        RuleDefinition ruleDefinition\n    ) external {\n        RuleSet memory rule = RuleSet(\n            true,\n            minimum,\n            maximum,\n            exact,\n            true,\n            ruleDefinition\n        );\n        _validateRuleCreation(ruleKey, rule);\n        RuleMapping[ruleKey] = rule;\n        RuleModifier[ruleKey] = msg.sender;\n    }\n\n    function modifyRule(\n        string calldata ruleKey,\n        uint256 minimum,\n        uint256 maximum,\n        uint256 exact,\n        RuleDefinition ruleDefinition\n    ) external onlyRuleCreatorOrOwner(ruleKey) {\n        RuleSet memory ruleSet = _getRule(ruleKey);\n        ruleSet.minimum = minimum;\n        ruleSet.maximum = maximum;\n        ruleSet.exact = exact;\n        ruleSet.ruleDefinition = ruleDefinition;\n        _validateRuleCreation(ruleKey, ruleSet);\n    }\n\n    function disableRule(string calldata ruleKey)\n        external\n        onlyRuleCreatorOrOwner(ruleKey)\n    {\n        RuleSet memory ruleSet = _getRule(ruleKey);\n        require(ruleSet.applies == true, \"Rule set is already disabled\");\n        ruleSet.applies = false;\n        _saveRule(ruleKey, ruleSet);\n    }\n\n    function enableRule(string calldata ruleKey)\n        external\n        onlyRuleCreatorOrOwner(ruleKey)\n    {\n        RuleSet memory ruleSet = _getRule(ruleKey);\n        require(ruleSet.applies == false, \"Rule set is already enabled\");\n        ruleSet.applies = true;\n        _saveRule(ruleKey, ruleSet);\n    }\n\n    function _getRule(string memory ruleKey) internal returns (RuleSet memory) {\n        bool ruleExist = RuleMapping[ruleKey].exists;\n        require(ruleExist == true, \"Rule does not exist\");\n        RuleSet memory ruleSet = RuleMapping[ruleKey];\n        return ruleSet;\n    }\n\n    function _saveRule(string memory ruleKey, RuleSet memory ruleSet) internal {\n        RuleMapping[ruleKey] = ruleSet;\n    }\n\n    function _validateRuleCreation(string memory ruleKey, RuleSet memory rule)\n        internal\n    {\n        bool ruleExist = RuleMapping[ruleKey].exists;\n        require(ruleExist == false, \"Rule configuration has already been set\");\n\n        if (rule.ruleDefinition == RuleDefinition.RANGE) {\n            require(\n                rule.exact == 0,\n                \"Rule definition for range requires that exact field is 0\"\n            );\n        } else if (rule.ruleDefinition == RuleDefinition.VALUE) {\n            require(\n                rule.minimum == 0 && rule.maximum == 0,\n                \"Rule definition for value requires that minimum and maximum field is 0\"\n            );\n        }\n    }\n\n    modifier onlyRuleCreatorOrOwner(string memory ruleKey) {\n        RuleSet memory ruleSet = _getRule(ruleKey);\n        address ruleCreator = RuleModifier[ruleKey];\n\n        require(\n            msg.sender == ruleCreator || msg.sender == owner,\n            \"cannot modify rule, permission denied\"\n        );\n        _;\n    }\n}\n",
  "sourcePath": "/Users/njokuscript/Desktop/programming/esusu/contracts/SavingsConfig.sol",
  "compiler": {
    "name": "solc",
    "version": "0.6.6+commit.6c089d02.Emscripten.clang"
  },
  "schemaVersion": "3.2.5",
  "updatedAt": "2020-10-22T08:44:22.112Z",
  "networkType": "ethereum",
  "devdoc": {
    "methods": {}
  },
  "userdoc": {
    "methods": {}
  }
}