{
  "contractName": "Treasury",
  "abi": [
    {
      "anonymous": false,
      "inputs": [
        {
          "indexed": true,
          "internalType": "address",
          "name": "depositorAddress",
          "type": "address"
        },
        {
          "indexed": false,
          "internalType": "uint256",
          "name": "amount",
          "type": "uint256"
        }
      ],
      "name": "EtherDepositEvent",
      "type": "event"
    },
    {
      "anonymous": false,
      "inputs": [
        {
          "indexed": true,
          "internalType": "address",
          "name": "depositorAddress",
          "type": "address"
        },
        {
          "indexed": true,
          "internalType": "address",
          "name": "tokenContractAddress",
          "type": "address"
        },
        {
          "indexed": false,
          "internalType": "uint256",
          "name": "amount",
          "type": "uint256"
        }
      ],
      "name": "TokenDepositEvent",
      "type": "event"
    },
    {
      "inputs": [],
      "name": "owner",
      "outputs": [
        {
          "internalType": "address payable",
          "name": "",
          "type": "address"
        }
      ],
      "stateMutability": "view",
      "type": "function"
    },
    {
      "inputs": [
        {
          "internalType": "address payable",
          "name": "newOwner",
          "type": "address"
        }
      ],
      "name": "transferOwnership",
      "outputs": [],
      "stateMutability": "nonpayable",
      "type": "function"
    },
    {
      "stateMutability": "payable",
      "type": "receive"
    },
    {
      "inputs": [
        {
          "internalType": "address",
          "name": "token",
          "type": "address"
        }
      ],
      "name": "depositToken",
      "outputs": [],
      "stateMutability": "payable",
      "type": "function"
    },
    {
      "inputs": [],
      "name": "getEtherBalance",
      "outputs": [
        {
          "internalType": "uint256",
          "name": "",
          "type": "uint256"
        }
      ],
      "stateMutability": "view",
      "type": "function"
    },
    {
      "inputs": [
        {
          "internalType": "address",
          "name": "token",
          "type": "address"
        }
      ],
      "name": "getTokenBalance",
      "outputs": [
        {
          "internalType": "uint256",
          "name": "",
          "type": "uint256"
        }
      ],
      "stateMutability": "view",
      "type": "function"
    },
    {
      "inputs": [
        {
          "internalType": "uint256",
          "name": "amount",
          "type": "uint256"
        }
      ],
      "name": "withdrawEthers",
      "outputs": [],
      "stateMutability": "nonpayable",
      "type": "function"
    },
    {
      "inputs": [
        {
          "internalType": "address",
          "name": "tokenAddress",
          "type": "address"
        },
        {
          "internalType": "uint256",
          "name": "amount",
          "type": "uint256"
        }
      ],
      "name": "withdrawTokens",
      "outputs": [],
      "stateMutability": "nonpayable",
      "type": "function"
    }
  ],
  "bytecode": "0x6080604052336000806101000a81548173ffffffffffffffffffffffffffffffffffffffff021916908373ffffffffffffffffffffffffffffffffffffffff160217905550610fae806100536000396000f3fe608060405260043610610091576000357c0100000000000000000000000000000000000000000000000000000000900480638da5cb5b1161006b5780638da5cb5b14610249578063ea46193e146102a0578063f2fde38b146102cb578063f42067061461031c57610140565b806306b091f9146101455780632fd55265146101a05780633aecd0e3146101e457610140565b366101405760003414156100f0576040517f08c379a0000000000000000000000000000000000000000000000000000000008152600401808060200182810382526028815260200180610f2c6028913960400191505060405180910390fd5b3373ffffffffffffffffffffffffffffffffffffffff167f30e14d5113d9ab3a10a50ea98540f5dfcec5d41711ad872e83890631823dfe17346040518082815260200191505060405180910390a2005b600080fd5b34801561015157600080fd5b5061019e6004803603604081101561016857600080fd5b81019080803573ffffffffffffffffffffffffffffffffffffffff16906020019092919080359060200190929190505050610357565b005b6101e2600480360360208110156101b657600080fd5b81019080803573ffffffffffffffffffffffffffffffffffffffff16906020019092919050505061062e565b005b3480156101f057600080fd5b506102336004803603602081101561020757600080fd5b81019080803573ffffffffffffffffffffffffffffffffffffffff169060200190929190505050610aa0565b6040518082815260200191505060405180910390f35b34801561025557600080fd5b5061025e610c8e565b604051808273ffffffffffffffffffffffffffffffffffffffff1673ffffffffffffffffffffffffffffffffffffffff16815260200191505060405180910390f35b3480156102ac57600080fd5b506102b5610cb3565b6040518082815260200191505060405180910390f35b3480156102d757600080fd5b5061031a600480360360208110156102ee57600080fd5b81019080803573ffffffffffffffffffffffffffffffffffffffff169060200190929190505050610cd2565b005b34801561032857600080fd5b506103556004803603602081101561033f57600080fd5b8101908080359060200190929190505050610e0c565b005b600082905060008173ffffffffffffffffffffffffffffffffffffffff166370a08231306040518263ffffffff167c0100000000000000000000000000000000000000000000000000000000028152600401808273ffffffffffffffffffffffffffffffffffffffff1673ffffffffffffffffffffffffffffffffffffffff16815260200191505060206040518083038186803b1580156103f757600080fd5b505afa15801561040b573d6000803e3d6000fd5b505050506040513d602081101561042157600080fd5b81019080805190602001909291905050509050828110156104aa576040517f08c379a000000000000000000000000000000000000000000000000000000000815260040180806020018281038252601a8152602001807f496e73756666696369656e7420746f6b656e2062616c616e636500000000000081525060200191505060405180910390fd5b60008273ffffffffffffffffffffffffffffffffffffffff1663a9059cbb6000809054906101000a900473ffffffffffffffffffffffffffffffffffffffff16866040518363ffffffff167c0100000000000000000000000000000000000000000000000000000000028152600401808373ffffffffffffffffffffffffffffffffffffffff1673ffffffffffffffffffffffffffffffffffffffff16815260200182815260200192505050602060405180830381600087803b15801561057057600080fd5b505af1158015610584573d6000803e3d6000fd5b505050506040513d602081101561059a57600080fd5b810190808051906020019092919050505090506001151581151514610627576040517f08c379a00000000000000000000000000000000000000000000000000000000081526004018080602001828103825260178152602001807f4661696c656420746f6b656e207769746864726177616c00000000000000000081525060200191505060405180910390fd5b5050505050565b600073ffffffffffffffffffffffffffffffffffffffff168173ffffffffffffffffffffffffffffffffffffffff1614156106b4576040517f08c379a0000000000000000000000000000000000000000000000000000000008152600401808060200182810382526025815260200180610f546025913960400191505060405180910390fd5b600073ffffffffffffffffffffffffffffffffffffffff168173ffffffffffffffffffffffffffffffffffffffff16141561073a576040517f08c379a0000000000000000000000000000000000000000000000000000000008152600401808060200182810382526021815260200180610f0b6021913960400191505060405180910390fd5b600081905060008173ffffffffffffffffffffffffffffffffffffffff1663dd62ed3e33306040518363ffffffff167c0100000000000000000000000000000000000000000000000000000000028152600401808373ffffffffffffffffffffffffffffffffffffffff1673ffffffffffffffffffffffffffffffffffffffff1681526020018273ffffffffffffffffffffffffffffffffffffffff1673ffffffffffffffffffffffffffffffffffffffff1681526020019250505060206040518083038186803b15801561080e57600080fd5b505afa158015610822573d6000803e3d6000fd5b505050506040513d602081101561083857600080fd5b8101908080519060200190929190505050905060008114156108a5576040517f08c379a0000000000000000000000000000000000000000000000000000000008152600401808060200182810382526028815260200180610f2c6028913960400191505060405180910390fd5b60008273ffffffffffffffffffffffffffffffffffffffff166323b872dd3330856040518463ffffffff167c0100000000000000000000000000000000000000000000000000000000028152600401808473ffffffffffffffffffffffffffffffffffffffff1673ffffffffffffffffffffffffffffffffffffffff1681526020018373ffffffffffffffffffffffffffffffffffffffff1673ffffffffffffffffffffffffffffffffffffffff1681526020018281526020019350505050602060405180830381600087803b15801561097e57600080fd5b505af1158015610992573d6000803e3d6000fd5b505050506040513d60208110156109a857600080fd5b810190808051906020019092919050505090506001151581151514610a35576040517f08c379a000000000000000000000000000000000000000000000000000000000815260040180806020018281038252601c8152602001807f4661696c656420746f6b656e206465706f73697420617474656d70740000000081525060200191505060405180910390fd5b8373ffffffffffffffffffffffffffffffffffffffff163373ffffffffffffffffffffffffffffffffffffffff167fcd380d2a56d9af6a0f073364fb8db33de43698899cb08d5283da5258ee550cab846040518082815260200191505060405180910390a350505050565b60008073ffffffffffffffffffffffffffffffffffffffff168273ffffffffffffffffffffffffffffffffffffffff161415610b27576040517f08c379a0000000000000000000000000000000000000000000000000000000008152600401808060200182810382526025815260200180610f546025913960400191505060405180910390fd5b600073ffffffffffffffffffffffffffffffffffffffff168273ffffffffffffffffffffffffffffffffffffffff161415610bad576040517f08c379a0000000000000000000000000000000000000000000000000000000008152600401808060200182810382526021815260200180610f0b6021913960400191505060405180910390fd5b60008290508073ffffffffffffffffffffffffffffffffffffffff166370a08231306040518263ffffffff167c0100000000000000000000000000000000000000000000000000000000028152600401808273ffffffffffffffffffffffffffffffffffffffff1673ffffffffffffffffffffffffffffffffffffffff16815260200191505060206040518083038186803b158015610c4b57600080fd5b505afa158015610c5f573d6000803e3d6000fd5b505050506040513d6020811015610c7557600080fd5b8101908080519060200190929190505050915050919050565b6000809054906101000a900473ffffffffffffffffffffffffffffffffffffffff1681565b60003073ffffffffffffffffffffffffffffffffffffffff1631905090565b6000809054906101000a900473ffffffffffffffffffffffffffffffffffffffff1673ffffffffffffffffffffffffffffffffffffffff163373ffffffffffffffffffffffffffffffffffffffff1614610d94576040517f08c379a000000000000000000000000000000000000000000000000000000000815260040180806020018281038252601f8152602001807f556e617574686f72697a65642061636365737320746f20636f6e74726163740081525060200191505060405180910390fd5b600073ffffffffffffffffffffffffffffffffffffffff168173ffffffffffffffffffffffffffffffffffffffff1614610e0957806000806101000a81548173ffffffffffffffffffffffffffffffffffffffff021916908373ffffffffffffffffffffffffffffffffffffffff1602179055505b50565b60003073ffffffffffffffffffffffffffffffffffffffff1631905081811015610e9e576040517f08c379a000000000000000000000000000000000000000000000000000000000815260040180806020018281038252601a8152602001807f496e73756666696369656e742065746865722062616c616e636500000000000081525060200191505060405180910390fd5b6000809054906101000a900473ffffffffffffffffffffffffffffffffffffffff1673ffffffffffffffffffffffffffffffffffffffff166108fc839081150290604051600060405180830381858888f19350505050158015610f05573d6000803e3d6000fd5b50505056fe746b656e20636f6e747261637420616464726573732063616e6e6f74206265203043616e6e6f74206465706f736974206e6f7468696e6720696e746f20746865207472656173757279746f6b656e20636f6e747261637420616464726573732063616e6e6f74206265206e756c6ca2646970667358221220831e5619c57a0c65d5505561872245ab93f05c3a7e056073d888cd890fa1fe0864736f6c63430006060033",
  "immutableReferences": {},
  "source": "pragma solidity ^0.6.6;\nimport \"./SafeMath.sol\";\nimport \"./YearnSavings/Ownable.sol\";\nimport \"./IERC20.sol\";\n\ncontract Treasury is OwnableYearn {\n    using SafeMath for uint256;\n\n    event TokenDepositEvent(\n        address indexed depositorAddress,\n        address indexed tokenContractAddress,\n        uint256 amount\n    );\n    event EtherDepositEvent(address indexed depositorAddress, uint256 amount);\n\n    enum DeositType {ETHER, TOKEN}\n\n    receive() external payable {\n        require(msg.value != 0, \"Cannot deposit nothing into the treasury\");\n        emit EtherDepositEvent(msg.sender, msg.value);\n    }\n\n    function depositToken(address token) public payable {\n        require(token != address(0x0), \"token contract address cannot be null\");\n\n        require(\n            address(token) != address(0),\n            \"tken contract address cannot be 0\"\n        );\n\n        IERC20 tokenContract = IERC20(token);\n        uint256 amountToDeposit = tokenContract.allowance(\n            msg.sender,\n            address(this)\n        );\n\n        require(\n            amountToDeposit != 0,\n            \"Cannot deposit nothing into the treasury\"\n        );\n\n        bool isSuccessful = tokenContract.transferFrom(\n            msg.sender,\n            address(this),\n            amountToDeposit\n        );\n        require(isSuccessful == true, \"Failed token deposit attempt\");\n        emit TokenDepositEvent(msg.sender, token, amountToDeposit);\n    }\n\n    function getEtherBalance() public view returns (uint256) {\n        return address(this).balance;\n    }\n\n    function getTokenBalance(address token) public view returns (uint256) {\n        require(token != address(0x0), \"token contract address cannot be null\");\n\n        require(\n            address(token) != address(0),\n            \"tken contract address cannot be 0\"\n        );\n\n        IERC20 tokenContract = IERC20(token);\n        return tokenContract.balanceOf(address(this));\n    }\n\n    function withdrawEthers(uint256 amount) external {\n        uint256 etherBalance = address(this).balance;\n        require(etherBalance >= amount, \"Insufficient ether balance\");\n        owner.transfer(amount);\n    }\n\n    function withdrawTokens(address tokenAddress, uint256 amount) external {\n        IERC20 tokenContract = IERC20(tokenAddress);\n        uint256 tokenBalance = tokenContract.balanceOf(address(this));\n        require(tokenBalance >= amount, \"Insufficient token balance\");\n        bool isSuccessful = tokenContract.transfer(owner, amount);\n        require(isSuccessful == true, \"Failed token withdrawal\");\n    }\n}\n",
  "sourcePath": "/Users/njokuscript/Desktop/programming/esusu/contracts/Treasury.sol",
  "compiler": {
    "name": "solc",
    "version": "0.6.6+commit.6c089d02.Emscripten.clang"
  },
  "schemaVersion": "3.2.5",
  "updatedAt": "2020-10-22T08:22:11.397Z",
  "devdoc": {
    "methods": {}
  },
  "userdoc": {
    "methods": {}
  }
}