{
  "contractName": "Treasury",
  "abi": [
    {
      "anonymous": false,
      "inputs": [
        {
          "indexed": true,
          "internalType": "address",
          "name": "depositorAddress",
          "type": "address"
        },
        {
          "indexed": false,
          "internalType": "uint256",
          "name": "amount",
          "type": "uint256"
        }
      ],
      "name": "EtherDepositEvent",
      "type": "event"
    },
    {
      "anonymous": false,
      "inputs": [
        {
          "indexed": true,
          "internalType": "address",
          "name": "depositorAddress",
          "type": "address"
        },
        {
          "indexed": true,
          "internalType": "address",
          "name": "tokenContractAddress",
          "type": "address"
        },
        {
          "indexed": false,
          "internalType": "uint256",
          "name": "amount",
          "type": "uint256"
        }
      ],
      "name": "TokenDepositEvent",
      "type": "event"
    },
    {
      "inputs": [],
      "name": "owner",
      "outputs": [
        {
          "internalType": "address payable",
          "name": "",
          "type": "address"
        }
      ],
      "stateMutability": "view",
      "type": "function",
      "constant": true
    },
    {
      "inputs": [
        {
          "internalType": "address payable",
          "name": "newOwner",
          "type": "address"
        }
      ],
      "name": "transferOwnership",
      "outputs": [],
      "stateMutability": "nonpayable",
      "type": "function"
    },
    {
      "stateMutability": "payable",
      "type": "receive",
      "payable": true
    },
    {
      "inputs": [
        {
          "internalType": "address",
          "name": "token",
          "type": "address"
        }
      ],
      "name": "depositToken",
      "outputs": [],
      "stateMutability": "payable",
      "type": "function",
      "payable": true
    },
    {
      "inputs": [],
      "name": "getEtherBalance",
      "outputs": [
        {
          "internalType": "uint256",
          "name": "",
          "type": "uint256"
        }
      ],
      "stateMutability": "view",
      "type": "function",
      "constant": true
    },
    {
      "inputs": [
        {
          "internalType": "address",
          "name": "token",
          "type": "address"
        }
      ],
      "name": "getTokenBalance",
      "outputs": [
        {
          "internalType": "uint256",
          "name": "",
          "type": "uint256"
        }
      ],
      "stateMutability": "view",
      "type": "function",
      "constant": true
    },
    {
      "inputs": [
        {
          "internalType": "uint256",
          "name": "amount",
          "type": "uint256"
        }
      ],
      "name": "withdrawEthers",
      "outputs": [],
      "stateMutability": "nonpayable",
      "type": "function"
    },
    {
      "inputs": [
        {
          "internalType": "address",
          "name": "tokenAddress",
          "type": "address"
        },
        {
          "internalType": "uint256",
          "name": "amount",
          "type": "uint256"
        }
      ],
      "name": "withdrawTokens",
      "outputs": [],
      "stateMutability": "nonpayable",
      "type": "function"
    }
  ],
  "bytecode": "0x608060405260008054600160a060020a031916331790556109fd806100256000396000f3fe608060405260043610610091576000357c0100000000000000000000000000000000000000000000000000000000900480638da5cb5b1161006b5780638da5cb5b146101b8578063ea46193e146101e9578063f2fde38b146101fe578063f4206706146102315761010d565b806306b091f9146101125780632fd552651461014d5780633aecd0e3146101735761010d565b3661010d57346100d55760405160e560020a62461bcd02815260040180806020018281038252602881526020018061097b6028913960400191505060405180910390fd5b60408051348152905133917f30e14d5113d9ab3a10a50ea98540f5dfcec5d41711ad872e83890631823dfe17919081900360200190a2005b600080fd5b34801561011e57600080fd5b5061014b6004803603604081101561013557600080fd5b50600160a060020a03813516906020013561025b565b005b61014b6004803603602081101561016357600080fd5b5035600160a060020a0316610443565b34801561017f57600080fd5b506101a66004803603602081101561019657600080fd5b5035600160a060020a03166106e9565b60408051918252519081900360200190f35b3480156101c457600080fd5b506101cd610810565b60408051600160a060020a039092168252519081900360200190f35b3480156101f557600080fd5b506101a661081f565b34801561020a57600080fd5b5061014b6004803603602081101561022157600080fd5b5035600160a060020a0316610824565b34801561023d57600080fd5b5061014b6004803603602081101561025457600080fd5b50356108c1565b604080517f70a0823100000000000000000000000000000000000000000000000000000000815230600482015290518391600091600160a060020a038416916370a08231916024808301926020929190829003018186803b1580156102bf57600080fd5b505afa1580156102d3573d6000803e3d6000fd5b505050506040513d60208110156102e957600080fd5b5051905082811015610345576040805160e560020a62461bcd02815260206004820152601a60248201527f496e73756666696369656e7420746f6b656e2062616c616e6365000000000000604482015290519081900360640190fd5b60008054604080517fa9059cbb000000000000000000000000000000000000000000000000000000008152600160a060020a0392831660048201526024810187905290519185169163a9059cbb9160448082019260209290919082900301818787803b1580156103b457600080fd5b505af11580156103c8573d6000803e3d6000fd5b505050506040513d60208110156103de57600080fd5b5051905060018115151461043c576040805160e560020a62461bcd02815260206004820152601760248201527f4661696c656420746f6b656e207769746864726177616c000000000000000000604482015290519081900360640190fd5b5050505050565b600160a060020a03811661048b5760405160e560020a62461bcd0281526004018080602001828103825260258152602001806109a36025913960400191505060405180910390fd5b600160a060020a0381166104d35760405160e560020a62461bcd02815260040180806020018281038252602181526020018061095a6021913960400191505060405180910390fd5b604080517fdd62ed3e00000000000000000000000000000000000000000000000000000000815233600482015230602482015290518291600091600160a060020a0384169163dd62ed3e916044808301926020929190829003018186803b15801561053d57600080fd5b505afa158015610551573d6000803e3d6000fd5b505050506040513d602081101561056757600080fd5b50519050806105aa5760405160e560020a62461bcd02815260040180806020018281038252602881526020018061097b6028913960400191505060405180910390fd5b604080517f23b872dd000000000000000000000000000000000000000000000000000000008152336004820152306024820152604481018390529051600091600160a060020a038516916323b872dd9160648082019260209290919082900301818787803b15801561061b57600080fd5b505af115801561062f573d6000803e3d6000fd5b505050506040513d602081101561064557600080fd5b505190506001811515146106a3576040805160e560020a62461bcd02815260206004820152601c60248201527f4661696c656420746f6b656e206465706f73697420617474656d707400000000604482015290519081900360640190fd5b604080518381529051600160a060020a0386169133917fcd380d2a56d9af6a0f073364fb8db33de43698899cb08d5283da5258ee550cab9181900360200190a350505050565b6000600160a060020a0382166107335760405160e560020a62461bcd0281526004018080602001828103825260258152602001806109a36025913960400191505060405180910390fd5b600160a060020a03821661077b5760405160e560020a62461bcd02815260040180806020018281038252602181526020018061095a6021913960400191505060405180910390fd5b604080517f70a0823100000000000000000000000000000000000000000000000000000000815230600482015290518391600160a060020a038316916370a0823191602480820192602092909190829003018186803b1580156107dd57600080fd5b505afa1580156107f1573d6000803e3d6000fd5b505050506040513d602081101561080757600080fd5b50519392505050565b600054600160a060020a031681565b303190565b600054600160a060020a03163314610886576040805160e560020a62461bcd02815260206004820152601f60248201527f556e617574686f72697a65642061636365737320746f20636f6e747261637400604482015290519081900360640190fd5b600160a060020a038116156108be576000805473ffffffffffffffffffffffffffffffffffffffff1916600160a060020a0383161790555b50565b30318181101561091b576040805160e560020a62461bcd02815260206004820152601a60248201527f496e73756666696369656e742065746865722062616c616e6365000000000000604482015290519081900360640190fd5b60008054604051600160a060020a039091169184156108fc02918591818181858888f19350505050158015610954573d6000803e3d6000fd5b50505056fe746b656e20636f6e747261637420616464726573732063616e6e6f74206265203043616e6e6f74206465706f736974206e6f7468696e6720696e746f20746865207472656173757279746f6b656e20636f6e747261637420616464726573732063616e6e6f74206265206e756c6ca26469706673582212203b43efe28cc16122b301f2b06d756dd0ef1a97290fc5a93c8af5b53ce7d9800664736f6c63430006060033",
  "immutableReferences": {},
  "source": "pragma solidity ^0.6.6;\nimport \"./SafeMath.sol\";\nimport \"./YearnSavings/Ownable.sol\";\nimport \"./IERC20.sol\";\n\ncontract Treasury is OwnableYearn {\n    using SafeMath for uint256;\n\n    event TokenDepositEvent(\n        address indexed depositorAddress,\n        address indexed tokenContractAddress,\n        uint256 amount\n    );\n    event EtherDepositEvent(address indexed depositorAddress, uint256 amount);\n\n    enum DeositType {ETHER, TOKEN}\n\n    receive() external payable {\n        require(msg.value != 0, \"Cannot deposit nothing into the treasury\");\n        emit EtherDepositEvent(msg.sender, msg.value);\n    }\n\n    function depositToken(address token) public payable {\n        require(token != address(0x0), \"token contract address cannot be null\");\n\n        require(\n            address(token) != address(0),\n            \"tken contract address cannot be 0\"\n        );\n\n        IERC20 tokenContract = IERC20(token);\n        uint256 amountToDeposit = tokenContract.allowance(\n            msg.sender,\n            address(this)\n        );\n\n        require(\n            amountToDeposit != 0,\n            \"Cannot deposit nothing into the treasury\"\n        );\n\n        bool isSuccessful = tokenContract.transferFrom(\n            msg.sender,\n            address(this),\n            amountToDeposit\n        );\n        require(isSuccessful == true, \"Failed token deposit attempt\");\n        emit TokenDepositEvent(msg.sender, token, amountToDeposit);\n    }\n\n    function getEtherBalance() public view returns (uint256) {\n        return address(this).balance;\n    }\n\n    function getTokenBalance(address token) public view returns (uint256) {\n        require(token != address(0x0), \"token contract address cannot be null\");\n\n        require(\n            address(token) != address(0),\n            \"tken contract address cannot be 0\"\n        );\n\n        IERC20 tokenContract = IERC20(token);\n        return tokenContract.balanceOf(address(this));\n    }\n\n    function withdrawEthers(uint256 amount) external {\n        uint256 etherBalance = address(this).balance;\n        require(etherBalance >= amount, \"Insufficient ether balance\");\n        owner.transfer(amount);\n    }\n\n    function withdrawTokens(address tokenAddress, uint256 amount) external {\n        IERC20 tokenContract = IERC20(tokenAddress);\n        uint256 tokenBalance = tokenContract.balanceOf(address(this));\n        require(tokenBalance >= amount, \"Insufficient token balance\");\n        bool isSuccessful = tokenContract.transfer(owner, amount);\n        require(isSuccessful == true, \"Failed token withdrawal\");\n    }\n}\n",
  "sourcePath": "/Users/njokuscript/Desktop/programming/esusu/contracts/Treasury.sol",
  "compiler": {
    "name": "solc",
    "version": "0.6.6+commit.6c089d02.Emscripten.clang"
  },
  "schemaVersion": "3.2.5",
  "updatedAt": "2020-10-22T09:30:30.572Z",
  "networkType": "ethereum",
  "devdoc": {
    "methods": {}
  },
  "userdoc": {
    "methods": {}
  }
}