{
  "contractName": "XendTokenMinters",
  "abi": [
    {
      "inputs": [
        {
          "internalType": "address",
          "name": "",
          "type": "address"
        }
      ],
      "name": "minters",
      "outputs": [
        {
          "internalType": "bool",
          "name": "",
          "type": "bool"
        }
      ],
      "stateMutability": "view",
      "type": "function"
    },
    {
      "inputs": [],
      "name": "owner",
      "outputs": [
        {
          "internalType": "address payable",
          "name": "",
          "type": "address"
        }
      ],
      "stateMutability": "view",
      "type": "function"
    },
    {
      "inputs": [
        {
          "internalType": "address payable",
          "name": "newOwner",
          "type": "address"
        }
      ],
      "name": "transferOwnership",
      "outputs": [],
      "stateMutability": "nonpayable",
      "type": "function"
    },
    {
      "inputs": [
        {
          "internalType": "address",
          "name": "minter",
          "type": "address"
        }
      ],
      "name": "grantAccess",
      "outputs": [],
      "stateMutability": "nonpayable",
      "type": "function"
    },
    {
      "inputs": [
        {
          "internalType": "address",
          "name": "minter",
          "type": "address"
        }
      ],
      "name": "revokeAccess",
      "outputs": [],
      "stateMutability": "nonpayable",
      "type": "function"
    }
  ],
  "bytecode": "0x608060405260008054600160a060020a03191633179055610455806100256000396000f3fe608060405234801561001057600080fd5b5060043610610073577c010000000000000000000000000000000000000000000000000000000060003504630ae5e739811461007857806385e68531146100a05780638da5cb5b146100c6578063f2fde38b146100ea578063f46eccc414610110575b600080fd5b61009e6004803603602081101561008e57600080fd5b5035600160a060020a031661014a565b005b61009e600480360360208110156100b657600080fd5b5035600160a060020a0316610230565b6100ce610316565b60408051600160a060020a039092168252519081900360200190f35b61009e6004803603602081101561010057600080fd5b5035600160a060020a0316610325565b6101366004803603602081101561012657600080fd5b5035600160a060020a03166103c2565b604080519115158252519081900360200190f35b600054600160a060020a031633146101ac576040805160e560020a62461bcd02815260206004820152601f60248201527f556e617574686f72697a65642061636365737320746f20636f6e747261637400604482015290519081900360640190fd5b600160a060020a03811660009081526001602052604090205460ff1680156102085760405160e560020a62461bcd0281526004018080602001828103825260268152602001806103fa6026913960400191505060405180910390fd5b50600160a060020a03166000908152600160208190526040909120805460ff19169091179055565b600054600160a060020a03163314610292576040805160e560020a62461bcd02815260206004820152601f60248201527f556e617574686f72697a65642061636365737320746f20636f6e747261637400604482015290519081900360640190fd5b600160a060020a03811660009081526001602081905260409091205460ff1690811515146102f45760405160e560020a62461bcd0281526004018080602001828103825260228152602001806103d86022913960400191505060405180910390fd5b50600160a060020a03166000908152600160205260409020805460ff19169055565b600054600160a060020a031681565b600054600160a060020a03163314610387576040805160e560020a62461bcd02815260206004820152601f60248201527f556e617574686f72697a65642061636365737320746f20636f6e747261637400604482015290519081900360640190fd5b600160a060020a038116156103bf576000805473ffffffffffffffffffffffffffffffffffffffff1916600160a060020a0383161790555b50565b60016020526000908152604090205460ff168156fe6d696e74657220686173206e6f74206265656e206772616e746564206163636573736d696e7465722068617320616c7265616479206265656e206772616e74656420616363657373a264697066735822122011a12dd33e5e6ea680396f4a453841c1690b7b844e4bb237951c5a6de041940064736f6c63430006060033",
  "immutableReferences": {},
  "source": "pragma solidity ^0.6.4;\nimport \"./Ownable.sol\";\n\ncontract XendTokenMinters is Ownable {\n    mapping(address => bool) public minters;\n\n    modifier onlyMinter() {\n        bool hasAccess = minters[msg.sender];\n        require(\n            hasAccess == true,\n            \"mint access has not been granted to this account\"\n        );\n        _;\n    }\n\n    function grantAccess(address minter) public onlyOwner {\n        bool hasAccess = minters[minter];\n\n        require(hasAccess == false, \"minter has already been granted access\");\n        minters[minter] = true;\n    }\n\n    function revokeAccess(address minter) public onlyOwner {\n        bool hasAccess = minters[minter];\n\n        require(hasAccess == true, \"minter has not been granted access\");\n        minters[minter] = false;\n    }\n}\n",
  "sourcePath": "/Users/njokuscript/Desktop/programming/esusu/contracts/XendToken/XendTokenMinters.sol",
  "compiler": {
    "name": "solc",
    "version": "0.6.6+commit.6c089d02.Emscripten.clang"
  },
  "schemaVersion": "3.2.5",
  "updatedAt": "2020-11-09T12:08:15.703Z",
  "devdoc": {
    "methods": {}
  },
  "userdoc": {
    "methods": {}
  }
}