{
  "contractName": "XendTokenMinters",
  "abi": [
    {
      "inputs": [
        {
          "internalType": "address",
          "name": "",
          "type": "address"
        }
      ],
      "name": "minters",
      "outputs": [
        {
          "internalType": "bool",
          "name": "",
          "type": "bool"
        }
      ],
      "stateMutability": "view",
      "type": "function"
    },
    {
      "inputs": [],
      "name": "owner",
      "outputs": [
        {
          "internalType": "address payable",
          "name": "",
          "type": "address"
        }
      ],
      "stateMutability": "view",
      "type": "function"
    },
    {
      "inputs": [
        {
          "internalType": "address payable",
          "name": "newOwner",
          "type": "address"
        }
      ],
      "name": "transferOwnership",
      "outputs": [],
      "stateMutability": "nonpayable",
      "type": "function"
    },
    {
      "inputs": [
        {
          "internalType": "address",
          "name": "minter",
          "type": "address"
        }
      ],
      "name": "grantAccess",
      "outputs": [],
      "stateMutability": "nonpayable",
      "type": "function"
    },
    {
      "inputs": [
        {
          "internalType": "address",
          "name": "minter",
          "type": "address"
        }
      ],
      "name": "revokeAccess",
      "outputs": [],
      "stateMutability": "nonpayable",
      "type": "function"
    }
  ],
  "bytecode": "0x6080604052336000806101000a81548173ffffffffffffffffffffffffffffffffffffffff021916908373ffffffffffffffffffffffffffffffffffffffff16021790555061077f806100536000396000f3fe608060405234801561001057600080fd5b5060043610610074576000357c0100000000000000000000000000000000000000000000000000000000900480630ae5e7391461007957806385e68531146100bd5780638da5cb5b14610101578063f2fde38b1461014b578063f46eccc41461018f575b600080fd5b6100bb6004803603602081101561008f57600080fd5b81019080803573ffffffffffffffffffffffffffffffffffffffff1690602001909291905050506101eb565b005b6100ff600480360360208110156100d357600080fd5b81019080803573ffffffffffffffffffffffffffffffffffffffff1690602001909291905050506103b6565b005b610109610582565b604051808273ffffffffffffffffffffffffffffffffffffffff1673ffffffffffffffffffffffffffffffffffffffff16815260200191505060405180910390f35b61018d6004803603602081101561016157600080fd5b81019080803573ffffffffffffffffffffffffffffffffffffffff1690602001909291905050506105a7565b005b6101d1600480360360208110156101a557600080fd5b81019080803573ffffffffffffffffffffffffffffffffffffffff1690602001909291905050506106e1565b604051808215151515815260200191505060405180910390f35b6000809054906101000a900473ffffffffffffffffffffffffffffffffffffffff1673ffffffffffffffffffffffffffffffffffffffff163373ffffffffffffffffffffffffffffffffffffffff16146102ad576040517f08c379a000000000000000000000000000000000000000000000000000000000815260040180806020018281038252601f8152602001807f556e617574686f72697a65642061636365737320746f20636f6e74726163740081525060200191505060405180910390fd5b6000600160008373ffffffffffffffffffffffffffffffffffffffff1673ffffffffffffffffffffffffffffffffffffffff16815260200190815260200160002060009054906101000a900460ff169050600015158115151461035b576040517f08c379a00000000000000000000000000000000000000000000000000000000081526004018080602001828103825260268152602001806107246026913960400191505060405180910390fd5b60018060008473ffffffffffffffffffffffffffffffffffffffff1673ffffffffffffffffffffffffffffffffffffffff16815260200190815260200160002060006101000a81548160ff0219169083151502179055505050565b6000809054906101000a900473ffffffffffffffffffffffffffffffffffffffff1673ffffffffffffffffffffffffffffffffffffffff163373ffffffffffffffffffffffffffffffffffffffff1614610478576040517f08c379a000000000000000000000000000000000000000000000000000000000815260040180806020018281038252601f8152602001807f556e617574686f72697a65642061636365737320746f20636f6e74726163740081525060200191505060405180910390fd5b6000600160008373ffffffffffffffffffffffffffffffffffffffff1673ffffffffffffffffffffffffffffffffffffffff16815260200190815260200160002060009054906101000a900460ff1690506001151581151514610526576040517f08c379a00000000000000000000000000000000000000000000000000000000081526004018080602001828103825260228152602001806107026022913960400191505060405180910390fd5b6000600160008473ffffffffffffffffffffffffffffffffffffffff1673ffffffffffffffffffffffffffffffffffffffff16815260200190815260200160002060006101000a81548160ff0219169083151502179055505050565b6000809054906101000a900473ffffffffffffffffffffffffffffffffffffffff1681565b6000809054906101000a900473ffffffffffffffffffffffffffffffffffffffff1673ffffffffffffffffffffffffffffffffffffffff163373ffffffffffffffffffffffffffffffffffffffff1614610669576040517f08c379a000000000000000000000000000000000000000000000000000000000815260040180806020018281038252601f8152602001807f556e617574686f72697a65642061636365737320746f20636f6e74726163740081525060200191505060405180910390fd5b600073ffffffffffffffffffffffffffffffffffffffff168173ffffffffffffffffffffffffffffffffffffffff16146106de57806000806101000a81548173ffffffffffffffffffffffffffffffffffffffff021916908373ffffffffffffffffffffffffffffffffffffffff1602179055505b50565b60016020528060005260406000206000915054906101000a900460ff168156fe6d696e74657220686173206e6f74206265656e206772616e746564206163636573736d696e7465722068617320616c7265616479206265656e206772616e74656420616363657373a2646970667358221220f4dadfb3b287c257e8f4aa8f2213cf91a76d1aad0a0765672d5bd473c2868b2364736f6c63430006060033",
  "immutableReferences": {},
  "source": "pragma solidity ^0.6.4;\nimport \"./Ownable.sol\";\n\ncontract XendTokenMinters is Ownable {\n    mapping(address => bool) public minters;\n\n    modifier onlyMinter() {\n        bool hasAccess = minters[msg.sender];\n        require(\n            hasAccess == true,\n            \"mint access has not been granted to this account\"\n        );\n        _;\n    }\n\n    function grantAccess(address minter) public onlyOwner {\n        bool hasAccess = minters[minter];\n\n        require(hasAccess == false, \"minter has already been granted access\");\n        minters[minter] = true;\n    }\n\n    function revokeAccess(address minter) public onlyOwner {\n        bool hasAccess = minters[minter];\n\n        require(hasAccess == true, \"minter has not been granted access\");\n        minters[minter] = false;\n    }\n}\n",
  "sourcePath": "/Users/njokuscript/Desktop/programming/esusu/contracts/XendToken/XendTokenMinters.sol",
  "compiler": {
    "name": "solc",
    "version": "0.6.6+commit.6c089d02.Emscripten.clang"
  },
  "schemaVersion": "3.2.5",
  "updatedAt": "2020-10-22T09:18:35.771Z",
  "devdoc": {
    "methods": {}
  },
  "userdoc": {
    "methods": {}
  }
}